:1000000075C00000A4C00000A2C00000A0C0000095
:100010009EC000009CC000009AC0000098C0000074
:1000200096C0000094C0000092C0000090C0000084
:100030008EC000008CC000008AC0000088C0000094
:1000400086C0000084C0000082C0000080C00000A4
:100050007EC000007CC000007AC000000C94E42840
:1000600076C000000C94212B0C94572B70C000001C
:100070006EC000006CC000006AC0000068C00000D4
:1000800066C0000064C0000062C0000060C00000E4
:100090000C94AD2B0C94E32B5AC0000058C0000008
:1000A00056C0000054C0000052C0000050C0000004
:1000B0004EC000004CC000004AC0000048C0000014
:1000C00046C0000044C000000C9438250C94392C24
:1000D0000C946F2C3CC000000C94C52C0C94FB2C91
:1000E00036C00000802B0C2C982C242D11241FBE10
:1000F000CFEFD1E2DEBFCDBF00E00CBF12E0A0E049
:10010000B2E0E0E8F1E600E00BBF02C007900D921C
:10011000A63FB107D9F728E0A6EFB2E001C01D92D3
:10012000AC33B207E1F710E0C6E7D0E000E006C06C
:1001300021970109802FFE010E941830C237D10794
:1001400080E00807A9F70E9452260C94BE3058CFD1
:10015000AB01BC0183E695E00C94AA2FAB01BC0176
:1001600080E096E00C94AA2FAB01BC018DE996E0EB
:100170000C94AA2FAB01BC018AE397E00C94AA2F40
:100180008F929F92AF92BF92CF92DF92EF92FF92A7
:100190000F931F93CF93DF93CDB7DEB77B014A0157
:1001A0005901CDB6DEB69B01220F331F4DB75EB7A6
:1001B000421B530B0FB6F8945EBF0FBE4DBF0DB779
:1001C0001EB70F5F1F4FE82FF0E0EE0FFF1FE85F35
:1001D000FD4F0190F081E02DC8011995F801D4017F
:1001E000E00EF11EEE15FF0519F081918D93FACF07
:1001F00081E0F50180830FB6F894DEBE0FBECDBE60
:10020000DF91CF911F910F91FF90EF90DF90CF90F2
:10021000BF90AF909F908F9008959F92AF92BF92A2
:10022000CF92DF92EF92FF920F931F93CF93DF93C2
:10023000CDB7DEB7C054D1090FB6F894DEBF0FBEFC
:10024000CDBFB82E8B01942EA52E6901E82EF12C7E
:10025000EE0CFF1CF701E050FE4F0190F081E02D05
:10026000199580179107C9F49601492D5A2DBC01A3
:100270008B2D86DFC05CDF4F0FB6F894DEBF0FBE5C
:10028000CDBFDF91CF911F910F91FF90EF90DF9045
:10029000CF90BF90AF909F9008958017910748F43A
:1002A000E92DFA2D0E0F1F1FE017F10719F111921A
:1002B000FBCF9801220F331F2817390728F096012A
:1002C000492D5A2DB801D4CFB8010E94E22FCB019D
:1002D0000197809FB001819F700D909F700D112438
:1002E000F701E85FFD4F0190F081E02DCE0101960E
:1002F0001995E5CFF6011082BDCF83E695E00C9409
:10030000F72980E096E00C94F7298DE996E00C94AB
:10031000F7298AE397E00C94F7298823E1F08230EB
:1003200061F0833089F08130B1F440E855E260E05B
:1003300070E081E090E00C941B2540E855E260E01D
:1003400070E082E090E0F7CF40E855E260E070E0D6
:1003500083E090E0F0CF08954F925F926F927F928A
:100360008F929F92AF92BF92CF92EF92FF920F9394
:100370001F93CF93DF93CDB7DEB72B013A01F02E59
:10038000B40130E02830310511F424E030E00AE017
:1003900010E0CC2061F091E000E110E0C91639F0E6
:1003A000E2E008E010E0CE1611F002E010E081304B
:1003B00009F4E8C0B0F0823009F4C5C1833009F413
:1003C000A3C2DF91CF911F910F91FF90EF90CF903B
:1003D000BF90AF909F908F907F906F905F904F9065
:1003E0000895F1101BC0269DA001279D500D369D3C
:1003F000500D1124B20183E695E0DF91CF911F915A
:100400000F91FF90EF90CF90BF90AF909F908F9003
:100410007F906F905F904F900C94512D83E695E004
:100420000E948D2DE11014C0640C751C64147504B9
:1004300041F2F20161912F01F1E0A80183E695E01C
:10044000FF1203C00E945F2EF1CF0E94652EEECFF7
:1004500081E0E81215C091E0691A710808F4B1CF83
:10046000F201619171912F01F1E0A80183E695E01D
:10047000FF1203C00E94752EEECF0E947A2EEBCFA2
:1004800082E0E81217C091E0691A710808F499CF68
:10049000F20141915191619171912F01F1E0980127
:1004A00083E695E0FF1203C00E94532EECCF0E941A
:1004B0008A2EE9CF83E0E81218C0640C751C64141E
:1004C000750409F47ECFF20161912F01062E000C14
:1004D000770BF1E0A80183E695E0FF1203C00E94CC
:1004E0002D2EEDCF0E94332EEACF84E0E81215C006
:1004F00091E0691A710808F464CFF2016191719179
:100500002F01F1E0A80183E695E0FF1203C00E94ED
:100510002D2EEECF0E94332EEBCF85E0E81217C0D0
:1005200091E0691A710808F44CCFF20141915191A0
:10053000619171912F01F1E0980183E695E0FF123E
:1005400003C00E94E82DECCF0E94432EE9CF86E045
:10055000E81237CFB12C91E0691A710808F431CF55
:10056000F20141915191619171912F01F1E0950159
:1005700083E695E0FF1203C00E946D2FECCF0E942E
:100580006E2FE9CFF1100BC0269DA001279D500DC5
:10059000369D500D1124B20180E096E02ECF80E010
:1005A00096E00E948D2DE11015C0640C751C461458
:1005B000570409F406CFF20161912F01F1E0A8017F
:1005C00080E096E0FF1203C00E945F2EF0CF0E94F1
:1005D000652EEDCF81E0E81215C091E0691A71082F
:1005E00008F4EFCEF201619171912F01F1E0A801C1
:1005F00080E096E0FF1203C00E94752EEECF0E94AD
:100600007A2EEBCF82E0E81217C091E0691A7108E8
:1006100008F4D7CEF20141915191619171912F016E
:10062000F1E0980180E096E0FF1203C00E94532E93
:10063000ECCF0E948A2EE9CF83E0E81218C0640C48
:10064000751C6414750409F4BCCEF20161912F018C
:10065000062E000C770BF1E0A80180E096E0FF1277
:1006600003C00E942D2EEDCF0E94332EEACF84E0EE
:10067000E81215C091E0691A710808F4A2CEF201DF
:10068000619171912F01F1E0A80180E096E0FF12E5
:1006900003C00E942D2EEECF0E94332EEBCF85E0BB
:1006A000E81217C091E0691A710808F48ACEF201C5
:1006B00041915191619171912F01F1E0980180E098
:1006C00096E0FF1203C00E94E82DECCF0E94432E5B
:1006D000E9CF86E0E81275CEB12C91E0691A710875
:1006E00008F46FCEF20141915191619171912F0106
:1006F000F1E0FF1214C0C11006C0950180E096E041
:100700000E946D2FEACFCB01BA010E944727AB01AF
:10071000BC01980180E096E00E94E82DDECFC11078
:1007200006C0950180E096E00E946E2FD6CFCB01E7
:10073000BA010E944727AB01BC01980180E096E016
:100740000E94432ECACFF1100BC0269DA001279D09
:10075000500D369D500D1124B2018DE996E04DCE1D
:100760008DE996E00E948D2DE11015C0640C751C7A
:100770004614570409F425CEF20161912F01F1E0EE
:10078000A8018DE996E0FF1203C00E945F2EF0CF12
:100790000E94652EEDCF81E0E81215C091E0691A44
:1007A000710808F40ECEF201619171912F01F1E010
:1007B000A8018DE996E0FF1203C00E94752EEECFCE
:1007C0000E947A2EEBCF82E0E81217C091E0691AFE
:1007D000710808F4F6CDF201419151916191719146
:1007E0002F01F1E098018DE996E0FF1203C00E940D
:1007F000532EECCF0E948A2EE9CF83E0E81218C076
:10080000640C751C6414750409F4DBCDF20161916C
:100810002F01062E000C770BF1E0A8018DE996E080
:10082000FF1203C00E942D2EEDCF0E94332EEACF7F
:1008300084E0E81215C091E0691A710808F4C1CD8E
:10084000F201619171912F01F1E0A8018DE996E02B
:10085000FF1203C00E942D2EEECF0E94332EEBCF4D
:1008600085E0E81217C091E0691A710808F4A9CD73
:10087000F20141915191619171912F01F1E0980143
:100880008DE996E0FF1203C00E94E82DECCF0E9494
:10089000432EE9CF86E0E81294CDB12C91E0691A9D
:1008A000710808F48ECDF2014191519161917191DD
:1008B0002F01F1E0FF1214C0C11006C095018DE9AF
:1008C00096E00E946D2FEACFCB01BA010E94472724
:1008D000AB01BC0198018DE996E00E94E82DDECFC6
:1008E000C11006C095018DE996E00E946E2FD6CF0B
:1008F000CB01BA010E944727AB01BC0198018DE9E9
:1009000096E00E94432ECACFF1100BC0269DA00195
:10091000279D500D369D500D1124B2018AE397E0BA
:100920006CCD8AE397E00E948D2DE11015C0640C18
:10093000751C6414750409F444CDF20161912F0112
:10094000F1E0A8018AE397E0FF1203C00E945F2E46
:10095000F0CF0E94652EEDCF81E0E81215C091E046
:10096000691A710808F42DCDF201619171912F017E
:10097000F1E0A8018AE397E0FF1203C00E94752E00
:10098000EECF0E947A2EEBCF82E0E81217C091E002
:10099000691A710808F415CDF201419151916191E4
:1009A00071912F01F1E098018AE397E0FF1203C0F3
:1009B0000E94532EECCF0E948A2EE9CF83E0E812EA
:1009C00018C0640C751C6414750409F4FACCF201A7
:1009D00061912F01062E000C770BF1E0A8018AE34C
:1009E00097E0FF1203C00E942D2EEDCF0E94332E00
:1009F000EACF84E0E81215C091E0691A710808F4A2
:100A0000E0CCF201619171912F01F1E0A8018AE33C
:100A100097E0FF1203C00E942D2EEECF0E94332ECE
:100A2000EBCF85E0E81217C091E0691A710808F46D
:100A3000C8CCF20141915191619171912F01F1E086
:100A400098018AE397E0FF1203C00E94E82DECCFE3
:100A50000E94432EE9CF86E0E812B3CCB12C91E09E
:100A6000691A710808F4ADCCF2014191519161917C
:100A700071912F01F1E0FF1214C0C11006C0950161
:100A80008AE397E00E946D2FEACFCB01BA010E9462
:100A90004727AB01BC0198018AE397E00E94E82D4B
:100AA000DECFC11006C095018AE397E00E946E2F49
:100AB000D6CFCB01BA010E944727AB01BC019801F8
:100AC0008AE397E00E94432ECACF90E080E0089529
:100AD0000F931F93009709F483C06115710509F402
:100AE0007FC00091240210912502209126023091AE
:100AF00027020E3F1F4F2F4F3F4F09F062C04FEFAD
:100B00005FEFBA01409324025093250260932602BE
:100B10007093270240912402509125026091260291
:100B200070912702DC011296ED91FC9180819181F8
:100B3000A281B38180935E0390935F03A0936003CF
:100B4000B093610384819581A681B78180935A0314
:100B500090935B03A0935C03B0935D0380859185C4
:100B6000A285B3858093560390935703A0935803AF
:100B7000B093590384859585A685B78580935203E4
:100B800090935303A0935403B093550310924E03D4
:100B900010924F031092500310925103E7D58BED42
:100BA0009BE09093F7028093F602DFD4009731F434
:100BB00021E030E030936303209362031F910F9193
:100BC000089500912402109125022091260230916F
:100BD0002702DB010D931D932D933C9313979ACF1E
:100BE0008FEF9FEFEBCF8F929F92AF92BF92CF92FA
:100BF000DF92EF92FF921F93CF93DF934B015C0143
:100C00001091650382E090E0909363038093620308
:100C100081149104A104B10441F480916503811110
:100C200004C080916403C1E08111C0E0C12CD12CCB
:100C3000760180916503811106C080916403811162
:100C400002C0CC23D9F083E090E0909363038093BB
:100C50006203CC2379F1CCE9DFEF111102C00E94CD
:100C60003F0FCE01DF91CF911F91FF90EF90DF906A
:100C7000CF90BF90AF909F908F9008956AE070E002
:100C800080E090E00E945F2980E1C80E87E2D81ED4
:100C9000E11CF11C8FEF88169806A806B80631F003
:100CA000C1E08C149D04AE04BF0408F0C0E080E0F5
:100CB00088D4BFCFD0E0C0E0D0CFCF92DF92EF9208
:100CC000FF921F93CF93DF938F3F910511F008F0B0
:100CD00041C020916203309163032330310539F024
:100CE00020916203309163032130310531F424E017
:100CF00030E030936303209362036A017B01EC01CF
:100D0000892BA9F011E0AE01C701B6012DD4AB01CA
:100D1000BC0190E080E01123F9F0CE01DF91CF918A
:100D20001F91FF90EF90DF90CF900C945411809121
:100D3000F6029091F702892B29F30E945B1102972A
:100D400009F7E091F602F091F70290E080E0199542
:100D5000182FD9CF8FEF9FEFDF91CF911F91FF9089
:100D6000EF90DF90CF90089580E02BC4CF93DF9376
:100D700086E090E090936303809362037BD4EC0160
:100D80001092F7021092F6020E94D70E109263039F
:100D900010926203CE01DF91CF9108958091640398
:100DA000089580914D030895609324027093250265
:100DB000809326029093270290E080E00895CF92DE
:100DC000DF92EF92FF926B017C019F7720E030E091
:100DD00040E859E50E94432787FF2BC020E030E020
:100DE00040E05FE3C701B6010E947D2887FD0EC089
:100DF00020E030E040E05FE3C701B6010E94CC266E
:100E0000FF90EF90DF90CF900C94B52720E030E07A
:100E100040E05FEBC701B6010E947D28181684F4FC
:100E200020E030E0A901C701B6010E9481286B01D2
:100E30007C01C701B601FF90EF90DF90CF9008953D
:100E400020E030E040E05FE3C701B6010E94CB261E
:100E5000FF90EF90DF90CF900C9430274F925F92ED
:100E60006F927F928F929F92AF92BF92CF92DF92BA
:100E7000EF92FF920F93CF93DF93CDB7DEB76997D1
:100E80000FB6F894DEBF0FBECDBFC0901402D09055
:100E90001502E0901602F0901702A70196016091EA
:100EA0000A0870910B0880910C0890910D080E941F
:100EB0004327882341F0C0920A08D0920B08E092A1
:100EC0000C08F0920D088091180290911902A091DF
:100ED0001A02B0911B028E879F87A88BB98B8091D5
:100EE0001C0290911D02A0911E02B0911F028A8BDC
:100EF0009B8BAC8BBD8B8091200290912102A091A5
:100F00002202B09123028E8B9F8BA88FB98FA2E40F
:100F1000B2E0FE0131964F018D91819382E0AF34B2
:100F2000B807D1F760911E0870911F0880912008C2
:100F3000909121080E944C27C62E6091160870914E
:100F4000170880911808909119080E944C27E62EE6
:100F500060911A0870911B0880911C0890911D08DF
:100F60000E944C27062F60911208709113088091FF
:100F70001408909115080E944C27F62E60910E08D7
:100F800070910F0880911008909111080E944C27D1
:100F9000862F95E0A92E2F2D43E050E0BE01625F21
:100FA0007F4FDAD9C0901002D0901102E090120267
:100FB000F0901302A701960160912A0870912B0806
:100FC00080912C0890912D080E944327882341F09E
:100FD000C0922A08D0922B08E0922C08F0922D089B
:100FE00060912E0870912F0823EE37E047ED57E00F
:100FF00081E013D9C0902403D0902503E09026030C
:10100000F09027038FEFC81AD80AE80AF80AC092AE
:101010002403D0922503E0922603F0922703C11403
:10102000D104E104F10499F48091280390912903FB
:10103000A0912A03B0912B030196A11DB11D8093AD
:10104000280390932903A0932A03B0932B03809045
:101050002C0390902D03A0902E03B0902F0360914D
:1010600028037091290380912A0390912B030E94F9
:101070007827A50194010E94812820E030E040E813
:101080005FE40E9481282B013C01C701B6010E9448
:101090007827A50194010E9481289B01AC01C3011E
:1010A000B2010E94CC2660932003709321038093A9
:1010B00022039093230369960FB6F894DEBF0FBE08
:1010C000CDBFDF91CF910F91FF90EF90DF90CF9048
:1010D000BF90AF909F908F907F906F905F904F9058
:1010E0000895CF92DF92EF92FF92CF93EAE0F3E080
:1010F0008BE2DF011D928A95E9F780E090E0A0E89D
:10110000BFEB8093300390933103A0933203B093ED
:1011100033038DEC9CECACECBDE380932C039093FB
:101120002D03A0932E03B0932F038EED93E2ACEF2B
:10113000B1E980930E0390930F03A0931003B09333
:10114000110389EC99E2A1EAB4E980931203909328
:101150001303A0931403B09315038DE397E0AEEA55
:10116000B4E08093160390931703A0931803B093F1
:10117000190387E496E8AFEAB7E980931A039093DE
:101180001B03A0931C03B0931D038EEF92E090937A
:101190000D0380930C0388EF92E09093FF028093FD
:1011A000FE0281E492E09093F9028093F80290931A
:1011B000FB028093FA029093FD028093FC028EE181
:1011C00093E090930303809302038EE093E0909367
:1011D00001038093000380E293E0909305038093E2
:1011E0000403E7EDF7E08DE0DF011D928A95E9F752
:1011F000E4EEF7E086E5DF011D928A95E9F781E0EC
:10120000809338088091140290911502A0911602E3
:10121000B091170280930A0890930B08A0930C08D2
:10122000B0930D0881E090E0A0E0B0E08093E50786
:101230009093E607A093E707B093E80780E090E07B
:10124000A0E8BFE380930E0890930F08A0931008C6
:10125000B093110880E090E0A0E0B1E48093120820
:1012600090931308A0931408B093150880E090E0C1
:10127000A0ECB0E48093160890931708A093180888
:10128000B093190860E070E080E89FE398DD6B019F
:101290007C0120E030E040E853E40E94432787FFD0
:1012A00049C020E030E0A901C701B6010E947D28B5
:1012B00087FD42C0C701B6010E944C27862F2DD85A
:1012C000C1E0C093E90710922408C09339088091C7
:1012D000100290911102A0911202B091130280931A
:1012E0002A0890932B08A0932C08B0932D0881E036
:1012F00090E0A0E0B0E08093250890932608A093AA
:101300002708B093280884E090E0909331088093F8
:1013100030088CE090E090932F0880932E0881E0B5
:101320000E948D01C0932908CF91FF90EF90DF902C
:10133000CF9008958FEFC3CF80E0C1CF8091E407B5
:10134000811103C081E08093E4078091240881111A
:1013500003C081E08093240808954F925F926F92BA
:101360007F928F929F92AF92BF92CF92DF92EF9235
:10137000FF920F931F93F8944090410350904203C3
:101380006090430370904403C0903503D0903603BF
:10139000E0903703F0903803452B09F0A6C09B017D
:1013A000AC01241935094609570929013A01009170
:1013B0003D0310913E0320913F03309140034801CB
:1013C0005901840C951CA61CB71C80169106A20618
:1013D000B306A0F40091390310913A0320913B0326
:1013E00030913C030F5F1F4F2F4F3F4F0093390346
:1013F00010933A0320933B0330933C0380923D03C8
:1014000090923E03A0923F03B092400300913903B3
:1014100010913A0320913B0330913C0380924503A5
:1014200090924603A0924703B09248030093490369
:1014300010934A0320934B0330934C036093410372
:10144000709342038093430390934403A30192015A
:1014500060EA76E881E090E00E94D32F6C0D7D1D5C
:101460008E1D9F1D60933503709336038093370361
:1014700090933803009124021091250220912602B6
:10148000309127020F3F1F4F2F4F3F4FF1F0009138
:1014900024021091250220912602309127020E3F4E
:1014A0001F4F2F4F3F4F89F0C0902402D09025024C
:1014B000E0902602F090270221E08C149D04AE04F7
:1014C000BF0408F420E020934D0378941F910F91FE
:1014D000FF90EF90DF90CF90BF90AF909F908F9054
:1014E0007F906F905F904F9008954B015C0184183E
:1014F0009508A608B708A3019201261B370B480BD5
:10150000590B6415750586059705E0F0821693065C
:10151000A406B50640F420E030E0A901811491044E
:10152000A104B104A1F460EA76E881E090E00E94B1
:10153000D32FA7019601261B370B480B590BCA0165
:10154000B901C3CF82169306A406B50660F7A501BC
:10155000940160EA76E881E090E00E94D32F6C0D60
:101560007D1D8E1D9F1DB1CFF8CECF93DF9300D090
:101570001F92CDB7DEB71C821B821A821982BE0170
:101580006F5F7F4FCE0103960E94072569817A81A4
:101590008B819C810E943C1E009761F4BE016F5FAD
:1015A0007F4FCE0103960E94132569817A818B813A
:1015B0009C8126D50F900F900F900F90DF91CF91C7
:1015C0000895FF920F931F93CF93DF93082F60E04E
:1015D00070E0CB010E945F29FF24F3940E94251D37
:1015E000EC01892B89F010E0CE3F8FEFD80769F02E
:1015F000002361F160E070E0CB010E945F2981E08F
:1016000090E0892B59F322C011E01DD5EC01892B04
:1016100021F0CE3F8FEFD80759F711111EC011E00E
:10162000229609F410E00E94D51CEC01892B21F0D0
:10163000CE3F8FEFD807E1F6111111C011E0CE3F78
:101640008FEFD80709F410E001110BC0CE01DF9134
:10165000CF911F910F91FF90089511E0E4CF11E019
:10166000F3CF60E070E0CB010E945F291F25812F3E
:1016700090E0C7CFCF93DF931ED6D0E0C0E0892B98
:1016800071F06AE070E080E090E00E945F2981E004
:1016900098DF11D62196C03D27E0D20781F710D6FA
:1016A0000E94901E109265031092640310925E03D4
:1016B00010925F03109260031092610310925A031C
:1016C00010925B0310925C0310925D03109256031C
:1016D000109257031092580310925903109252031C
:1016E00010925303109254031092550310924E031C
:1016F00010924F0310925003109251034EEF5FEF80
:101700006FEF7FEF409324025093250260932602EF
:101710007093270210924D03E5E4F3E028E0DF0127
:101720001D922A95E9F710924103109242031092FC
:1017300043031092440310923D0310923E03109213
:101740003F03109240031092390310923A03109213
:101750003B0310923C031092350310923603109213
:10176000370310923803DF91CF91089510927103DF
:10177000109272031092730310927403109270030C
:101780008091790390917A0390936F0380936E0315
:1017900010926D0310926C0310926803109269030B
:1017A00010926A0310926B031092760310927503E5
:1017B00090E080E00895CF92DF92EF92FF920F9336
:1017C0001F93CF938C01892B09F055C02091790389
:1017D00030917A0380916E0390916F034091790369
:1017E00050917A0350936F0340936E032817390783
:1017F00081F010926D0310926C03109268031092A6
:10180000690310926A0310926B0310927603109290
:1018100075038091790390917A03019761F5809126
:10182000750390917603892B21F480912802811110
:1018300012C080917503909176030197E1F4809135
:10184000680390916903A0916A03B0916B030197BB
:10185000A105B10581F410926803109269031092FA
:101860006A0310926B031092280282E090E090933A
:101870007603809375038091790390917A030197A1
:1018800009F01CC180918F039091900380179107FC
:1018900009F014C180918B0390918C03A0918D036A
:1018A000B0918E03009709F409C120918A03211198
:1018B0000DC040918B0350918C0360918D0370910A
:1018C0008E03452B462B472B09F4F8C02091750356
:1018D000309176032230310509F0F0C020916C037D
:1018E0002111ECC0FC01C080D180E280F3808091A6
:1018F0007003882309F4D3C080917C0390917D0309
:10190000892B09F4FDC020917C0330917D0381E097
:101910002230310509F080E020917C0330917D0375
:10192000C1E02130310549F020917C0330917D03E5
:10193000C1E02230310509F0C0E0882309F456C027
:101940002091860330918703409188035091890349
:10195000C701B6010E947D2887FD14C0209186032F
:1019600030918703409188035091890360917103FE
:101970007091720380917303909174030E944327C6
:1019800087FD22C020918603309187034091880310
:1019900050918903C701B6010E947D28181634F5BD
:1019A00020918603309187034091880350918903E9
:1019B000609171037091720380917303909174032D
:1019C0000E944327811112C080917E0390917F0372
:1019D000A0918003B0918103892B8A2B8B2B19F462
:1019E00081E080936D0381E080936C03CC2309F444
:1019F00056C020918603309187034091880350910F
:101A00008903C701B6010E94432787FF14C02091B4
:101A10008603309187034091880350918903609138
:101A200071037091720380917303909174030E940B
:101A30007D2887FF22C02091860330918703409143
:101A4000880350918903C701B6010E944327811181
:101A500026C02091860330918703409188035091DE
:101A60008903609171037091720380917303909167
:101A700074030E947D28181694F480917E0390913F
:101A80007F03A0918003B0918103892B8A2B8B2B3C
:101A900019F481E080936D0381E080936C0381E011
:101AA00090916C03911180E080937003C092710358
:101AB000D0927203E0927303F0927403012B09F049
:101AC00067C18091750390917603892BD9F41092A8
:101AD0007B0310926C0380912802882379F082E0C6
:101AE00090E09093760380937503109228022091E2
:101AF000790330917A0381E0232BE9F080E01BC069
:101B000081E00ACF1092280280917B03882349F05C
:101B100010926D03109276031092750310927B035E
:101B2000EDCF8091790390917A03892BE1F0809138
:101B30006C0310926C032091750330917603223070
:101B4000310509F45EC088F42115310509F448C057
:101B50002130310509F4F3C010926D0310926C032B
:101B600010927B0338C081E0E6CF2330310509F4C1
:101B7000B1C02430310581F7409168035091690369
:101B800060916A0370916B03411551056105710500
:101B900061F0415051096109710940936803509304
:101BA000690360936A0370936B03409168035091DB
:101BB000690360916A0370916B03452B462B472B99
:101BC000D9F420917703309178032130310509F061
:101BD00046C010926D0310927603109275030CC0EC
:101BE00080912802882341F082E090E09093760370
:101BF00080937503109228021092660380916D0302
:101C0000CEC08823C9F380917E0390917F03A09179
:101C10008003B0918103181619061A061B060CF0F2
:101C20007DC08091790390917A03019709F076C085
:101C300080917E0390917F03A0918003B0918103F6
:101C40008093680390936903A0936A03B0936B0336
:101C500083E090E09093760380937503CDCF40911D
:101C60008203509183036091840370918503452B17
:101C7000462B472BA9F010926D038091820390911F
:101C80008303A0918403B0918503809368039093AC
:101C90006903A0936A03B0936B0381E090E0DACF0D
:101CA000882399F08091290290912A02A0912B0219
:101CB000B0912C028093680390936903A0936A0308
:101CC000B0936B0384E090E0C5CF10926D0382E087
:101CD00090E0C0CF8091680390916903A0916A035E
:101CE000B0916B030097A105B10559F00197A109C7
:101CF000B1098093680390936903A0936A03B0933A
:101D00006B038091680390916903A0916A03B0917D
:101D10006B03892B8A2B8B2B09F06ECF80912902C4
:101D200090912A02A0912B02B0912C02892B8A2B30
:101D30008B2B09F44ECF81E080936D03B3CF40919C
:101D400068035091690360916A0370916B034115B8
:101D500051056105710561F0415051096109710931
:101D6000409368035093690360936A0370936B0315
:101D7000409168035091690360916A0370916B030D
:101D8000452B462B472B09F037CF8111C7CF9FCF6B
:101D900080916603882309F431CF80916703CF9146
:101DA0001F910F91FF90EF90DF90CF9008951092C8
:101DB00071031092720310927303109274031092C5
:101DC0007003109276031092750310926F031092B5
:101DD0006E031092900310928F0310926D03109275
:101DE0006C03109268031092690310926A031092B8
:101DF0006B03109267031092660310928B0310928C
:101E00008C0310928D0310928E0310928A0310920D
:101E1000860310928703109288031092890388EE3C
:101E200093E0A0E0B0E08093290290932A02A0936F
:101E30002B02B0932C021092820310928303109213
:101E400084031092850310927E0310927F031092F8
:101E500080031092810310927D0310927C0381E035
:101E60008093280210927B0310927A0310927903D8
:101E7000109278031092770390E080E008958091AB
:101E8000790390917A03892B19F580912802882390
:101E900051F080917B03811106C081E0809367033C
:101EA00080936603089520917B033091280281E09E
:101EB00090E0332311F090E080E030E08223932320
:101EC000892B21F01092670381E0EACF109266031C
:101ED000089582E090E0FA01918380838FEF9FEF75
:101EE0000895CF93DF93EA01009711F00E94A71F96
:101EF0001982188290E080E0DF91CF910895DB0194
:101F0000009719F48FEF8C9308952EEF2C93FC011A
:101F10003F96EF30F10508F034C08827ED56F04FBA
:101F20008F4F0C941830BF0FBD0FBB0FB90FB70FF9
:101F3000B30FB50FB10FAF0FAD0FAA0FA60FA20FC2
:101F4000A80FC10F80E311968C93089589E2FBCF0F
:101F500082E2F9CF11961C92089583E2F4CF81E2D8
:101F6000F2CF81E1F0CF87E2EECF8AE2ECCF80E1E1
:101F7000EACF84E2E8CF88E2E6CF86E2E4CF81E3ED
:101F8000E2CF80E2E0CF80919D0390919E0308957F
:101F900090939E0380939D03089580919C030895E0
:101FA00090919C03892B80939C030895982F909582
:101FB00080919C03892380939C03089580919B03C7
:101FC00008958091990390919A0308956115710580
:101FD00059F0FB0130E020E070E060E024173507A5
:101FE00019F06115710511F0CB010895A081B1813F
:101FF000A817B90709F4BF012F5F3F4F3696EECF00
:1020000080919F0381111CC041D247D290939203CB
:10201000809391030E9418190E942A1990939603A5
:10202000809395030E943D1C0E94441C909394034E
:102030008093930381E080939F0390E080E0089574
:1020400084EF9FEF08958F929F92AF92BF92CF92AD
:10205000DF92EF92FF920F931F93CF93DF9300D005
:1020600000D000D01F92CDB7DEB71A861986188629
:102070001F821E821D821C821B821A8219828091FD
:102080009F0307EF1FEF882309F48BC08E010D5FBC
:102090001F4F9E012B5F3F4FAE01495F5F4FBE0157
:1020A000675F7F4F90E080E00E94C11D8C01009728
:1020B00021F00596029708F0C7C089859A85009798
:1020C00009F4EFC0ED80FE802B813C812E0D3F1D79
:1020D0004F8158854217530708F4E3C0E80EF91EF4
:1020E000D7014C9120919D0330919E03232B09F43D
:1020F00094C0413F08F069C08CE1840F8D3008F432
:1021000083C08DE2840F803108F481C088E3840F9E
:102110008B3008F47FC09FE7C92E9FE0D92EE9E6F7
:10212000FFE06D817E81AE014F5F5F4F89859A85AB
:1021300019955C01C114D104A1F189809A808114A0
:10214000910479F18B819C818815990508F484C0EC
:1021500010E000E04B815C8170E060E0C7010E940C
:10216000B73001151105E9F449815A8169857A85ED
:102170008D819E81680F791FC501F6011995E9804F
:10218000FA800D811E812F81388549855A856FEF30
:102190007FEF81E090E00E945C1D8C01892B09F0AB
:1021A00053C0C8012A960FB6F894DEBF0FBECDBF4C
:1021B000DF91CF911F910F91FF90EF90DF90CF9023
:1021C000BF90AF909F908F90089530E020E0220F55
:1021D000331FF901EF56FC4F0190F081E02D30974D
:1021E00009F499CF842F90E01995009709F493CFC3
:1021F000DC011296ED91FC9113971496CD90DC9032
:10220000309709F08ECF1EC021E030E0E0CF22E011
:1022100030E0DDCF23E030E0DACFD12CC12CE1E794
:10222000FFE04F3F09F07DCFE0919103F0919203E1
:10223000309719F404EF1FEF0CC08FEF90E0199561
:102240000097B1F604EF1FEF89859A85009709F48E
:10225000A8CF0E94A71FA5CF0E948B1E8C01898545
:102260009A850E94A71F70E060E0C4010E94241EAE
:1022700098878F830E94591D9E838D836F817885F7
:102280006115710559F0C8010E943D219A8789871F
:1022900006EF1FEF892B09F05BCF5CCF08EF1FEF34
:1022A00059CF08EF1FEFD0CF20919F032111D7C73F
:1022B00087EF9FEF089580919D0390919E0308956D
:1022C0000E94491C0E94A31BEDD0E1E9F3E088E0E5
:1022D000DF011D928A95E9F710929F0390E080E05C
:1022E000089586E090E0FA019183808390E080E099
:1022F000089547E050E061E572E068CEDF92EF922A
:10230000FF920F931F93CF93DF938A01EC01C60FC7
:10231000D71FE090A303F090A403D9800E94731EFE
:10232000D816190678F082E090E0F8019183808356
:102330008EEF9FEFDF91CF911F910F91FF90EF9064
:10234000DF900895EF2841F482E090E0F801918356
:10235000808384EF9FEFEECF89818093A20390E08A
:102360000196F8019183808390E080E0E3CFCF93E2
:10237000DF93EA010E94B71A882321F00E94801E91
:102380000E94B81A82E090E0998388838BEF9FEFD8
:10239000DF91CF910895CF93DF93EB0186E0FB01AE
:1023A00011928A95E9F78FEF8883F7DD898306DE3E
:1023B0008A8307DE9D838C83DF91CF910895CF932D
:1023C000DF93EA010E94BA1A811109C082E090E00D
:1023D0009983888385EF9FEFDF91CF91089590E0F7
:1023E00080E0D6DD81E090E09983888390E080E012
:1023F000F3CF0F931F93CF93DF93EA018C01060F66
:10240000171F0E94BA1A81110BC082E090E09983D5
:10241000888385EF9FEFDF91CF911F910F910895F2
:10242000F8018181823038F082E090E099838883DE
:102430008EEF9FEFF0CF81E090E0AADD88E090E0A2
:102440009983888390E080E0E6CFCF93DF93009775
:10245000D1F4EB01FB01329686E0DF011D928A95F3
:10246000E9F78FEF888385E089831A820E94731EC3
:102470008B830E94721E9D838C8381E08E838F8369
:10248000DF91CF910895DF91CF9139CD89E791E127
:102490009093A1038093A00308958091A00390914D
:1024A000A10308951092A1031092A00308958091B2
:1024B000A3039091A4030895411105C0611571050E
:1024C0008105910561F06093A3037093A403809349
:1024D000A5039093A6034093A70381E0089580E0AD
:1024E0000895FF920F931F93CF93DF938A01EC011E
:1024F000C60FD71FF9800E94731EF816190668F0E0
:1025000082E090E0F801918380838EEF9FEFDF916E
:10251000CF911F910F91FF9008956C817D818E81E5
:102520009F814B81C9DF811108C082E090E0F801F2
:102530009183808384EF9FEFEACF89818093A20308
:1025400090E00196F8019183808390E080E0DFCFF6
:10255000CF93DF93EA01FC01E60FF71F64817581D9
:10256000868197814381A8DF811109C082E090E0D4
:102570009983888384EF9FEFDF91CF91089581E065
:1025800090E09983888390E080E0F6CFE3EAF3E07F
:102590004081518162817381480F511D611D711D00
:1025A00040835183628373830895CF93C091A203C4
:1025B0004C2F50E06091A3037091A40301960E94F8
:1025C000AE308C2FE3DF1092A203CF9108950097D5
:1025D00099F48091A3039091A4032FEFFB01208332
:1025E000892B59F02091A20330E02F5F3F4F241731
:1025F000350719F4CB01D9CF82CC0895009799F40F
:102600008091A3039091A4032FEFFB012083892BDA
:1026100059F02091A20330E02F5F3F4F2417350778
:1026200019F4CB01C2CF6BCC08952DE0AC01249FEF
:10263000C001259F900D1124E091AC03F091AD03F2
:10264000E80FF91F238134812250310981E02230C3
:10265000310508F080E008950F931F93CF93DF9327
:102660000091AE031091AF03D0E0C0E080E00C1702
:102670001D0749F491E0811190E0892FDF91CF91FE
:102680001F910F9108958111F5CFCE01CEDF2196D4
:10269000EECFA091AC03B091AD03109729F120913A
:1026A000AE033091AF0382179307F0F45DE0589FBB
:1026B0009001599F300D1124A20FB31FED91FC9191
:1026C0001197309789F012968C91681768F485E01D
:1026D000689FE00DF11D112480819181892B21F0EB
:1026E00081E09281491708F080E00895EF92FF920F
:1026F0000F931F93CF93DF93EA01FC01E60FF71FBF
:1027000002811381E480F5804F2D6E2DC801C1DF59
:1027100081110DC082E090E0998388838EEF9FEF56
:10272000DF91CF911F910F91FF90EF900895C80115
:102730007CDF882339F082E090E09983888388EFFA
:102740009FEFEECF1093340200933302E0923502F4
:10275000F092360281E090E09983888390E080E0F7
:10276000DFCFCF92DF92EF92FF920F931F93CF9321
:10277000DF937A01EC01C60FD71FC0903302D090CF
:1027800034020091350210913602412F602FC601AC
:1027900080DF811110C082E090E0F7019183808397
:1027A0008AEF9FEFDF91CF911F910F91FF90EF90F4
:1027B000DF90CF900895C60138DF882341F082E092
:1027C00090E0F7019183808388EF9FEFEBCF4C81FE
:1027D0005D816E817F819A8189818F3F41F082E0A6
:1027E00090E0F701918380838EEF9FEFDBCFEDE0E8
:1027F000EC9D9001ED9D300D1124E091AC03F09122
:10280000AD03E20FF31F0190F081E02D25E0029F60
:10281000E00DF11D11240190F081E02D27E0129FC1
:10282000E00DF11D1124808391838B81828343838A
:102830005483658376831F5F1093360281E090E0B6
:10284000F7019183808390E080E0ACCFEF92FF921C
:102850000F931F93CF93DF937A018C01060F171FFD
:10286000C091AC03D091AD03209781F021E030E01E
:10287000F801828193814091AE035091AF03841798
:10288000950710F030E020E0232B71F482E090E017
:10289000F701918380838EEF9FEFDF91CF911F919E
:1028A0000F91FF90EF9008954DE0489F9001499F50
:1028B000300D1124C20FD31FB8DE882341F082E00F
:1028C00090E0F7019183808388EF9FEFE6CFF801D6
:1028D0002481358120383105C8F687818111D6CF12
:1028E0004181842F90E08F7E009741F082E090E05C
:1028F000F7019183808386EF9FEFCFCF4F833E8395
:102900002D83268128871986223010F421E028871C
:1029100021E030E0F70131832083BFCF88E090E0F1
:10292000FA019183808390E080E00895FB018FEFAE
:10293000808381E181838FEF9FEF9383828380E89F
:1029400090E095838483168217820895FB018FEFB0
:10295000808391E0918382839383848384E385835E
:1029600081E090E09783868308954BE050E06BE729
:1029700072E02CCB8F929F92BF92CF92DF92EF9218
:10298000FF920F931F93CF93DF93EA01FC01E60FB1
:10299000F71F828193810481B580E091AC03F091AF
:1029A000AD03309791F482E090E0998388838CEFB7
:1029B0009FEFDF91CF911F910F91FF90EF90DF90EC
:1029C000CF90BF909F908F9008952091AE0330914B
:1029D000AF038217930738F082E090E099838883F1
:1029E0008EEF9FEFE6CF2DE0289F6001299FD00C4E
:1029F0001124EC0DFD1DE080F180E114F10499F249
:102A00008281081748F785E0089F80011124E00EB5
:102A1000F11EF70180819181892B29F6BB20E1F21B
:102A2000F7E0BF9E40011124C4010E945C1FF70122
:102A300091838083E091AC03F091AD03EC0DFD1D1B
:102A40000190F081E02DE00FF11F808191810097CE
:102A500039F482E090E0998388838DEF9FEFA9CFCE
:102A6000A40170E060E00E94B7308091AC039091C7
:102A7000AD03C80ED91EF60180819181080F191F80
:102A8000F801B28281E090E09983888390E080E051
:102A900090CFAF92BF92CF92DF92FF920F931F938E
:102AA000CF93DF93EA01FC01E60FF71F8281938148
:102AB000F4800091AC031091AD030115110581F470
:102AC00082E090E0998388838CEF9FEFDF91CF9134
:102AD0001F910F91FF90DF90CF90BF90AF9008951E
:102AE0002091AE033091AF038217930738F082E054
:102AF00090E0998388838EEF9FEFE8CF2FEF2F0D23
:102B00002C3FA8F72DE0289F6001299FD00C1124AD
:102B10000C0D1D1DF80180819181892B89F6F5E04E
:102B2000FF9E50011124C5010E945C1FF801918392
:102B30008083E091AC03F091AD03EC0DFD1D80812D
:102B40009181009739F482E090E0998388838DEF3A
:102B50009FEFBCCFA50170E060E00E94B730E0912C
:102B6000AC03F091AD03EC0DFD1DF28281E090E02D
:102B70009983888390E080E0A9CFCF92DF92EF9293
:102B8000FF920F931F93CF93DF93860F971FFC0144
:102B9000028113818091AC039091AD03892B81F068
:102BA00082E090E0FA01918380838CEF9FEFDF91C8
:102BB000CF911F910F91FF90EF90DF90CF900895EC
:102BC000C801B0E0A0E00197A109B1098F3F9F4F74
:102BD000A105B10540F082E090E0FA019183808385
:102BE0008EEF9FEFE4CF7A018DE0809F6001819F9F
:102BF000D00C1124C6010E945C1FEC01009741F427
:102C000082E090E0F701918380838DEF9FEFCFCF3B
:102C1000A60170E060E00E94B730D093AD03C0938E
:102C2000AC031093AF030093AE0390E080E02FEF6E
:102C30003FEF8017910741F481E090E0F701918325
:102C4000808390E080E0B3CF3C872B8701962D9660
:102C5000F0CFCF92DF92EF92FF920F931F93CF931B
:102C6000DF93EC01D12CC12C10E000E0F12CE12C21
:102C70008A818017110609F0BCF4AE01455F5F4FF1
:102C800063E070E0C7010E94D31F009721F02FEF8F
:102C90003FEF3C872B87DF91CF911F910F91FF90E2
:102CA000EF90DF90CF900895E881F981EC0DFD1D44
:102CB00023813481C90101960115110519F44F8151
:102CC00044FD049661E070E0BFD7E816F90608F409
:102CD0007C010F5F1F4F85E0C80ED11CC9CFF8944F
:102CE0002091AA033091AB0381E02115310509F051
:102CF00080E0232B09F0789408954F925F926F92B1
:102D00007F928F929F92AF92BF92CF92DF92EF927B
:102D1000FF920F931F93CF93DF933C01660E771EB4
:102D2000F301828193814C01B12CA12CC091AC03A1
:102D3000D091AD03209769F021E030E06091AE03BF
:102D40007091AF038617970710F030E020E0232B37
:102D5000C1F482E090E0FA01918380838EEF9FEFCF
:102D6000DF91CF911F910F91FF90EF90DF90CF9067
:102D7000BF90AF909F908F907F906F905F904F909B
:102D800008958092370290923802A0923902B09250
:102D90003A026DE0689F9001699F300D1124C20FC7
:102DA000D31FF3018181833040F082E090E0FA018B
:102DB0009183808386EF9FEFD3CF2A012B813C81C3
:102DC000232BF1F4288139819F8191FF2EC0232B81
:102DD00009F464C02091B1039A81422F490F55270D
:102DE000551FBA0141E050E06138710514F050E020
:102DF00040E0452B09F452C02A87920F9093B1030B
:102E00008150823008F476C06ADF882309F4C5C097
:102E1000F3018181813009F480C008F470C08230F0
:102E200009F4B3C090E080E08EC0232BB9F120916B
:102E3000B0039A81E22FE90FFF27FF1F41E050E026
:102E4000ED3FF10514F050E040E0452B39F12A87C1
:102E5000920F9093B003D4CFA081B181A20FB31F82
:102E600011966C91060F111D0196295F3F4F841733
:102E7000950794F3C114D104C9F48F8184FF16C05F
:102E800031D721E0A8014B5F5F4F8417950708F405
:102E900020E0A7014B5F5F4F21110EC082E090E060
:102EA000F2019183808387EF9FEF5ACF1BD721E0F8
:102EB000A8014F5F5F4FE9CF88819981E80EF91E25
:102EC000F70114830383FFEFCF1ADF0A7A018A81A7
:102ED0008C151D0409F00CF497CFE881F981EE0DF3
:102EE000FF1D428150E030E020E010E000E090E083
:102EF00080E0BDCFF12CE12CD12CC12CE8CF81E0BA
:102F000090E09C838B83A8DB882309F48BCF81E03E
:102F100090E03ED880E44AD885CF8B859C85019689
:102F200051F083E090E09C838B8382E090E030D886
:102F300080E436D877CF89288A288B2879F4CE0187
:102F400088DE009771F3789422E030E0F20131835B
:102F50002083892BF9F08DEF9FEF02CF2D813E81E9
:102F600080912D0290912E0228173907D1F6609199
:102F7000310270913202AE01455F5F4F80912F02A6
:102F8000909130020E94FC20DCCF82E090E09C8394
:102F90008B8348CF90E080E0E3CE82E090E0F201C6
:102FA0009183808385EF9FEFDBCE8F929F92AF92CC
:102FB000BF92CF92DF92EF92FF920F931F93CF9326
:102FC000DF93EA018C01060F171FF801818183301E
:102FD00098F082E090E09983888386EF9FEFDF91FD
:102FE000CF911F910F91FF90EF90DF90CF90BF9006
:102FF000AF909F908F9008958091AC039091AD0316
:10300000892B61F081E090E02091AE033091AF0315
:10301000232B11F490E080E0892B39F482E090E0DA
:10302000998388838EEF9FEFDACF59DE882309F4E6
:10303000D5C0F8018181813009F48BC0E8F082307D
:1030400099F42091AE033091AF03E091AC03F0917D
:10305000AD0390E080E041E050E02817390709F027
:10306000B3C0FADA811117C0789481E090E09983B7
:10307000888390E080E0B3CF2091AE033091AF031E
:10308000E091AC03F091AD0390E080E041E050E0CE
:103090002817390741F481E090E00E94C80F80E4CE
:1030A0000E94D60FE1CF63817481672B11F05483A6
:1030B000438301963D96ECCFE091AC03F091AD03D4
:1030C000E00FF11F238134812230310561F4238523
:1030D00034852F3F3F4F39F4C114D104E104F1048A
:1030E00009F5CF01B6DDEFEFCE1ADE0AEE0AFE0AD1
:1030F000035F1F4F4091AE035091AF0370E060E05B
:10310000C416D506E606F70664F50097A9F278948A
:10311000892B09F4AACF82E090E0998388838DEF10
:103120009FEF5DCF4581568120912D0230912E0277
:1031300042175307C1F6AF01455F5F4F60913102FF
:103140007091320280912F02909130020E94FC20F7
:10315000CACF10E000E090E080E0C12CD12C7601D5
:10316000C9CF0097A1F610E000E0812C912C54010A
:1031700083E0E82EF12C1AC0E091AC03F091AD038E
:10318000E00FF11F83819481029749F4F482E38276
:1031900082E090E00E94C80F80E40E94D00FFFEF11
:1031A0008F1A9F0AAF0ABF0A035F1F4F8091AE03B9
:1031B0009091AF03B0E0A0E088169906AA06BB067E
:1031C000DCF290E080E0A3CF63817481623071050E
:1031D00011F45483438301963D963FCF82E090E003
:1031E0009983888385EF9FEFFACE0097B9F48FEF2C
:1031F000FB01808320913702309138024DE0429FDD
:10320000C001439F900D1124E091AC03F091AD03F8
:10321000E80FF91F8285FB01818308950C947F0FCD
:1032200088E090E0FA019183808390E080E0089547
:103230001092AB031092AA03ECEAF3E086E0DF0100
:103240001D928A95E9F785EB94E19093A903809309
:10325000A80308958091A8039091A90308952F923F
:103260003F924F925F926F927F928F929F92AF9216
:10327000BF92CF92DF92EF92FF920F931F93CF9363
:10328000DF93CDB7DEB762970FB6F894DEBF0FBEFF
:10329000CDBFF8942091AA033091AB032F5F3F4F2D
:1032A0003093AB032093AA0378942091AC03309120
:1032B000AD033B832A83232B09F456C12091AE032F
:1032C0003091AF03232B09F44FC14D875E876F8781
:1032D000788B9C878B878A819B819A8B898BD12C59
:1032E000C12C198210E000E08091AE039091AF03F1
:1032F000C816D90618F43981332329F1F89480913E
:10330000AA039091AB0301979093AB038093AA0318
:103310007894C80162960FB6F894DEBF0FBECDBF99
:10332000DF91CF911F910F91FF90EF90DF90CF90A1
:10333000BF90AF909F908F907F906F905F904F90D5
:103340003F902F900895B60190E080E029D38887C0
:10335000A989BA8917968C91179781FD8DC013960C
:103360008D919C911497039709F086C01596ED9165
:10337000FC91FF83EE832B853C85E217F30709F070
:103380007BC0712C612C512C412C63C092D39A8745
:10339000898710E04114510431F4A989BA8917963C
:1033A0001C9112951170A989BA89ED91FC91E60DD5
:1033B000F71D23803480111169C0BFEF2B1A3B0A1F
:1033C00061E070E0C10140D45C01A989BA891B9613
:1033D0008D919C918F3F980709F45CC0B5014DD742
:1033E0004C01009709F4BBC0E985FA85E80FF91F85
:1033F000A989BA891A968C91840D808311114DC0C8
:103400008F010F5F1F4F80912D0290912E02AE8190
:10341000BF81A817B90709F09DC081E090E0B88589
:10342000BB2311F090E080E0710109851A859501B8
:10343000A401B6019195819591093ED38C01892B08
:1034400011F0C40184D58FEF481A580A95E0690E2F
:10345000711CA989BA8912968C918415150429F0DA
:1034600024F0B981BB2309F491CFE885EE2321F044
:10347000B60190E080E096D2FFEFCF1ADF0A2989EB
:103480003A89235F3F4F3A8B298B2ECFE5E02E0EF2
:10349000311C96CFC50110D5A3CF8D859E85AF85F4
:1034A000B88981839283A383B4838F010B5F1F4FFD
:1034B000AACFE080F180EC81FD81EE0EFF1ED701E6
:1034C00013966D917C9114978C918F3FE1F1E1E01F
:1034D000F0E002C0EE0FFF1F8A95E2F7CF01092E40
:1034E000000CAA0BBB0BFB014081518162817381EF
:1034F00084239523A623B72321E0892B8A2B8B2BAA
:1035000009F420E0D8012C93D70111968C91080F73
:10351000111DEA81FB813196FB83EA832C813D8179
:10352000295F3F4F3D832C83A989BA89ED91FC9196
:10353000E60DF71D82812A813B818217130611F067
:103540000CF0B7CF6ACFF701418150E0C8010E946B
:10355000AE30DACF1D821C821B821A82E5CF31E0A9
:10356000398306EF1FEF6FCF10E000E0C7CEB7CB77
:10357000789408952F923F924F925F926F927F922C
:103580009F92AF92BF92CF92DF92EF92FF920F93F2
:103590001F93CF93DF9300D000D0CDB7DEB700915B
:1035A000AC031091AD03992493940115110509F40E
:1035B0003EC0A090AE03B090AF0391DB982E88235D
:1035C000B1F11092AD031092AC031092AF031092C0
:1035D000AE031092B0031092B1038FEF9FEFDC01A6
:1035E0008093370290933802A0933902B0933A0245
:1035F00078947AD31E830D83C12CD12C7601C5011A
:10360000B0E0A0E089839A83AB83BC8322242A9410
:10361000322C89819A81AB81BC81C816D906EA0611
:10362000FB06F4F0C80193D480E40E94D60F892DE4
:1036300026960FB6F894DEBF0FBECDBFDF91CF91B7
:103640001F910F91FF90EF90DF90CF90BF90AF90C0
:103650009F907F906F905F904F903F902F90089534
:10366000C114D104E104F10409F5D8011B968D9130
:103670009C918F3F980709F040D5F8013486238646
:10368000ED81FE8180819181B12CA12C412C512CA6
:103690003201892B69F5BFEFCB1ADB0AEB0AFB0A73
:1036A000ED81FE813D96FE83ED83B3CFAD81BE817A
:1036B00015962D913C91169780912D0290912E0296
:1036C00028173907E9F61B968D919C91C4D5D8CF60
:1036D0008A0D9B1DDC018D919C91009709F037D4D8
:1036E000BFEF4B1A5B0A6B0A7B0AE5E0AE0EB11C1A
:1036F000AD81BE818D919C91119712964C9150E0B5
:1037000070E060E044165506660677060CF31FD499
:10371000C2CFCF93DF93EA012DDF811109C082E090
:1037200090E09983888385EF9FEFDF91CF91089593
:1037300081E090E00E94C80F81E090E09983888347
:1037400090E080E0F2CF16DF1092A9031092A80358
:10375000089542E050E06DEB72E00C94E60FFF92AA
:103760000F931F93CF93DF938A01EC01C60FD71FEE
:10377000F980B9D20897F816190671F068F082E05E
:1037800090E0F801918380838EEF9FEFDF91CF91DE
:103790001F910F91FF9008956C817D818E819F8193
:1037A0004B810E945C12811108C082E090E0F80118
:1037B0009183808384EF9FEFE9CFF9800E945712B5
:1037C0004F2D50E0BE01685F7F4F0E94AE3089816F
:1037D0000E94C61281E090E0F8019183808390E01E
:1037E00080E0D4CFDF92EF92FF920F931F93CF939D
:1037F000DF938A01EC01C60FD71F0E9457127C018C
:10380000D98071D2DD2059F0029721E030E0D8163E
:10381000190619F010F030E020E0232B79F482E053
:1038200090E0F801918380838EEF9FEFDF91CF913D
:103830001F910F91FF90EF90DF900895EF2841F4D2
:1038400082E090E0F8019183808384EF9FEFEECFD8
:10385000F9800E9457124F2D50E0BE016E5F7F4FDE
:103860000E94AE3089810E94C61281E090E0F8018A
:103870009183808390E080E0D9CF89EA9BE19093A7
:10388000B3038093B20308958091B2039091B30380
:1038900008950895FC011182108293838283089514
:1038A000DB011D921C92DC011296ED91FC911397A5
:1038B0007183608313967C936E9312970895FC0135
:1038C00080819181DB018D939C93A081B1811097C0
:1038D00041F08D919C9191838083892B11F4F38326
:1038E000E2830895FC0180819181DB018D939C939B
:1038F000892B11F473836283718360830895FC01C3
:1039000011821082938382830895CF93DF931F9255
:103910001F92CDB7DEB71A821982F894BE016F5F8D
:103920007F4F89EB93E0CBDF89819A81009709F083
:103930000ED389819A81892B89F7BE016F5F7F4FF2
:103940008DEB93E0BCDF89819A81009709F0FFD26B
:1039500089819A81892B89F778940F900F90DF9154
:10396000CF910895CF93DF931F921F92CDB7DEB70B
:103970001A821982F894BE016F5F7F4F85EB93E046
:103980009EDF89819A81009709F0E1D289819A812D
:10399000892B89F778940F900F90DF91CF9108953C
:1039A00081E0089590E080E00895EF92FF920F93F8
:1039B0001F93CF93DF931F921F92CDB7DEB71A826A
:1039C00019828091B40307EF1FEF8823A1F1F894C7
:1039D000BE016F5F7F4F8DEB93E071DF789489813B
:1039E0009A81EE24E394F12C892B51F4F894BE01D2
:1039F0006F5F7F4F89EB93E062DF7894F12CE12CCD
:103A000089819A810EEF1FEF0097A9F0FC01428196
:103A1000538164E070E02FD68C01892B61F0F8941B
:103A200069817A81C701880F991F880F991F875470
:103A30009C4F58DF7894C8010F900F90DF91CF9181
:103A40001F910F91FF90EF9008950F931F93CF93C5
:103A5000DF9300D01F92CDB7DEB71C821B821A8283
:103A600019828091B40307EF1FEF8823C1F0AE01E4
:103A70004D5F5F4F64E070E0CE0101966FD68C0120
:103A8000892B69F4E981FA818B819C8193838283FC
:103A9000F89469817A8185EB93E002DF7894C8011C
:103AA0000F900F900F900F90DF91CF911F910F917A
:103AB000089574D7049608958F929F92AF92BF9203
:103AC000CF92DF92EF92FF920F931F93CF93DF93EA
:103AD0001F921F92CDB7DEB71A821982BC016F5FA9
:103AE0007F4F6330710598F0AA24AA94BA2CC501BF
:103AF0000F900F90DF91CF911F910F91FF90EF905A
:103B0000DF90CF90BF90AF909F908F900895411518
:103B1000510551F3480159018A016C01CADF88152A
:103B2000990511F7E114F104F9F28E0D9F1DA81605
:103B3000B906D0F28091B4038823F1F0F894B5016E
:103B4000645071099701AE014F5F5F4FC801049641
:103B50009AD65C01892B71F489819A81F80193834B
:103B60008283C601880F991F880F991FB801875457
:103B70009C4F96DE7894BBCF87EFA82EBB24BA94D7
:103B8000B6CFAF92BF92CF92DF92EF92FF920F9398
:103B90001F93CF93DF931F921F92CDB7DEB71A8288
:103BA0001982892B09F047C06115710509F443C0DA
:103BB0004115510509F43FC02115310509F43BC0F9
:103BC00001151105C1F18091B4038823B9F1790180
:103BD0006A015B01F894BE016F5F7F4F85EB93E054
:103BE0006EDE789489819A81009759F1DC011296F2
:103BF0006D917C91A80104965FD68C01E981FA81D0
:103C0000D501ED93FC93828193810496F601918313
:103C100080834FDFD7018D939C93C8010F900F9045
:103C2000DF91CF911F910F91FF90EF90DF90CF9098
:103C3000BF90AF9008950FEF1FEFEFCF07EF1FEF8B
:103C4000ECCF0EEF1FEFE9CFCF93DF93EC01672BA3
:103C500071F4ADD68C179D0760F0A0D62496C80FDE
:103C6000D91F9FD68C0F9D1FDF91CF9108959CD6B1
:103C7000F1CF90E080E0F8CF0F931F93CF93DF93C5
:103C80002091B40321112BC08B01EC0189EB93E04F
:103C900001DE8DEB93E0FEDD85EB93E0FBDD86D06E
:103CA0000097C1F484D670E060E0CEDF4BE352E0D1
:103CB00062E070E078D1009769F480913B029091C6
:103CC0003C0287D6B801CE01BCD4009719F421E09C
:103CD0002093B403DF91CF911F910F91089584EF4A
:103CE0009FEFF8CF61C663C6CF93DF9363D6EC0135
:103CF000892B11F40ADE36DECE01DF91CF910895D3
:103D0000CF93DF9357D6EC01892B09F4FEDDCE016A
:103D1000DF91CF91089580913B0290913C020895EC
:103D2000CF93DF938091B403D0E0C0E08823D1F03B
:103D300055D6EC01892BB1F4E8DD14DE80913B020D
:103D400090913C02DAD1E9D2EC01892B59F489EB4C
:103D500093E0D5DD8DEB93E0D2DD85EB93E0CFDD15
:103D60001092B403CE01DF91CF910895CF93DF93EA
:103D70000097A1F4DF91CF910895EC011A82198286
:103D8000A883309711F0928381832F5F3F4FFC010E
:103D9000860F971F4217530781F7ECCF30E020E0E2
:103DA000F0E0E0E0AFEF6F5F7F4FF4CFCF92DF92B4
:103DB000EF92FF920F931F93CF93DF9305ED14E0E3
:103DC0000C7F89ECE82E82E0F82E9FECC92E92E061
:103DD000D92ECCE1D5E0D7014D915D917D01F60161
:103DE000619171916F01198308835D834C835B83BB
:103DF0004A837F836E839B012F5F3F4F249FC001C7
:103E0000259F900D349F900D112499878887C801B4
:103E1000ADDF88859985080F191F2A96FFECEF16EC
:103E2000F2E0FF06C1F6E3ECF3E08FE091E0DF01A2
:103E30009C011D9221503040E1F71092C203109274
:103E4000C10310923B0510923A0510923F05109263
:103E50003E0510923D0510923C05109241051092CE
:103E600040051092430510924205109245051092AC
:103E7000440510924905109248051092470510928A
:103E8000460510924B0510924A0510924D0510926E
:103E90004C05109219051092180510921B051092EE
:103EA0001A0590E080E0DF91CF911F910F91FF9074
:103EB000EF90DF90CF900895009761F1F8948131F1
:103EC000910580F480911E0590911F05892B29F59D
:103ED0008091280590912905892B31F021E081E01E
:103EE00090E00BC08197A8F4809132059091330542
:103EF000892B79F022E082E090E0EAE0E89FD001AF
:103F0000E99FB00D1124A45EBA4F8D919C9100974A
:103F100041F4789490E080E0089520E090E080E023
:103F2000ECCFE29FF0011124E45EFA4FDC01119620
:103F30004D915C915183408342815381415051099D
:103F400053834283FC012193CF0178940895009715
:103F500049F1DC018E91853041F4E0911A05F09130
:103F60001B053097F9F0CD0119948530D8F4282F2E
:103F700030E0F8948FEF8C938AE0829FF001839F6A
:103F8000F00D1124E45EFA4F8081918112969C938A
:103F90008E931197B183A08382819381019693833D
:103FA000828378940895CF92DF92EF92FF920F93DD
:103FB0001F93CF93DF939C0186EC93E08C7F411598
:103FC000510509F497C02115310509F493C0611515
:103FD000710509F48FC07A01AB01B9016D5F7F4FA4
:103FE0006C7F9B012F5F3F4F249F8001259F100D09
:103FF000349F100D1124F89420913A0530913B051F
:10400000232B59F4209142053091430521153105A8
:1040100069F12017310708F056C02091440530910E
:104020004505232B91F42091420530914305820FE1
:10403000931F20914C0530914D052115310509F450
:104040003FC02017310708F052C07894CFEFDFEF60
:1040500086EF9FEFF701D183C083DF91CF911F914E
:104060000F91FF90EF90DF90CF900895C3E0D0E0E4
:10407000C090C103D090C2032CE031E02C193D095F
:104080002017310710F32AE02C9FF0012D9FF00D2F
:104090001124E45EFA4F91838083558344835383D4
:1040A0004283778366831187008760DE0C0D1D1DB8
:1040B0001093C2030093C103789490E080E0CACFCC
:1040C000C4E0D0E0D5CFC3E0D0E02AE02C9FF001DF
:1040D0002D9FF00D1124E45EFA4F91838083558368
:1040E0004483538342837783668340DEE5CFC4E015
:1040F000D0E0EBCF8FEF9FEFB0CFFF920F931F93E6
:10410000CF93DF939C01235031092230310508F011
:1041100070C0EC01F89484E09AE09C9FD0019D9FD0
:10412000B00D1124AC5DBA4F082F10E0909FF00144
:10413000919FF00D1124E45EFA4F20813181C01768
:10414000D10714F1FF24F394232B41F52AE0209F9B
:10415000F001219FF00D1124E45EFA4F8091C1031C
:104160009091C20340855185841B950B9093C203A7
:104170008093C1032C9FF0012D9FF00D1124E45E6C
:10418000FA4F118610861CC0232B39F42D913C91D7
:104190001197232BA9F48150C7CFF12C8AE08C9F73
:1041A000F0018D9FF00D1124E45EFA4F408551859A
:1041B00070E060E0808191810E94B730F110C6CF3D
:1041C0008AE08C9FF0018D9FF00D1124E45EFA4F80
:1041D0001182108215821482138212821782168233
:1041E000789490E080E0DF91CF911F910F91FF9044
:1041F00008958FEF9FEFF7CF4115510549F10097D3
:1042000039F16115710521F1F8942091180530916B
:104210001905232BB9F420911A0530911B05232B86
:1042200089F4909319058093180570931B0560938A
:104230001A05789425E030E090E080E0FA013183BF
:104240002083089578942FEF3FEF86EF9FEFF6CF0E
:104250008FEF9FEF0895059769F4F8941092190570
:104260001092180510921B0510921A05789490E090
:1042700080E008958FEF9FEF08956115710519F49F
:10428000F0E0E0E011C08530910581F4E09118057F
:10429000F09119053097A1F3CB010196199500977C
:1042A00079F3FC0185E08193CF0108959C012350AF
:1042B00031092230310520F72AE0289FD001299FBB
:1042C000B00D1124A45EBA4F2D913C911197232B70
:1042D000B9F216962D913C9117972617370780F261
:1042E000F89412962D913C9113972115310529F0E0
:1042F000ED91FC911197309711F47894C1CF4181E1
:10430000528111965C934E932150310913963C9340
:104310002E93129781937894C7CFE2EDF4E086E470
:10432000DF011D928A95E9F7E3ECF3E08FE091E07D
:10433000DF019C011D9221503040E1F71092C20331
:104340001092C103ECE1F5E082E3DF011D928A9552
:10435000E9F7E8E1F5E084E0DF011D928A95E9F7ED
:1043600090E080E00895CF93DF93C0913D02D0911B
:104370003E02CF3FDC0759F4DCD390933E0280939A
:104380003D0297FF09C0D0933E02C0933D0284EFE7
:104390009FEFDF91CF91089590E080E0FACF8230D7
:1043A000910528F480934E0590E080E008958FEF0A
:1043B0009FEF08954F925F926F927F92AF92BF925C
:1043C000CF92DF92EF92FF920F931F93CF93DF93E1
:1043D0001F921F92CDB7DEB71A821982009709F497
:1043E00078C06115710509F474C020913D023091C7
:1043F0003E0207EF1FEF2F3F3F4F09F444C06B0110
:104400005C01412C512C3201F12CE12C10E000E038
:104410009E012F5F3F4FA6014E195F09B5016E0D3A
:104420007F1D80913D0290913E02E1D3892B09F0DE
:104430004AC089819A81009741F4E114F10429F47A
:1044400020914E05222309F441C0E80EF91EEC1418
:10445000FD04C8F480E8481684E858068EE1680632
:10446000710418F560E070E0CB0129D72AE0420E14
:10447000511C611C711C0A3F4FEF140721F0043FCF
:104480008FEF1807A1F4C8010F900F90DF91CF9123
:104490001F910F91FF90EF90DF90CF90BF90AF9062
:1044A0007F906F905F904F90089501EF1FEF81E034
:1044B00090E0013F2FEF120711F090E080E0892B90
:1044C00009F4A6CFE0CF04EF1FEFDDCF0AEF1FEF17
:1044D000DACF0FEF1FEFD7CF4F925F926F927F929D
:1044E000AF92BF92CF92DF92EF92FF920F931F9302
:1044F000CF93DF931F921F92CDB7DEB71A82198236
:10450000009709F478C06115710509F474C0209111
:104510003D0230913E0207EF1FEF2F3F3F4F09F45E
:1045200044C06B015C01412C512C3201F12CE12C77
:1045300010E000E09E012F5F3F4FA6014E195F097A
:10454000B5016E0D7F1D80913D0290913E0205D315
:10455000892B09F04AC089819A81009741F4E114BE
:10456000F10429F420914E05222309F441C0E80EFC
:10457000F91EEC14FD04C8F480E8481686E95806D4
:1045800088E96806710418F560E070E0CB0197D601
:104590002AE0420E511C611C711C0E3F4FEF1407A4
:1045A00021F0043F8FEF1807A1F4C8010F900F907E
:1045B000DF91CF911F910F91FF90EF90DF90CF90FF
:1045C000BF90AF907F906F905F904F90089502EFF3
:1045D0001FEF81E090E0023F2FEF120711F090E013
:1045E00080E0892B09F4A6CFE0CF04EF1FEFDDCFE9
:1045F0000EEF1FEFDACF0FEF1FEFD7CF80913D0205
:1046000090913E028F3F980749F08BD2892B49F455
:104610008FEF9FEF90933E0280933D0290E080E009
:10462000089584EF9FEF0895FC01680F791F90E0D3
:1046300080E0E617F70709F408952191820F911D94
:10464000F8CF20914F05211113C08DDE009791F412
:104650001092550510925405109253051092520570
:10466000109251051092500521E020934F050895B6
:1046700084EF9FEF0895AF92BF92CF92DF92EF92B7
:10468000FF920F931F93CF93DF93009709F460C0BD
:104690004630510508F45CC020914F05C7EFDFEFAD
:1046A000222309F449C08C01060F171FF801C080AE
:1046B000D180C114D10409F44EC096012A5F3F4F46
:1046C0004217530708F447C07C018091540590912C
:1046D000550593838283B6016C5F7F4F5801A60E08
:1046E000B71EC801A1DFF5019183808364E070E00B
:1046F000C80160DEEC01892BF9F481E090E04FDE27
:10470000B601C801049656DEEC01892B91F462E0F3
:1047100070E0C5014FDEEC01892B59F4C70117DCAD
:10472000809154059091550501969093550580937D
:10473000540590E080E033DECE01DF91CF911F91F0
:104740000F91FF90EF90DF90CF90BF90AF900895C2
:10475000CFEFDFEFF1CFC9EFDFEFEECF6F927F92B8
:104760008F929F92AF92BF92CF92DF92EF92FF9281
:104770000F931F93CF93DF9300D01F92CDB7DEB777
:10478000009709F47AC04115510509F476C02091CB
:104790004F0507EF1FEF222309F44DC03A017B01BB
:1047A0005C0164E070E0CE01019696DE8C01892BFD
:1047B00009F041C009811A810115110509F45AC097
:1047C000480186E0880E911CB701680D791D809123
:1047D0003F029091400251DD6C01009709F450C0F6
:1047E000A70170E060E00E94B73089819A81AB81B7
:1047F000BC81EC0CFD1CF70181939193A193B193C3
:104800007F0181E090E0CBDDB801C70165DE892B37
:1048100031F562E070E0C701800F911F5DDE8C0111
:10482000892BE9F490E080E0BADDF501D182C08205
:10483000F30191828082C8010F900F900F900F902A
:10484000DF91CF911F910F91FF90EF90DF90CF906C
:10485000BF90AF909F908F907F906F90089590E061
:1048600080E09DDDF50111821082F301118210823A
:10487000C6016DDB09EF1FEFDECF0FEF1FEFDBCFC0
:1048800006EF1FEFD8CF0097A1F04115510589F031
:104890002115310571F0F90136966E177F0748F042
:1048A000DC012D933C93DA01ED93FC9390E080E0E2
:1048B00008958FEF9FEF0895AF92BF92CF92DF924E
:1048C000EF92FF920F931F93CF93DF93009709F41A
:1048D0005FC04115510509F45BC06530710508F4EE
:1048E00057C020914F05C7EFDFEF222391F1DC0184
:1048F000CD90DC9011971296ED91FC9196012A5F74
:104900003F4FC9EFDFEF2617370719F5C091500564
:10491000D0915105209749F521E030E030935105C1
:10492000209350057A018C01F0935305E0935205D2
:104930005601B4E0AB0EB11CB50176DE0A0D1B1DAD
:10494000F801208131818217930729F5D701CD9293
:10495000DC92CE01DF91CF911F910F91FF90EF90EC
:10496000DF90CF90BF90AF90089520915205309185
:1049700053052F5F3F4FCCEFDFEFE217F30790F2C5
:10498000CBEFDFEF2E173F0768F2D0E0C0E0CACFD1
:10499000CFEFDFEFDECFC3EFDFEFDBCF84E090E0E0
:1049A000089582E090E008958CEF9FEF089580E2F3
:1049B00090E00895109255051092540510925305F9
:1049C00010925205109251051092500590E080E02F
:1049D00008959093400280933F02089580914F057F
:1049E000882391F00BDE009789F410925505109200
:1049F00054051092530510925205109251051092D1
:104A0000500510924F05089590E080E008950097BA
:104A100049F06115710531F0FC0111821082FB0132
:104A2000118210820895F3CF40E855E260E070E013
:104A300090E080E000C08130910571F01CF4892B7A
:104A400039F008958230910559F0039769F008957F
:104A500026E083E695E095C526E080E096E0FBCF72
:104A600026E08DE996E0F7CF26E08AE397E0F3CFE2
:104A70001F920F920FB60F9211240BB60F922F9325
:104A80003F934F935F936F937F938F939F93AF93D6
:104A9000BF93EF93FF9386E997EE90932501809360
:104AA0002401B8D0FF91EF91BF91AF919F918F9169
:104AB0007F916F915F914F913F912F910F900BBE1E
:104AC0000F900FBE0F901F90189586E997EE909368
:104AD000250180932401A3E7B0E08C918E7F8C9315
:104AE000E0E2F1E080818C7F8083E1E2F1E080818F
:104AF000877E808380818460808380818C7F8083B7
:104B00008C9181608C930895E3E7F0E0808190813F
:104B10009E7F90838170089581E0089510925605DC
:104B2000089568EE73E080E090E0C9D390E080E003
:104B3000089526E040E050E16EE070E083E695E005
:104B400020D583E695E053D4892B21F083E695E0C8
:104B500068D4F7CF90E080E00895CF92DF92EF9293
:104B6000FF920F931F93CF93DF936B017A01E901BB
:104B70001982188283E695E03AD4892B69F186017F
:104B8000CC24C39482E0D82E80915605811110C0A8
:104B900083E695E046D40297B9F7C0925605F8012E
:104BA000D1928F0188819981019699838883ECCF76
:104BB000888199818E159F0578F483E695E031D43C
:104BC0008F3F9807A9F3F80181938F01888199811C
:104BD000019699838883ECCF90E080E0DF91CF91BC
:104BE0001F910F91FF90EF90DF90CF9008950F935A
:104BF0001F93CF93DF93EA01890183E695E051D7B4
:104C0000F801D183C08390E080E0DF91CF911F91C4
:104C10000F910895CF92DF92EF92FF92CF93DF939F
:104C20008091570591E0980F90935705882379F06C
:104C300021E030E0309359052093580580935705C3
:104C4000DF91CF91FF90EF90DF90CF90089578940F
:104C5000C0914F02D09150026E8D7F8D88A199A195
:104C600047D120E030E040E85FE44BD26B017C01AB
:104C70006A8D7B8D8C8D9D8D3BD19B01AC01C701D5
:104C8000B6018AD009D16B017C010E942E07B701C1
:104C9000A60190E080E00E945D06F894809157059F
:104CA0008150CCCFCF93DF9310923B0810923A08FB
:104CB0003CD3BADEC0914F02D091500219821882C3
:104CC0006FEF7FEFCB010E94D40670E060E090E0D0
:104CD00080E00E9465050097A9F50E947108F8948C
:104CE0007894BE016A5D7F4F8A819B810E9468052E
:104CF000892B59F46FEF7FEFCB010E94F3050E94DF
:104D0000CE06882311F081E08AA7F894DEDE0E94A7
:104D1000D106811104C00E94CE0691E0811190E07D
:104D200090933A0878940E94C30FEC017894809194
:104D30003A0881110AC00E949E090E94B606F894A2
:104D400090E080E0DF91CF9108950E94B4060E9428
:104D5000D10691E0811106C00E94CE0691E081113A
:104D600001C090E090933B0890913B0881E0911145
:104D700080E080933A0880913B088111C5DE21973D
:104D800029F40E94C30F892B09F4C8DE0E94C30FC7
:104D9000EC01C2DECCCF5058BB27AA270ED05CC195
:104DA0004DD130F052D120F031F49F3F11F41EF478
:104DB00042C10EF4E095E7FB0FC1E92F5ED180F30D
:104DC000BA17620773078407950718F071F49EF508
:104DD0008DC10EF4E0950B2EBA2FA02D0B01B90159
:104DE00090010C01CA01A0011124FF27591B99F061
:104DF000593F50F4503E68F11A16F040A22F232F6D
:104E0000342F4427585FF3CF469537952795A795BC
:104E1000F0405395C9F77EF41F16BA0B620B730B63
:104E2000840BBAF09150A1F0FF0FBB1F661F771FD4
:104E3000881FC2F70EC0BA0F621F731F841F48F489
:104E4000879577956795B795F7959E3F08F0B3CF0F
:104E50009395880F08F09927EE0F979587950895F9
:104E60002ED180F09F3740F491110EF440C160E0E4
:104E700070E080E89FE3089526F01B16611D711D08
:104E8000811DB0C0CAC084D008F481E0089504D068
:104E90006894B1112CC10895F8D088F09F5790F014
:104EA000B92F9927B751A0F0D1F0660F771F881F4F
:104EB000991F1AF0BA95C9F712C0B13081F016D116
:104EC000B1E0089513C1672F782F8827B85F39F0B4
:104ED000B93FCCF3869577956795B395D9F73EF4AE
:104EE00090958095709561957F4F8F4F9F4F089556
:104EF000E89409C097FB3EF4909580957095619574
:104F00007F4F8F4F9F4F9923A9F0F92F96E9BB2729
:104F10009395F695879577956795B795F111F8CFA5
:104F2000FAF4BB0F11F460FF1BC06F5F7F4F8F4F10
:104F30009F4F16C0882311F096E911C0772321F006
:104F40009EE8872F762F05C0662371F096E8862F9E
:104F500070E060E02AF09A95660F771F881FDAF7F5
:104F6000880F9695879597F90895A9D080F09F3777
:104F700040F491110EF0BBC060E070E080E89FEB60
:104F8000089526F41B16611D711D811D2BC045C09F
:104F9000990F0008550FAA0BE0E8FEEF161617064A
:104FA000E807F907C0F012161306E407F50798F0B2
:104FB000621B730B840B950B39F40A2661F0232BCB
:104FC000242B252B21F408950A2609F4A140A69547
:104FD0008FEF811D811D089597F99F6780E870E02C
:104FE00060E00895882371F4772321F09850872B8F
:104FF000762F07C0662311F499270DC09051862B98
:1050000070E060E02AF09A95660F771F881FDAF744
:10501000880F9695879597F908959F3F31F09150A5
:1050200020F4879577956795B795880F911D96958C
:10503000879597F908959FEF80EC089500240A94CE
:105040001616170618060906089500240A94121663
:105050001306140605060895092E0394000C11F496
:10506000882352F0BB0F40F4BF2B11F460FF04C043
:105070006F5F7F4F8F4F9F4F089557FD9058440F9C
:10508000551F59F05F3F71F04795880F97FB991FA7
:1050900061F09F3F79F08795089512161306140664
:1050A000551FF2CF4695F1DF08C0161617061806F1
:1050B000991FF1CF86957105610508940895E5DF84
:1050C000A0F0BEE7B91788F4BB279F3860F4161626
:1050D000B11D672F782F8827985FF7CF8695779532
:1050E0006795B11D93959639C8F30895E894BB2749
:1050F00066277727CB0197F908954ADF08F48FEFE9
:1051000008950BD0A9CF9ADF28F09FDF18F09523E0
:1051100009F062CF90CF1124EACFAFDFA0F3959FC3
:10512000D1F3950F50E0551F629FF001729FBB278E
:10513000F00DB11D639FAA27F00DB11DAA1F649F3A
:105140006627B00DA11D661F829F2227B00DA11DED
:10515000621F739FB00DA11D621F839FA00D611D73
:10516000221F749F3327A00D611D231F849F600D94
:10517000211D822F762F6A2F11249F5750408AF0CD
:10518000E1F088234AF0EE0FFF1FBB1F661F771F59
:10519000881F91505040A9F79E3F510570F01CCFD9
:1051A000A6CF5F3FECF3983EDCF386957795679545
:1051B000B795F795E7959F5FC1F7FE2B880F911D77
:1051C0009695879597F908951F920F920FB60F92B3
:1051D00011242F933F938F939F93AF93BF9380910D
:1051E0005B0590915C05A0915D05B0915E053091E5
:1051F0005A0523E0230F2D3758F50196A11DB11D47
:1052000020935A0580935B0590935C05A0935D0500
:10521000B0935E0580915F0590916005A091610556
:10522000B09162050196A11DB11D80935F05909319
:105230006005A0936105B0936205BF91AF919F9106
:105240008F913F912F910F900FBE0F901F90189547
:1052500026E8230F0296A11DB11DD2CF2FB7F894D7
:1052600060915B0570915C0580915D0590915E0594
:105270002FBF08953FB7F89480915F059091600526
:10528000A0916105B091620526B5A89B05C02F3F8E
:1052900019F00196A11DB11D3FBFBA2FA92F982F5C
:1052A0008827BC01CD01620F711D811D911D42E057
:1052B000660F771F881F991F4A95D1F708958F921F
:1052C0009F92AF92BF92CF92DF92EF92FF926B01CB
:1052D0007C01D0DF4B015C01C114D104E104F10475
:1052E000D9F060D6C7DF681979098A099B09683E39
:1052F00073408105910580F321E0C21AD108E108CD
:10530000F10888EE880E83E0981EA11CB11CC11420
:10531000D104E104F10431F7FF90EF90DF90CF90DA
:10532000BF90AF909F908F900895789484B58260DD
:1053300084BD84B5816084BD85B5826085BD85B539
:10534000816085BDEEE6F0E0808181608083E1E8E8
:10535000F0E0108280818260808380818160808320
:10536000E0E8F0E0808181608083E1EBF0E0808123
:1053700084608083E0EBF0E0808181608083E1E9FC
:10538000F0E0808182608083808181608083E0E9B9
:10539000F0E0808181608083E1EAF0E080818260DA
:1053A0008083808181608083E0EAF0E08081816099
:1053B0008083E1E2F1E0808182608083808181608E
:1053C0008083E0E2F1E0808181608083EAE7F0E0C1
:1053D000808184608083808182608083808181601D
:1053E00080838081806880831092C1000895FC01D1
:1053F000918D228D892F90E0805C9F4F821B9109B7
:105400008F7399270895FC01918D828D981731F043
:10541000828DE80FF11D858D90E008958FEF9FEF4D
:105420000895FC01918D828D981761F0A28DAE0FC9
:10543000BF2FB11D5D968C91928D9F5F9F73928F50
:1054400090E008958FEF9FEF0895FC01538D448DF8
:10545000252F30E0842F90E0821B930B541710F01F
:10546000CF96089501970895FC01A48DA80FB92F38
:10547000B11DA35ABF4F2C91848D90E001968F737C
:105480009927848FA689B7892C93A089B1898C919B
:10549000837080648C93938D848D981306C00288EA
:1054A000F389E02D80818F7D80830895CF93DF93F2
:1054B000EC01888D8823B1F0AA89BB89E889F98934
:1054C0008C9185FD03C0808186FD0CC00FB607FC62
:1054D000F7CF8C9185FFF2CF808185FFEDCFCE0194
:1054E000C3DFEACFDF91CF910895EF92FF920F9340
:1054F0001F93CF93DF93EC0181E0888F9B8D8C8D80
:1055000098131AC0E889F989808185FF15C09FB773
:10551000F894EE89FF896083E889F9898081837036
:10552000806480839FBF81E090E0DF91CF911F91E5
:105530000F91FF90EF900895F62E0B8D10E00F5F06
:105540001F4F0F731127E02E8C8D8E110BC00FB6DD
:1055500007FCFACFE889F989808185FFF5CFCE0174
:1055600083DFF2CFEB8DEC0FFD2FF11DE35AFF4FE0
:10557000F0829FB7F8940B8FEA89FB898081806263
:10558000D0CFCF92DF92EF92FF921F93CF93DF9312
:10559000EC016A017B01122FE889F98982E080839E
:1055A000C11481EED806E104F10499F060E079E0DD
:1055B0008DE390E0A701960119D5215031094109E9
:1055C00051095695479537952795211580E138075C
:1055D00090F0E889F989108260E874E88EE190E043
:1055E000A701960103D5215031094109510956956A
:1055F000479537952795EC85FD853083EE85FF85AA
:105600002083188EEC89FD891083EA89FB898081CB
:1056100080618083EA89FB89808188608083EA8950
:10562000FB89808180688083EA89FB8980818F7D06
:105630008083DF91CF911F91FF90EF90DF90CF900B
:1056400008951F920F920FB60F9211240BB60F926E
:105650002F938F939F93EF93FF93E0917305F091B6
:1056600074058081E0917905F0917A0582FD1DC075
:10567000908180917C058F5F8F7320917D058217CB
:1056800041F0E0917C05F0E0ED59FA4F958F809361
:105690007C05FF91EF919F918F912F910F900BBE01
:1056A0000F900FBE0F901F9018958081F2CF1F9220
:1056B0000F920FB60F9211240BB60F922F933F93B8
:1056C0004F935F936F937F938F939F93AF93BF930A
:1056D000EF93FF9383E695E0C7DEFF91EF91BF91D3
:1056E000AF919F918F917F916F915F914F913F917A
:1056F0002F910F900BBE0F900FBE0F901F9018951B
:10570000E3E6F5E01382128288EE93E0A0E0B0E0D9
:1057100084839583A683B78389ED92E09183808308
:1057200085EC90E09587848784EC90E09787868766
:1057300080EC90E0918B808B81EC90E0938B828B5E
:1057400082EC90E0958B848B86EC90E0978B868B37
:10575000118E128E138E148E08951F920F920FB613
:105760000F9211240BB60F922F938F939F93EF9369
:10577000FF93E0911006F09111068081E0911606EA
:10578000F091170682FD1DC09081809119068F5FF0
:105790008F7320911A06821741F0E0911906F0E00C
:1057A000E050FA4F958F80931906FF91EF919F91EA
:1057B0008F912F910F900BBE0F900FBE0F901F90E7
:1057C00018958081F2CF1F920F920FB60F9211247D
:1057D0000BB60F922F933F934F935F936F937F93EB
:1057E0008F939F93AF93BF93EF93FF9380E096E0E7
:1057F0003BDEFF91EF91BF91AF919F918F917F9190
:105800006F915F914F913F912F910F900BBE0F9031
:105810000FBE0F901F901895E0E0F6E01382128201
:1058200088EE93E0A0E0B0E084839583A683B783FD
:1058300089ED92E0918380838DEC90E09587848759
:105840008CEC90E09787868788EC90E0918B808B3A
:1058500089EC90E0938B828B8AEC90E0958B848B23
:105860008EEC90E0978B868B118E128E138E148E99
:1058700008951F920F920FB60F9211240BB60F923C
:105880002F938F939F93EF93FF93E091AD06F09149
:10589000AE068081E091B306F091B40682FD1DC092
:1058A00090818091B6068F5F8F732091B706821723
:1058B00041F0E091B606F0E0E356F94F958F809302
:1058C000B606FF91EF919F918F912F910F900BBE94
:1058D0000F900FBE0F901F9018958081F2CF1F92EE
:1058E0000F920FB60F9211240BB60F922F933F9386
:1058F0004F935F936F937F938F939F93AF93BF93D8
:10590000EF93FF938DE996E0AFDDFF91EF91BF91AB
:10591000AF919F918F917F916F915F914F913F9147
:105920002F910F900BBE0F900FBE0F901F901895E8
:10593000EDE9F6E01382128288EE93E0A0E0B0E099
:1059400084839583A683B78389ED92E091838083D6
:1059500085ED90E09587848784ED90E09787868732
:1059600080ED90E0918B808B81ED90E0938B828B2A
:1059700082ED90E0958B848B86ED90E0978B868B03
:10598000118E128E138E148E08951F920F920FB6E1
:105990000F9211240BB60F922F938F939F93EF9337
:1059A000FF93E0914A07F0914B078081E091500707
:1059B000F091510782FD1DC09081809153078F5F48
:1059C0008F7320915407821741F0E0915307F0E064
:1059D000E65CF84F958F80935307FF91EF919F916D
:1059E0008F912F910F900BBE0F900FBE0F901F90B5
:1059F00018958081F2CF1F920F920FB60F9211244B
:105A00000BB60F922F933F934F935F936F937F93B8
:105A10008F939F93AF93BF93EF93FF938AE397E0A6
:105A200023DDFF91EF91BF91AF919F918F917F9176
:105A30006F915F914F913F912F910F900BBE0F90FF
:105A40000FBE0F901F901895EAE3F7E013821282C1
:105A500088EE93E0A0E0B0E084839583A683B783CB
:105A600089ED92E09183808385E391E09587848737
:105A700084E391E09787868780E391E0918B808B28
:105A800081E391E0938B828B82E391E0958B848B11
:105A900086E391E0978B868B118E128E138E148E77
:105AA0000895AF92BF92CF92DF92EF92FF920F9341
:105AB0001F93CF93DF936C017B018B01040F151FA4
:105AC000EB015E01AE18BF08C017D10759F069910C
:105AD000D601ED91FC910190F081E02DC601199560
