:1000000014C100000C944A2F0C94752F0C94A02F4F
:100010000C94CB2F0C94F62F0C9421300C944C3074
:100020000C94773033C1000031C100002FC10000B3
:100030002DC100002BC1000029C1000027C1000014
:1000400025C1000023C1000021C100001FC1000024
:100050001DC100001BC1000019C100000C94A2309A
:1000600015C100000C949E340C94D4340FC10000D0
:100070000DC100000BC1000009C1000007C1000054
:1000800005C1000003C1000001C10000FFC0000065
:100090000C942A350C946035F9C00000F7C00000BC
:1000A000F5C00000F3C00000F1C00000EFC0000088
:1000B000EDC00000EBC00000E9C00000E7C0000098
:1000C000E5C00000E3C000000C946B2A0C94B63528
:1000D0000C94EC35DBC000000C9442360C9478365E
:1000E000D5C0000005A84CCDB2D44EB93836A9020F
:1000F0000C50B9918688083CA6AAAA2ABE00000026
:10010000803F00000A0B02090C0D0E0807030401D2
:1001100000000000000000000000000000000000DF
:1001200000000000000000000000000000001211AC
:1001300010000000000000000000000000000000AF
:10014000000000000000000001021020200808103C
:100150002040102040800201020108040201010237
:100160000408102040808040201008040201800410
:10017000020180402010080402010804020101026B
:10018000040810204080010204081020408005056A
:100190000505070508080808020202020A0A0808FD
:1001A000040404040101010101010101030303032B
:1001B00003030303040707070C0C0C0C0C0C0C0CBA
:1001C0000202020206060606060606060B0B0B0BCB
:1001D0000B0B0B0B000020002300260029002C0035
:1001E0002F00320000010000030106010901000098
:1001F0002200250028002B002E00310034000201CF
:100200000000050108010B01000021002400270067
:100210002A002D0030003300010100000401070115
:100220000A01FD3489351536A13611241FBECFEFE2
:10023000D1E2DEBFCDBF00E00CBF13E0A0E0B2E032
:10024000E2EAFEE600E00BBF02C007900D92AC317F
:10025000B107D9F729E0ACE1B3E001C01D92AF3D91
:10026000B207E1F711E0C5E1D1E000E006C0219757
:100270000109802FFE010E941E37C131D10780E0A5
:100280000807A9F70E945D2B0C944F37B9CECF9386
:10029000DF93EC0170E060E06C177D070CF5072E32
:1002A000000C880B990B0E94F02C20E030E0A90193
:1002B0000E94DA2B20E030E0A9010E94DA2B20E036
:1002C00030E040E450E40E94DA2B20E030E040E4EB
:1002D00050E40E94D92B0E94BD2C6F5F7F4FDCCF72
:1002E000DF91CF9108950F931F93CF93DF93EC018C
:1002F0008C810E944C338C018C859D85C8DF88855C
:100300000E944C33488159816A817B81019781F435
:100310000130110579F44F5F5F4F6F4F7F4F488376
:1003200059836A837B83DF91CF911F910F91089549
:10033000012B89F34150510961097109F0CF8DE119
:1003400093E0D1CF8DE293E0CECF8DE393E0CBCF9E
:100350008DE493E0C8CF0F931F93CF93DF93EC010D
:1003600088850E944C338C018C859D8590DF8C8123
:100370000E944C33488159816A817B81019779F4CD
:10038000012B81F44F5F5F4F6F4F7F4F488359833D
:100390006A837B83DF91CF911F910F910895013084
:1003A000110581F34150510961097109EFCF8DE1C8
:1003B00093E0D1CF8DE293E0CECF8DE393E0CBCF2E
:1003C0008DE493E0C8CF0F931F93CF93DF93D82F83
:1003D000C62F8A01E0911C0380E1E89FF0011124FF
:1003E000E35EFC4F8D2F90E0B0E0A0E08483958326
:1003F000A683B783862F90E0B0E0A0E08087918746
:10040000A287B387108211821282138281E090E06A
:10041000A0E0B0E084879587A687B78760E08D2F3E
:100420000E94E33260E08C2F0E94E33280911C0333
:10043000813009F43FC0A8F0823009F462C08330F3
:1004400009F486C080911C0391E0980F90931C03DF
:10045000F801808390E080E0DF91CF911F910F91B0
:10046000089580E0D23049F081E0D33031F08EEE53
:100470008D0F8430D8F487E18D1B41E050E067EDAB
:1004800071E00E94D02E80E0C23049F081E0C3309C
:1004900031F08EEE8C0F843058F487E18C1B41E0F4
:1004A00050E06FE971E00E94D02ECCCF8FEFE5CF06
:1004B0008FEFF5CF80E0D23049F081E0D33031F0DA
:1004C0008EEE8D0F8430C8F487E18D1B41E050E043
:1004D0006AED71E00E94D02E80E0C23049F081E0E8
:1004E000C33031F08EEE8C0F843048F487E18C1BE2
:1004F00041E050E062EA71E0D6CF8FEFE7CF8FEFB7
:10050000F7CF80E0D23049F081E0D33031F08EEE89
:100510008D0F8430C8F487E18D1B41E050E06DED14
:1005200071E00E94D02E80E0C23049F081E0C330FB
:1005300031F08EEE8C0F843048F487E18C1B41E063
:1005400050E065EA71E0AFCF8FEFE7CF8FEFF7CFE5
:1005500080E0D23049F081E0D33031F08EEE8D0F63
:100560008430C8F487E18D1B41E050E060EE71E01B
:100570000E94D02E80E0C23049F081E0C33031F0DB
:100580008EEE8C0F843048F487E18C1B41E050E004
:1005900068EA71E088CF8FEFE7CF8FEFF7CF90E178
:1005A000899FF0011124E35EFC4F80819181A2813B
:1005B000B381FB0180839183A283B38390E080E0C9
:1005C000089590E1899FF0011124E35EFC4F1082B1
:1005D00011821282138290E080E0089590E080E022
:1005E0000895611102C00C94E3326130E1F362E0DE
:1005F000FACF662319F061E00C941F3360E0FCCF62
:10060000CF92DF92EF92FF92CF93882351F16A014C
:100610007B01CFEFC80F20E030E0A901CB01B6018C
:100620000E94512C87FF11C0C701B60190580E944B
:10063000C22C9B01AC016C2F70E090E080E0CF9168
:10064000FF90EF90DF90CF90B2C0C701B6010E943B
:10065000BD2C8C2FCF91FF90EF90DF90CF900C941A
:10066000A931CF91FF90EF90DF90CF9008950F9335
:100670001F938B019C0183E036952795179507956D
:100680008A95D1F7035A1C4F462F477021E030E07E
:10069000F90102C0EE0FFF1F4A95E2F7AF01F80122
:1006A00020812423CB010196211102C090E080E03B
:1006B0001F910F9108950F931F938B019C0183E06D
:1006C00036952795179507958A95D1F7677081E03C
:1006D00090E001C0880F6A95EAF7F801E35AFC4FF1
:1006E0002081452B31F48095822380831F910F91C7
:1006F0000895822BFACF2F923F924F925F926F9282
:100700007F928F929F92AF92BF92CF92DF92EF92A1
:10071000FF920F931F93CF93DF93D62EC72E782E81
:10072000692E49015A01280161E08D2D0E94E332B2
:10073000CD2DDC2D8E010F5F1F4FA8016D2D7C2D5F
:10074000872D962DB8DF20E030E0A901C201B70166
:100750000E94F32D181664F4C201B7010E94C22C46
:100760002B01C501B4010E94C22CA201CE0123D0ED
:10077000C801DF91CF911F910F91FF90EF90DF9013
:10078000CF90BF90AF909F908F907F906F905F9031
:100790004F903F902F900895882341F08150682F0B
:1007A00070E090E080E050E040E085CF0895862F33
:1007B000B9010C94A9319C01FC01EE5FFE4FE4915C
:1007C000E150E231E0F4F0E08827E651FC4F8F4F32
:1007D0000C941E37FC03030406041D043204FF03BB
:1007E0004704530457046E0483049804AF04C404FC
:1007F000FF03D904F004050584B5806884BD60E07A
:10080000822F0C941F3384B58062F8CF80918000D2
:100810008C7F82608093800080918100807E8061E7
:10082000682B6093810050938700409386008091ED
:100830008000806880938000E2CF809180008C7F70
:1008400082608093800080918100807E8061682B2F
:1008500060938100509387004093860080918000D0
:100860008062E8CF809180008C7F826080938000DE
:1008700080918100807E8061682B6093810050931D
:10088000870040938600809180008860D3CF80915C
:10089000B00080688093B0008091B100887F682BA1
:1008A0006093B100ACCF8091B0008062F3CF8091B3
:1008B00090008C7F82608093900080919100807E78
:1008C0008061682B6093910050939700409396004D
:1008D0008091900080688093900091CF80919000EB
:1008E0008C7F82608093900080919100807E8061F7
:1008F000682B6093910050939700409396008091ED
:1009000090008062E8CF809190008C7F826080931D
:10091000900080919100807E8061682B60939100AF
:100920005093970040939600809190008860D3CFB9
:100930008091A0008C7F82608093A0008091A100B4
:10094000807E8061682B6093A1005093A700409344
:10095000A6008091A00080688093A00050CF809175
:10096000A0008C7F82608093A0008091A100807E97
:100970008061682B6093A1005093A7004093A6006C
:100980008091A0008062E8CF8091A0008C7F82607F
:100990008093A0008091A100807E8061682B60938D
:1009A000A1005093A7004093A6008091A00088600A
:1009B000D3CF809120018C7F826080932001809131
:1009C0002101807E8061682B609321015093270173
:1009D00040932601809120018068809320010FCFF1
:1009E000809120018C7F8260809320018091210181
:1009F000807E8061682B6093210150932701409392
:100A00002601809120018062E8CF809120018C7FB7
:100A100082608093200180912101807E8061682B1B
:100A2000609321015093270140932601809120017A
:100A30008860D3CF90E080E008950F931F930097D4
:100A400009F489C06115710509F485C0009151024E
:100A50001091520220915302309154020E3F1F4FC9
:100A60002F4F3F4F09F068C04FEF5FEFBA0140933F
:100A7000510250935202609353027093540240917A
:100A80005102509152026091530270915402DC0164
:100A90001296ED91FC9180819181A281B381809326
:100AA000910490939204A0939304B093940484814E
:100AB0009581A681B78180938D0490938E04A09335
:100AC0008F04B093900480859185A285B38580932F
:100AD000890490938A04A0938B04B0938C0484853A
:100AE0009585A685B7858093850490938604A09309
:100AF0008704B093880410928104109282041092AB
:100B00008304109284040E94F5108AE191E190938D
:100B100067038093660390936903809368030E9440
:100B2000F40F009731F421E030E0309396042093E5
:100B300095041F910F910895009151021091520256
:100B40002091530230915402DB010D931D932D939C
:100B50003C93139794CF8FEF9FEFEBCF8F929F92A1
:100B6000AF92BF92CF92DF92EF92FF921F93CF93FB
:100B7000DF934B015C011091980482E090E0909328
:100B800096048093950481149104A104B10441F466
:100B900080919804811104C080919704C1E0811173
:100BA000C0E0C12CD12C760180919804811106C03F
:100BB00080919704811102C0CC23D9F083E090E0AA
:100BC0009093960480939504CC2381F1CCE9DFEFD8
:100BD000111102C00E947F14CE01DF91CF911F91AD
:100BE000FF90EF90DF90CF90BF90AF909F908F904D
:100BF00008956AE070E080E090E00E94113180E1A9
:100C0000C80E87E2D81EE11CF11C8FEF88169806EB
:100C1000A806B80631F0C1E08C149D04AE04BF04F0
:100C200008F0C0E080E00E942010BECFD0E0C0E01D
:100C3000CFCFCF92DF92EF92FF920F931F93CF937C
:100C4000DF938F3F910511F008F046C02091950485
:100C5000309196042330310539F02091950430917C
:100C600096042130310531F424E030E030939604CD
:100C7000209395046A017B01EC0182309105B8F064
:100C800011E0AE01C701B6010E94F30FAB01BC0138
:100C900090E080E0112311F1CE01DF91CF911F91FF
:100CA0000F91FF90EF90DF90CF900C9494168C01F1
:100CB000000F111F0A591C4FD8018D919C91892B4F
:100CC000F9F20E949B160297D9F6D801ED91FC919A
:100CD000CE011995182FD5CF8FEF9FEFDF91CF91D0
:100CE0001F910F91FF90EF90DF90CF90089580E0DB
:100CF0000C942010CF93DF9386E090E090939604BD
:100D0000809395040E947910EC01E6E6F3E084E01C
:100D1000DF011D928A95E9F70E941714109296043C
:100D200010929504CE01DF91CF91089580919704A0
:100D30000895809180040895609351027093520247
:100D4000809353029093540290E080E00895CF92F4
:100D5000DF92EF92FF926B017C019F7720E030E001
:100D600040E859E50E94512C87FF2BC020E030E07D
:100D700040E05FE3C701B6010E94F32D87FD0EC07E
:100D800020E030E040E05FE3C701B6010E94DA2BCB
:100D9000FF90EF90DF90CF900C942B2D20E030E06F
:100DA00040E05FEBC701B6010E94F32D181684F4F2
:100DB00020E030E0A901C701B6010E94F72D6B01C8
:100DC0007C01C701B601FF90EF90DF90CF900895AE
:100DD00020E030E040E05FE3C701B6010E94D92B7C
:100DE000FF90EF90DF90CF900C943E2CE0910C049C
:100DF000F0910D048091AD099091AE09A091AF09D9
:100E0000B091B00980839183A283B38308952F9218
:100E10003F924F925F926F927F928F929F92AF928A
:100E2000BF92CF92DF92EF92FF920F931F93CF93D7
:100E3000DF93CDB7DEB762970FB6F894DEBF0FBE73
:100E4000CDBF80915B0490915C048130910509F0E5
:100E5000BEC08091430490914404A0914504B09198
:100E6000460480904B0490904C04A0904D04B090A8
:100E70004E04C0904704D0904804E0904904F0909C
:100E80004A048F3F2FEF9207A207B20709F07CC0F8
:100E9000C701B6016F5F7F4F8F4F9F4F0E94EE2CAF
:100EA000A50194010E94F72D20E030E040E85FE4C6
:100EB0000E94F72D609390037093910380939203A7
:100EC00090939303C0900002D0900102E090020240
:100ED000F0900302A7019601609164097091650981
:100EE00080916609909167090E94512C811151C12E
:100EF0008091630981111092630961EC79E080911E
:100F000068094DDB809168095CDB60914C0270914F
:100F10004D0280914E0290914F020E94F02C20E0F1
:100F200030E040E050E30E94F72D6B017C016091BE
:100F3000C1097091C2098091C3099091C4090E94AE
:100F4000F02C9B01AC01C701B6010E94F72D9B015B
:100F5000AC012093A1093093A2094093A3095093B7
:100F6000A409609118027091190280911A0290915F
:100F70001B020E94F72D6093A9097093AA09809320
:100F8000AB099093AC0938C0BC01CD016F5F7F4FB6
:100F90008F4F9F4F0E94EE2CA50194010E94F72DC8
:100FA0002B013C01C701B6010E94EE2CA501940162
:100FB0000E94F72D20E030E040E85FE40E94F72D2A
:100FC0009B01AC01C301B2010E94DA2B73CF892BC4
:100FD00099F4E091C003F091C1030190F081E02DFC
:100FE00080819181A281B381E0915E04F0915F04E0
:100FF00080839183A283B38380915E0490915F0488
:101000009A83898380915002813009F0CBC0A981F5
:10101000BA812D913D914D915C9160910C0270913E
:101020000D0280910E0290910F020E94F72D2091E7
:1010300010023091110240911202509113020E944D
:10104000DA2B0E945A2E2091040230910502409121
:101050000602509107020E94F72D2091080230915C
:10106000090240910A0250910B020E94DA2B609310
:10107000A5097093A6098093A7099093A809C09029
:10108000A509D090A609E090A709F090A8092091A1
:10109000A9093091AA094091AB095091AC09C70147
:1010A000B6010E94D92B4B015C018092AD09909250
:1010B000AE09A092AF09B092B00980915B04909103
:1010C0005C04019701F5C092B109D092B209E09297
:1010D000B309F092B4098092B5099092B609A09232
:1010E000B709B092B8098091A1099091A209A09185
:1010F000A309B091A4098093B9099093BA09A09368
:10110000BB09B093BC09E981FA81408051806280BB
:101110007380F0918109F987209182092D831091C4
:10112000830900918409F0908909E0908A09D090A0
:101130008B09C0908C09A30192016F2F7D81812FB3
:10114000902F0E94F32D2F2D3E2D4D2D5C2D87FDD0
:101150003AC0C301B2010E94512C18160CF0C7C04E
:101160002F2D3E2D4D2D5C2D69857D81812F902F5A
:101170000E94512C87FD2FC080918D0990918E097E
:10118000A0918F09B091900989839A83AB83BC8326
:101190003BC0C0926409D0926509E0926609F09262
:1011A0006709A6CE8091140290911502A0911602B3
:1011B000B09117028093A5099093A609A093A7095F
:1011C000B093A8095CCF69857D81812F902F0E9403
:1011D000512C87FF0AC02F2D3E2D4D2D5C2DC301B4
:1011E000B2010E94F32D18163CF28091850990916E
:1011F0008609A0918709B091880989839A83AB8376
:10120000BC83F984ED8068012F2D3E2D4D2D5C2D82
:10121000C301B2010E94D92B6B017C0129813A8163
:101220004B815C81C501B4010E94D92BA7019601B5
:101230000E94552C6B017C012091590930915A096B
:1012400040915B0950915C096091240270912502E4
:1012500080912602909127020E94F72D2B013C01DC
:1012600020911C0230911D0240911E0250911F02DC
:10127000C501B4010E94F72D9B01AC01C301B2016D
:101280000E94DA2B4B015C01209128023091290247
:1012900040912A0250912B02C701B6010E94F72DFE
:1012A0009B01AC01C501B4010E94DA2B6B017C01EA
:1012B000C092BD09D092BE09E092BF09F092C00968
:1012C00080902C0290902D02A0902E02B0902F02C0
:1012D000A50194010E94F32D18166CF48092BD09AB
:1012E0009092BE09A092BF09B092C00914C0C12C4F
:1012F000D12C7601A1CF8090300290903102A09045
:101300003202B0903302A5019401C701B6010E94D8
:10131000512C87FDE3CF20913C0230913D0240915A
:101320003E0250913F026091BD097091BE098091CB
:10133000BF099091C0090E94F32D18160CF0F8C255
:10134000609134027091350280913602909137029B
:10135000FEDC6B017C0120E030E040E853E40E94B9
:10136000512C6FEF87FF0EC020E030E0A901C701CC
:10137000B6010E94F32D60E087FD04C0C701B601ED
:101380000E94C22C84E035D9209148023091490254
:1013900040914A0250914B026091BD097091BE0983
:1013A0008091BF099091C0090E94F32D18160CF08E
:1013B000C8C26091400270914102809142029091B6
:1013C0004302C5DC6B017C0120E030E040E853E4DF
:1013D0000E94512C6FEF87FF0EC020E030E0A90182
:1013E000C701B6010E94F32D60E087FD04C0C7016C
:1013F000B6010E94C22C85E0FCD86AE070E080E073
:1014000090E035D99A8389839093800980937F09EE
:10141000C090BD09D090BE09E090BF09F090C0090E
:10142000E894F7F820E030E04FE753E4C701B60155
:101430000E94512C181634F4C12CD12C8FE7E82EC1
:1014400083E4F82EB701A60189819A81D9D88091C9
:101450005B0490915C04019709F051C2809181096D
:1014600090918209A0918309B091840989839A831C
:10147000AB83BC834090CD095090CE096090CF09DA
:101480007090D009E0915E04F0915F04C080D1803B
:10149000E280F380A3019201BC01CD010E94512C96
:1014A000811158C2C0928109D0928209E0928309C9
:1014B000F0928409E5E8F9E08091AD099091AE09D8
:1014C000A091AF09B091B00980839183A283B383C7
:1014D00060914704709148048091490490914A04B6
:1014E0000E94EE2C20E030E040E85FE40E94F72DFF
:1014F0006B017C0160914304709144048091450428
:10150000909146040E94EE2C9B01AC01C701B601EC
:101510000E94DA2B20E030E0A9010E94DA2B0E9421
:10152000C22CAB01BC0190E080E083DB80915B04C6
:1015300090915C04019709F0E2C1609153047091AD
:10154000540480915504909156040E94EE2C20E0A2
:1015500030E040E85FE40E94F72D6B017C01609170
:101560004F047091500480915104909152040E9454
:10157000EE2C9B01AC01C701B6010E94DA2B20E0E2
:1015800030E0A9010E94DA2B0E94C22CAB01BC0101
:1015900081E090E04EDBA0915B04B0915C04BC87DD
:1015A000AB87119709F0ABC1E091C003F091C10383
:1015B0000190F081E02D40805180628073808091A5
:1015C000900390919103A0919203B09193038D8722
:1015D0009E87AF87B88BE0919403F0919503C0800C
:1015E000D180E280F380E091C403F091C503A08133
:1015F000B181BA8BA98BE0918803F0918903208097
:10160000318002811381848195819A838983A681A7
:10161000B781BA87A987E0918603F0918703118289
:10162000108284E0E989FA89D10101900D928A95AE
:10163000E1F7E091BE03F091BF0311830083D6DB95
:1016400020E030E040E05FE3C701B6010E94F72DE3
:101650004B015C01F80120813181428153810E945C
:10166000F72DD1012D913D914D915C910E94DA2B86
:10167000E989FA896083718382839383E091C0034F
:10168000F091C103808191819E838D83A501940196
:10169000C301B2010E94DA2BAD81BE816D937D93AF
:1016A0008D939C931397E091BE03F091BF038981C2
:1016B0009A8191838083ABDB99DB20E030E040E4CA
:1016C0005FE3C701B6010E94F72D4B015C0120E0EA
:1016D00030E0A901C701B6010E94F72DD8012D9174
:1016E0003D914D915C910E94F72D6D837E838F8398
:1016F0009887E981FA812081318142815381C50136
:10170000B4010E94F72D9B01AC016D817E818F8118
:1017100098850E94DA2BD1012D913D914D915C91DC
:101720000E94DA2BE989FA8960837183828393832B
:10173000E091C003F091C103808191819E838D83EC
:10174000A5019401C301B2010E94DA2BAD81BE81D3
:101750006D937D938D939C931397E091BE03F091CD
:10176000BF0389859A859183808351DB3FDB29E321
:101770003EE843E65EE3C701B6010E94F72DD801BB
:101780002D913D914D915C910E94F72D4B015C0193
:101790002BEA3AEA4AEA5EE3C701B6010E94F72D56
:1017A000E981FA8120813181428153810E94F72DA4
:1017B0009B01AC01C501B4010E94DA2B4B015C0115
:1017C00029E33EE843EE5EE3C701B6010E94F72D30
:1017D000A985BA852D913D914D915C910E94F72D7F
:1017E0009B01AC01C501B4010E94DA2BF1012081FB
:1017F0003181428153810E94DA2BA989BA896D9384
:101800007D938D939C931397E091C003F091C10356
:101810000190F081E02D8D859E85AF85B88980830C
:101820009183A283B383E0918603F0918703AB8514
:10183000BC85B183A0838091430490914404A0911E
:101840004504B09146040196A11DB11D8093430447
:1018500090934404A0934504B0934604892B8A2BAB
:101860008B2B99F48091470490914804A0914904EE
:10187000B0914A040196A11DB11D80934704909335
:101880004804A0934904B0934A0480919003909136
:101890009103A0919203B0919303E0915E04F091C3
:1018A0005F0480839183A283B38380914F049091DE
:1018B0005004A0915104B09152040196A11DB11D94
:1018C00080934F0490935004A0935104B09352041A
:1018D000892B8A2B8B2B99F480915304909154047B
:1018E000A0915504B09156040196A11DB11D80939D
:1018F000530490935404A0935504B09356046296F5
:101900000FB6F894DEBF0FBECDBFDF91CF911F9110
:101910000F91FF90EF90DF90CF90BF90AF909F908E
:101920008F907F906F905F904F903F902F90089591
:10193000609138027091390280913A0290913B0295
:1019400007CD6091440270914502809146029091CA
:10195000470237CD8090890990908A09A0908B0921
:10196000B0908C09A5019401C301B2010E94512CD1
:1019700081110BC0C0928909D0928A09E0928B092B
:10198000F0928C09EDE8F9E097CDA5019401698109
:101990007A818B819C810E94512C87FFEBCF82CD75
:1019A0004F925F926F927F92AF92BF92DF92EF92CF
:1019B000FF920F931F93CF93DF9384E090E0DAD1EF
:1019C000E0E8F3E088EEDF011D928A95E9F7CBE5C8
:1019D000D4E0D783C6838EE594E09093C1038093CF
:1019E000C0030BE414E0158B048B2CE034E037AF1C
:1019F00026AF46E054E05093C5034093C4032BE365
:101A000034E03093C3032093C2032DE334E03093DA
:101A1000C7032093C60328E034E03093C903209322
:101A2000C8032AE034E03093CB032093CA03F09339
:101A3000EB03E093EA03F583E48321E030E03983AC
:101A4000288323E234E063E174E0E9017983688369
:101A500067E174E070932604609325046BE174E001
:101A600070932804609327046FE174E070932A0454
:101A70006093290469E5A62E69E0B62EDA01AD92DD
:101A8000BC92318720872EE732E03387228720E619
:101A900034E0EC013983288340E050E060E87FEBDC
:101AA00040935704509358046093590470935A0418
:101AB0004AE057ED63EA7CE3D8014D935D936D9363
:101AC0007C9313974BE254E086EA9CE3A7E8B6E0E8
:101AD000EA0188839983AA83BB838CEF95EEA4E007
:101AE000B0E980932F0490933004A0933104B09315
:101AF000320484E69BE4AFE2BEE780933304909324
:101B00003404A0933504B093360483E09EEBADE338
:101B1000B6EF8093370490933804A0933904B093C0
:101B20003A04A4E7B3E0B383A283EAE6F3E01196B4
:101B3000FC93EE9383E892E0918380839383828386
:101B400095838483978386839187808781E494E05B
:101B500015969C938E93149713965C934E931297BD
:101B600017963C932E931697E1EAF9E084E2DF01A1
:101B70001D928A95E9F784E0E50119928A95E9F7C3
:101B8000CDE5D9E084E4FE0111928A95E9F7DD24E0
:101B9000D394D092A00970E0A72E72E0B72EF50181
:101BA00080819181A281B3818F839887A987BA8729
:101BB000412C512C3201439449825A826B827C829F
:101BC00048E659E062E182E00E94E301DD821E8284
:101BD0001C8AD0929F094D8A5E8A6F8A788E61E056
:101BE00084E00E94F102D98E1C86D0929E094D8617
:101BF0005E866F86788A61E085E00E94F102D98A6C
:101C00001C8ED0929D0919A24D8E5E8E6F8E78A289
:101C1000E12CF12C8701A80197016AE070E080E0D7
:101C200090E00E947B039BA38AA3D9A2F50180A127
:101C300091A1A2A1B3A18093590990935A09A093AD
:101C40005B09B0935C098091CD099091CE09A09178
:101C5000CF09B091D0098CA39DA3AEA3BFA38CA73D
:101C60009DA7AEA7BFA78B85DF91CF911F910F9145
:101C7000FF90EF90DF90BF90AF907F906F905F905C
:101C80004F900C94E10280915D09811114C081E0B4
:101C900080935D0980915E0990915F09A091600930
:101CA000B09161090197A105B10529F480916209FC
:101CB00081110E94EE0280917109811103C081E0BF
:101CC0008093710980916909811103C081E080933B
:101CD00069098091790981112EC081E08093790989
:101CE00080917A0990917B09A0917C09B0917D093E
:101CF0000197A105B105F9F480917E098823D9F0F7
:101D00006AE070E080E090E00E94370390938009E1
:101D100080937F0940E050E0BA010E9400036AE02E
:101D200070E080E090E00E943703909380098093F8
:101D30007F090C94CC03089560E070E080E89FE791
:101D4000089560E070E080E89FE7089560E070E04B
:101D500080E89FEF089560E070E080E89FEF0895CD
:101D600060E070E080EC9FEF089560E070E080EC50
:101D70009FEF0895F5DF6093D1097093D2098093A6
:101D8000D3099093D409F1DF6093C5097093C60914
:101D90008093C7099093C809CFDF6093CD097093F2
:101DA000CE098093CF099093D009CBDF6093C90906
:101DB0007093CA098093CB099093CC09C7DF6093D5
:101DC000D5097093D6098093D7099093D809C3DFBA
:101DD0006093D9097093DA098093DB099093DC0949
:101DE00008954F925F926F927F928F929F92AF92DF
:101DF000BF92CF92DF92EF92FF920F931F93F894CE
:101E0000409074045090750460907604709077044C
:101E1000C0906804D0906904E0906A04F0906B046C
:101E20004130510509F0A4C09B01AC0124193509CA
:101E30004609570929013A01009170041091710473
:101E4000209172043091730448015901840C951C4F
:101E5000A61CB71C80169106A206B306A0F400913A
:101E60006C0410916D0420916E0430916F040F5F2B
:101E70001F4F2F4F3F4F00936C0410936D0420931E
:101E80006E0430936F048092700490927104A0925B
:101E90007204B092730400916C0410916D0420914F
:101EA0006E0430916F048092780490927904A0922D
:101EB0007A04B0927B0400937C0410937D042093F9
:101EC0007E0430937F046093740470937504809350
:101ED000760490937704A0E2BEE4A30192010E94ED
:101EE00026376C0D7D1D8E1D9F1D609368047093B9
:101EF000690480936A0490936B04009151021091DD
:101F0000520220915302309154020F3F1F4F2F4F26
:101F10003F4FF1F000915102109152022091530273
:101F2000309154020E3F1F4F2F4F3F4F89F0C0900A
:101F30005102D0905202E0905302F090540221E0FE
:101F40008C149D04AE04BF0408F420E020938004A8
:101F500078941F910F91FF90EF90DF90CF90BF90FA
:101F6000AF909F908F907F906F905F904F9008956B
:101F70004B015C0184189508A608B708A3019201DB
:101F8000261B370B480B590B6415750586059705FD
:101F9000D0F082169306A406B50640F420E030E0A7
:101FA000A90181149104A104B10491F4A0E2BEE45A
:101FB0000E942637A7019601261B370B480B590BA9
:101FC000CA01B901C5CF82169306A406B50670F7FB
:101FD000A0E2BEE4A50194010E9426376C0D7D1D90
:101FE0008E1D9F1DB5CFFDCECF93DF9300D01F92E6
:101FF000CDB7DEB71C821B821A821982BE016F5FC9
:102000007F4FCE0103960E94392A69817A818B81A4
:102010009C810E948023009761F4BE016F5F7F4F17
:10202000CE0103960E94452A69817A818B819C8129
:1020300027D50F900F900F900F90DF91CF910895BB
:10204000FF920F931F93CF93DF93082F60E070E010
:10205000CB010E941131FF24F3940E946922EC010C
:10206000892B89F010E0CE3F8FEFD80769F000236D
:1020700061F160E070E0CB010E94113181E090E0FD
:10208000892B59F322C011E01ED5EC01892B21F0D8
:10209000CE3F8FEFD80759F711111EC011E02296DD
:1020A00009F410E00E941922EC01892B21F0CE3FA7
:1020B0008FEFD807E1F6111111C011E0CE3F8FEF7D
:1020C000D80709F410E001110BC0CE01DF91CF91C8
:1020D0001F910F91FF90089511E0E4CF11E0F3CF2D
:1020E00060E070E0CB010E9411311F25812F90E04C
:1020F000C7CFCF93DF931FD6D0E0C0E0892B71F01C
:102100006AE070E080E090E00E94113181E098DFA9
:1021100012D62196C03D27E0D20781F711D60E9442
:10212000D423109298041092970410929104109264
:102130009204109293041092940410928D041092C1
:102140008E0410928F0410929004109289041092C1
:102150008A0410928B0410928C04109285041092C1
:1021600086041092870410928804109281041092C1
:10217000820410928304109284044EEF5FEF6FEF9D
:102180007FEF409351025093520260935302709339
:10219000540210928004E8E7F4E028E0DF011D9289
:1021A0002A95E9F71092740410927504109276043F
:1021B00010927704109270041092710410927204BD
:1021C0001092730410926C0410926D0410926E04BD
:1021D00010926F04109268041092690410926A04BD
:1021E00010926B04DF91CF9108951092A404109285
:1021F000A5041092A6041092A7041092A304809143
:10220000AC049091AD049093A2048093A104109229
:10221000A00410929F0410929B0410929C041092B0
:102220009D0410929E041092A9041092A80490E0BC
:1022300080E00895CF92DF92EF92FF920F931F9369
:10224000CF938C01019709F055C02091AC043091D7
:10225000AD048091A1049091A2044091AC045091EE
:10226000AD045093A2044093A1042817390781F0CC
:102270001092A00410929F0410929B0410929C0450
:1022800010929D0410929E041092A9041092A8042A
:102290008091AC049091AD04019761F58091A80400
:1022A0009091A904892B21F480915502811112C0CB
:1022B0008091A8049091A9040197E1F480919B0476
:1022C00090919C04A0919D04B0919E040197A1055A
:1022D000B10581F410929B0410929C0410929D040D
:1022E00010929E041092550282E090E09093A9040F
:1022F0008093A8048091AC049091AD04019709F0FB
:102300001CC18091C2049091C3048017910709F009
:1023100014C18091BE049091BF04A091C004B091FB
:10232000C104009709F409C12091BD0421110DC019
:102330004091BE045091BF046091C0047091C104EB
:10234000452B462B472B09F4F8C02091A804309167
:10235000A9042230310509F0F0C020919F04211119
:10236000ECC0FC01C080D180E280F3808091A304A6
:10237000882309F4D3C08091AF049091B004892BD5
:1023800009F4FEC02091AF043091B00481E0223006
:10239000310509F080E02091AF043091B004C1E034
:1023A0002130310549F02091AF043091B004C1E0F3
:1023B0002230310509F0C0E0882309F456C020918D
:1023C000B9043091BA044091BB045091BC04C701D8
:1023D000B6010E94F32D87FD14C02091B9043091FD
:1023E000BA044091BB045091BC046091A404709164
:1023F000A5048091A6049091A7040E94512C87FD0A
:1024000022C02091B9043091BA044091BB0450918C
:10241000BC04C701B6010E94F32D181634F52091B3
:10242000B9043091BA044091BB045091BC0460914E
:10243000A4047091A5048091A6049091A7040E9421
:10244000512C811112C08091B1049091B204A091DD
:10245000B304B091B404892B8A2B8B2B19F481E03F
:102460008093A00481E080939F04CC2309F456C09C
:102470002091B9043091BA044091BB045091BC043E
:10248000C701B6010E94512C87FF14C02091B904E6
:102490003091BA044091BB045091BC046091A404F3
:1024A0007091A5048091A6049091A7040E94F32D39
:1024B00087FF22C02091B9043091BA044091BB0437
:1024C0005091BC04C701B6010E94512C811126C055
:1024D0002091B9043091BA044091BB045091BC04DE
:1024E0006091A4047091A5048091A6049091A70422
:1024F0000E94F32D181694F48091B1049091B204C7
:10250000A091B304B091B404892B8A2B8B2B19F4BE
:1025100081E08093A00481E080939F0481E090910A
:102520009F04911180E08093A304C092A404D092F0
:10253000A504E092A604F092A7040130110509F069
:1025400067C18091A8049091A904892BD9F41092B5
:10255000AE0410929F0480915502882379F082E0A6
:1025600090E09093A9048093A804109255022091C2
:10257000AC043091AD0481E0232BE9F080E01BC076
:1025800081E009CF109255028091AE04882349F072
:102590001092A0041092A9041092A8041092AE0404
:1025A000EDCF8091AC049091AD04892BE1F0809146
:1025B0009F0410929F042091A8043091A904223016
:1025C000310509F45EC088F42115310509F448C0CD
:1025D0002130310509F4F3C01092A00410929F0439
:1025E0001092AE0438C081E0E6CF2330310509F403
:1025F000B1C02430310581F740919B0450919C0477
:1026000060919D0470919E0441155105610571050D
:1026100061F0415051096109710940939B04509345
:102620009C0460939D0470939E0440919B04509180
:102630009C0460919D0470919E04452B462B472B72
:10264000D9F42091AA043091AB042130310509F06E
:1026500046C01092A0041092A9041092A8040CC0C5
:1026600080915502882341F082E090E09093A90484
:102670008093A80410925502109299048091A004AE
:10268000CEC08823C9F38091B1049091B204A09187
:10269000B304B091B404181619061A061B060CF000
:1026A0007DC08091AC049091AD04019709F076C093
:1026B0008091B1049091B204A091B304B091B4049C
:1026C00080939B0490939C04A0939D04B0939E04DC
:1026D00083E090E09093A9048093A804CDCF40912B
:1026E000B5045091B6046091B7047091B804452BBD
:1026F000462B472BA9F01092A0048091B50490912D
:10270000B604A091B704B091B80480939B04909351
:102710009C04A0939D04B0939E0481E090E0DACFE6
:10272000882399F08091560290915702A091580207
:10273000B091590280939B0490939C04A0939D04B4
:10274000B0939E0484E090E0C5CF1092A00482E094
:1027500090E0C0CF80919B0490919C04A0919D0437
:10276000B0919E040097A105B10559F00197A10908
:10277000B10980939B0490939C04A0939D04B09313
:102780009E0480919B0490919C04A0919D04B09123
:102790009E04892B8A2B8B2B09F06ECF80915602D9
:1027A00090915702A0915802B0915902892B8A2B1F
:1027B0008B2B09F44ECF81E08093A004B3CF4091DE
:1027C0009B0450919C0460919D0470919E0441155E
:1027D00051056105710561F04150510961097109A7
:1027E00040939B0450939C0460939D0470939E04BB
:1027F00040919B0450919C0460919D0470919E04B3
:10280000452B462B472B09F037CF8111C7CF9FCFE0
:1028100080919904882309F431CF80919A04CF9153
:102820001F910F91FF90EF90DF90CF90089510923D
:10283000A4041092A5041092A6041092A70410926A
:10284000A3041092A9041092A8041092A20410925A
:10285000A1041092C3041092C2041092A00410921A
:102860009F0410929B0410929C0410929D0410925D
:102870009E0410929A04109299041092BE04109231
:10288000BF041092C0041092C1041092BD041092B3
:10289000B9041092BA041092BB041092BC0488EEE2
:1028A00093E0A0E0B0E08093560290935702A0938B
:1028B0005802B09359021092B5041092B6041092C7
:1028C000B7041092B8041092B1041092B20410929E
:1028D000B3041092B4041092B0041092AF0481E0DB
:1028E000809355021092AE041092AD041092AC0485
:1028F0001092AB041092AA0490E080E008958091B9
:10290000AC049091AD04892B19F580915502882370
:1029100051F08091AE04811106C081E080939A0449
:102920008093990408952091AE043091550281E07E
:1029300090E0332311F090E080E030E08223932395
:10294000892B21F010929A0481E0EACF1092990429
:10295000089582E090E0FA01918380838FEF9FEFEA
:102960000895CF93DF93EA01009711F00E94E924C4
:102970001982188290E080E0DF91CF910895DB0109
:10298000009719F48FEF8C9308952EEF2C93FC0190
:102990003F96EF30F10508F034C08827ED52FB4E2A
:1029A0008F4F0C941E37FF14FD14FB14F914F71409
:1029B000F314F514F114EF14ED14EA14E614E21410
:1029C000E814011580E311968C93089589E2FBCFFA
:1029D00082E2F9CF11961C92089583E2F4CF81E24E
:1029E000F2CF81E1F0CF87E2EECF8AE2ECCF80E157
:1029F000EACF84E2E8CF88E2E6CF86E2E4CF81E363
:102A0000E2CF80E2E0CF8091D0049091D10408958C
:102A10009093D1048093D00408958091CF040895B9
:102A20009091CF04892B8093CF040895982F90958F
:102A30008091CF0489238093CF0408958091CE04A0
:102A400008958091CC049091CD040895611571058D
:102A500059F0FB0130E020E070E060E0241735071A
:102A600019F06115710511F0CB010895A081B181B4
:102A7000A817B90709F4BF012F5F3F4F3696EECF75
:102A80008091D20481111CC041D247D29093C504D9
:102A90008093C4040E945B1E0E946D1E9093C90423
:102AA0008093C8040E9481210E9488219093C704CA
:102AB0008093C60481E08093D20490E080E0089582
:102AC00084EF9FEF08958F929F92AF92BF92CF9223
:102AD000DF92EF92FF920F931F93CF93DF9300D07B
:102AE00000D000D01F92CDB7DEB71A86198618869F
:102AF0001F821E821D821C821B821A821982809173
:102B0000D20407EF1FEF882309F48BC08E010D5FFD
:102B10001F4F9E012B5F3F4FAE01495F5F4FBE01CC
:102B2000675F7F4F90E080E00E9405238C01009753
:102B300021F00596029708F0C7C089859A8500970D
:102B400009F4EFC0ED80FE802B813C812E0D3F1DEE
:102B50004F8158854217530708F4E3C0E80EF91E69
:102B6000D7014C912091D0043091D104232B09F44A
:102B700094C0413F08F069C08CE1840F8D3008F4A7
:102B800083C08DE2840F803108F481C088E3840F14
:102B90008B3008F47FC09FEBC92E94E1D92EE9EA6F
:102BA000F4E16D817E81AE014F5F5F4F89859A852B
:102BB00019955C01C114D104A1F189809A80811416
:102BC000910479F18B819C818815990508F484C062
:102BD00010E000E04B815C8170E060E0C7010E9482
:102BE000483701151105E9F449815A8169857A85CB
:102BF0008D819E81680F791FC501F6011995E980C5
:102C0000FA800D811E812F81388549855A856FEFA5
:102C10007FEF81E090E00E94A0228C01892B09F0D7
:102C200053C0C8012A960FB6F894DEBF0FBECDBFC1
:102C3000DF91CF911F910F91FF90EF90DF90CF9098
:102C4000BF90AF909F908F90089530E020E0220FCA
:102C5000331FF901EC53FB4F0190F081E02D3097C9
:102C600009F499CF842F90E01995009709F493CF38
:102C7000DC011296ED91FC9113971496CD90DC90A7
:102C8000309709F08ECF1EC021E030E0E0CF22E087
:102C900030E0DDCF23E030E0DACFD12CC12CE1EB06
:102CA000F4E14F3F09F07DCFE091C404F091C504F9
:102CB000309719F404EF1FEF0CC08FEF90E01995D7
:102CC0000097B1F604EF1FEF89859A85009709F404
:102CD000A8CF0E94E924A5CF0E94CF238C0189852B
:102CE0009A850E94E92470E060E0C4010E94682394
:102CF00098878F830E949D229E838D836F81788524
:102D00006115710559F0C8010E946D269A8789875F
:102D100006EF1FEF892B09F05BCF5CCF08EF1FEFA9
:102D200059CF08EF1FEFD0CF2091D2042111DAC77D
:102D300087EF9FEF08958091D0049091D10408957A
:102D40000E948D210E94E720EDD0E4ECF4E088E0C1
:102D5000DF011D928A95E9F71092D20490E080E09D
:102D6000089586E090E0FA019183808390E080E00E
:102D7000089547E050E066E872E068CEDF92EF9297
:102D8000FF920F931F93CF93DF938A01EC01C60F3D
:102D9000D71FE090D604F090D704D9800E94B723C3
:102DA000D816190678F082E090E0F80191838083CC
:102DB0008EEF9FEFDF91CF911F910F91FF90EF90DA
:102DC000DF900895EF2841F482E090E0F8019183CC
:102DD000808384EF9FEFEECF89818093D50490E0CC
:102DE0000196F8019183808390E080E0E3CFCF9358
:102DF000DF93EA010E94FA1F882321F00E94C42376
:102E00000E94FB1F82E090E0998388838BEF9FEF05
:102E1000DF91CF910895CF93DF93EB0186E0FB0123
:102E200011928A95E9F78FEF8883F7DD898306DEB3
:102E30008A8307DE9D838C83DF91CF910895CF93A2
:102E4000DF93EA010E94FD1F811109C082E090E03A
:102E50009983888385EF9FEFDF91CF91089590E06C
:102E600080E0D6DD81E090E09983888390E080E087
:102E7000F3CF0F931F93CF93DF93EA018C01060FDB
:102E8000171F0E94FD1F81110BC082E090E0998303
:102E9000888385EF9FEFDF91CF911F910F91089568
:102EA000F8018181823038F082E090E09983888354
:102EB0008EEF9FEFF0CF81E090E0AADD88E090E018
:102EC0009983888390E080E0E6CFCF93DF930097EB
:102ED000D1F4EB01FB01329686E0DF011D928A9569
:102EE000E9F78FEF888385E089831A820E94B723F0
:102EF0008B830E94B6239D838C8381E08E838F8396
:102F0000DF91CF910895DF91CF9139CD89EB96E193
:102F10009093D4048093D30408958091D304909126
:102F2000D40408951092D4041092D304089580918B
:102F3000D6049091D7040895411105C0611571051B
:102F40008105910561F06093D6047093D704809356
:102F5000D8049093D9044093DA0481E0089580E086
:102F60000895FF920F931F93CF93DF938A01EC0193
:102F7000C60FD71FF9800E94B723F816190668F00C
:102F800082E090E0F801918380838EEF9FEFDF91E4
:102F9000CF911F910F91FF9008956C817D818E815B
:102FA0009F814B81C9DF811108C082E090E0F80168
:102FB0009183808384EF9FEFEACF89818093D5044A
:102FC00090E00196F8019183808390E080E0DFCF6C
:102FD000CF93DF93EA01FC01E60FF71F648175814F
:102FE000868197814381A8DF811109C082E090E04A
:102FF0009983888384EF9FEFDF91CF91089581E0DB
:1030000090E09983888390E080E0F6CFE6EDF4E0ED
:103010004081518162817381480F511D611D711D75
:1030200040835183628373830895CF93C091D50405
:103030004C2F50E06091D6047091D70401960E9405
:103040003F378C2FE3DF1092D504CF91089500977E
:1030500099F48091D6049091D7042FEFFB0120833F
:10306000892B59F02091D50430E02F5F3F4F241772
:10307000350719F4CB01D9CF82CC0895009799F484
:103080008091D6049091D7042FEFFB012083892BE8
:1030900059F02091D50430E02F5F3F4F24173507BA
:1030A00019F4CB01C2CF6BCC08952DE0AC01249F65
:1030B000C001259F900D1124E091DF04F091E00400
:1030C000E80FF91F238134812250310981E0223039
:1030D000310508F080E008950F931F93CF93DF939D
:1030E0000091E1041091E204D0E0C0E080E00C1710
:1030F0001D0749F491E0811190E0892FDF91CF9174
:103100001F910F9108958111F5CFCE01CEDF219649
:10311000EECFA091DF04B091E004109729F1209147
:10312000E1043091E20482179307F0F45DE0589FC8
:103130009001599F300D1124A20FB31FED91FC9106
:103140001197309789F012968C91681768F485E092
:10315000689FE00DF11D112480819181892B21F060
:1031600081E09281491708F080E00895EF92FF9284
:103170000F931F93CF93DF93EA01FC01E60FF71F34
:1031800002811381E480F5804F2D6E2DC801C1DFCF
:1031900081110DC082E090E0998388838EEF9FEFCC
:1031A000DF91CF911F910F91FF90EF900895C8018B
:1031B0007CDF882339F082E090E09983888388EF70
:1031C0009FEFEECF1093610200936002E0926202E3
:1031D000F092630281E090E09983888390E080E040
:1031E000DFCFCF92DF92EF92FF920F931F93CF9397
:1031F000DF937A01EC01C60FD71FC0906002D09018
:1032000061020091620210916302412F602FC6019A
:1032100080DF811110C082E090E0F701918380830C
:103220008AEF9FEFDF91CF911F910F91FF90EF9069
:10323000DF90CF900895C60138DF882341F082E007
:1032400090E0F7019183808388EF9FEFEBCF4C8173
:103250005D816E817F819A8189818F3F41F082E01B
:1032600090E0F701918380838EEF9FEFDBCFEDE05D
:10327000EC9D9001ED9D300D1124E091DF04F09163
:10328000E004E20FF31F0190F081E02D25E0029FA2
:10329000E00DF11D11240190F081E02D27E0129F37
:1032A000E00DF11D1124808391838B818283438300
:1032B0005483658376831F5F1093630281E090E0FF
:1032C000F7019183808390E080E0ACCFEF92FF9292
:1032D0000F931F93CF93DF937A018C01060F171F73
:1032E000C091DF04D091E004209781F021E030E02C
:1032F000F801828193814091E1045091E2048417A6
:10330000950710F030E020E0232B71F482E090E08C
:10331000F701918380838EEF9FEFDF91CF911F9113
:103320000F91FF90EF9008954DE0489F9001499FC5
:10333000300D1124C20FD31FB8DE882341F082E084
:1033400090E0F7019183808388EF9FEFE6CFF8014B
:103350002481358120383105C8F687818111D6CF87
:103360004181842F90E08F7E009741F082E090E0D1
:10337000F7019183808386EF9FEFCFCF4F833E830A
:103380002D83268128871986223010F421E0288792
:1033900021E030E0F70131832083BFCF88E090E067
:1033A000FA019183808390E080E00895FB018FEF24
:1033B000808381E181838FEF9FEF9383828380E815
:1033C00090E095838483168217820895FB018FEF26
:1033D000808391E0918382839383848384E38583D4
:1033E00081E090E09783868308954BE050E060EBA6
:1033F00072E02CCB8F929F92BF92CF92DF92EF928E
:10340000FF920F931F93CF93DF93EA01FC01E60F26
:10341000F71F828193810481B580E091DF04F091F0
:10342000E004309791F482E090E0998388838CEFF8
:103430009FEFDF91CF911F910F91FF90EF90DF9061
:10344000CF90BF909F908F9008952091E10430918C
:10345000E2048217930738F082E090E09983888332
:103460008EEF9FEFE6CF2DE0289F6001299FD00CC3
:103470001124EC0DFD1DE080F180E114F10499F2BE
:103480008281081748F785E0089F80011124E00E2B
:10349000F11EF70180819181892B29F6BB20E1F291
:1034A000F7E0BF9E40011124C4010E949B24F70154
:1034B00091838083E091DF04F091E004EC0DFD1D29
:1034C0000190F081E02DE00FF11F80819181009744
:1034D00039F482E090E0998388838DEF9FEFA9CF44
:1034E000A40170E060E00E9448378091DF04909171
:1034F000E004C80ED91EF60180819181080F191FC2
:10350000F801B28281E090E09983888390E080E0C6
:1035100090CFAF92BF92CF92DF92FF920F931F9303
:10352000CF93DF93EA01FC01E60FF71F82819381BD
:10353000F4800091DF041091E0040115110581F47D
:1035400082E090E0998388838CEF9FEFDF91CF91A9
:103550001F910F91FF90DF90CF90BF90AF90089593
:103560002091E1043091E2048217930738F082E061
:1035700090E0998388838EEF9FEFE8CF2FEF2F0D98
:103580002C3FA8F72DE0289F6001299FD00C112423
:103590000C0D1D1DF80180819181892B89F6F5E0C4
:1035A000FF9E50011124C5010E949B24F8019183C4
:1035B0008083E091DF04F091E004EC0DFD1D80813B
:1035C0009181009739F482E090E0998388838DEFB0
:1035D0009FEFBCCFA50170E060E00E944837E0910A
:1035E000DF04F091E004EC0DFD1DF28281E090E03B
:1035F0009983888390E080E0A9CFCF92DF92EF9209
:10360000FF920F931F93CF93DF93860F971FFC01B9
:10361000028113818091DF049091E004892B81F075
:1036200082E090E0FA01918380838CEF9FEFDF913D
:10363000CF911F910F91FF90EF90DF90CF90089561
:10364000C801B0E0A0E00197A109B1098F3F9F4FE9
:10365000A105B10540F082E090E0FA0191838083FA
:103660008EEF9FEFE4CF7A018DE0809F6001819F14
:10367000D00C1124C6010E949B24EC01009741F458
:1036800082E090E0F701918380838DEF9FEFCFCFB1
:10369000A60170E060E00E944837D093E004C09338
:1036A000DF041093E2040093E10490E080E02FEF48
:1036B0003FEF8017910741F481E090E0F70191839B
:1036C000808390E080E0B3CF3C872B8701962D96D6
:1036D000F0CFCF92DF92EF92FF920F931F93CF9391
:1036E000DF93EC01D12CC12C10E000E0F12CE12C97
:1036F0008A818017110609F0BCF4AE01455F5F4F67
:1037000063E070E0C7010E941525009721F02FEFBC
:103710003FEF3C872B87DF91CF911F910F91FF9057
:10372000EF90DF90CF900895E881F981EC0DFD1DB9
:1037300023813481C90101960115110519F44F81C6
:1037400044FD049661E070E0C3D7E816F90608F47A
:103750007C010F5F1F4F85E0C80ED11CC9CFF894C4
:103760002091DD043091DE0481E02115310509F05E
:1037700080E0232B09F0789408954F925F926F9226
:103780007F928F929F92AF92BF92CF92DF92EF92F1
:10379000FF920F931F93CF93DF933C01660E771E2A
:1037A000F301828193814C01B12CA12CC091DF04E3
:1037B000D091E004209769F021E030E06091E104CD
:1037C0007091E2048617970710F030E020E0232B79
:1037D000C1F482E090E0FA01918380838EEF9FEF45
:1037E000DF91CF911F910F91FF90EF90DF90CF90DD
:1037F000BF90AF909F908F907F906F905F904F9011
:1038000008958092640290926502A0926602B0923E
:1038100067026DE0689F9001699F300D1124C20F0F
:10382000D31FF3018181833040F082E090E0FA0100
:103830009183808386EF9FEFD3CF2A012B813C8138
:10384000232BF1F4288139819F8191FF2EC0232BF6
:1038500009F464C02091E4049A81422F490F55274E
:10386000551FBA0141E050E06138710514F050E095
:1038700040E0452B09F452C02A87920F9093E4044C
:103880008150823008F476C06ADF882309F4C7C00B
:10389000F3018181813009F480C008F470C0823066
:1038A00009F4B5C090E080E090C0232BB9F12091DD
:1038B000E3049A81E22FE90FFF27FF1F41E050E068
:1038C000ED3FF10514F050E040E0452B39F12A8737
:1038D000920F9093E304D4CFA081B181A20FB31FC4
:1038E00011966C91060F111D0196295F3F4F8417A9
:1038F000950794F3C114D104C9F48F8184FF16C0D5
:1039000035D721E0A8014B5F5F4F8417950708F476
:1039100020E0A7014B5F5F4F21110EC082E090E0D5
:10392000F2019183808387EF9FEF5ACF1FD721E069
:10393000A8014F5F5F4FE9CF88819981E80EF91E9A
:10394000F70114830383FFEFCF1ADF0A7A018A811C
:103950008C151D0409F00CF497CFE881F981EE0D68
:10396000FF1D428150E030E020E010E000E090E0F8
:1039700080E0BDCFF12CE12CD12CC12CE8CF81E02F
:1039800090E09C838B83A8DB882309F48BCF81E0B4
:1039900090E03ED880E44AD885CF8B859C850196FF
:1039A00051F083E090E09C838B8382E090E030D8FC
:1039B00080E436D877CF22E082169104A104B104C6
:1039C0007CF4CE0186DE009761F3789422E030E04B
:1039D000F20131832083892BF9F08DEF9FEF00CF27
:1039E0002D813E8180915A0290915B022817390700
:1039F000C1F660915E0270915F02AE01455F5F4F5C
:103A000080915C0290915D020E942C26DCCF82E0C6
:103A100090E09C838B8346CF90E080E0E1CE82E013
:103A200090E0F2019183808385EF9FEFD9CE8F9252
:103A30009F92AF92BF92CF92DF92EF92FF920F933D
:103A40001F93CF93DF93EA018C01060F171FF80134
:103A50008181833098F082E090E09983888386EFBB
:103A60009FEFDF91CF911F910F91FF90EF90DF902B
:103A7000CF90BF90AF909F908F9008958091DF047A
:103A80009091E004892B61F081E090E02091E104C5
:103A90003091E204232B11F490E080E0892B39F47B
:103AA00082E090E0998388838EEF9FEFDACF57DE34
:103AB000882309F4D6C0F8018181813009F48CC0D3
:103AC000E8F0823099F42091E1043091E204E09131
:103AD000DF04F091E00490E080E041E050E028173E
:103AE000390709F0B4C0F8DA811117C0789481E081
:103AF00090E09983888390E080E0B3CF2091E10447
:103B00003091E204E091DF04F091E00490E080E085
:103B100041E050E02817390741F481E090E00E942D
:103B2000081580E40E941615E1CF63817481672B2C
:103B300011F05483438301963D96ECCFE091DF046E
:103B4000F091E004E00FF11F238134812230310530
:103B500069F4238534852F3F3F4F41F422E0C2169C
:103B6000D104E104F1040CF5CF01B3DD4FEFC41A29
:103B7000D40AE40AF40A035F1F4F4091E104509114
:103B8000E20470E060E0C416D506E606F70664F5C8
:103B90000097A1F27894892B09F4A9CF82E090E0F4
:103BA000998388838DEF9FEF5CCF4581568120916B
:103BB0005A0230915B0242175307C1F6AF01455FCD
:103BC0005F4F60915E0270915F0280915C02909104
:103BD0005D020E942C26CACF10E000E090E080E059
:103BE000C12CD12C7601C9CF0097A1F610E000E0DE
:103BF000812C912C540183E0E82EF12C1AC0E09125
:103C0000DF04F091E004E00FF11F838194810297BB
:103C100049F4F482E38282E090E00E94081580E497
:103C20000E9410158FEF881A980AA80AB80A035F35
:103C30001F4F8091E1049091E204B0E0A0E088166B
:103C40009906AA06BB06DCF290E080E0A3CF638170
:103C500074816230710511F45483438301963D965B
:103C60003ECF82E090E09983888385EF9FEFF9CE85
:103C70000097B9F48FEFFB018083209164023091AB
:103C800065024DE0429FC001439F900D1124E091D9
:103C9000DF04F091E004E80FF91F8285FB018183C6
:103CA00008950C94BF1488E090E0FA01918380831A
:103CB00090E080E008951092DE041092DD04EFEDB4
:103CC000F4E086E0DF011D928A95E9F785EF99E13E
:103CD0009093DC048093DB0408958091DB04909141
:103CE000DC0408952F923F924F925F926F927F92E1
:103CF0008F929F92AF92BF92CF92DF92EF92FF92FC
:103D00000F931F93CF93DF93CDB7DEB762970FB6B4
:103D1000F894DEBF0FBECDBFF8942091DD04309142
:103D2000DE042F5F3F4F3093DE042093DD04789450
:103D30002091DF043091E0043B832A83232B09F494
:103D400056C12091E1043091E204232B09F44FC1C4
:103D50004D875E876F87788B9C878B878A819B8155
:103D60009A8B898BD12CC12C198210E000E08091B4
:103D7000E1049091E204C816D90618F4398133237E
:103D800029F1F8948091DD049091DE0401979093DD
:103D9000DE048093DD047894C80162960FB6F8942F
:103DA000DEBF0FBECDBFDF91CF911F910F91FF906E
:103DB000EF90DF90CF90BF90AF909F908F907F90CB
:103DC0006F905F904F903F902F900895B60190E0D4
:103DD00080E02AD38887A989BA8917968C9117978A
:103DE00081FD8DC013968D919C911497039709F0D6
:103DF00086C01596ED91FC91FF83EE832B853C8563
:103E0000E217F30709F07BC0712C612C512C412C77
:103E100063C093D39A87898710E04114510431F429
:103E2000A989BA8917961C9112951170A989BA8926
:103E3000ED91FC91E60DF71D23803480111169C0CE
:103E4000BFEF2B1A3B0A61E070E0C10141D45C0175
:103E5000A989BA891B968D919C918F3F980709F487
:103E60005CC0B5013AD74C01009709F4BBC0E985A5
:103E7000FA85E80FF91FA989BA891A968C91840DE1
:103E8000808311114DC08F010F5F1F4F80915A0227
:103E900090915B02AE81BF81A817B90709F09DC060
:103EA00081E090E0B885BB2311F090E080E07101E3
:103EB00009851A859501A401B6019195819591090D
:103EC0003FD38C01892B11F0C40183D58FEF481AA1
:103ED000580A95E0690E711CA989BA8912968C91CD
:103EE0008415150429F024F0B981BB2309F491CF7E
:103EF000E885EE2321F0B60190E080E097D2FFEF55
:103F0000CF1ADF0A29893A89235F3F4F3A8B298BE1
:103F10002ECFE5E02E0E311C96CFC5010CD5A3CFD8
:103F20008D859E85AF85B88981839283A383B48371
:103F30008F010B5F1F4FAACFE080F180EC81FD81E4
:103F4000EE0EFF1ED70113966D917C9114978C9104
:103F50008F3FE1F1E1E0F0E002C0EE0FFF1F8A9534
:103F6000E2F7CF01092E000CAA0BBB0BFB0140812D
:103F700051816281738184239523A623B72321E095
:103F8000892B8A2B8B2B09F420E0D8012C93D701A5
:103F900011968C91080F111DEA81FB813196FB83EC
:103FA000EA832C813D81295F3F4F3D832C83A98982
:103FB000BA89ED91FC91E60DF71D82812A813B8142
:103FC0008217130611F00CF0B7CF6ACFF7014181C9
:103FD00050E0C8010E943F37DACF1D821C821B824D
:103FE0001A82E5CF31E0398306EF1FEF6FCF10E083
:103FF00000E0C7CEB4CB789408952F923F924F92B1
:104000005F926F927F929F92AF92BF92CF92DF9218
:10401000EF92FF920F931F93CF93DF9300D000D0C6
:10402000CDB7DEB70091DF041091E004992493949A
:104030000115110509F43EC0A090E104B090E2041E
:104040008EDB982E8823B1F11092E0041092DF04E9
:104050001092E2041092E1041092E3041092E4043E
:104060008FEF9FEFDC018093640290936502A09331
:104070006602B093670278947BD31E830D83C12CB4
:10408000D12C7601C501B0E0A0E089839A83AB838F
:10409000BC8322242A94322C89819A81AB81BC81F1
:1040A000C816D906EA06FB06F4F0C80192D480E4EB
:1040B0000E941615892D26960FB6F894DEBF0FBE06
:1040C000CDBFDF91CF911F910F91FF90EF90DF90C7
:1040D000CF90BF90AF909F907F906F905F904F90E8
:1040E0003F902F900895AD81BE8192E0C916D10412
:1040F000E104F1040CF51B968D919C918F3F98077C
:1041000009F02BD5ED81FE8134862386ED81FE8179
:1041100080819181B12CA12C412C512C3201892B11
:1041200059F5BFEFCB1ADB0AEB0AFB0AED81FE81E2
:104130003D96FE83ED83B0CF15962D913C91169759
:1041400080915A0290915B0228173907F9F61B9665
:104150008D919C91B0D5DACF8A0D9B1DDC018D919C
:104160009C91009709F035D4BFEF4B1A5B0A6B0A9C
:104170007B0AE5E0AE0EB11CAD81BE818D919C91B4
:10418000119712964C9150E070E060E0441655068D
:10419000660677060CF31DD4C4CFCF93DF93EA01F4
:1041A0002CDF811109C082E090E09983888385EF3C
:1041B0009FEFDF91CF91089581E090E00E94081574
:1041C00081E090E09983888390E080E0F2CF15DF72
:1041D0001092DC041092DB04089542E050E062EF9C
:1041E00072E00C942615FF920F931F93CF93DF93E9
:1041F0008A01EC01C60FD71FF980B9D20897F816CB
:10420000190671F068F082E090E0F80191838083F4
:104210008EEF9FEFDF91CF911F910F91FF90089547
:104220006C817D818E819F814B810E949C178111C1
:1042300008C082E090E0F8019183808384EF9FEFD3
:10424000E9CFF9800E9497174F2D50E0BE01685FBB
:104250007F4F0E943F3789810E94061881E090E0DD
:10426000F8019183808390E080E0D4CFDF92EF92D9
:10427000FF920F931F93CF93DF938A01EC01C60F38
:10428000D71F0E9497177C01D98071D2DD2059F089
:10429000029721E030E0D816190619F010F030E04E
:1042A00020E0232B79F482E090E0F8019183808371
:1042B0008EEF9FEFDF91CF911F910F91FF90EF90C5
:1042C000DF900895EF2841F482E090E0F8019183B7
:1042D000808384EF9FEFEECFF9800E9497174F2DD8
:1042E00050E0BE016E5F7F4F0E943F3789810E9480
:1042F000061881E090E0F8019183808390E080E0EF
:10430000D9CF8DEE90E29093E6048093E504089572
:104310008091E5049091E60408950895FC011182CE
:104320001082938382830895DB011D921C92DC012D
:104330001296ED91FC9113977183608313967C9391
:104340006E9312970895FC0180819181DB018D931A
:104350009C93A081B181109741F08D919C919183A4
:104360008083892B11F4F383E2830895FC0180811B
:104370009181DB018D939C93892B11F4738362836C
:10438000718360830895FC0111821082938382837C
:104390000895CF93DF931F921F92CDB7DEB71A8295
:1043A0001982F894BE016F5F7F4F8CEE94E0CBDFF3
:1043B00089819A81009709F00CD389819A81892B90
:1043C00089F7BE016F5F7F4F80EF94E0BCDF89818A
:1043D0009A81009709F0FDD289819A81892B89F70A
:1043E00078940F900F90DF91CF910895CF93DF9342
:1043F0001F921F92CDB7DEB71A821982F894BE01C0
:104400006F5F7F4F88EE94E09EDF89819A810097ED
:1044100009F0DFD289819A81892B89F778940F90EE
:104420000F90DF91CF91089581E0089590E080E0B2
:104430000895EF92FF920F931F93CF93DF931F92F4
:104440001F92CDB7DEB71A8219828091E70407EF79
:104450001FEF8823A1F1F894BE016F5F7F4F80EFBB
:1044600094E071DF789489819A81EE24E394F12CB1
:10447000892B51F4F894BE016F5F7F4F8CEE94E06E
:1044800062DF7894F12CE12C89819A810EEF1FEF85
:104490000097A9F0FC014281538164E070E01DD6D1
:1044A0008C01892B61F0F89469817A81C701880FAA
:1044B000991F880F991F84519B4F58DF7894C8012A
:1044C0000F900F90DF91CF911F910F91FF90EF9080
:1044D00008950F931F93CF93DF9300D01F92CDB712
:1044E000DEB71C821B821A8219828091E70407EFD3
:1044F0001FEF8823C1F0AE014D5F5F4F64E070E0B5
:10450000CE0101965DD68C01892B69F4E981FA818F
:104510008B819C8193838283F89469817A8188EE70
:1045200094E002DF7894C8010F900F900F900F90E5
:10453000DF91CF911F910F91089562D7049608954E
:104540008F929F92AF92BF92CF92DF92EF92FF92A3
:104550000F931F93CF93DF931F921F92CDB7DEB7B8
:104560001A821982BC016F5F7F4F6330710598F02A
:10457000AA24AA94BA2CC5010F900F90DF91CF9175
:104580001F910F91FF90EF90DF90CF90BF90AF9071
:104590009F908F9008954115510551F3480159019D
:1045A0008A016C01CADF8815990511F7E114F1043D
:1045B000F9F28E0D9F1DA816B906D0F28091E7047E
:1045C0008823F1F0F894B501645071099701AE01A8
:1045D0004F5F5F4FC801049688D65C01892B71F448
:1045E00089819A81F80193838283C601880F991F7C
:1045F000880F991FB80184519B4F96DE7894BBCFEA
:1046000087EFA82EBB24BA94B6CFAF92BF92CF92B9
:10461000DF92EF92FF920F931F93CF93DF931F923E
:104620001F92CDB7DEB71A821982892B09F047C0D5
:104630006115710509F443C04115510509F43FC0E6
:104640002115310509F43BC001151105C1F1809117
:10465000E7048823B9F179016A015B01F894BE018E
:104660006F5F7F4F88EE94E06EDE789489819A8147
:10467000009759F1DC0112966D917C91A801049686
:104680004DD68C01E981FA81D501ED93FC938281AD
:1046900093810496F601918380834FDFD7018D9338
:1046A0009C93C8010F900F90DF91CF911F910F91B4
:1046B000FF90EF90DF90CF90BF90AF9008950FEFF5
:1046C0001FEFEFCF07EF1FEFECCF0EEF1FEFE9CF9C
:1046D000CF93DF93EC01672B71F49BD68C179D076A
:1046E00060F08ED62496C80FD91F8DD68C0F9D1FD3
:1046F000DF91CF9108958AD6F1CF90E080E0F8CF96
:104700000F931F93CF93DF932091E70421112BC0C8
:104710008B01EC018CEE94E001DE80EF94E0FEDD95
:1047200088EE94E0FBDD86D00097C1F472D670E08D
:1047300060E0CEDF48E652E062E070E076D10097BC
:1047400069F4809168029091690275D6B801CE0132
:10475000AAD4009719F421E02093E704DF91CF91C8
:104760001F910F91089584EF9FEFF8CF4FC651C668
:10477000CF93DF9351D6EC01892B11F40ADE36DE9C
:10478000CE01DF91CF910895CF93DF9345D6EC0111
:10479000892B09F4FEDDCE01DF91CF910895809140
:1047A0006802909169020895CF93DF938091E704A6
:1047B000D0E0C0E08823D1F043D6EC01892BB1F4DE
:1047C000E8DD14DE8091680290916902C6D1D5D2ED
:1047D000EC01892B59F48CEE94E0D5DD80EF94E068
:1047E000D2DD88EE94E0CFDD1092E704CE01DF91B8
:1047F000CF910895CF93DF930097A1F4DF91CF91EC
:104800000895EC011A821982A883309711F09283DF
:1048100081832F5F3F4FFC01860F971F421753077D
:1048200081F7ECCF30E020E0F0E0E0E0AFEF6F5F49
:104830007F4FF4CFAF92BF92CF92DF92EF92FF9271
:104840000F931F93CF93DF9385E396E07C012CEFCA
:10485000E2228EEFC82E82E0D82E94E0A92E93E0BB
:10486000B92EC4E9D6E08E01D6014D915D916D015E
:10487000F501619171915F01D8011196FC92EE9260
:1048800015965C934E93149713965C934E931297E0
:1048900017967C936E9316979B012F5F3F4F249F33
:1048A000C001259F900D349F900D112419969C9363
:1048B0008E931897C7019EDFF80180859185E80ED9
:1048C000F91E065F1F4FF4E0CF16F3E0DF0661F636
:1048D000E6EFF4E08CE391E0DF019C011D922150B2
:1048E0003040E1F71092F5041092F40482EB96E068
:1048F0001F8E1E8E1BA21AA219A218A21DA21CA2F4
:104900001FA21EA22A968C179D0791F7109291065E
:1049100010929006109293061092920690E080E01A
:10492000DF91CF911F910F91FF90EF90DF90CF908B
:10493000BF90AF900895009799F1F8948131910557
:1049400050F48091960690919706892B39F020E0DB
:1049500090E080E018C08132910550F48091A0066B
:104960009091A106892B31F021E081E090E00BC00D
:104970008997A8F48091AA069091AB06892B79F0CB
:1049800022E082E090E0EAE0E89FD001E99FB00DEC
:104990001124AC56B94F8D919C91009721F47894D5
:1049A00090E080E00895E29FF0011124EC56F94F69
:1049B000DC0111964D915C9151834083428153817A
:1049C0004150510953834283FC012193CF017894D4
:1049D0000895009749F1DC018E91863041F4E09111
:1049E0009206F09193063097F9F0CD011994863034
:1049F000D8F4282F30E0F8948FEF8C938AE0829FD0
:104A0000F001839FF00D1124EC56F94F80819181C4
:104A100012969C938E931197B183A0838281938188
:104A200001969383828378940895CF92DF92EF92D8
:104A3000FF920F931F93CF93DF939C0189EF94E034
:104A40008C7F4115510509F485C02115310509F404
:104A500081C06115710509F47DC08A01AB01B901FE
:104A60006D5F7F4F6C7F9B012F5F3F4F249F7001D5
:104A7000259FF00C349FF00C1124F894E4E9F6E043
:104A800023E030E0E901A6A1B7A1C68CD78CCD28E0
:104A900009F054C0109709F03CC0C090F404D090C5
:104AA000F50429E331E02C193D092E153F0530F4BA
:104AB0007894CFEFDFEF86EF9FEF1FC02AE02C9FA7
:104AC000F0012D9FF00D1124EC56F94F9183808356
:104AD000558344835383428377836683F186E086DC
:104AE00089DEEC0CFD1CF092F504E092F40478945D
:104AF000CF3FDC0701F390E080E0F801D183C08371
:104B0000DF91CF911F910F91FF90EF90DF90CF90A9
:104B10000895AE15BF0590F02AE02C9FF0012D9F5F
:104B2000F00D1124EC56F94F918380835583448313
:104B300053834283778366835DDED9CF8A0F9B1FC1
:104B40002F5F3F4F3A962630310509F09BCFCFEFCC
:104B5000DFEFCDCF8FEF9FEFD3CFFF920F931F9358
:104B6000CF93DF939C01235031092330310508F0A6
:104B700070C0EC01F89485E09AE09C9FD0019D9F65
:104B8000B00D1124A456B94F082F10E0909FF001EA
:104B9000919FF00D1124EC56F94F20813181C017FF
:104BA000D10714F1FF24F394232B41F52AE0209F31
:104BB000F001219FF00D1124EC56F94F8091F4047F
:104BC0009091F50440855185841B950B9093F504D5
:104BD0008093F4042C9FF0012D9FF00D1124EC56CE
:104BE000F94F118610861CC0232B39F42D913C916E
:104BF0001197232BA9F48150C7CFF12C8AE08C9F09
:104C0000F0018D9FF00D1124EC56F94F4085518530
:104C100070E060E0808191810E944837F110C6CF3A
:104C20008AE08C9FF0018D9FF00D1124EC56F94F16
:104C300011821082158214821382128217821682C8
:104C4000789490E080E0DF91CF911F910F91FF90D9
:104C500008958FEF9FEFF7CF4115510549F1009768
:104C600039F16115710521F1F89420919006309188
:104C70009106232BB9F42091920630919306232BB1
:104C800089F49093910680939006709393066093B5
:104C90009206789426E030E090E080E0FA013183DB
:104CA0002083089578942FEF3FEF86EF9FEFF6CFA4
:104CB0008FEF9FEF0895069769F4F894109291068C
:104CC000109290061092930610929206789490E0BB
:104CD00080E008958FEF9FEF08956115710519F435
:104CE000F0E0E0E011C08630910581F4E09190069B
:104CF000F09191063097A1F3CB0101961995009799
:104D000079F3FC0186E08193CF0108959C01235043
:104D100031092330310520F72AE0289FD001299F4F
:104D2000B00D1124AC56B94F2D913C911197232B06
:104D3000B9F216962D913C9117972617370780F2F6
:104D4000F89412962D913C9113972115310529F075
:104D5000ED91FC911197309711F47894C1CF418176
:104D6000528111965C934E932150310913963C93D6
:104D70002E93129781937894C7CFE2E3F6E08EE505
:104D8000DF011D928A95E9F7E6EFF4E08CE391E00C
:104D9000DF019C011D9221503040E1F71092F50493
:104DA0001092F404E4E9F6E08CE3DF011D928A95A9
:104DB000E9F7E0E9F6E084E0DF011D928A95E9F782
:104DC00090E080E00895CF93DF93C0916A02D09184
:104DD0006B02CF3FDC0759F4DFD390936B028093D3
:104DE0006A0297FF09C0D0936B02C0936A0284EFF6
:104DF0009FEFDF91CF91089590E080E0FACF82306D
:104E0000910528F48093D00690E080E008958FEF1C
:104E10009FEF08954F925F926F927F92AF92BF92F1
:104E2000CF92DF92EF92FF920F931F93CF93DF9376
:104E30001F921F92CDB7DEB71A821982009709F42C
:104E400079C06115710509F475C020916A0230912D
:104E50006B0207EF1FEF2F3F3F4F09F445C06B0177
:104E60005C01412C512C3201F12CE12C10E000E0CE
:104E70009E012F5F3F4FA6014E195F09B5016E0DD0
:104E80007F1D80916A0290916B02EAD3892B09F011
:104E90004BC089819A81009741F4E114F10429F40F
:104EA0002091D006222309F442C0E80EF91EEC142A
:104EB000FD04D0F480E8481684E858068EE16806C0
:104EC000710420F560E070E0CB010E9411312AE00E
:104ED000420E511C611C711C0A3F4FEF140721F058
:104EE000043F8FEF1807A1F4C8010F900F90DF91D6
:104EF000CF911F910F91FF90EF90DF90CF90BF90D7
:104F0000AF907F906F905F904F90089501EF1FEFEB
:104F100081E090E0013F2FEF120711F090E080E078
:104F2000892B09F4A5CFE0CF04EF1FEFDDCF0AEF07
:104F30001FEFDACF0FEF1FEFD7CF4F925F926F9235
:104F40007F92AF92BF92CF92DF92EF92FF920F9338
:104F50001F93CF93DF931F921F92CDB7DEB71A82B4
:104F60001982009709F479C06115710509F475C0BB
:104F700020916A0230916B0207EF1FEF2F3F3F4FE6
:104F800009F445C06B015C01412C512C3201F12C1C
:104F9000E12C10E000E09E012F5F3F4FA6014E196B
:104FA0005F09B5016E0D7F1D80916A0290916B02C1
:104FB0000AD3892B09F04BC089819A81009741F46B
:104FC000E114F10429F42091D006222309F442C00F
:104FD000E80EF91EEC14FD04D0F480E8481686E9CA
:104FE000580688E96806710420F560E070E0CB019E
:104FF0000E9411312AE0420E511C611C711C0E3FAF
:105000004FEF140721F0043F8FEF1807A1F4C801F8
:105010000F900F90DF91CF911F910F91FF90EF9024
:10502000DF90CF90BF90AF907F906F905F904F9048
:10503000089502EF1FEF81E090E0023F2FEF12078B
:1050400011F090E080E0892B09F4A5CFE0CF04EFC8
:105050001FEFDDCF0EEF1FEFDACF0FEF1FEFD7CF30
:1050600080916A0290916B028F3F980749F08CD231
:10507000892B49F48FEF9FEF90936B0280936A0224
:1050800090E080E0089584EF9FEF0895FC01680FA1
:10509000791F90E080E0E617F70709F40895219161
:1050A000820F911DF8CF2091D106211113C08BDE04
:1050B000009791F41092D7061092D6061092D5065A
:1050C0001092D4061092D3061092D20621E02093BB
:1050D000D106089584EF9FEF0895AF92BF92CF92CB
:1050E000DF92EF92FF920F931F93CF93DF9300977E
:1050F00009F460C04630510508F45CC02091D10627
:10510000C7EFDFEF222309F449C08C01060F171FF8
:10511000F801C080D180C114D10409F44EC09601B9
:105120002A5F3F4F4217530708F447C07C01809124
:10513000D6069091D70693838283B6016C5F7F4F2A
:105140005801A60EB71EC801A1DFF5019183808327
:1051500064E070E0C8015EDEEC01892BF9F481E0C7
:1051600090E04DDEB601C801049654DEEC01892BB7
:1051700091F462E070E0C5014DDEEC01892B59F439
:10518000C70127DC8091D6069091D70601969093AF
:10519000D7068093D60690E080E031DECE01DF9125
:1051A000CF911F910F91FF90EF90DF90CF90BF9024
:1051B000AF900895CFEFDFEFF1CFC9EFDFEFEECF84
:1051C0006F927F928F929F92AF92BF92CF92DF9217
:1051D000EF92FF920F931F93CF93DF9300D01F9214
:1051E000CDB7DEB7009709F47AC04115510509F42F
:1051F00076C02091D10607EF1FEF222309F44DC09E
:105200003A017B015C0164E070E0CE01019695DE1D
:105210008C01892B09F041C009811A810115110502
:1052200009F45AC0480186E0880E911CB701680D48
:10523000791D80916C0290916D024FDD6C01009799
:1052400009F450C0A70170E060E00E9448378981EE
:105250009A81AB81BC81EC0CFD1CF7018193919389
:10526000A193B1937F0181E090E0C9DDB801C7014E
:1052700064DE892B31F562E070E0C701800F911F79
:105280005CDE8C01892BE9F490E080E0B8DDF5016B
:10529000D182C082F30191828082C8010F900F9069
:1052A0000F900F90DF91CF911F910F91FF90EF9092
:1052B000DF90CF90BF90AF909F908F907F906F9036
:1052C000089590E080E09BDDF50111821082F301EA
:1052D00011821082C6017DDB09EF1FEFDECF0FEFD9
:1052E0001FEFDBCF06EF1FEFD8CF0097A1F04115DE
:1052F000510589F02115310571F0F90136966E17C7
:105300007F0748F0DC012D933C93DA01ED93FC9389
:1053100090E080E008958FEF9FEF0895AF92BF92E5
:10532000CF92DF92EF92FF920F931F93CF93DF9371
:10533000009709F45FC04115510509F45BC0653061
:10534000710508F457C02091D106C7EFDFEF222383
:1053500091F1DC01CD90DC9011971296ED91FC91CA
:1053600096012A5F3F4FC9EFDFEF2617370719F580
:10537000C091D206D091D306209749F521E030E0C4
:105380003093D3062093D2067A018C01F093D50690
:10539000E093D4065601B4E0AB0EB11CB50176DE45
:1053A0000A0D1B1DF801208131818217930729F511
:1053B000D701CD92DC92CE01DF91CF911F910F9159
:1053C000FF90EF90DF90CF90BF90AF900895209125
:1053D000D4063091D5062F5F3F4FCCEFDFEFE217B9
:1053E000F30790F2CBEFDFEF2E173F0768F2D0E024
:1053F000C0E0CACFCFEFDFEFDECFC3EFDFEFDBCF11
:1054000084E090E0089582E090E008958CEF9FEFB3
:10541000089580E290E008951092D7061092D60683
:105420001092D5061092D4061092D3061092D2068E
:1054300090E080E0089590936D0280936C0208954F
:105440008091D106882391F00BDE009789F41092A9
:10545000D7061092D6061092D5061092D406109256
:10546000D3061092D2061092D106089590E080E003
:105470000895009749F06115710531F0FC01118222
:105480001082FB01118210820895F3CF40E855E2AB
:1054900060E070E090E080E000C08130910579F03C
:1054A0001CF4892B39F008958230910561F003973F
:1054B00071F0089526E085EE96E00C943E3426E0E7
:1054C00082E897E0FACF26E08FE198E0F6CF26E079
:1054D0008CEB98E0F2CF1F920F920FB60F9211242F
:1054E0000BB60F922F933F934F935F936F937F93DE
:1054F0008F939F93AF93BF93EF93FF938EE19BEFB7
:105500009093250180932401BFD0FF91EF91BF912B
:10551000AF919F918F917F916F915F914F913F914B
:105520002F910F900BBE0F900FBE0F901F901895EC
:105530008EE19BEF9093250180932401A3E7B0E0D7
:105540008C918E7F8C93E0E2F1E080818C7F808370
:10555000E1E2F1E08081877E8083808184608083C6
:1055600080818C7F80838C9181608C930895E3E7A8
:10557000F0E0808190819E7F90838170089581E02A
:1055800008951092D806089568EE73E080E090E0E8
:1055900048D690E080E0089526E040E050E16EE0DB
:1055A00070E085EE96E00E943E3485EE96E00E9423
:1055B0007433892B29F085EE96E00E948E33F5CF67
:1055C00090E080E00895CF92DF92EF92FF920F93E8
:1055D0001F93CF93DF936B017A01E901198218823F
:1055E00085EE96E00E947433892B79F18601CC24F4
:1055F000C39482E0D82E8091D806811111C085EE27
:1056000096E00E948E330297B1F7C092D806F80157
:10561000D1928F0188819981019699838883EBCFFC
:10562000888199818E159F0580F485EE96E00E9411
:105630008E338F3F9807A1F3F80181938F01888102
:105640009981019699838883EBCF90E080E0DF9188
:10565000CF911F910F91FF90EF90DF90CF90089521
:105660000F931F93CF93DF93EA01890185EE96E0B4
:105670000E94CE36F801D183C08390E080E0DF91B4
:10568000CF911F910F9108958091D90691E0980FC5
:105690009093D906882349F021E030E03093DB066F
:1056A0002093DA068093D906089578940E9407071C
:1056B000F8948091D9068150F5CFCF93DF93109263
:1056C000DE091092DD09E3D5E1DEC0918402D091BC
:1056D0008502198218826FEF7FEFCB010E949C0632
:1056E00070E060E090E080E00E941A05009709F009
:1056F00037C00E94D00CF8947894BE0169527F4F55
:105700008A819B810E941D05892B69F46FEF7FEFD1
:10571000CB010E94AE050E949606882321F0C35259
:10572000DF4F81E08883F89403DF0E94990681119E
:1057300004C00E94960691E0811190E09093DD09EB
:1057400078940E940315EC0178948091DD09811111
:105750000AC00E94430E0E947A06F89490E080E00E
:10576000DF91CF9108950E9477060E94990691E0FB
:10577000811106C00E94960691E0811101C090E05F
:105780009093DE099091DE0981E0911180E0809391
:10579000DD098091DE098111EADE219729F40E945A
:1057A0000315892B09F4EDDE0E940315EC01E7DEF9
:1057B000CCCF5058BB27AA270ED0C4C1B5D130F0EA
:1057C000BAD120F031F49F3F11F41EF4AAC10EF4B7
:1057D000E095E7FB77C1E92FC6D180F3BA176207DE
:1057E00073078407950718F071F49EF5F5C10EF460
:1057F000E0950B2EBA2FA02D0B01B90190010C01E1
:10580000CA01A0011124FF27591B99F0593F50F4F8
:10581000503E68F11A16F040A22F232F342F442750
:10582000585FF3CF469537952795A795F040539548
:10583000C9F77EF41F16BA0B620B730B840BBAF018
:105840009150A1F0FF0FBB1F661F771F881FC2F783
:105850000EC0BA0F621F731F841F48F48795779597
:105860006795B795F7959E3F08F0B3CF9395880F4E
:1058700008F09927EE0F97958795089596D180F0B7
:105880009F3740F491110EF4A8C160E070E080E809
:105890009FE3089526F01B16611D711D811D18C11F
:1058A00032C1ECD008F481E008950CD04BC143D153
:1058B00040F03AD130F021F45F3F19F003C15111AB
:1058C0008CC12FC150D198F39923C9F35523B1F35B
:1058D000951B550BBB27AA2762177307840738F05F
:1058E0009F5F5F4F220F331F441FAA1FA9F333D0BE
:1058F0000E2E3AF0E0E830D091505040E695001C72
:10590000CAF729D0FE2F27D0660F771F881FBB1F2D
:10591000261737074807AB07B0E809F0BB0B802D07
:10592000BF01FF2793585F4F2AF09E3F510568F053
:10593000C9C053C15F3FECF3983EDCF38695779581
:105940006795B795F7959F5FC9F7880F911D969555
:10595000879597F90895E1E0660F771F881FBB1FB1
:10596000621773078407BA0720F0621B730B840B5E
:10597000BA0BEE1F88F7E095089504D06894B11132
:105980002CC10895F8D088F09F5790F0B92F99272F
:10599000B751A0F0D1F0660F771F881F991F1AF03A
:1059A000BA95C9F712C0B13081F016D1B1E00895AF
:1059B00013C1672F782F8827B85F39F0B93FCCF330
:1059C000869577956795B395D9F73EF49095809530
:1059D000709561957F4F8F4F9F4F0895E89409C050
:1059E00097FB3EF490958095709561957F4F8F4F12
:1059F0009F4F9923A9F0F92F96E9BB279395F69528
:105A0000879577956795B795F111F8CFFAF4BB0FA5
:105A100011F460FF1BC06F5F7F4F8F4F9F4F16C009
:105A2000882311F096E911C0772321F09EE8872F93
:105A3000762F05C0662371F096E8862F70E060E04F
:105A40002AF09A95660F771F881FDAF7880F9695C8
:105A5000879597F90895A9D080F09F3740F4911168
:105A60000EF0BBC060E070E080E89FEB089526F484
:105A70001B16611D711D811D2BC045C0990F0008AB
:105A8000550FAA0BE0E8FEEF16161706E807F90710
:105A9000C0F012161306E407F50798F0621B730BAB
:105AA000840B950B39F40A2661F0232B242B252B2C
:105AB00021F408950A2609F4A140A6958FEF811DCF
:105AC000811D089597F99F6780E870E060E0089570
:105AD000882371F4772321F09850872B762F07C005
