:10000000F8C000000C94012B0C942C2B0C94572B53
:100010000C94822B0C94AD2B0C94D82B0C94032CA9
:100020000C942E2C17C1000015C1000013C1000054
:1000300011C100000FC100000DC100000BC1000084
:1000400009C1000007C1000005C1000003C1000094
:1000500001C10000FFC00000FDC000000C94592C3D
:10006000F9C000000C942D300C946330F3C00000F4
:10007000F1C00000EFC00000EDC00000EBC00000C8
:10008000E9C00000E7C00000E5C00000E3C00000D8
:100090000C94B9300C94EF30DDC00000DBC00000E0
:1000A000D9C00000D7C00000D5C00000D3C00000F8
:1000B000D1C00000CFC00000CDC00000CBC0000008
:1000C000C9C00000C7C000000C9404270C9445313F
:1000D0000C947B31BFC000000C94D1310C940732DA
:1000E000B9C0000000000A0B02090C0D0E0807033E
:1000F00004010000000000000000000000000000FB
:1001000000000000000000000000000000000000EF
:1001100012111000000000000000000000000000AC
:100120000000000000000000000001021020200874
:100130000810204010204080020102010804020142
:1001400001020408102040808040201008040201B1
:10015000800402018040201008040201080402010A
:100160000102040810204080010204081020408091
:1001700005050505070508080808020202020A0A23
:100180000808040404040101010101010101030341
:10019000030303030303040707070C0C0C0C0C0CEC
:1001A0000C0C0202020206060606060606060B0BE9
:1001B0000B0B0B0B0B0B00002200250028002B0063
:1001C0002E003100340002010000050108010B017E
:1001D00000002100240027002A002D0030003300F9
:1001E00001010000040107010A018C301831A4311B
:1001F000303211241FBECFEFD1E2DEBFCDBF00E011
:100200000CBF12E0A0E0B2E0EEEDF5E600E00BBFBF
:1002100002C007900D92A83EB107D9F729E0A8EED9
:10022000B2E001C01D92A431B207E1F710E0C9EFBE
:10023000D0E000E006C021970109802FFE010E9456
:10024000BC32C53FD10780E00807A9F70E94F1271B
:100250000C94ED32D5CE611102C00C949A2E61300F
:10026000E1F362E0FACF662319F061E00C94D62E38
:1002700060E0FCCFCF92DF92EF92FF92CF93882382
:1002800051F16A017B01CFEFC80F20E030E0A901F6
:10029000CB01B6010E94E52887FF11C0C701B60156
:1002A00090580E94EE289B01AC016C2F70E090E00A
:1002B00080E0CF91FF90EF90DF90CF90B2C0C70168
:1002C000B6010E94E9288C2FCF91FF90EF90DF902C
:1002D000CF900C94602DCF91FF90EF90DF90CF9056
:1002E00008950F931F938B019C0183E0369527950A
:1002F000179507958A95D1F708511D4F462F4770DE
:1003000021E030E0F90102C0EE0FFF1F4A95E2F74D
:10031000AF01F80120812423CB010196211102C0F5
:1003200090E080E01F910F9108950F931F938B0130
:100330009C0183E036952795179507958A95D1F707
:10034000677081E090E001C0880F6A95EAF7F801D4
:10035000E851FD4F2081452B31F480958223808325
:100360001F910F910895822BFACF2F923F924F92B7
:100370005F926F927F928F929F92AF92BF92CF9235
:10038000DF92EF92FF920F931F93CF93DF93D62EBE
:10039000C72E782E692E49015A01280161E08D2D62
:1003A0000E949A2ECD2DDC2D8E010F5F1F4FA801CC
:1003B0006D2D7C2D872D962DB8DF20E030E0A90132
:1003C000C201B7010E941F2A181664F4C201B701C6
:1003D0000E94EE282B01C501B4010E94EE28A20163
:1003E000CE0123D0C801DF91CF911F910F91FF90D3
:1003F000EF90DF90CF90BF90AF909F908F907F90C5
:100400006F905F904F903F902F900895882341F018
:100410008150682F70E090E080E050E040E085CFB0
:100420000895862FB9010C94602D9C01FC01EC51BC
:10043000FF4FE491E150E231E0F4F0E08827EC5D19
:10044000FD4F8F4F0C94BC3236023D0240025702E2
:100450006C02390281028D029102A802BD02D20211
:10046000E902FE02390213032A033F0384B58068C0
:1004700084BD60E0822F0C94D62E84B58062F8CFC4
:10048000809180008C7F82608093800080918100C9
:10049000807E8061682B6093810050938700409339
:1004A000860080918000806880938000E2CF8091F8
:1004B00080008C7F82608093800080918100807EAC
:1004C0008061682B60938100509387004093860081
:1004D000809180008062E8CF809180008C7F826074
:1004E0008093800080918100807E8061682B609382
:1004F000810050938700409386008091800088603F
:10050000D3CF8091B00080688093B0008091B1001B
:10051000887F682B6093B100ACCF8091B00080627F
:10052000F3CF809190008C7F8260809390008091C7
:100530009100807E8061682B6093910050939700BA
:10054000409396008091900080688093900091CFB6
:10055000809190008C7F82608093900080919100C8
:10056000807E8061682B6093910050939700409348
:100570009600809190008062E8CF809190008C7FFF
:1005800082608093900080919100807E8061682BD2
:100590006093910050939700409396008091900053
:1005A0008860D3CF8091A0008C7F82608093A00070
:1005B0008091A100807E8061682B6093A1005093A0
:1005C000A7004093A6008091A00080688093A000BF
:1005D00050CF8091A0008C7F82608093A00080919A
:1005E000A100807E8061682B6093A1005093A700DA
:1005F0004093A6008091A0008062E8CF8091A00087
:100600008C7F82608093A0008091A100807E8061B9
:10061000682B6093A1005093A7004093A60080919F
:10062000A0008860D3CF809120018C7F826080936E
:10063000200180912101807E8061682B60932101DF
:100640005093270140932601809120018068809378
:1006500020010FCF809120018C7F82608093200148
:1006600080912101807E8061682B609321015093ED
:10067000270140932601809120018062E8CF80917C
:1006800020018C7F82608093200180912101807EF7
:100690008061682B609321015093270140932601CC
:1006A000809120018860D3CF8091F5029091F6026D
:1006B000A091F702B091F8020196A11DB11D80939F
:1006C000F5029093F602A093F702B093F802089512
:1006D000CF93DF93C82FD62F1092F5021092F60217
:1006E0001092F7021092F8021092F1021092F202A8
:1006F0001092F3021092F40260E00E949A2ED2301F
:1007000061F038F4DD23C1F0D13061F1DF91CF9198
:100710000895D330C1F1D430C9F780E0C23049F038
:1007200081E0C33031F08EEE8C0F8430E8F587E144
:100730008C1B41E050E00EC080E0C23049F081E007
:10074000C33031F08EEE8C0F843050F487E18C1B77
:1007500043E050E064E573E0DF91CF910C94872A89
:100760008FEFF6CF80E0C23049F081E0C33031F046
:100770008EEE8C0F843028F487E18C1B42E050E031
:10078000E9CF8FEFFBCF80E0C23049F081E0C3308A
:1007900031F08EEE8C0F843028F487E18C1B50E012
:1007A00040E0D8CF8FEFFBCF8FEFC3CF8F929F92D8
:1007B000AF92BF92CF92DF92EF92FF92CF93C82F6A
:1007C0000E94A32C6B017C012091F5023091F6026E
:1007D0004091F7025091F80260E077E883E993E0F6
:1007E0000E948B324B015C018091F1029091F202E8
:1007F000A091F302B091F402A7019601281B390BD6
:100800004A0B5B0BAC2FB0E00E94C4329B01AC01E1
:10081000C501B4010E949A32C092F102D092F20254
:10082000E092F302F092F4021092F5021092F602B6
:100830001092F7021092F802CA01B901CF91FF900D
:10084000EF90DF90CF90BF90AF909F908F900895E2
:1008500090E080E008950F931F93009709F488C0FB
:100860006115710509F484C000911C0210911D02EC
:1008700020911E0230911F020E3F1F4F2F4F3F4FFE
:1008800009F067C04FEF5FEFBA0140931C0250932D
:100890001D0260931E0270931F0240911C02509132
:1008A0001D0260911E0270911F02DC011296ED91F3
:1008B000FC9180819181A281B381809324049093E3
:1008C0002504A0932604B093270484819581A681F2
:1008D000B7818093200490932104A0932204B093C5
:1008E000230480859185A285B38580931C04909311
:1008F0001D04A0931E04B0931F0484859585A685CE
:10090000B7858093180490931904A0931A04B093A8
:100910001B041092140410921504109216041092E5
:1009200017040E948E0D83EB9DE09093FA02809352
:10093000F9029093FC028093FB02EFD7009731F409
:1009400021E030E030932904209328041F910F9177
:10095000089500911C0210911D0220911E023091F9
:100960001F02DB010D931D932D933C93139795CF9D
:100970008FEF9FEFEBCF8F929F92AF92BF92CF926C
:10098000DF92EF92FF921F93CF93DF934B015C01B5
:1009900010912B0482E090E0909329048093280426
:1009A00081149104A104B10441F480912B048111BC
:1009B00004C080912A04C1E08111C0E0C12CD12C77
:1009C000760180912B04811106C080912A04811147
:1009D00002C0CC23D9F083E090E090932904809367
:1009E0002804CC2379F1CCE9DFEF111102C00E9479
:1009F0001811CE01DF91CF911F91FF90EF90DF9002
:100A0000CF90BF90AF909F908F9008956AE070E074
:100A100080E090E00E94C82C80E1C80E87E2D81EDA
:100A2000E11CF11C8FEF88169806A806B80631F075
:100A3000C1E08C149D04AE04BF0408F0C0E080E067
:100A400098D7BFCFD0E0C0E0D0CFCF92DF92EF9267
:100A5000FF920F931F93CF93DF938F3F910511F078
:100A600008F045C020912804309129042330310535
:100A700039F020912804309129042130310531F4D6
:100A800024E030E030932904209328046A017B019C
:100A9000EC0182309105B0F011E0AE01C701B60162
:100AA0003BD7AB01BC0190E080E0112311F1CE01F6
:100AB000DF91CF911F910F91FF90EF90DF90CF903A
:100AC0000C942D138C01000F111F07501D4FD801DE
:100AD0008D919C91892B01F30E9434130297E1F6CA
:100AE000D801ED91FC91CE011995182FD6CF8FEF3B
:100AF0009FEFDF91CF911F910F91FF90EF90DF90CB
:100B0000CF90089580E035C7CF93DF9386E090E0E3
:100B1000909329048093280485D7EC01E9EFF2E053
:100B200084E0DF011D928A95E9F70E94B0101092CF
:100B3000290410922804CE01DF91CF91089580916D
:100B40002A04089580911304089560931C02709301
:100B50001D0280931E0290931F0290E080E0089592
:100B6000CF92DF92EF92FF926B017C019F7720E0A2
:100B700030E040E859E50E94E52887FF2BC020E0DF
:100B800030E040E05FE3C701B6010E941F2A87FD05
:100B90000EC020E030E040E05FE3C701B6010E94F4
:100BA0006E28FF90EF90DF90CF900C94572920E0B3
:100BB00030E040E05FEBC701B6010E941F2A181623
:100BC00084F420E030E0A901C701B6010E94232A85
:100BD0006B017C01C701B601FF90EF90DF90CF90D1
:100BE000089520E030E040E05FE3C701B6010E94D5
:100BF0006D28FF90EF90DF90CF900C94D228E09179
:100C00009F03F091A0038091CC089091CD08A09112
:100C1000CE08B091CF0880839183A283B3830895D7
:100C20002F923F924F925F926F927F928F929F92FC
:100C3000AF92BF92CF92DF92EF92FF920F931F93EA
:100C4000CF93DF93CDB7DEB760970FB6F894DEBFD2
:100C50000FBECDBF8091EE039091EF0381309105DF
:100C600009F0A6C38091D6039091D703A091D80331
:100C7000B091D9038090DE039090DF03A090E00351
:100C8000B090E103C090DA03D090DB03E090DC0386
:100C9000F090DD038F3F2FEF9207A207B20709F014
:100CA00064C3C701B6016F5F7F4F8F4F9F4F0E9494
:100CB0001A29A50194010E94232A20E030E040E88F
:100CC0005FE40E94232A609323037093240380939C
:100CD00025039093260380E669DD4B015C0160915A
:100CE00018027091190280911A0290911B020E94C1
:100CF0001A2920E030E040E05EE20E94232A6B01E6
:100D00007C01C501B4010E941A299B01AC01C701F5
:100D1000B6010E94232A6B017C01C092C408D092C4
:100D2000C508E092C608F092C70880900002909033
:100D30000102A0900202B09003028092C808909233
:100D4000C908A092CA08B092CB08AC019B01C501AA
:100D5000B4010E946D289B01AC012093CC08309314
:100D6000CD084093CE085093CF088092D00890923F
:100D7000D108A092D208B092D3082093D40830931F
:100D8000D5084093D6085093D708C092D808D0927F
:100D9000D908E092DA08F092DB08609104027091C1
:100DA000050280910602909107020E94232A609317
:100DB000DC087093DD088093DE089093DF082091B3
:100DC0000E0930910F09409110095091110960915D
:100DD0000C0270910D0280910E0290910F020E9400
:100DE000232A2091DC083091DD084091DE085091E3
:100DF000DF080E946E286093E0087093E1088093FA
:100E0000E2089093E3086AE070E080E090E069DA3D
:100E10009A8389839093FB088093FA08C090E00836
:100E2000D090E108E090E208F090E30820E030E0A4
:100E30004FE753E4C701B6010E94E52818160CF4E9
:100E4000CEC220E030E0A901C701B6010E941F2AEE
:100E500087FDCCC2B701A60189819A810BDA809106
:100E6000EE039091EF03019709F048C060911002E2
:100E700070911102809112029091130271DE6B0148
:100E80007C0120E030E040E853E40E94E5286FEF69
:100E900087FF0EC020E030E0A901C701B6010E9423
:100EA0001F2A60E087FD04C0C701B6010E94EE283A
:100EB00084E0D9D9609114027091150280911602D4
:100EC000909117024DDE6B017C0120E030E040E89C
:100ED00053E40E94E5286FEF87FF0EC020E030E06A
:100EE000A901C701B6010E941F2A60E087FD04C066
:100EF000C701B6010E94EE2885E0B5D98091EE03C6
:100F00009091EF03019709F017C26091DA03709195
:100F1000DB038091DC039091DD030E941A2920E01D
:100F200030E040E85FE40E94232A6B017C0160917D
:100F3000D6037091D7038091D8039091D9030E9472
:100F40001A299B01AC01C701B6010E946E2820E05E
:100F500030E0A9010E946E280E94EE28AB01BC017E
:100F600090E080E072DD8091EE039091EF030197B5
:100F700009F0E2C16091E6037091E7038091E80314
:100F80009091E9030E941A2920E030E040E85FE4F4
:100F90000E94232A6B017C016091E2037091E303BC
:100FA0008091E4039091E5030E941A299B01AC0112
:100FB000C701B6010E946E2820E030E0A9010E941E
:100FC0006E280E94EE28AB01BC0181E090E03DDD7F
:100FD0008091EE039091EF039A878987019709F03A
:100FE000ABC1E0915303F09154030190F081E02DE7
:100FF000408051806280738080912303909124030C
:10100000A0912503B09126038B879C87AD87BE876F
:10101000E0912703F0912803C080D180E280F38023
:10102000E0915703F0915803A081B181B88BAF874D
:10103000E0911B03F0911C03208031800281138119
:10104000848195819E838D83A681B781B887AF8384
:10105000E0911903F0911A031182108284E0EF8568
:10106000F889D10101900D928A95E1F7E091510341
:10107000F091520311830083C2DD20E030E040E0B4
:101080005FE3C701B6010E94232A4B015C01F8010E
:1010900020813181428153810E94232AD1012D91E7
:1010A0003D914D915C910E946E28EF85F889608397
:1010B000718382839383E0915303F0915403808181
:1010C00091819A838983A5019401C301B2010E9491
:1010D0006E28A981BA816D937D938D939C9313970C
:1010E000E0915103F09152038D819E819183808321
:1010F00097DD85DD20E030E040E45FE3C701B60125
:101100000E94232A4B015C0120E030E0A901C701C5
:10111000B6010E94232AD8012D913D914D915C91F9
:101120000E94232A69837A838B839C83ED81FE81CD
:101130002081318142815381C501B4010E94232A5B
:101140009B01AC0169817A818B819C810E946E2810
:10115000D1012D913D914D915C910E946E28EF85BA
:10116000F8896083718382839383E0915303F091C4
:101170005403808191819A838983A5019401C301DD
:10118000B2010E946E28A981BA816D937D938D93DF
:101190009C931397E0915103F09152038F819885AE
:1011A000918380833DDD2BDD29E33EE843E65EE36A
:1011B000C701B6010E94232AD8012D913D914D917E
:1011C0005C910E94232A4B015C012BEA3AEA4AEA2D
:1011D0005EE3C701B6010E94232AED81FE812081D2
:1011E0003181428153810E94232A9B01AC01C501B8
:1011F000B4010E946E284B015C0129E33EE843EEF6
:101200005EE3C701B6010E94232AAF81B8852D9104
:101210003D914D915C910E94232A9B01AC01C50137
:10122000B4010E946E28F1012081318142815381F5
:101230000E946E28AF85B8896D937D938D939C93A2
:101240001397E0915303F09154030190F081E02D46
:101250008B859C85AD85BE8580839183A283B38376
:10126000E0911903F0911A03A985BA85B183A0838F
:101270008091D6039091D703A091D803B091D90360
:101280000196A11DB11D8093D6039093D703A0931F
:10129000D803B093D903892B8A2B8B2B99F4809197
:1012A000DA039091DB03A091DC03B091DD0301969A
:1012B000A11DB11D8093DA039093DB03A093DC039F
:1012C000B093DD038091230390912403A091250323
:1012D000B0912603E091F103F091F20380839183B2
:1012E000A283B3838091E2039091E303A091E4038E
:1012F000B091E5030196A11DB11D8093E203909387
:10130000E303A093E403B093E503892B8A2B8B2B93
:1013100099F48091E6039091E703A091E803B091DE
:10132000E9030196A11DB11D8093E6039093E703A5
:10133000A093E803B093E90360960FB6F894DEBF7C
:101340000FBECDBFDF91CF911F910F91FF90EF9016
:10135000DF90CF90BF90AF909F908F907F906F90D5
:101360005F904F903F902F900895BC01CD016F5F2B
:101370007F4F8F4F9F4F0E941A29A50194010E9411
:10138000232A2B013C01C701B6010E941A29A5019D
:1013900094010E94232A20E030E040E85FE40E94AC
:1013A000232A9B01AC01C301B2010E946E288BCCA1
:1013B000892B09F004CDE0915303F091540301907F
:1013C000F081E02D80819181A281B381E091F103D0
:1013D000F091F20380839183A283B383F0CCC12C7C
:1013E000D12C8FE7E82E83E4F82E34CDC12CD12CFC
:1013F000760130CD8F929F92AF92BF92DF92EF92A3
:10140000FF920F931F93CF93DF93E3E1F3E088EE16
:10141000DF011D928A95E9F7CEEED3E0D783C6832C
:1014200081EF93E090935403809353030EED13E008
:10143000158B048B2FE933E037AF26AF49E953E032
:1014400050935803409357032EEC33E030935603E8
:101450002093550320ED33E030935A032093590332
:101460002BE933E030935C0320935B032DE933E0F9
:1014700030935E0320935D03F0937E03E0937D033E
:10148000F583E48321E030E03983288326EB33E0E1
:1014900066EA73E0E901798368836AEA73E070932E
:1014A000B9036093B8036EEA73E07093BB03609373
:1014B000BA0362EB73E07093BD036093BC036EE00C
:1014C000A62E69E0B62EDA01AD92BC923187208754
:1014D00029E432E03387228723EF33E0EC013983BC
:1014E000288340E050E060E87FEB4093EA035093AC
:1014F000EB036093EC037093ED034AE057ED63EA6E
:101500007CE3D8014D935D936D937C9313974EEBE1
:1015100053E08BE693ECA8EEBAEBEA01888399835B
:10152000AA83BB8381EA93ECA3E6B6E48093C2036B
:101530009093C303A093C403B093C5038EE494E3D4
:10154000AFE7B6E48093C6039093C703A093C803A4
:10155000B093C9038FE999E2A6E8BCEA8093CA0375
:101560009093CB03A093CC03B093CD03A7E0B3E05B
:10157000B383A283EDEFF2E01196FC93EE938EE439
:1015800092E091838083938382839583848397837E
:1015900086839187808784ED93E015969C938E9344
:1015A000149713965C934E93129717963C932E9331
:1015B0001697E4ECF8E080E2DF011D928A95E9F7E6
:1015C00084E0E50119928A95E9F7C4EED8E08AE251
:1015D000FE0111928A95E9F7DD24D394DEA2812CD5
:1015E000912C54018394898E9A8EAB8EBC8E60E0D0
:1015F00082E06ED8DD8E188ADFA21D8A898A9A8AD7
:10160000AB8ABC8AE12CF12C8701A80197016AE022
:1016100070E080E090E00E94B5019F8B8E8BDD8AA8
:101620001886D9A689869A86AB86BC8661E084E056
:101630000E942B01DD861882D8A689829A82AB820D
:10164000BC8261E085E00E942B01DD82809108026E
:1016500090910902A0910A02B0910B0280930E09A9
:1016600090930F09A0931009B0931109DF91CF91C6
:101670001F910F91FF90EF90DF90BF90AF909F90E0
:101680008F9008958091FC08811103C081E08093C0
:10169000FC088091F40881112EC081E08093F40849
:1016A0008091F5089091F608A091F708B091F8089C
:1016B0000197A105B105F9F48091F9088823D9F0C3
:1016C0006AE070E080E090E00E9471019093FB0876
:1016D0008093FA0840E050E0BA010E943A016AE0C3
:1016E00070E080E090E00E9471019093FB0880938D
:1016F000FA080E9406028091EC08811103C081E083
:101700008093EC088091E408811103C081E080930C
:10171000E40808954F925F926F927F928F929F920A
:10172000AF92BF92CF92DF92EF92FF920F931F93EF
:10173000F894409007045090080460900904709059
:101740000A04C090FB03D090FC03E090FD03F090EE
:10175000FE034130510509F0A4C09B01AC012419DE
:1017600035094609570929013A01009103041091EE
:101770000404209105043091060448015901840CA9
:10178000951CA61CB71C80169106A206B306A0F4F1
:101790000091FF0310910004209101043091020494
:1017A0000F5F1F4F2F4F3F4F0093FF031093000415
:1017B0002093010430930204809203049092040465
:1017C000A0920504B09206040091FF03109100045A
:1017D000209101043091020480920B0490920C0439
:1017E000A0920D04B0920E0400930F041093100405
:1017F000209311043093120460930704709308043B
:101800008093090490930A04A0E2BEE4A30192012C
:101810000E94C4326C0D7D1D8E1D9F1D6093FB03C5
:101820007093FC038093FD039093FE0300911C02D0
:1018300010911D0220911E0230911F020F3F1F4F79
:101840002F4F3F4FF1F000911C0210911D0220918B
:101850001E0230911F020E3F1F4F2F4F3F4F89F046
:10186000C0901C02D0901D02E0901E02F0901F025A
:1018700021E08C149D04AE04BF0408F420E0209302
:10188000130478941F910F91FF90EF90DF90CF9009
:10189000BF90AF909F908F907F906F905F904F9090
:1018A00008954B015C0184189508A608B708A301A8
:1018B0009201261B370B480B590B641575058605DD
:1018C0009705D0F082169306A406B50640F420E0F2
:1018D00030E0A90181149104A104B10491F4A0E2C3
:1018E000BEE40E94C432A7019601261B370B480BA9
:1018F000590BCA01B901C5CF82169306A406B506D5
:1019000070F7A0E2BEE4A50194010E94C4326C0D00
:101910007D1D8E1D9F1DB5CFFDCECF93DF9300D0D3
:101920001F92CDB7DEB71C821B821A821982BE01BC
:101930006F5F7F4FCE0103960E94D22669817A8124
:101940008B819C810E941920009761F4BE016F5F1A
:101950007F4FCE0103960E94DE2669817A818B81BA
:101960009C8127D50F900F900F900F90DF91CF9112
:101970000895FF920F931F93CF93DF93082F60E09A
:1019800070E0CB010E94C82CFF24F3940E94021F38
:10199000EC01892B89F010E0CE3F8FEFD80769F07A
:1019A000002361F160E070E0CB010E94C82C81E06F
:1019B00090E0892B59F322C011E01ED5EC01892B50
:1019C00021F0CE3F8FEFD80759F711111EC011E05B
:1019D000229609F410E00E94B21EEC01892B21F03E
:1019E000CE3F8FEFD807E1F6111111C011E0CE3FC5
:1019F0008FEFD80709F410E001110BC0CE01DF9181
:101A0000CF911F910F91FF90089511E0E4CF11E065
:101A1000F3CF60E070E0CB010E94C82C1F25812F1E
:101A200090E0C7CFCF93DF931FD6D0E0C0E0892BE3
:101A300071F06AE070E080E090E00E94C82C81E0E4
:101A400098DF12D62196C03D27E0D20781F711D644
:101A50000E946D2010922B0410922A0410922404EC
:101A6000109225041092260410922704109220044C
:101A700010922104109222041092230410921C044C
:101A800010921D0410921E0410921F04109218044C
:101A90001092190410921A0410921B04109214044C
:101AA0001092150410921604109217044EEF5FEF77
:101AB0006FEF7FEF40931C0250931D0260931E0254
:101AC00070931F0210921304EBE0F4E028E0DF01B2
:101AD0001D922A95E9F710920704109208041092BB
:101AE000090410920A041092030410920404109244
:101AF0000504109206041092FF0310920004109245
:101B00000104109202041092FB031092FC03109245
:101B1000FD031092FE03DF91CF91089510923704D8
:101B2000109238041092390410923A04109236043C
:101B300080913F0490914004909335048093340445
:101B4000109233041092320410922E0410922F043B
:101B5000109230041092310410923C0410923B0415
:101B600090E080E00895CF92DF92EF92FF920F9382
:101B70001F93CF938C01019709F055C020913F042A
:101B800030914004809134049091350440913F0499
:101B9000509140045093350440933404281739077A
:101BA00081F0109233041092320410922E0410929D
:101BB0002F04109230041092310410923C041092C1
:101BC0003B0480913F0490914004019761F580911E
:101BD0003B0490913C04892B21F4809120028111D7
:101BE00012C080913B0490913C040197E1F48091F4
:101BF0002E0490912F04A0913004B09131040197EC
:101C0000A105B10581F410922E0410922F041092B8
:101C10003004109231041092200282E090E0909300
:101C20003C0480933B0480913F04909140040197D1
:101C300009F01CC1809155049091560480179107BA
:101C400009F014C18091510490915204A091530461
:101C5000B0915404009709F409C120915004211156
:101C60000DC0409151045091520460915304709101
:101C70005404452B462B472B09F4F8C020913B0414
:101C800030913C042230310509F0F0C0209132043B
:101C90002111ECC0FC01C080D180E280F3808091F2
:101CA0003604882309F4D3C0809142049091430400
:101CB000892B09F4FEC0209142043091430481E055
:101CC0002230310509F080E0209142043091430434
:101CD000C1E02130310549F02091420430914304A4
:101CE000C1E02230310509F0C0E0882309F456C074
:101CF00020914C0430914D0440914E0450914F047A
:101D0000C701B6010E941F2A87FD14C020914C0410
:101D100030914D0440914E0450914F04609137042E
:101D2000709138048091390490913A040E94E5281A
:101D300087FD22C020914C0430914D0440914E0407
:101D400050914F04C701B6010E941F2A181634F59E
:101D500020914C0430914D0440914E0450914F0419
:101D600060913704709138048091390490913A045D
:101D70000E94E528811112C080914404909145048D
:101D8000A0914604B0914704892B8A2B8B2B19F420
:101D900081E08093330481E080933204CC2309F402
:101DA00056C020914C0430914D0440914E04509106
:101DB0004F04C701B6010E94E52887FF14C0209197
:101DC0004C0430914D0440914E0450914F04609169
:101DD0003704709138048091390490913A040E943C
:101DE0001F2A87FF22C020914C0430914D0440915E
:101DF0004E0450914F04C701B6010E94E52881119D
:101E000026C020914C0430914D0440914E045091D5
:101E10004F04609137047091380480913904909197
:101E20003A040E941F2A181694F480914404909159
:101E30004504A0914604B0914704892B8A2B8B2B33
:101E400019F481E08093330481E08093320481E0CF
:101E500090913204911180E080933604C09237044F
:101E6000D0923804E0923904F0923A04013011051E
:101E700009F067C180913B0490913C04892BD9F40F
:101E8000109241041092320480912002882379F04C
:101E900082E090E090933C0480933B0410922002F7
:101EA00020913F043091400481E0232BE9F080E051
:101EB0001BC081E009CF1092200280914104882349
:101EC00049F01092330410923C0410923B0410929B
:101ED0004104EDCF80913F0490914004892BE1F0C3
:101EE000809132041092320420913B0430913C04E2
:101EF0002230310509F45EC088F42115310509F45A
:101F000048C02130310509F4F3C010923304109217
:101F100032041092410438C081E0E6CF233031050D
:101F200009F4B1C02430310581F740912E0450915D
:101F30002F04609130047091310441155105610501
:101F4000710561F0415051096109710940932E04F6
:101F500050932F04609330047093310440912E0409
:101F600050912F046091300470913104452B462B21
:101F7000472BD9F420913D0430913E0421303105A6
:101F800009F046C01092330410923C0410923B04B6
:101F90000CC080912002882341F082E090E0909371
:101FA0003C0480933B041092200210922C048091F8
:101FB0003304CEC08823C9F3809144049091450432
:101FC000A0914604B0914704181619061A061B067C
:101FD0000CF07DC080913F0490914004019709F07E
:101FE00076C08091440490914504A0914604B0913C
:101FF000470480932E0490932F04A0933004B09351
:10200000310483E090E090933C0480933B04CDCF77
:10201000409148045091490460914A0470914B04E6
:10202000452B462B472BA9F010923304809148048E
:1020300090914904A0914A04B0914B0480932E04DE
:1020400090932F04A0933004B093310481E090E08A
:10205000DACF882399F08091210290912202A091F9
:102060002302B091240280932E0490932F04A09316
:102070003004B093310484E090E0C5CF1092330473
:1020800082E090E0C0CF80912E0490912F04A09127
:102090003004B09131040097A105B10559F00197C2
:1020A000A109B10980932E0490932F04A0933004CA
:1020B000B093310480912E0490912F04A0913004AC
:1020C000B0913104892B8A2B8B2B09F06ECF809134
:1020D000210290912202A0912302B0912402892B27
:1020E0008A2B8B2B09F44ECF81E080933304B3CF3E
:1020F00040912E0450912F0460913004709131046E
:10210000411551056105710561F0415051096109A1
:10211000710940932E0450932F0460933004709300
:10212000310440912E0450912F046091300470913D
:102130003104452B462B472B09F037CF8111C7CFF0
:102140009FCF80912C04882309F431CF80912D04F6
:10215000CF911F910F91FF90EF90DF90CF90089556
:1021600010923704109238041092390410923A04F5
:102170001092360410923C0410923B0410923504E5
:1021800010923404109256041092550410923304A5
:102190001092320410922E0410922F0410923004E8
:1021A0001092310410922D0410922C0410925104BC
:1021B000109252041092530410925404109250043E
:1021C00010924C0410924D0410924E0410924F0441
:1021D00088EE93E0A0E0B0E0809321029093220289
:1021E000A0932302B0932402109248041092490451
:1021F00010924A0410924B04109244041092450429
:102200001092460410924704109243041092420424
:1022100081E08093200210924104109240041092B9
:102220003F0410923E0410923D0490E080E0089537
:1022300080913F0490914004892B19F580912002F0
:10224000882351F080914104811106C081E0809380
:102250002D0480932C040895209141043091200294
:1022600081E090E0332311F090E080E030E08223C1
:102270009323892B21F010922D0481E0EACF109254
:102280002C04089582E090E0FA01918380838FEF1F
:102290009FEF0895CF93DF93EA01009711F00E941A
:1022A00082211982188290E080E0DF91CF91089519
:1022B000DB01009719F48FEF8C9308952EEF2C9388
:1022C000FC013F96EF30F10508F034C08827E4594F
:1022D000FE4E8F4F0C94BC329811961194119211AE
:1022E00090118C118E118A118811861183117F1122
:1022F0007B1181119A1180E311968C93089589E2E4
:10230000FBCF82E2F9CF11961C92089583E2F4CFBD
:1023100081E2F2CF81E1F0CF87E2EECF8AE2ECCF2B
:1023200080E1EACF84E2E8CF88E2E6CF86E2E4CF3C
:1023300081E3E2CF80E2E0CF809163049091640476
:1023400008959093640480936304089580916204D7
:10235000089590916204892B809362040895982FC8
:1023600090958091620489238093620408958091FE
:102370006104089580915F0490916004089561154F
:10238000710559F0FB0130E020E070E060E02417B7
:10239000350719F06115710511F0CB010895A08181
:1023A000B181A817B90709F4BF012F5F3F4F3696D7
:1023B000EECF8091650481111CC041D247D2909329
:1023C0005804809357040E94F41A0E94061B9093AD
:1023D0005C0480935B040E941A1E0E94211E90934D
:1023E0005A048093590481E08093650490E080E072
:1023F000089584EF9FEF08958F929F92AF92BF92BE
:10240000CF92DF92EF92FF920F931F93CF93DF93C0
:1024100000D000D000D01F92CDB7DEB71A86198643
:1024200018861F821E821D821C821B821A821982BC
:102430008091650407EF1FEF882309F48BC08E019C
:102440000D5F1F4F9E012B5F3F4FAE01495F5F4FF6
:10245000BE01675F7F4F90E080E00E949E1F8C016D
:10246000009721F00596029708F0C7C089859A85E4
:10247000009709F4EFC0ED80FE802B813C812E0D8A
:102480003F1D4F8158854217530708F4E3C0E80EFB
:10249000F91ED7014C912091630430916404232BE1
:1024A00009F494C0413F08F069C08CE1840F8D307D
:1024B00008F483C08DE2840F803108F481C088E382
:1024C000840F8B3008F47FC098E5C92E91E1D92E96
:1024D000E2E4F1E16D817E81AE014F5F5F4F89855E
:1024E0009A8519955C01C114D104A1F189809A8063
:1024F0008114910479F18B819C818815990508F4E8
:1025000084C010E000E04B815C8170E060E0C701B6
:102510000E94E63201151105E9F449815A81698565
:102520007A858D819E81680F791FC501F601199505
:10253000E980FA800D811E812F81388549855A8571
:102540006FEF7FEF81E090E00E94391F8C01892BB3
:1025500009F053C0C8012A960FB6F894DEBF0FBE2B
:10256000CDBFDF91CF911F910F91FF90EF90DF9042
:10257000CF90BF90AF909F908F90089530E020E073
:10258000220F331FF901E95AFB4F0190F081E02D32
:10259000309709F499CF842F90E01995009709F4AA
:1025A00093CFDC011296ED91FC9113971496CD9088
:1025B000DC90309709F08ECF1EC021E030E0E0CFF4
:1025C00022E030E0DDCF23E030E0DACFD12CC12CA7
:1025D000EAE4F1E14F3F09F07DCFE0915704F0913B
:1025E0005804309719F404EF1FEF0CC08FEF90E000
:1025F00019950097B1F604EF1FEF89859A8500972A
:1026000009F4A8CF0E948221A5CF0E9468208C01E6
:1026100089859A850E94822170E060E0C4010E9451
:10262000012098878F830E94361F9E838D836F8140
:1026300078856115710559F0C8010E9406239A87B3
:10264000898706EF1FEF892B09F05BCF5CCF08EF7E
:102650001FEF59CF08EF1FEFD0CF20916504211154
:10266000DAC787EF9FEF0895809163049091640427
:1026700008950E94261E0E94801DEDD0E7E5F4E03B
:1026800088E0DF011D928A95E9F71092650490E0D9
:1026900080E0089586E090E0FA019183808390E0E5
:1026A00080E0089547E050E061E572E068CEDF9297
:1026B000EF92FF920F931F93CF93DF938A01EC0168
:1026C000C60FD71FE0906904F0906A04D9800E9479
:1026D0005020D816190678F082E090E0F801918336
:1026E00080838EEF9FEFDF91CF911F910F91FF902D
:1026F000EF90DF900895EF2841F482E090E0F80138
:102700009183808384EF9FEFEECF8981809368046B
:1027100090E00196F8019183808390E080E0E3CF20
:10272000CF93DF93EA010E94931C882321F00E943B
:102730005D200E94941C82E090E0998388838BEF57
:102740009FEFDF91CF910895CF93DF93EB0186E068
:10275000FB0111928A95E9F78FEF8883F7DD898372
:1027600006DE8A8307DE9D838C83DF91CF910895F7
:10277000CF93DF93EA010E94961C811109C082E089
:1027800090E09983888385EF9FEFDF91CF91089543
:1027900090E080E0D6DD81E090E09983888390E04E
:1027A00080E0F3CF0F931F93CF93DF93EA018C0167
:1027B000060F171F0E94961C81110BC082E090E04B
:1027C0009983888385EF9FEFDF91CF911F910F91C0
:1027D0000895F8018181823038F082E090E0998399
:1027E00088838EEF9FEFF0CF81E090E0AADD88E054
:1027F00090E09983888390E080E0E6CFCF93DF93E9
:102800000097D1F4EB01FB01329686E0DF011D92C7
:102810008A95E9F78FEF888385E089831A820E9481
:1028200050208B830E944F209D838C8381E08E8378
:102830008F83DF91CF910895DF91CF9139CD82E5DC
:1028400093E19093670480936604089580916604F1
:102850009091670408951092670410926604089599
:102860008091690490916A040895411105C0611531
:1028700071058105910561F06093690470936A04A4
:1028800080936B0490936C0440936D0481E00895F1
:1028900080E00895FF920F931F93CF93DF938A01F7
:1028A000EC01C60FD71FF9800E945020F8161906B8
:1028B00068F082E090E0F801918380838EEF9FEFD3
:1028C000DF91CF911F910F91FF9008956C817D81D1
:1028D0008E819F814B81C9DF811108C082E090E029
:1028E000F8019183808384EF9FEFEACF8981809301
:1028F000680490E00196F8019183808390E080E085
:10290000DFCFCF93DF93EA01FC01E60FF71F64816D
:102910007581868197814381A8DF811109C082E09A
:1029200090E09983888384EF9FEFDF91CF910895A2
:1029300081E090E09983888390E080E0F6CFE9E63B
:10294000F4E04081518162817381480F511D611D06
:10295000711D40835183628373830895CF93C09127
:1029600068044C2F50E06091690470916A040196EC
:102970000E94DD328C2FE3DF10926804CF9108951E
:10298000009799F48091690490916A042FEFFB01FC
:102990002083892B59F02091680430E02F5F3F4F4E
:1029A0002417350719F4CB01D9CF82CC08950097AD
:1029B00099F48091690490916A042FEFFB012083C0
:1029C000892B59F02091680430E02F5F3F4F241786
:1029D000350719F4CB01C2CF6BCC08952DE0AC01C3
:1029E000249FC001259F900D1124E0917204F09165
:1029F0007304E80FF91F238134812250310981E0EB
:102A00002230310508F080E008950F931F93CF9393
:102A1000DF930091740410917504D0E0C0E080E071
:102A20000C171D0749F491E0811190E0892FDF9187
:102A3000CF911F910F9108958111F5CFCE01CEDF77
:102A40002196EECFA0917204B0917304109729F1F2
:102A5000209174043091750482179307F0F45DE0BF
:102A6000589F9001599F300D1124A20FB31FED9173
:102A7000FC911197309789F012968C91681768F441
:102A800085E0689FE00DF11D112480819181892BE3
:102A900021F081E09281491708F080E00895EF92DB
:102AA000FF920F931F93CF93DF93EA01FC01E60F90
:102AB000F71F02811381E480F5804F2D6E2DC80130
:102AC000C1DF81110DC082E090E0998388838EEF91
:102AD0009FEFDF91CF911F910F91FF90EF9008959D
:102AE000C8017CDF882339F082E090E099838883F5
:102AF00088EF9FEFEECF10932C0200932B02E09211
:102B00002D02F0922E0281E090E09983888390E07C
:102B100080E0DFCFCF92DF92EF92FF920F931F936F
:102B2000CF93DF937A01EC01C60FD71FC0902B0221
:102B3000D0902C0200912D0210912E02412F602F77
:102B4000C60180DF811110C082E090E0F70191831F
:102B500080838AEF9FEFDF91CF911F910F91FF90BC
:102B6000EF90DF90CF900895C60138DF882341F0C1
:102B700082E090E0F7019183808388EF9FEFEBCFB5
:102B80004C815D816E817F819A8189818F3F41F087
:102B900082E090E0F701918380838EEF9FEFDBCF9F
:102BA000EDE0EC9D9001ED9D300D1124E09172045B
:102BB000F0917304E20FF31F0190F081E02D25E006
:102BC000029FE00DF11D11240190F081E02D27E01E
:102BD000129FE00DF11D1124808391838B818283EC
:102BE00043835483658376831F5F10932E0281E0B5
:102BF00090E0F7019183808390E080E0ACCFEF928A
:102C0000FF920F931F93CF93DF937A018C01060FEE
:102C1000171FC0917204D0917304209781F021E0B6
:102C200030E0F801828193814091740450917504E1
:102C30008417950710F030E020E0232B71F482E038
:102C400090E0F701918380838EEF9FEFDF91CF912A
:102C50001F910F91FF90EF9008954DE0489F9001D4
:102C6000499F300D1124C20FD31FB8DE882341F0D5
:102C700082E090E0F7019183808388EF9FEFE6CFB9
:102C8000F8012481358120383105C8F6878181110A
:102C9000D6CF4181842F90E08F7E009741F082E073
:102CA00090E0F7019183808386EF9FEFCFCF4F8332
:102CB0003E832D83268128871986223010F421E057
:102CC000288721E030E0F70131832083BFCF88E0FF
:102CD00090E0FA019183808390E080E00895FB0109
:102CE0008FEF808381E181838FEF9FEF93838283D6
:102CF00080E890E095838483168217820895FB0113
:102D00008FEF808391E0918382839383848384E334
:102D1000858381E090E09783868308954BE050E0BF
:102D20006BE772E02CCB8F929F92BF92CF92DF9293
:102D3000EF92FF920F931F93CF93DF93EA01FC0171
:102D4000E60FF71F828193810481B580E0917204C0
:102D5000F0917304309791F482E090E09983888336
:102D60008CEF9FEFDF91CF911F910F91FF90EF902C
:102D7000DF90CF90BF909F908F9008952091740422
:102D8000309175048217930738F082E090E09983C0
:102D900088838EEF9FEFE6CF2DE0289F6001299F6B
:102DA000D00C1124EC0DFD1DE080F180E114F10444
:102DB00099F28281081748F785E0089F8001112465
:102DC000E00EF11EF70180819181892B29F6BB204D
:102DD000E1F2F7E0BF9E40011124C4010E943421BA
:102DE000F70191838083E0917204F0917304EC0DFC
:102DF000FD1D0190F081E02DE00FF11F8081918198
:102E0000009739F482E090E0998388838DEF9FEFFB
:102E1000A9CFA40170E060E00E94E63280917204C4
:102E200090917304C80ED91EF60180819181080F1C
:102E3000191FF801B28281E090E09983888390E0C5
:102E400080E090CFAF92BF92CF92DF92FF920F932C
:102E50001F93CF93DF93EA01FC01E60FF71F8281F6
:102E60009381F4800091720410917304011511058F
:102E700081F482E090E0998388838CEF9FEFDF916B
:102E8000CF911F910F91FF90DF90CF90BF90AF90A7
:102E9000089520917404309175048217930738F0D7
:102EA00082E090E0998388838EEF9FEFE8CF2FEF49
:102EB0002F0D2C3FA8F72DE0289F6001299FD00CF3
:102EC00011240C0D1D1DF80180819181892B89F63B
:102ED000F5E0FF9E50011124C5010E943421F80144
:102EE00091838083E0917204F0917304EC0DFD1DD9
:102EF00080819181009739F482E090E09983888302
:102F00008DEF9FEFBCCFA50170E060E00E94E6323C
:102F1000E0917204F0917304EC0DFD1DF28281E0EA
:102F200090E09983888390E080E0A9CFCF92DF92F0
:102F3000EF92FF920F931F93CF93DF93860F971F0C
:102F4000FC01028113818091720490917304892B9A
:102F500081F082E090E0FA01918380838CEF9FEF13
:102F6000DF91CF911F910F91FF90EF90DF90CF9065
:102F70000895C801B0E0A0E00197A109B1098F3F11
:102F80009F4FA105B10540F082E090E0FA019183E6
:102F900080838EEF9FEFE4CF7A018DE0809F600108
:102FA000819FD00C1124C6010E943421EC010097AE
:102FB00041F482E090E0F701918380838DEF9FEFF1
:102FC000CFCFA60170E060E00E94E632D093730498
:102FD000C0937204109375040093740490E080E031
:102FE0002FEF3FEF8017910741F481E090E0F70168
:102FF0009183808390E080E0B3CF3C872B8701965C
:103000002D96F0CFCF92DF92EF92FF920F931F9306
:10301000CF93DF93EC01D12CC12C10E000E0F12C18
:10302000E12C8A818017110609F0BCF4AE01455FDE
:103030005F4F63E070E0C7010E94AE21009721F06E
:103040002FEF3FEF3C872B87DF91CF911F910F919F
:10305000FF90EF90DF90CF900895E881F981EC0D1B
:10306000FD1D23813481C90101960115110519F453
:103070004F8144FD049661E070E0C3D7E816F9067D
:1030800008F47C010F5F1F4F85E0C80ED11CC9CF2B
:10309000F894209170043091710481E0211531057C
:1030A00009F080E0232B09F0789408954F925F9205
:1030B0006F927F928F929F92AF92BF92CF92DF9248
:1030C000EF92FF920F931F93CF93DF933C01660E15
:1030D000771EF301828193814C01B12CA12CC09108
:1030E0007204D0917304209769F021E030E0609180
:1030F0007404709175048617970710F030E020E093
:10310000232BC1F482E090E0FA01918380838EEF5B
:103110009FEFDF91CF911F910F91FF90EF90DF9084
:10312000CF90BF90AF909F908F907F906F905F9067
:103130004F90089580922F0290923002A092310217
:10314000B09232026DE0689F9001699F300D1124AA
:10315000C20FD31FF3018181833040F082E090E001
:10316000FA019183808386EF9FEFD3CF2A012B81D1
:103170003C81232BF1F4288139819F8191FF2EC05E
:10318000232B09F464C0209177049A81422F490FC0
:103190005527551FBA0141E050E06138710514F020
:1031A00050E040E0452B09F452C02A87920F9093DB
:1031B00077048150823008F476C06ADF882309F4EE
:1031C000C7C0F3018181813009F480C008F470C068
:1031D000823009F4B5C090E080E090C0232BB9F1B3
:1031E000209176049A81E22FE90FFF27FF1F41E02B
:1031F00050E0ED3FF10514F050E040E0452B39F18F
:103200002A87920F90937604D4CFA081B181A20F28
:10321000B31F11966C91060F111D0196295F3F4F48
:103220008417950794F3C114D104C9F48F8184FFE6
:1032300016C035D721E0A8014B5F5F4F8417950773
:1032400008F420E0A7014B5F5F4F21110EC082E020
:1032500090E0F2019183808387EF9FEF5ACF1FD7D1
:1032600021E0A8014F5F5F4FE9CF88819981E80E87
:10327000F91EF70114830383FFEFCF1ADF0A7A01E7
:103280008A818C151D0409F00CF497CFE881F9812F
:10329000EE0DFF1D428150E030E020E010E000E044
:1032A00090E080E0BDCFF12CE12CD12CC12CE8CFF7
:1032B00081E090E09C838B83A8DB882309F48BCF8B
:1032C00081E090E03ED880E44AD885CF8B859C850C
:1032D000019651F083E090E09C838B8382E090E044
:1032E00030D880E436D877CF22E082169104A1044A
:1032F000B1047CF4CE0186DE009761F3789422E07D
:1033000030E0F20131832083892BF9F08DEF9FEFBC
:1033100000CF2D813E8180912502909126022817B1
:103320003907C1F66091290270912A02AE01455F0A
:103330005F4F80912702909128020E94C522DCCF26
:1033400082E090E09C838B8346CF90E080E0E1CEEA
:1033500082E090E0F2019183808385EF9FEFD9CEE8
:103360008F929F92AF92BF92CF92DF92EF92FF9295
:103370000F931F93CF93DF93EA018C01060F171F62
:10338000F8018181833098F082E090E0998388830E
:1033900086EF9FEFDF91CF911F910F91FF90EF90FC
:1033A000DF90CF90BF90AF909F908F9008958091C5
:1033B000720490917304892B61F081E090E0209178
:1033C000740430917504232B11F490E080E0892B74
:1033D00039F482E090E0998388838EEF9FEFDACF13
:1033E00057DE882309F4D6C0F8018181813009F4C1
:1033F0008CC0E8F0823099F4209174043091750407
:10340000E0917204F091730490E080E041E050E0BC
:103410002817390709F0B4C0F8DA811117C0789479
:1034200081E090E09983888390E080E0B3CF2091A1
:10343000740430917504E0917204F091730490E08B
:1034400080E041E050E02817390741F481E090E046
:103450000E94A11180E40E94AF11E1CF63817481C9
:10346000672B11F05483438301963D96ECCFE09196
:103470007204F0917304E00FF11F23813481223034
:10348000310569F4238534852F3F3F4F41F422E015
:10349000C216D104E104F1040CF5CF01B3DD4FEF06
:1034A000C41AD40AE40AF40A035F1F4F409174045B
:1034B0005091750470E060E0C416D506E606F70684
:1034C00064F50097A1F27894892B09F4A9CF82E0E2
:1034D00090E0998388838DEF9FEF5CCF4581568183
:1034E000209125023091260242175307C1F6AF0101
:1034F000455F5F4F6091290270912A0280912702F7
:10350000909128020E94C522CACF10E000E090E00E
:1035100080E0C12CD12C7601C9CF0097A1F610E034
:1035200000E0812C912C540183E0E82EF12C1AC08C
:10353000E0917204F0917304E00FF11F8381948194
:10354000029749F4F482E38282E090E00E94A111A4
:1035500080E40E94A9118FEF881A980AA80AB80A75
:10356000035F1F4F8091740490917504B0E0A0E058
:1035700088169906AA06BB06DCF290E080E0A3CF8D
:10358000638174816230710511F454834383019621
:103590003D963ECF82E090E09983888385EF9FEF50
:1035A000F9CE0097B9F48FEFFB01808320912F02B1
:1035B000309130024DE0429FC001439F900D112495
:1035C000E0917204F0917304E80FF91F8285FB010A
:1035D000818308950C94581188E090E0FA0191835A
:1035E000808390E080E0089510927104109270043E
:1035F000E2E7F4E086E0DF011D928A95E9F78EE8C4
:1036000096E190936F0480936E04089580916E0408
:1036100090916F0408952F923F924F925F926F9214
:103620007F928F929F92AF92BF92CF92DF92EF9252
:10363000FF920F931F93CF93DF93CDB7DEB76297BF
:103640000FB6F894DEBF0FBECDBFF8942091700482
:10365000309171042F5F3F4F3093710420937004B9
:10366000789420917204309173043B832A83232B36
:1036700009F456C12091740430917504232B09F488
:103680004FC14D875E876F87788B9C878B878A8138
:103690009B819A8B898BD12CC12C198210E000E080
:1036A0008091740490917504C816D90618F4398174
:1036B000332329F1F894809170049091710401975B
:1036C00090937104809370047894C80162960FB649
:1036D000F894DEBF0FBECDBFDF91CF911F910F9148
:1036E000FF90EF90DF90CF90BF90AF909F908F9022
:1036F0007F906F905F904F903F902F900895B6010C
:1037000090E080E02AD38887A989BA8917968C919E
:10371000179781FD8DC013968D919C9114970397F7
:1037200009F086C01596ED91FC91FF83EE832B8501
:103730003C85E217F30709F07BC0712C612C512CFA
:10374000412C63C093D39A87898710E041145104B8
:1037500031F4A989BA8917961C9112951170A9891B
:10376000BA89ED91FC91E60DF71D2380348011118B
:1037700069C0BFEF2B1A3B0A61E070E0C10141D480
:103780005C01A989BA891B968D919C918F3F9807FE
:1037900009F45CC0B5013AD74C01009709F4BBC0ED
:1037A000E985FA85E80FF91FA989BA891A968C91DB
:1037B000840D808311114DC08F010F5F1F4F8091C9
:1037C000250290912602AE81BF81A817B90709F0A2
:1037D0009DC081E090E0B885BB2311F090E080E0CF
:1037E000710109851A859501A401B601919581950C
:1037F00091093FD38C01892B11F0C40183D58FEF40
:10380000481A580A95E0690E711CA989BA8912965E
:103810008C918415150429F024F0B981BB2309F497
:1038200091CFE885EE2321F0B60190E080E097D2B9
:10383000FFEFCF1ADF0A29893A89235F3F4F3A8B7E
:10384000298B2ECFE5E02E0E311C96CFC5010CD56D
:10385000A3CF8D859E85AF85B88981839283A3830D
:10386000B4838F010B5F1F4FAACFE080F180EC8102
:10387000FD81EE0EFF1ED70113966D917C9114977A
:103880008C918F3FE1F1E1E0F0E002C0EE0FFF1F0D
:103890008A95E2F7CF01092E000CAA0BBB0BFB01A6
:1038A000408151816281738184239523A623B723AC
:1038B00021E0892B8A2B8B2B09F420E0D8012C9353
:1038C000D70111968C91080F111DEA81FB81319669
:1038D000FB83EA832C813D81295F3F4F3D832C830D
:1038E000A989BA89ED91FC91E60DF71D82812A81A3
:1038F0003B818217130611F00CF0B7CF6ACFF701A6
:10390000418150E0C8010E94DD32DACF1D821C8265
:103910001B821A82E5CF31E0398306EF1FEF6FCFAC
:1039200010E000E0C7CEB4CB789408952F923F9278
:103930004F925F926F927F929F92AF92BF92CF927F
:10394000DF92EF92FF920F931F93CF93DF9300D0FC
:1039500000D0CDB7DEB700917204109173049924A2
:1039600093940115110509F43EC0A0907404B09021
:1039700075048EDB982E8823B1F110927304109297
:1039800072041092750410927404109276041092CE
:1039900077048FEF9FEFDC0180932F02909330022A
:1039A000A0933102B093320278947BD31E830D83AF
:1039B000C12CD12C7601C501B0E0A0E089839A83A7
:1039C000AB83BC8322242A94322C89819A81AB81D7
:1039D000BC81C816D906EA06FB06F4F0C80192D4E9
:1039E00080E40E94AF11892D26960FB6F894DEBFB1
:1039F0000FBECDBFDF91CF911F910F91FF90EF9040
:103A0000DF90CF90BF90AF909F907F906F905F902E
:103A10004F903F902F900895AD81BE8192E0C916DE
:103A2000D104E104F1040CF51B968D919C918F3F1C
:103A3000980709F02BD5ED81FE8134862386ED8130
:103A4000FE8180819181B12CA12C412C512C32011D
:103A5000892B59F5BFEFCB1ADB0AEB0AFB0AED8184
:103A6000FE813D96FE83ED83B0CF15962D913C915E
:103A70001697809125029091260228173907F9F6AA
:103A80001B968D919C91B0D5DACF8A0D9B1DDC01E0
:103A90008D919C91009709F035D4BFEF4B1A5B0ACA
:103AA0006B0A7B0AE5E0AE0EB11CAD81BE818D9143
:103AB0009C91119712964C9150E070E060E0441692
:103AC0005506660677060CF31DD4C4CFCF93DF935B
:103AD000EA012CDF811109C082E090E0998388839C
:103AE00085EF9FEFDF91CF91089581E090E00E94F4
:103AF000A11181E090E09983888390E080E0F2CF8B
:103B000015DF10926F0410926E04089542E050E0A9
:103B10006DEB72E00C94BF11FF920F931F93CF9344
:103B2000DF938A01EC01C60FD71FF980B9D208973D
:103B3000F816190671F068F082E090E0F8019183C0
:103B400080838EEF9FEFDF91CF911F910F91FF90B8
:103B500008956C817D818E819F814B810E943514F7
:103B6000811108C082E090E0F8019183808384EFA6
:103B70009FEFE9CFF9800E9430144F2D50E0BE0135
:103B8000685F7F4F0E94DD3289810E949F1481E02F
:103B900090E0F8019183808390E080E0D4CFDF92C1
:103BA000EF92FF920F931F93CF93DF938A01EC0163
:103BB000C60FD71F0E9430147C01D98071D2DD203E
:103BC00059F0029721E030E0D816190619F010F0EC
:103BD00030E020E0232B79F482E090E0F80191833B
:103BE00080838EEF9FEFDF91CF911F910F91FF9018
:103BF000EF90DF900895EF2841F482E090E0F80123
:103C00009183808384EF9FEFEECFF9800E94301480
:103C10004F2D50E0BE016E5F7F4F0E94DD328981E3
:103C20000E949F1481E090E0F8019183808390E0EE
:103C300080E0D9CF86E89DE1909379048093780461
:103C40000895809178049091790408950895FC0175
:103C500011821082938382830895DB011D921C924E
:103C6000DC011296ED91FC9113977183608313969A
:103C70007C936E9312970895FC0180819181DB0102
:103C80008D939C93A081B181109741F08D919C916F
:103C900091838083892B11F4F383E2830895FC01DF
:103CA00080819181DB018D939C93892B11F4738327
:103CB0006283718360830895FC0111821082938373
:103CC00082830895CF93DF931F921F92CDB7DEB703
:103CD0001A821982F894BE016F5F7F4F8FE794E0DC
:103CE000CBDF89819A81009709F00CD389819A8171
:103CF000892B89F7BE016F5F7F4F83E894E0BCDFBB
:103D000089819A81009709F0FDD289819A81892B56
:103D100089F778940F900F90DF91CF910895CF930A
:103D2000DF931F921F92CDB7DEB71A821982F894E3
:103D3000BE016F5F7F4F8BE794E09EDF89819A81A0
:103D4000009709F0DFD289819A81892B89F77894CD
:103D50000F900F90DF91CF91089581E0089590E04A
:103D600080E00895EF92FF920F931F93CF93DF931C
:103D70001F921F92CDB7DEB71A82198280917A0402
:103D800007EF1FEF8823A1F1F894BE016F5F7F4F0B
:103D900083E894E071DF789489819A81EE24E3943A
:103DA000F12C892B51F4F894BE016F5F7F4F8FE7A0
:103DB00094E062DF7894F12CE12C89819A810EEFF6
:103DC0001FEF0097A9F0FC014281538164E070E08D
:103DD0001DD68C01892B61F0F89469817A81C70125
:103DE000880F991F880F991F81589B4F58DF78942F
:103DF000C8010F900F90DF91CF911F910F91FF900D
:103E0000EF9008950F931F93CF93DF9300D01F92ED
:103E1000CDB7DEB71C821B821A82198280917A0488
:103E200007EF1FEF8823C1F0AE014D5F5F4F64E0E5
:103E300070E0CE0101965DD68C01892B69F4E98191
:103E4000FA818B819C8193838283F89469817A8142
:103E50008BE794E002DF7894C8010F900F900F90E9
:103E60000F90DF91CF911F910F91089562D7049623
:103E700008958F929F92AF92BF92CF92DF92EF926E
:103E8000FF920F931F93CF93DF931F921F92CDB793
:103E9000DEB71A821982BC016F5F7F4F63307105F4
:103EA00098F0AA24AA94BA2CC5010F900F90DF9124
:103EB000CF911F910F91FF90EF90DF90CF90BF9027
:103EC000AF909F908F9008954115510551F348018F
:103ED00059018A016C01CADF8815990511F7E114AF
:103EE000F104F9F28E0D9F1DA816B906D0F280914B
:103EF0007A048823F1F0F894B501645071099701B0
:103F0000AE014F5F5F4FC801049688D65C01892BD4
:103F100071F489819A81F80193838283C601880FA5
:103F2000991F880F991FB80181589B4F96DE78948E
:103F3000BBCF87EFA82EBB24BA94B6CFAF92BF9267
:103F4000CF92DF92EF92FF920F931F93CF93DF9365
:103F50001F921F92CDB7DEB71A821982892B09F002
:103F600047C06115710509F443C04115510509F4B5
:103F70003FC02115310509F43BC001151105C1F100
:103F800080917A048823B9F179016A015B01F89480
:103F9000BE016F5F7F4F8BE794E06EDE789489817E
:103FA0009A81009759F1DC0112966D917C91A801DC
:103FB00004964DD68C01E981FA81D501ED93FC93ED
:103FC000828193810496F601918380834FDFD7012C
:103FD0008D939C93C8010F900F90DF91CF911F910B
:103FE0000F91FF90EF90DF90CF90BF90AF9008952A
:103FF0000FEF1FEFEFCF07EF1FEFECCF0EEF1FEF2D
:10400000E9CFCF93DF93EC01672B71F49BD68C172C
:104010009D0760F08ED62496C80FD91F8DD68C0FC1
:104020009D1FDF91CF9108958AD6F1CF90E080E077
:10403000F8CF0F931F93CF93DF9320917A04211130
:104040002BC08B01EC018FE794E001DE83E894E064
:10405000FEDD8BE794E0FBDD86D00097C1F472D6DD
:1040600070E060E0CEDF43E352E062E070E076D1E2
:10407000009769F4809133029091340275D6B801AB
:10408000CE01AAD4009719F421E020937A04DF919D
:10409000CF911F910F91089584EF9FEFF8CF4FC6F6
:1040A00051C6CF93DF9351D6EC01892B11F40ADE70
:1040B00036DECE01DF91CF910895CF93DF9345D6C1
:1040C000EC01892B09F4FEDDCE01DF91CF9108953B
:1040D00080913302909134020895CF93DF938091C1
:1040E0007A04D0E0C0E08823D1F043D6EC01892BDC
:1040F000B1F4E8DD14DE8091330290913402C6D130
:10410000D5D2EC01892B59F48FE794E0D5DD83E813
:1041100094E0D2DD8BE794E0CFDD10927A04CE01FB
:10412000DF91CF910895CF93DF930097A1F4DF91B2
:10413000CF910895EC011A821982A883309711F06B
:10414000928381832F5F3F4FFC01860F971F421799
:10415000530781F7ECCF30E020E0F0E0E0E0AFEF94
:104160006F5F7F4FF4CFAF92BF92CF92DF92EF920B
:10417000FF920F931F93CF93DF9380EB95E07C0129
:104180002CEFE22289ECC82E82E0D82E9FECA92EDB
:1041900092E0B92ECFEFD5E08E01D6014D915D9121
:1041A0006D01F501619171915F01D8011196FC9249
:1041B000EE9215965C934E93149713965C934E93E0
:1041C000129717967C936E9316979B012F5F3F4F24
:1041D000249FC001259F900D349F900D11241996A6
:1041E0009C938E931897C7019EDFF8018085918577
:1041F000E80EF91E065F1F4FFFECCF16F2E0DF0658
:1042000061F6E9E8F4E084E291E0DF019C011D92AF
:1042100021503040E1F710928804109287048DE11C
:1042200096E01F8E1E8E1BA21AA219A218A21DA212
:104230001CA21FA21EA22A968C179D0791F710920E
:10424000FC051092FB051092FE051092FD0590E012
:1042500080E0DF91CF911F910F91FF90EF90DF9061
:10426000CF90BF90AF900895009799F1F894813165
:10427000910550F48091010690910206892B39F046
:1042800020E090E080E018C08931910550F48091E1
:104290000B0690910C06892B31F021E081E090E033
:1042A0000BC08197A8F48091150690911606892B72
:1042B00079F022E082E090E0EAE0E89FD001E99F17
:1042C000B00D1124A150BA4F8D919C91009721F40B
:1042D000789490E080E00895E29FF0011124E1508D
:1042E000FA4FDC0111964D915C91518340834281DC
:1042F00053814150510953834283FC012193CF01E3
:1043000078940895009749F1DC018E91863041F44C
:10431000E091FD05F091FE053097F9F0CD0119947B
:104320008630D8F4282F30E0F8948FEF8C938AE011
:10433000829FF001839FF00D1124E150FA4F80819C
:10434000918112969C938E931197B183A083828161
:10435000938101969383828378940895CF92DF921C
:10436000EF92FF920F931F93CF93DF939C018CE802
:1043700094E08C7F4115510509F485C02115310564
:1043800009F481C06115710509F47DC08A01AB0192
:10439000B9016D5F7F4F6C7F9B012F5F3F4F249F63
:1043A0007001259FF00C349FF00C1124F894EFEF6E
:1043B000F5E023E030E0E901A6A1B7A1C68CD78CD7
:1043C000CD2809F054C0109709F03CC0C090870474
:1043D000D090880421E231E02C193D092E153F05CB
:1043E00030F47894CFEFDFEF86EF9FEF1FC02AE025
:1043F0002C9FF0012D9FF00D1124E150FA4F918375
:104400008083558344835383428377836683F18615
:10441000E08689DEEC0CFD1CF0928804E0928704B3
:104420007894CF3FDC0701F390E080E0F801D1837E
:10443000C083DF91CF911F910F91FF90EF90DF909C
:10444000CF900895AE15BF0590F02AE02C9FF001A3
:104450002D9FF00D1124E150FA4F918380835583F5
:10446000448353834283778366835DDED9CF8A0F8B
:104470009B1F2F5F3F4F3A962630310509F09BCFA7
:10448000CFEFDFEFCDCF8FEF9FEFD3CFFF920F9323
:104490001F93CF93DF939C012350310923303105C3
:1044A00008F070C0EC01F89485E09AE09C9FD00180
:1044B0009D9FB00D1124A95FB94F082F10E0909F68
:1044C000F001919FF00D1124E150FA4F20813181CC
:1044D000C017D10714F1FF24F394232B41F52AE0F0
:1044E000209FF001219FF00D1124E150FA4F80919F
:1044F00087049091880440855185841B950B909387
:104500008804809387042C9FF0012D9FF00D1124C7
:10451000E150FA4F118610861CC0232B39F42D91DF
:104520003C911197232BA9F48150C7CFF12C8AE03D
:104530008C9FF0018D9FF00D1124E150FA4F4085C2
:10454000518570E060E0808191810E94E632F11037
:10455000C6CF8AE08C9FF0018D9FF00D1124E150B1
:10456000FA4F1182108215821482138212821782EE
:104570001682789490E080E0DF91CF911F910F91A7
:10458000FF9008958FEF9FEFF7CF4115510549F147
:10459000009739F16115710521F1F8942091FB051F
:1045A0003091FC05232BB9F42091FD053091FE05D7
:1045B000232B89F49093FC058093FB057093FE05F3
:1045C0006093FD05789426E030E090E080E0FA0109
:1045D00031832083089578942FEF3FEF86EF9FEF8C
:1045E000F6CF8FEF9FEF0895069769F4F894109235
:1045F000FC051092FB051092FE051092FD057894C3
:1046000090E080E008958FEF9FEF089561157105A8
:1046100019F4F0E0E0E011C08630910581F4E091FA
:10462000FB05F091FC053097A1F3CB01019619959C
:10463000009779F3FC0186E08193CF0108959C01F6
:10464000235031092330310520F72AE0289FD0017B
:10465000299FB00D1124A150BA4F2D913C91119773
:10466000232BB9F216962D913C91179726173707F1
:1046700080F2F89412962D913C91139721153105F3
:1046800029F0ED91FC911197309711F47894C1CFF6
:104690004181528111965C934E93215031091396BA
:1046A0003C932E93129781937894C7CFEDEAF5E06F
:1046B0008EE4DF011D928A95E9F7E9E8F4E084E2EF
:1046C00091E0DF019C011D9221503040E1F71092F2
:1046D000880410928704EFEFF5E08CE3DF011D9270
:1046E0008A95E9F7EBEFF5E084E0DF011D928A950A
:1046F000E9F790E080E00895CF93DF93C091350211
:10470000D0913602CF3FDC0759F4DFD390933602C5
:104710008093350297FF09C0D0933602C0933502CB
:1047200084EF9FEFDF91CF91089590E080E0FACF82
:104730008230910528F480933B0690E080E0089554
:104740008FEF9FEF08954F925F926F927F92AF929B
:10475000BF92CF92DF92EF92FF920F931F93CF936E
:10476000DF931F921F92CDB7DEB71A82198200978E
:1047700009F479C06115710509F475C020913502FD
:104780003091360207EF1FEF2F3F3F4F09F445C02E
:104790006B015C01412C512C3201F12CE12C10E019
:1047A00000E09E012F5F3F4FA6014E195F09B50142
:1047B0006E0D7F1D8091350290913602E5D3892BD5
:1047C00009F04BC089819A81009741F4E114F1040A
:1047D00029F420913B06222309F442C0E80EF91E79
:1047E000EC14FD04D0F480E8481684E858068EE105
:1047F0006806710420F560E070E0CB010E94C82CCF
:104800002AE0420E511C611C711C0A3F4FEF140735
:1048100021F0043F8FEF1807A1F4C8010F900F900B
:10482000DF91CF911F910F91FF90EF90DF90CF908C
:10483000BF90AF907F906F905F904F90089501EF81
:104840001FEF81E090E0013F2FEF120711F090E0A1
:1048500080E0892B09F4A5CFE0CF04EF1FEFDDCF77
:104860000AEF1FEFDACF0FEF1FEFD7CF4F925F9214
:104870006F927F92AF92BF92CF92DF92EF92FF92B0
:104880000F931F93CF93DF931F921F92CDB7DEB785
:104890001A821982009709F479C06115710509F42B
:1048A00075C0209135023091360207EF1FEF2F3F80
:1048B0003F4F09F445C06B015C01412C512C320182
:1048C000F12CE12C10E000E09E012F5F3F4FA6018C
:1048D0004E195F09B5016E0D7F1D809135029091D3
:1048E000360208D3892B09F04BC089819A81009741
:1048F00041F4E114F10429F420913B06222309F448
:1049000042C0E80EF91EEC14FD04D0F480E848160D
:1049100086E9580688E96806710420F560E070E0D1
:10492000CB010E94C82C2AE0420E511C611C711C54
:104930000E3F4FEF140721F0043F8FEF1807A1F44B
:10494000C8010F900F90DF91CF911F910F91FF90B1
:10495000EF90DF90CF90BF90AF907F906F905F907F
:104960004F90089502EF1FEF81E090E0023F2FEF9C
:10497000120711F090E080E0892B09F4A5CFE0CF79
:1049800004EF1FEFDDCF0EEF1FEFDACF0FEF1FEFBA
:10499000D7CF80913502909136028F3F980749F02A
:1049A0008CD2892B49F48FEF9FEF9093360280933E
:1049B000350290E080E0089584EF9FEF0895FC01B8
:1049C000680F791F90E080E0E617F70709F4089573
:1049D0002191820F911DF8CF20913C06211113C027
:1049E0008BDE009791F410924206109241061092CD
:1049F000400610923F0610923E0610923D0621E0BE
:104A000020933C06089584EF9FEF0895AF92BF92E4
:104A1000CF92DF92EF92FF920F931F93CF93DF938A
:104A2000009709F460C04630510508F45CC020913D
:104A30003C06C7EFDFEF222309F449C08C01060FC3
:104A4000171FF801C080D180C114D10409F44EC0F1
:104A500096012A5F3F4F4217530708F447C07C0175
:104A6000809141069091420693838283B6016C5FE8
:104A70007F4F5801A60EB71EC801A1DFF501918333
:104A8000808364E070E0C8015EDEEC01892BF9F4FC
:104A900081E090E04DDEB601C801049654DEEC01E1
:104AA000892B91F462E070E0C5014DDEEC01892BA9
:104AB00059F4C70127DC8091410690914206019686
:104AC000909342068093410690E080E031DECE0173
:104AD000DF91CF911F910F91FF90EF90DF90CF90DA
:104AE000BF90AF900895CFEFDFEFF1CFC9EFDFEFC9
:104AF000EECF6F927F928F929F92AF92BF92CF92A2
:104B0000DF92EF92FF920F931F93CF93DF9300D02A
:104B10001F92CDB7DEB7009709F47AC04115510551
:104B200009F476C020913C0607EF1FEF222309F419
:104B30004DC03A017B015C0164E070E0CE0101965A
:104B400095DE8C01892B09F041C009811A8101157C
:104B5000110509F45AC0480186E0880E911CB7017E
:104B6000680D791D80913702909138024FDD6C01FC
:104B7000009709F450C0A70170E060E00E94E6329F
:104B800089819A81AB81BC81EC0CFD1CF70181937A
:104B90009193A193B1937F0181E090E0C9DDB801C9
:104BA000C70164DE892B31F562E070E0C701800F38
:104BB000911F5CDE8C01892BE9F490E080E0B8DD88
:104BC000F501D182C082F30191828082C8010F90E9
:104BD0000F900F900F90DF91CF911F910F91FF9049
:104BE000EF90DF90CF90BF90AF909F908F907F908D
:104BF0006F90089590E080E09BDDF50111821082B6
:104C0000F30111821082C6017DDB09EF1FEFDECFB9
:104C10000FEF1FEFDBCF06EF1FEFD8CF0097A1F00C
:104C20004115510589F02115310571F0F9013696CC
:104C30006E177F0748F0DC012D933C93DA01ED936A
:104C4000FC9390E080E008958FEF9FEF0895AF927E
:104C5000BF92CF92DF92EF92FF920F931F93CF9369
:104C6000DF93009709F45FC04115510509F45BC05B
:104C70006530710508F457C020913C06C7EFDFEF9F
:104C8000222391F1DC01CD90DC9011971296ED91E9
:104C9000FC9196012A5F3F4FC9EFDFEF26173707D8
:104CA00019F5C0913D06D0913E06209749F521E0C7
:104CB00030E030933E0620933D067A018C01F0935C
:104CC0004006E0933F065601B4E0AB0EB11CB501BF
:104CD00076DE0A0D1B1DF8012081318182179307B2
:104CE00029F5D701CD92DC92CE01DF91CF911F91B2
:104CF0000F91FF90EF90DF90CF90BF90AF9008950D
:104D000020913F06309140062F5F3F4FCCEFDFEF01
:104D1000E217F30790F2CBEFDFEF2E173F0768F2B1
:104D2000D0E0C0E0CACFCFEFDFEFDECFC3EFDFEFE1
:104D3000DBCF84E090E0089582E090E008958CEF6E
:104D40009FEF089580E290E008951092420610923D
:104D500041061092400610923F0610923E061092B5
:104D60003D0690E080E008959093380280933702EA
:104D7000089580913C06882391F00BDE009789F41A
:104D800010924206109241061092400610923F0681
:104D900010923E0610923D0610923C06089590E057
:104DA00080E00895009749F06115710531F0FC012C
:104DB00011821082FB01118210820895F3CF40E826
:104DC00055E260E070E090E080E000C08130910545
:104DD00079F01CF4892B39F008958230910561F047
:104DE000039771F0089526E080E596E00C94CD2FAE
:104DF00026E08DEE96E0FACF26E08AE897E0F6CF3F
:104E000026E087E298E0F2CF1F920F920FB60F9242
:104E100011240BB60F922F933F934F935F936F9391
:104E20007F938F939F93AF93BF93EF93FF938EE105
:104E30009BEF9093250180932401BAD0FF91EF91CD
:104E4000BF91AF919F918F917F916F915F914F91A2
:104E50003F912F910F900BBE0F900FBE0F901F90A0
:104E600018958EE19BEF9093250180932401A3E791
:104E7000B0E08C918E7F8C93E0E2F1E080818C7FBA
:104E80008083E1E2F1E08081877E8083808184609D
:104E9000808380818C7F80838C9181608C93089546
:104EA000E3E7F0E0808190819E7F90838170089598
:104EB00081E0089510924306089568EE73E080E063
:104EC00090E066D590E080E0089526E040E050E173
:104ED0006EE070E080E596E00E94CD2F80E596E0E0
:104EE00092D7892B21F080E596E0A7D7F7CF90E005
:104EF00080E00895CF92DF92EF92FF920F931F937D
:104F0000CF93DF936B017A01E9011982188280E562
:104F100096E079D7892B69F18601CC24C39482E08D
:104F2000D82E80914306811110C080E596E085D788
:104F30000297B9F7C0924306F801D1928F01888198
:104F40009981019699838883ECCF888199818E1508
:104F50009F0578F480E596E070D78F3F9807A9F316
:104F6000F80181938F0188819981019699838883C3
:104F7000ECCF90E080E0DF91CF911F910F91FF90F7
:104F8000EF90DF90CF9008950F931F93CF93DF930F
:104F9000EA01890180E596E00E945D32F801D18343
:104FA000C08390E080E0DF91CF911F910F91089531
:104FB0008091440691E0980F90934406882349F02D
:104FC00021E030E030934606209345068093440666
:104FD000089578940E941006F894809144068150B8
:104FE000F5CFCF93DF93109213091092120906D5D3
:104FF000E6DEC0914F02D0915002198218826FEF05
:105000007FEFCB010E94A50570E060E090E080E0BA
:105010000E942804009709F037C00E94FA09F8940A
:105020007894BE0169527F4F8A819B810E942B0434
:10503000892B69F46FEF7FEFCB010E94BB040E94C4
:105040009F05882321F0C352DF4F81E08883F894C5
:1050500008DF0E94A205811104C00E949F0591E013
:10506000811190E09093120978940E949C11EC01B8
:1050700078948091120981110AC00E94420B0E940B
:105080008405F89490E080E0DF91CF9108950E942C
:1050900082050E94A20591E0811106C00E949F0531
:1050A00091E0811101C090E0909313099091130950
:1050B00081E0911180E080931209809113098111A0
:1050C000EFDE219729F40E949C11892B09F4F2DE6E
:1050D0000E949C11EC01ECDECCCF5058BB27AA27D4
:1050E0000ED05CC14DD130F052D120F031F49F3F51
:1050F00011F41EF442C10EF4E095E7FB0FC1E92F55
:105100005ED180F3BA17620773078407950718F01A
:1051100071F49EF58DC10EF4E0950B2EBA2FA02DE3
:105120000B01B90190010C01CA01A0011124FF2754
:10513000591B99F0593F50F4503E68F11A16F0404F
:10514000A22F232F342F4427585FF3CF469537954E
:105150002795A795F0405395C9F77EF41F16BA0B13
:10516000620B730B840BBAF09150A1F0FF0FBB1FC1
:10517000661F771F881FC2F70EC0BA0F621F731F0A
:10518000841F48F4879577956795B795F7959E3F67
:1051900008F0B3CF9395880F08F09927EE0F9795F5
:1051A000879508952ED180F09F3740F491110EF429
:1051B00040C160E070E080E89FE3089526F01B1690
:1051C000611D711D811DB0C0CAC084D008F481E08A
:1051D000089504D06894B1112CC10895F8D088F0D6
:1051E0009F5790F0B92F9927B751A0F0D1F0660FD3
:1051F000771F881F991F1AF0BA95C9F712C0B130EE
:1052000081F016D1B1E0089513C1672F782F882758
:10521000B85F39F0B93FCCF3869577956795B3952C
:10522000D9F73EF490958095709561957F4F8F4F9B
:105230009F4F0895E89409C097FB3EF490958095A0
:10524000709561957F4F8F4F9F4F9923A9F0F92F4C
:1052500096E9BB279395F695879577956795B795CA
:10526000F111F8CFFAF4BB0F11F460FF1BC06F5FB0
:105270007F4F8F4F9F4F16C0882311F096E911C0C2
:10528000772321F09EE8872F762F05C0662371F0E3
:1052900096E8862F70E060E02AF09A95660F771FF7
:1052A000881FDAF7880F9695879597F90895A9D002
:1052B00080F09F3740F491110EF0BBC060E070E0C9
:1052C00080E89FEB089526F41B16611D711D811D5A
:1052D0002BC045C0990F0008550FAA0BE0E8FEEF60
:1052E00016161706E807F907C0F012161306E407AA
:1052F000F50798F0621B730B840B950B39F40A26A3
:1053000061F0232B242B252B21F408950A2609F480
:10531000A140A6958FEF811D811D089597F99F6784
:1053200080E870E060E00895882371F4772321F02D
:105330009850872B762F07C0662311F499270DC04C
:105340009051862B70E060E02AF09A95660F771FE7
:10535000881FDAF7880F9695879597F908959F3FEC
:1053600031F0915020F4879577956795B795880F20
:10537000911D9695879597F908959FEF80EC089574
:1053800000240A9416161706180609060895002424
:105390000A9412161306140605060895092E03949E
:1053A000000C11F4882352F0BB0F40F4BF2B11F412
:1053B00060FF04C06F5F7F4F8F4F9F4F089557FD71
:1053C0009058440F551F59F05F3F71F04795880F73
:1053D00097FB991F61F09F3F79F08795089512160A
:1053E00013061406551FF2CF4695F1DF08C01616B6
:1053F00017061806991FF1CF869571056105089467
:105400000895E5DFA0F0BEE7B91788F4BB279F3801
:1054100060F41616B11D672F782F8827985FF7CF95
:10542000869577956795B11D93959639C8F308953C
:10543000E894BB2766277727CB0197F908954ADFC1
:1054400008F48FEF08950BD0A9CF9ADF28F09FDFE3
:1054500018F0952309F062CF90CF1124EACFAFDF87
:10546000A0F3959FD1F3950F50E0551F629FF00177
:10547000729FBB27F00DB11D639FAA27F00DB11DD0
:10548000AA1F649F6627B00DA11D661F829F222759
:10549000B00DA11D621F739FB00DA11D621F839FE0
:1054A000A00D611D221F749F3327A00D611D231FB6
:1054B000849F600D211D822F762F6A2F11249F5704
:1054C00050408AF0E1F088234AF0EE0FFF1FBB1F27
:1054D000661F771F881F91505040A9F79E3F5105C6
:1054E00070F01CCFA6CF5F3FECF3983EDCF38695BF
:1054F00077956795B795F795E7959F5FC1F7FE2B71
:10550000880F911D9695879597F90895089588308D
:1055100008F076C0E82FF0E0EE0FFF1FE75CFD4FCC
:10552000718360838150873008F03DC0E82FF0E040
:105530008827E256F54D8F4F0C94BC32DB2AA52A02
:10554000AD2AB92AC62AE72AF42A809169008C7FFD
:10555000482B40936900E89A089580916900837F01
:10556000440F551F440F551F482B40936900E99A7B
:105570000895809169008F7C74E0440F551F7A95DF
:10558000E1F7482B40936900EA9A089580916900F9
:105590008F7366E0440F551F6A95E1F7482B4093DF
:1055A0006900EB9A089580916A008C7F482B4093A4
:1055B0006A00EC9A089580916A00837F440F551F1A
:1055C000440F551F482B40936A00ED9A089580912F
:1055D0006A008F7C24E0440F551F2A95E1F7482B81
:1055E00040936A00EE9A089580916A008F7396E066
:1055F000440F551F9A95E1F7482B40936A00EF9AA4
:1056000008951F920F920FB60F9211240BB60F92AE
:105610002F933F934F935F936F937F938F939F93BA
:10562000AF93BF93EF93FF93E0913D02F0913E0261
:105630001995FF91EF91BF91AF919F918F917F91BC
:105640006F915F914F913F912F910F900BBE0F90F3
:105650000FBE0F901F9018951F920F920FB60F92CA
:1056600011240BB60F922F933F934F935F936F9339
:105670007F938F939F93AF93BF93EF93FF93E091AB
:105680003F02F09140021995FF91EF91BF91AF91C8
:105690009F918F917F916F915F914F913F912F914A
:1056A0000F900BBE0F900FBE0F901F9018951F927A
:1056B0000F920FB60F9211240BB60F922F933F93B8
:1056C0004F935F936F937F938F939F93AF93BF930A
:1056D000EF93FF93E0914102F09142021995FF91FF
:1056E000EF91BF91AF919F918F917F916F915F915A
:1056F0004F913F912F910F900BBE0F900FBE0F90C7
:105700001F9018951F920F920FB60F9211240BB68F
:105710000F922F933F934F935F936F937F938F934A
:105720009F93AF93BF93EF93FF93E0914302F09168
:1057300044021995FF91EF91BF91AF919F918F9185
:105740007F916F915F914F913F912F910F900BBE81
:105750000F900FBE0F901F9018951F920F920FB6CB
:105760000F9211240BB60F922F933F934F935F9399
:105770006F937F938F939F93AF93BF93EF93FF9319
:10578000E0913902F0913A021995FF91EF91BF91A2
:10579000AF919F918F917F916F915F914F913F91C9
:1057A0002F910F900BBE0F900FBE0F901F9018956A
:1057B0001F920F920FB60F9211240BB60F922F93D8
:1057C0003F934F935F936F937F938F939F93AF9389
:1057D000BF93EF93FF93E0913B02F0913C02199548
:1057E000FF91EF91BF91AF919F918F917F916F91B9
:1057F0005F914F913F912F910F900BBE0F900FBE75
:105800000F901F9018951F920F920FB60F921124B0
:105810000BB60F922F933F934F935F936F937F93AA
:105820008F939F93AF93BF93EF93FF93E0914502C4
:10583000F09146021995FF91EF91BF91AF919F9121
:105840008F917F916F915F914F913F912F910F9029
:105850000BBE0F900FBE0F901F9018951F920F92C6
:105860000FB60F9211240BB60F922F933F934F93C5
:105870005F936F937F938F939F93AF93BF93EF93B8
:10588000FF93E0914702F09148021995FF91EF9143
:10589000BF91AF919F918F917F916F915F914F9148
:1058A0003F912F910F900BBE0F900FBE0F901F9046
:1058B00018951F920F920FB60F9211242F933F93BA
:1058C0008F939F93AF93BF93809148069091490621
:1058D000A0914A06B0914B063091470623E0230F72
:1058E0002D3758F50196A11DB11D209347068093D1
:1058F000480690934906A0934A06B0934B068091C0
:105900004C0690914D06A0914E06B0914F0601961F
:10591000A11DB11D80934C0690934D06A0934E0699
:10592000B0934F06BF91AF919F918F913F912F916F
:105930000F900FBE0F901F90189526E8230F029628
:10594000A11DB11DD2CF3FB7F89480914C06909124
:105950004D06A0914E06B0914F0626B5A89B05C0F6
:105960002F3F19F00196A11DB11D3FBFBA2FA92FDE
:10597000982F8827BC01CD01620F711D811D911DDB
:1059800042E0660F771F881F991F4A95D1F7089547
:105990008F929F92AF92BF92CF92DF92EF92FF923F
:1059A0006B017C01D0DF4B015C01C114D104E10427
:1059B000F104D9F0AFD5C7DF681979098A099B09C5
:1059C000683E73408105910580F321E0C21AD10839
:1059D000E108F10888EE880E83E0981EA11CB11C36
:1059E000C114D104E104F10431F7FF90EF90DF908E
:1059F000CF90BF90AF909F908F900895789484B58A
:105A0000826084BD84B5816084BD85B5826085BDBA
:105A100085B5816085BDEEE6F0E0808181608083A0
:105A2000E1E8F0E010828081826080838081816083
:105A30008083E0E8F0E0808181608083E1EBF0E04A
:105A4000808184608083E0EBF0E0808181608083EE
:105A5000E1E9F0E0808182608083808181608083E1
:105A6000E0E9F0E0808181608083E1EAF0E080811C
:105A700082608083808181608083E0EAF0E08081C1
:105A800081608083E1E2F1E08081826080838081B7
:105A900081608083E0E2F1E0808181608083EAE7D9
:105AA000F0E0808184608083808182608083808157
:105AB000816080838081806880831092C100089516
:105AC0001F93CF93DF93182FEB0161E033D1209721
:105AD00031F460E0812FDF91CF911F9167C1CF3FFB
