:10000000F8C000000C9460290C948B290C94B6293C
:100010000C94E1290C940C2A0C94372A0C94622A33
:100020000C948D2A17C1000015C1000013C10000F7
:1000300011C100000FC100000DC100000BC1000084
:1000400009C1000007C1000005C1000003C1000094
:1000500001C10000FFC00000FDC000000C94B82AE0
:10006000F9C000000C948C2E0C94C22EF3C000003A
:10007000F1C00000EFC00000EDC00000EBC00000C8
:10008000E9C00000E7C00000E5C00000E3C00000D8
:100090000C94182F0C944E2FDDC00000DBC0000024
:1000A000D9C00000D7C00000D5C00000D3C00000F8
:1000B000D1C00000CFC00000CDC00000CBC0000008
:1000C000C9C00000C7C000000C9437250C94A42FB1
:1000D0000C94DA2FBFC000000C9430300C946630C2
:1000E000B9C0000000000A0B02090C0D0E0807033E
:1000F00004010000000000000000000000000000FB
:1001000000000000000000000000000000000000EF
:1001100012111000000000000000000000000000AC
:100120000000000000000000000001021020200874
:100130000810204010204080020102010804020142
:1001400001020408102040808040201008040201B1
:10015000800402018040201008040201080402010A
:100160000102040810204080010204081020408091
:1001700005050505070508080808020202020A0A23
:100180000808040404040101010101010101030341
:10019000030303030303040707070C0C0C0C0C0CEC
:1001A0000C0C0202020206060606060606060B0BE9
:1001B0000B0B0B0B0B0B00002200250028002B0063
:1001C0002E003100340002010000050108010B017E
:1001D00000002100240027002A002D0030003300F9
:1001E00001010000040107010A01EB2E772F033003
:1001F0008F3011241FBECFEFD1E2DEBFCDBF00E0B4
:100200000CBF12E0A0E0B2E0ECE9F2E600E00BBFC8
:1002100002C007900D92AA3DB107D9F727E0AAEDD9
:10022000B2E001C01D92A93EB207E1F710E0C9EFAC
:10023000D0E000E006C021970109802FFE010E9456
:100240001B31C53FD10780E00807A9F70E9453265C
:100250000C944C31D5CE611102C00C94F92C613054
:10026000E1F362E0FACF662319F061E00C94352DDA
:1002700060E0FCCFCF92DF92EF92FF92CF93882382
:1002800051F16A017B01CFEFC80F20E030E0A901F6
:10029000CB01B6010E94442787FF11C0C701B601F8
:1002A00090580E944D279B01AC016C2F70E090E0AC
:1002B00080E0CF91FF90EF90DF90CF90B2C0C70168
:1002C000B6010E9448278C2FCF91FF90EF90DF90CE
:1002D000CF900C94BF2BCF91FF90EF90DF90CF90F9
:1002E00008950F931F938B019C0183E0369527950A
:1002F000179507958A95D1F706521D4F462F4770DF
:1003000021E030E0F90102C0EE0FFF1F4A95E2F74D
:10031000AF01F80120812423CB010196211102C0F5
:1003200090E080E01F910F9108950F931F938B0130
:100330009C0183E036952795179507958A95D1F707
:10034000677081E090E001C0880F6A95EAF7F801D4
:10035000E652FD4F2081452B31F480958223808326
:100360001F910F910895822BFACF2F923F924F92B7
:100370005F926F927F928F929F92AF92BF92CF9235
:10038000DF92EF92FF920F931F93CF93DF93D62EBE
:10039000C72E782E692E49015A01280161E08D2D62
:1003A0000E94F92CCD2DDC2D8E010F5F1F4FA8016F
:1003B0006D2D7C2D872D962DB8DF20E030E0A90132
:1003C000C201B7010E947E28181664F4C201B70169
:1003D0000E944D272B01C501B4010E944D27A201A7
:1003E000CE0123D0C801DF91CF911F910F91FF90D3
:1003F000EF90DF90CF90BF90AF909F908F907F90C5
:100400006F905F904F903F902F900895882341F018
:100410008150682F70E090E080E050E040E085CFB0
:100420000895862FB9010C94BF2B9C01FC01EC515F
:10043000FF4FE491E150E231E0F4F0E08827EC5D19
:10044000FD4F8F4F0C941B3136023D024002570284
:100450006C02390281028D029102A802BD02D20211
:10046000E902FE02390213032A033F0384B58068C0
:1004700084BD60E0822F0C94352D84B58062F8CF66
:10048000809180008C7F82608093800080918100C9
:10049000807E8061682B6093810050938700409339
:1004A000860080918000806880938000E2CF8091F8
:1004B00080008C7F82608093800080918100807EAC
:1004C0008061682B60938100509387004093860081
:1004D000809180008062E8CF809180008C7F826074
:1004E0008093800080918100807E8061682B609382
:1004F000810050938700409386008091800088603F
:10050000D3CF8091B00080688093B0008091B1001B
:10051000887F682B6093B100ACCF8091B00080627F
:10052000F3CF809190008C7F8260809390008091C7
:100530009100807E8061682B6093910050939700BA
:10054000409396008091900080688093900091CFB6
:10055000809190008C7F82608093900080919100C8
:10056000807E8061682B6093910050939700409348
:100570009600809190008062E8CF809190008C7FFF
:1005800082608093900080919100807E8061682BD2
:100590006093910050939700409396008091900053
:1005A0008860D3CF8091A0008C7F82608093A00070
:1005B0008091A100807E8061682B6093A1005093A0
:1005C000A7004093A6008091A00080688093A000BF
:1005D00050CF8091A0008C7F82608093A00080919A
:1005E000A100807E8061682B6093A1005093A700DA
:1005F0004093A6008091A0008062E8CF8091A00087
:100600008C7F82608093A0008091A100807E8061B9
:10061000682B6093A1005093A7004093A60080919F
:10062000A0008860D3CF809120018C7F826080936E
:10063000200180912101807E8061682B60932101DF
:100640005093270140932601809120018068809378
:1006500020010FCF809120018C7F82608093200148
:1006600080912101807E8061682B609321015093ED
:10067000270140932601809120018062E8CF80917C
:1006800020018C7F82608093200180912101807EF7
:100690008061682B609321015093270140932601CC
:1006A000809120018860D3CF8091E7029091E80289
:1006B000A091E902B091EA020196A11DB11D8093BB
:1006C000E7029093E802A093E902B093EA0208954A
:1006D000CF93DF93C82FD62F1092E7021092E80233
:1006E0001092E9021092EA021092E3021092E402E0
:1006F0001092E5021092E60260E00E94F92CD230DE
:1007000061F038F4DD23C1F0D13061F1DF91CF9198
:100710000895D330C1F1D430C9F780E0C23049F038
:1007200081E0C33031F08EEE8C0F8430E8F587E144
:100730008C1B41E050E00EC080E0C23049F081E007
:10074000C33031F08EEE8C0F843050F487E18C1B77
:1007500043E050E064E573E0DF91CF910C94E6282C
:100760008FEFF6CF80E0C23049F081E0C33031F046
:100770008EEE8C0F843028F487E18C1B42E050E031
:10078000E9CF8FEFFBCF80E0C23049F081E0C3308A
:1007900031F08EEE8C0F843028F487E18C1B50E012
:1007A00040E0D8CF8FEFFBCF8FEFC3CF8F929F92D8
:1007B000AF92BF92CF92DF92EF92FF92CF93C82F6A
:1007C0000E94022B6B017C012091E7023091E8022C
:1007D0004091E9025091EA0260E077E883E993E012
:1007E0000E94EA304B015C018091E3029091E402A7
:1007F000A091E502B091E602A7019601281B390BF2
:100800004A0B5B0BAC2FB0E00E9423319B01AC0183
:10081000C501B4010E94F930C092E302D092E40213
:10082000E092E502F092E6021092E7021092E802EE
:100830001092E9021092EA02CA01B901CF91FF9029
:10084000EF90DF90CF90BF90AF909F908F900895E2
:1008500090E080E008950F931F93009709F483C000
:100860006115710509F47FC0009114021091150201
:1008700020911602309117020E3F1F4F2F4F3F4F0E
:1008800009F062C04FEF5FEFBA014093140250933A
:100890001502609316027093170240911402509152
:1008A00015026091160270911702DC011296ED910B
:1008B000FC9180819181A281B381809357039093B1
:1008C0005803A0935903B0935A0384819581A6815C
:1008D000B7818093530390935403A0935503B0932F
:1008E000560380859185A285B38580934F039093AD
:1008F0005003A0935103B093520384859585A68538
:10090000B78580934B0390934C03A0934D03B09312
:100910004E0310924703109248031092490310921D
:100920004A031DD784ED9BE09093EC028093EB0289
:1009300015D6009731F421E030E030935C0320932A
:100940005B031F910F9108950091140210911502FD
:100950002091160230911702DB010D931D932D9308
:100960003C9313979ACF8FEF9FEFEBCF8F929F928D
:10097000AF92BF92CF92DF92EF92FF921F93CF93ED
:10098000DF934B015C0110915E0382E090E0909355
:100990005C0380935B0381149104A104B10441F4CE
:1009A00080915E03811104C080915D03C1E08111DB
:1009B000C0E0C12CD12C760180915E03811106C06C
:1009C00080915D03811102C0CC23D9F083E090E0D7
:1009D00090935C0380935B03CC2379F1CCE9DFEF48
:1009E000111102C00E94380FCE01DF91CF911F91EB
:1009F000FF90EF90DF90CF90BF90AF909F908F903F
:100A000008956AE070E080E090E00E94272B80E18A
:100A1000C80E87E2D81EE11CF11C8FEF88169806DD
:100A2000A806B80631F0C1E08C149D04AE04BF04E2
:100A300008F0C0E080E0BED5BFCFD0E0C0E0D0CFAE
:100A4000CF92DF92EF92FF921F93CF93DF938F3F6E
:100A5000910511F008F041C020915B0330915C03D7
:100A60002330310539F020915B0330915C03213054
:100A7000310531F424E030E030935C0320935B03D4
:100A80006A017B01EC01892BA9F011E0AE01C701DD
:100A9000B60163D5AB01BC0190E080E01123F9F011
:100AA000CE01DF91CF911F91FF90EF90DF90CF901B
:100AB0000C944D118091EB029091EC02892B29F35B
:100AC0000E945411029709F7E091EB02F091EC02B9
:100AD00090E080E01995182FD9CF8FEF9FEFDF912D
:100AE000CF911F91FF90EF90DF90CF90089580E01D
:100AF00061C5CF93DF9386E090E090935C03809391
:100B00005B03B1D5EC011092EC021092EB020E9453
:100B1000D00E10925C0310925B03CE01DF91CF9157
:100B2000089580915D030895809146030895609330
:100B3000140270931502809316029093170290E0AE
:100B400080E008952F923F924F925F926F927F9232
:100B50008F929F92AF92BF92CF92DF92EF92FF92CD
:100B60000F931F93CF93DF93CDB7DEB7E5970FB603
:100B7000F894DEBF0FBECDBF7FA76EA748AB59ABC1
:100B80003DA72CA71DAB0CABFE86ED861BAB0AABBD
:100B9000D80130E020E08D849E842815390514F1B9
:100BA0008F83988710E000E08EA49FA40815190594
:100BB00004F1E5960FB6F894DEBF0FBECDBFDF910E
:100BC000CF911F910F91FF90EF90DF90CF90BF904A
:100BD000AF909F908F907F906F905F904F903F90DD
:100BE0002F9008951D921D921D921D922F5F3F4FD1
:100BF000D2CFEF81F88581919191A191B191F88740
:100C0000EF834D01AA24BB24888A998AAA8ABB8AC9
:100C10009C01AD01442755272C8B3D8B4E8B5F8B60
:100C20002D843E84201A310AECA5FDA5E215F305BA
:100C30000CF41F01F8A9FD8389A88E82AAA8BBA87D
:100C4000BC86AB861A861986C12CD12C7601898484
:100C50009A848214930404F137FE02C0312C212CB3
:100C6000200E311EAD84BE842A143B046CF4220C89
:100C7000331C220C331CACA9BDA9A20DB31DCD920F
:100C8000DD92ED92FC9213970F5F1F4FEAA9FBA92B
:100C90003496FBABEAAB88CFED81FE814190519059
:100CA00061907190FE83ED834301AA24BB24888E5A
:100CB000998EAA8EBB8E66247724288939894A8921
:100CC0005B89C301B2010E94EA304B015C012C89AF
:100CD0003D894E895F89688D798D8A8D9B8D0E94B3
:100CE000EA306C8F7D8F8E8F9F8FEB85FC85819195
:100CF0009191A191B191FC87EB879C01AD012C0DE5
:100D00003D1D4E1D5F1D29833A834B835C83E1E0CB
:100D10002C153D054E055F0508F0E0E02C893D8966
:100D20004E895F89C301B2010E94EA302B013C0168
:100D300089819A81AB81BC81840D951DA61DB71D4B
:100D400089839A83AB83BC83A4013327222728A3FA
:100D500039A34AA35BA36C017D01C20ED31EE41E1E
:100D6000F51E8C8D9D8DAE8DBF8DDC01992788275A
:100D70008CA39DA3AEA3BFA38C0D9D1DAE1DBF1D57
:100D800088A799A7AAA7BBA7AB85BC85149728A558
:100D900039A54AA55BA52D933D934D935C9313977D
:100DA0004501AA24BB248E0E911CA11CB11C2889CC
:100DB00039894A895B89688D798D8A8D9B8D0E94DE
:100DC000EA30860E971EA81EB91E2C8D3D8D4E8DC5
:100DD0005F8DCA01AA27BB27880E991EAA1EBB1EBB
:100DE00081E090E0A0E0B0E029813A814B815C8114
:100DF000241535054605570518F080E090E0DC0124
:100E0000880D991DAA1DBB1D41E050E060E070E017
:100E100088A099A0AAA0BBA0C814D904EA04FB0426
:100E200018F040E050E0BA01840F951FA61FB71FCD
:100E3000C12CD12C7601C3948CA09DA0AEA0BFA0E4
:100E400028A539A54AA55BA5281539054A055B05DE
:100E500018F0C12CD12C7601C80ED91EEA1EFB1E3B
:100E6000E985FA853196FA87E987F1CECF92DF924C
:100E7000EF92FF926B017C019F7720E030E040E829
:100E800059E50E94442787FF2BC020E030E040E076
:100E90005FE3C701B6010E947E2887FD0EC020E0F7
:100EA00030E040E05FE3C701B6010E94CD26FF902D
:100EB000EF90DF90CF900C94B62720E030E040E038
:100EC0005FEBC701B6010E947E28181684F420E06B
:100ED00030E0A901C701B6010E9482286B017C01A4
:100EE000C701B601FF90EF90DF90CF90089520E00A
:100EF00030E040E05FE3C701B6010E94CC26FF90DE
:100F0000EF90DF90CF900C9431274F925F926F92C9
:100F10007F928F929F92AF92BF92CF92DF92EF9289
:100F2000FF920F931F93CF93DF9300D01F92CDB703
:100F3000DEB76AE070E080E090E0D3D95C01909386
:100F4000D8078093D7072091000230910102409189
:100F50000202509103026091040270910502809197
:100F60000602909107020E9482286B017C0120E01A
:100F700030E04FE753E40E94442718160CF4E3C016
:100F800020E030E0A901C701B6010E947E2887FF5A
:100F900003C0C12CD12C7601B701A601C5016AD9C5
:100FA00080E604DC69837A838B839C8382E0E82E6D
:100FB000F12C09EB17E021E030E0AE014F5F5F4F0D
:100FC00061E070E080E192E0BDDD60910802709127
:100FD000090280910A0290910B0248DF6B017C01AB
:100FE00020E030E040E853E40E9444276FEF87FFA1
:100FF0000EC020E030E0A901C701B6010E947E28A2
:1010000060E087FD04C0C701B6010E944D2784E05F
:101010002AD960910C0270910D0280910E0290917C
:101020000F0224DF6B017C0120E030E040E853E454
:101030000E9444276FEF87FF0EC020E030E0A90137
:10104000C701B6010E947E2860E087FD04C0C70189
:10105000B6010E944D2785E006D9C0901D03D090AF
:101060001E03E0901F03F09020038FEFC81AD80AE8
:10107000E80AF80AC0921D03D0921E03E0921F03F3
:10108000F0922003C114D104E104F10499F4809199
:10109000210390912203A0912303B0912403019690
:1010A000A11DB11D8093210390932203A0932303DC
:1010B000B09324038090250390902603A0902703EB
:1010C000B090280360912103709122038091230343
:1010D000909124030E947927A50194010E948228FF
:1010E00020E030E040E85FE40E9482282B013C01D0
:1010F000C701B6010E947927A50194010E948228A8
:101100009B01AC01C301B2010E94CD26609319037B
:1011100070931A0380931B0390931C030F900F90FE
:101120000F900F90DF91CF911F910F91FF90EF9053
:10113000DF90CF90BF90AF909F908F907F906F90F7
:101140005F904F900895C12CD12C9FE7E92E93E436
:10115000F92E22CF8F929F92AF92BF92DF92EF92A1
:10116000FF920F931F93CF93DF93E3E0F3E08BE2C3
:10117000DF011D928A95E9F780E090E0A0E8BFEBDF
:1011800086A397A3A0A7B1A78AE097EDA3EABCE343
:1011900082A393A3A4A3B5A38DEC9EE9A1ECB9E926
:1011A00084839583A683B78388E698E2A8E3B7ECA7
:1011B00080879187A287B38788EA91E5ADEEBAE38D
:1011C00084879587A687B7878BEF93ECA5EBBBEA5F
:1011D000808B918BA28BB38BA7EFB2E0B383A283FA
:1011E000EDEEF2E01196FC93EE9381E492E09183B0
:1011F0008083938382839583848397838683918777
:10120000808787E193E015969C938E93149787E0EF
:1012100093E013969C938E93129789E193E017962F
:101220009C938E931697E9EBF7E088E0DF011D921F
:101230008A95E9F7C1ECD7E086E2FE0111928A9522
:10124000E9F7DD24D394DBA2812C912C5401839403
:10125000898A9A8AAB8ABC8AE12CF12C8701A80181
:1012600097016AE070E080E090E07FD89F8B8E8BE2
:10127000DD8A188EDAA2898E9A8EAB8EBC8E62E0E1
:1012800082E026DADD8E1886DDA289869A86AB8614
:10129000BC8661E084E00E942B01DD861882DCA21E
:1012A00089829A82AB82BC8261E085E00E942B0138
:1012B000DD82DF91CF911F910F91FF90EF90DF9032
:1012C000BF90AF909F908F9008958091D10781112A
:1012D0002DC081E08093D1078091D2079091D307F0
:1012E000A091D407B091D5070197A105B105F1F4FC
:1012F0008091D6078823D1F06AE070E080E090E02A
:101300000E9471019093D8078093D70740E050E086
:10131000BA010E943A016AE070E080E090E00E9429
:1013200071019093D8078093D70770D88091D9071F
:10133000811103C081E08093D9078091C907811191
:1013400003C081E08093C9078091C107811103C068
:1013500081E08093C10708954F925F926F927F92D0
:101360008F929F92AF92BF92CF92DF92EF92FF92B5
:101370000F931F93F89440903A0350903B03609072
:101380003C0370903D03C0902E03D0902F03E0905B
:101390003003F0903103452B09F0A4C09B01AC0150
:1013A000241935094609570929013A0100913603E4
:1013B00010913703209138033091390348015901C6
:1013C000840C951CA61CB71C80169106A206B306B9
:1013D000A0F4009132031091330320913403309133
:1013E00035030F5F1F4F2F4F3F4F00933203109372
:1013F0003303209334033093350380923603909265
:101400003703A0923803B092390300913203109150
:101410003303209134033091350380923E03909240
:101420003F03A0924003B092410300934203109304
:101430004303209344033093450360933A0370932E
:101440003B0380933C0390933D03A0E2BEE4A301E1
:1014500092010E9423316C0D7D1D8E1D9F1D609396
:101460002E0370932F0380933003909331030091E8
:1014700014021091150220911602309117020F3FAD
:101480001F4F2F4F3F4FF1F00091140210911502A2
:1014900020911602309117020E3F1F4F2F4F3F4FE2
:1014A00089F0C0901402D0901502E0901602F090DE
:1014B000170221E08C149D04AE04BF0408F420E060
:1014C0002093460378941F910F91FF90EF90DF9047
:1014D000CF90BF90AF909F908F907F906F905F90D4
:1014E0004F9008954B015C0184189508A608B70831
:1014F000A3019201261B370B480B590B6415750588
:1015000086059705D0F082169306A406B50640F42A
:1015100020E030E0A90181149104A104B10491F408
:10152000A0E2BEE40E942331A7019601261B370BDF
:10153000480B590BCA01B901C5CF82169306A40600
:10154000B50670F7A0E2BEE4A50194010E94233124
:101550006C0D7D1D8E1D9F1DB5CFFECECF93DF93ED
:1015600000D01F92CDB7DEB71C821B821A8219826F
:10157000BE016F5F7F4FCE0103960E9405256981F2
:101580007A818B819C810E94351E009761F4BE0197
:101590006F5F7F4FCE0103960E94112569817A818A
:1015A0008B819C8126D50F900F900F900F90DF912B
:1015B000CF910895FF920F931F93CF93DF93082F3E
:1015C00060E070E0CB010E94272BFF24F3940E947F
:1015D0001E1DEC01892B89F010E0CE3F8FEFD8075C
:1015E00069F0002361F160E070E0CB010E94272BDD
:1015F00081E090E0892B59F322C011E01DD5EC0168
:10160000892B21F0CE3F8FEFD80759F711111EC05B
:1016100011E0229609F410E00E94CE1CEC01892B07
:1016200021F0CE3F8FEFD807E1F6111111C011E084
:10163000CE3F8FEFD80709F410E001110BC0CE01A7
:10164000DF91CF911F910F91FF90089511E0E4CFAA
:1016500011E0F3CF60E070E0CB010E94272B1F2543
:10166000812F90E0C7CFCF93DF931ED6D0E0C0E0AC
:10167000892B71F06AE070E080E090E00E94272BF7
:1016800081E098DF11D62196C03D27E0D20781F78F
:1016900010D60E94891E10925E0310925D03109274
:1016A0005703109258031092590310925A03109244
:1016B0005303109254031092550310925603109244
:1016C0004F03109250031092510310925203109244
:1016D0004B0310924C0310924D0310924E03109244
:1016E0004703109248031092490310924A034EEFA9
:1016F0005FEF6FEF7FEF40931402509315026093FA
:1017000016027093170210924603EEE3F3E028E00E
:10171000DF011D922A95E9F710923A0310923B03DC
:1017200010923C0310923D0310923603109237033F
:10173000109238031092390310923203109233033F
:10174000109234031092350310922E0310922F033F
:101750001092300310923103DF91CF9108951092CF
:101760006A0310926B0310926C0310926D03109237
:10177000690380917203909173039093680380933F
:101780006703109266031092650310926103109232
:101790006203109263031092640310926F0310921D
:1017A0006E0390E080E00895CF92DF92EF92FF9277
:1017B0000F931F93CF938C01892B09F055C0209173
:1017C0007203309173038091670390916803409195
:1017D0007203509173035093680340936703281773
:1017E000390781F01092660310926503109261032D
:1017F00010926203109263031092640310926F03BD
:1018000010926E038091720390917303019761F5BA
:1018100080916E0390916F03892B21F480911802BF
:10182000811112C080916E0390916F030197E1F4D2
:101830008091610390916203A0916303B09164036E
:101840000197A105B10581F4109261031092620322
:1018500010926303109264031092180282E090E0E9
:1018600090936F0380936E03809172039091730342
:10187000019709F01CC1809188039091890380171A
:10188000910709F014C18091840390918503A09180
:101890008603B0918703009709F409C1209183035F
:1018A00021110DC0409184035091850360918603FE
:1018B00070918703452B462B472B09F4F8C02091E4
:1018C0006E0330916F032230310509F0F0C0209192
:1018D00065032111ECC0FC01C080D180E280F3805F
:1018E00080916903882309F4D3C080917503909196
:1018F0007603892B09F4FDC020917503309176039E
:1019000081E02230310509F080E0209175033091AB
:101910007603C1E02130310549F020917503309103
:101920007603C1E02230310509F0C0E0882309F4D4
:1019300056C020917F0330918003409181035091E4
:101940008203C701B6010E947E2887FD14C0209142
:101950007F03309180034091810350918203609115
:101960006A0370916B0380916C0390916D030E94E8
:10197000442787FD22C020917F033091800340914E
:10198000810350918203C701B6010E947E28181678
:1019900034F520917F033091800340918103509171
:1019A000820360916A0370916B0380916C03909144
:1019B0006D030E944427811112C08091770390919A
:1019C0007803A0917903B0917A03892B8A2B8B2B12
:1019D00019F481E08093660381E080936503CC2352
:1019E00009F456C020917F03309180034091810318
:1019F00050918203C701B6010E94442787FF14C09B
:101A000020917F03309180034091810350918203A4
:101A100060916A0370916B0380916C0390916D03E8
:101A20000E947E2887FF22C020917F03309180038F
:101A30004091810350918203C701B6010E9444275F
:101A4000811126C020917F03309180034091810352
:101A50005091820360916A0370916B0380916C03D3
:101A600090916D030E947E28181694F4809177035C
:101A700090917803A0917903B0917A03892B8A2BF6
:101A80008B2B19F481E08093660381E080936503DA
:101A900081E090916503911180E080936903C09289
:101AA0006A03D0926B03E0926C03F0926D03012BFA
:101AB00009F067C180916E0390916F03892BD9F46F
:101AC000109274031092650380911802882379F0B4
:101AD00082E090E090936F0380936E03109218025F
:101AE000209172033091730381E0232BE9F080E0B1
:101AF0001BC081E00ACF10921802809174038823E2
:101B000049F01092660310926F0310926E031092C8
:101B10007403EDCF8091720390917303892BE1F0F0
:101B2000809165031092650320916E0330916F03DD
:101B30002230310509F45EC088F42115310509F41D
:101B400048C02130310509F4F3C0109266031092A9
:101B500065031092740338C081E0E6CF233031056D
:101B600009F4B1C02430310581F7409161035091EF
:101B7000620360916303709164034115510561052F
:101B8000710561F041505109610971094093610388
:101B90005093620360936303709364034091610305
:101BA000509162036091630370916403452B462B4F
:101BB000472BD9F420917003309171032130310506
:101BC00009F046C01092660310926F0310926E03E4
:101BD0000CC080911802882341F082E090E090933D
:101BE0006F0380936E031092180210925F0380912E
:101BF0006603CEC08823C9F3809177039091780360
:101C0000A0917903B0917A03181619061A061B06DB
:101C10000CF07DC08091720390917303019709F0DD
:101C200076C08091770390917803A0917903B09169
:101C30007A038093610390936203A0936303B0934C
:101C4000640383E090E090936F0380936E03CDCFA5
:101C500040917B0350917C0360917D0370917E03E2
:101C6000452B462B472BA9F01092660380917B03EE
:101C700090917C03A0917D03B0917E0380936103DA
:101C800090936203A0936303B093640381E090E0B8
:101C9000DACF882399F08091190290911A02A091CD
:101CA0001B02B0911C028093610390936203A09386
:101CB0006303B093640384E090E0C5CF10926603A1
:101CC00082E090E0C0CF8091610390916203A09187
:101CD0006303B09164030097A105B10559F0019722
:101CE000A109B1098093610390936203A0936303F8
:101CF000B09364038091610390916203A0916303A8
:101D0000B0916403892B8A2B8B2B09F06ECF8091C5
:101D1000190290911A02A0911B02B0911C02892B0A
:101D20008A2B8B2B09F44ECF81E080936603B3CFCF
:101D30004091610350916203609163037091640369
:101D4000411551056105710561F041505109610965
:101D5000710940936103509362036093630370932E
:101D60006403409161035091620360916303709139
:101D70006403452B462B472B09F037CF8111C7CF82
:101D80009FCF80915F03882309F431CF8091600356
:101D9000CF911F910F91FF90EF90DF90CF9008951A
:101DA00010926A0310926B0310926C0310926D03F1
:101DB0001092690310926F0310926E0310926803E1
:101DC00010926703109289031092880310926603A1
:101DD00010926503109261031092620310926303E4
:101DE000109264031092600310925F0310928403B8
:101DF000109285031092860310928703109283033A
:101E000010927F031092800310928103109282033C
:101E100088EE93E0A0E0B0E08093190290931A025C
:101E2000A0931B02B0931C0210927B0310927C03C0
:101E300010927D0310927E03109277031092780324
:101E40001092790310927A03109276031092750320
:101E500081E0809318021092740310927303109221
:101E60007203109271031092700390E080E0089565
:101E70008091720390917303892B19F58091180258
:101E8000882351F080917403811106C081E0809312
:101E9000600380935F0308952091740330911802CA
:101EA00081E090E0332311F090E080E030E0822385
:101EB0009323892B21F01092600381E0EACF1092E6
:101EC0005F03089582E090E0FA01918380838FEFB1
:101ED0009FEF0895CF93DF93EA01009711F00E94DE
:101EE000A31F1982188290E080E0DF91CF910895BE
:101EF000DB01009719F48FEF8C9308952EEF2C934C
:101F0000FC013F96EF30F10508F034C08827E45714
:101F1000F04F8F4F0C941B31B80FB60FB40FB20FA8
:101F2000B00FAC0FAE0FAA0FA80FA60FA30F9F0FF5
:101F30009B0FA10FBA0F80E311968C93089589E24D
:101F4000FBCF82E2F9CF11961C92089583E2F4CF81
:101F500081E2F2CF81E1F0CF87E2EECF8AE2ECCFEF
:101F600080E1EACF84E2E8CF88E2E6CF86E2E4CF00
:101F700081E3E2CF80E2E0CF8091960390919703D6
:101F80000895909397038093960308958091950305
:101F9000089590919503892B809395030895982F28
:101FA000909580919503892380939503089580915E
:101FB000940308958091920390919303089561157D
:101FC000710559F0FB0130E020E070E060E024177B
:101FD000350719F06115710511F0CB010895A08145
:101FE000B181A817B90709F4BF012F5F3F4F36969B
:101FF000EECF8091980381111CC041D247D29093BB
:102000008B0380938A030E9411190E9423199093D5
:102010008F0380938E030E94361C0E943D1C909378
:102020008D0380938C0381E08093980390E080E09F
:10203000089584EF9FEF08958F929F92AF92BF9281
:10204000CF92DF92EF92FF920F931F93CF93DF9384
:1020500000D000D000D01F92CDB7DEB71A86198607
:1020600018861F821E821D821C821B821A82198280
:102070008091980307EF1FEF882309F48BC08E012E
:102080000D5F1F4F9E012B5F3F4FAE01495F5F4FBA
:10209000BE01675F7F4F90E080E00E94BA1D8C0117
:1020A000009721F00596029708F0C7C089859A85A8
:1020B000009709F4EFC0ED80FE802B813C812E0D4E
:1020C0003F1D4F8158854217530708F4E3C0E80EBF
:1020D000F91ED7014C912091960330919703232B41
:1020E00009F494C0413F08F069C08CE1840F8D3041
:1020F00008F483C08DE2840F803108F481C088E346
:10210000840F8B3008F47FC098E7C92E9FE0D92E4A
:10211000E2E6FFE06D817E81AE014F5F5F4F898512
:102120009A8519955C01C114D104A1F189809A8026
:102130008114910479F18B819C818815990508F4AB
:1021400084C010E000E04B815C8170E060E0C7017A
:102150000E94453101151105E9F449815A816985CB
:102160007A858D819E81680F791FC501F6011995C9
:10217000E980FA800D811E812F81388549855A8535
:102180006FEF7FEF81E090E00E94551D8C01892B5D
:1021900009F053C0C8012A960FB6F894DEBF0FBEEF
:1021A000CDBFDF91CF911F910F91FF90EF90DF9006
:1021B000CF90BF90AF909F908F90089530E020E037
:1021C000220F331FF901E657FC4F0190F081E02DFB
:1021D000309709F499CF842F90E01995009709F46E
:1021E00093CFDC011296ED91FC9113971496CD904C
:1021F000DC90309709F08ECF1EC021E030E0E0CFB8
:1022000022E030E0DDCF23E030E0DACFD12CC12C6A
:10221000EAE6FFE04F3F09F07DCFE0918A03F091BD
:102220008B03309719F404EF1FEF0CC08FEF90E091
:1022300019950097B1F604EF1FEF89859A850097ED
:1022400009F4A8CF0E94A31FA5CF0E94841E8C0171
:1022500089859A850E94A31F70E060E0C4010E94F6
:102260001D1E98878F830E94521D9E838D836F81D0
:1022700078856115710559F0C8010E9439219A8746
:10228000898706EF1FEF892B09F05BCF5CCF08EF42
:102290001FEF59CF08EF1FEFD0CF209198032111E6
:1022A000D7C787EF9FEF089580919603909197038A
:1022B00008950E94421C0E949C1BEDD0EAE8F3E0C6
:1022C00088E0DF011D928A95E9F71092980390E06B
:1022D00080E0089586E090E0FA019183808390E0A9
:1022E00080E0089547E050E064E472E068CEDF9259
:1022F000EF92FF920F931F93CF93DF938A01EC012C
:10230000C60FD71FE0909C03F0909D03D9800E94D8
:102310006C1ED816190678F082E090E0F8019183DF
:1023200080838EEF9FEFDF91CF911F910F91FF90F0
:10233000EF90DF900895EF2841F482E090E0F801FB
:102340009183808384EF9FEFEECF898180939B03FD
:1023500090E00196F8019183808390E080E0E3CFE4
:10236000CF93DF93EA010E94B01A882321F00E94E4
:10237000791E0E94B11A82E090E0998388838BEFE6
:102380009FEFDF91CF910895CF93DF93EB0186E02C
:10239000FB0111928A95E9F78FEF8883F7DD898336
:1023A00006DE8A8307DE9D838C83DF91CF910895BB
:1023B000CF93DF93EA010E94B31A811109C082E032
:1023C00090E09983888385EF9FEFDF91CF91089507
:1023D00090E080E0D6DD81E090E09983888390E012
:1023E00080E0F3CF0F931F93CF93DF93EA018C012B
:1023F000060F171F0E94B31A81110BC082E090E0F4
:102400009983888385EF9FEFDF91CF911F910F9183
:102410000895F8018181823038F082E090E099835C
:1024200088838EEF9FEFF0CF81E090E0AADD88E017
:1024300090E09983888390E080E0E6CFCF93DF93AC
:102440000097D1F4EB01FB01329686E0DF011D928B
:102450008A95E9F78FEF888385E089831A820E9445
:102460006C1E8B830E946B1E9D838C8381E08E8308
:102470008F83DF91CF910895DF91CF9139CD82E79E
:1024800091E190939A038093990308958091990321
:1024900090919A03089510929A03109299030895C7
:1024A00080919C0390919D030895411105C0611591
:1024B00071058105910561F060939C0370939D0304
:1024C00080939E0390939F034093A00381E008951F
:1024D00080E00895FF920F931F93CF93DF938A01BB
:1024E000EC01C60FD71FF9800E946C1EF816190662
:1024F00068F082E090E0F801918380838EEF9FEF97
:10250000DF91CF911F910F91FF9008956C817D8194
:102510008E819F814B81C9DF811108C082E090E0EC
:10252000F8019183808384EF9FEFEACF89818093C4
:102530009B0390E00196F8019183808390E080E016
:10254000DFCFCF93DF93EA01FC01E60FF71F648131
:102550007581868197814381A8DF811109C082E05E
:1025600090E09983888384EF9FEFDF91CF91089566
:1025700081E090E09983888390E080E0F6CFECE9F9
:10258000F3E04081518162817381480F511D611DCB
:10259000711D40835183628373830895CF93C091EB
:1025A0009B034C2F50E060919C0370919D0301961A
:1025B0000E943C318C2FE3DF10929B03CF91089552
:1025C000009799F480919C0390919D032FEFFB015C
:1025D0002083892B59F020919B0330E02F5F3F4FE0
:1025E0002417350719F4CB01D9CF82CC0895009771
:1025F00099F480919C0390919D032FEFFB01208320
:10260000892B59F020919B0330E02F5F3F4F241717
:10261000350719F4CB01C2CF6BCC08952DE0AC0186
:10262000249FC001259F900D1124E091A503F091F6
:10263000A603E80FF91F238134812250310981E07C
:102640002230310508F080E008950F931F93CF9357
:10265000DF930091A7031091A803D0E0C0E080E0D1
:102660000C171D0749F491E0811190E0892FDF914B
:10267000CF911F910F9108958111F5CFCE01CEDF3B
:102680002196EECFA091A503B091A603109729F152
:102690002091A7033091A80382179307F0F45DE01F
:1026A000589F9001599F300D1124A20FB31FED9137
:1026B000FC911197309789F012968C91681768F405
:1026C00085E0689FE00DF11D112480819181892BA7
:1026D00021F081E09281491708F080E00895EF929F
:1026E000FF920F931F93CF93DF93EA01FC01E60F54
:1026F000F71F02811381E480F5804F2D6E2DC801F4
:10270000C1DF81110DC082E090E0998388838EEF54
:102710009FEFDF91CF911F910F91FF90EF90089560
:10272000C8017CDF882339F082E090E099838883B8
:1027300088EF9FEFEECF1093240200932302E092E4
:102740002502F092260281E090E09983888390E050
:1027500080E0DFCFCF92DF92EF92FF920F931F9333
:10276000CF93DF937A01EC01C60FD71FC0902302ED
:10277000D09024020091250210912602412F602F53
:10278000C60180DF811110C082E090E0F7019183E3
:1027900080838AEF9FEFDF91CF911F910F91FF9080
:1027A000EF90DF90CF900895C60138DF882341F085
:1027B00082E090E0F7019183808388EF9FEFEBCF79
:1027C0004C815D816E817F819A8189818F3F41F04B
:1027D00082E090E0F701918380838EEF9FEFDBCF63
:1027E000EDE0EC9D9001ED9D300D1124E091A503ED
:1027F000F091A603E20FF31F0190F081E02D25E098
:10280000029FE00DF11D11240190F081E02D27E0E1
:10281000129FE00DF11D1124808391838B818283AF
:1028200043835483658376831F5F1093260281E080
:1028300090E0F7019183808390E080E0ACCFEF924D
:10284000FF920F931F93CF93DF937A018C01060FB2
:10285000171FC091A503D091A603209781F021E016
:1028600030E0F801828193814091A7035091A80341
:102870008417950710F030E020E0232B71F482E0FC
:1028800090E0F701918380838EEF9FEFDF91CF91EE
:102890001F910F91FF90EF9008954DE0489F900198
:1028A000499F300D1124C20FD31FB8DE882341F099
:1028B00082E090E0F7019183808388EF9FEFE6CF7D
:1028C000F8012481358120383105C8F687818111CE
:1028D000D6CF4181842F90E08F7E009741F082E037
:1028E00090E0F7019183808386EF9FEFCFCF4F83F6
:1028F0003E832D83268128871986223010F421E01B
:10290000288721E030E0F70131832083BFCF88E0C2
:1029100090E0FA019183808390E080E00895FB01CC
:102920008FEF808381E181838FEF9FEF9383828399
:1029300080E890E095838483168217820895FB01D6
:102940008FEF808391E0918382839383848384E3F8
:10295000858381E090E09783868308954BE050E083
:102960006EE672E02CCB8F929F92BF92CF92DF9255
:10297000EF92FF920F931F93CF93DF93EA01FC0135
:10298000E60FF71F828193810481B580E091A50352
:10299000F091A603309791F482E090E099838883C8
:1029A0008CEF9FEFDF91CF911F910F91FF90EF90F0
:1029B000DF90CF90BF909F908F9008952091A703B4
:1029C0003091A8038217930738F082E090E0998352
:1029D00088838EEF9FEFE6CF2DE0289F6001299F2F
:1029E000D00C1124EC0DFD1DE080F180E114F10408
:1029F00099F28281081748F785E0089F8001112429
:102A0000E00EF11EF70180819181892B29F6BB2010
:102A1000E1F2F7E0BF9E40011124C4010E94551F5E
:102A2000F70191838083E091A503F091A603EC0D5B
:102A3000FD1D0190F081E02DE00FF11F808191815B
:102A4000009739F482E090E0998388838DEF9FEFBF
:102A5000A9CFA40170E060E00E9445318091A503F8
:102A60009091A603C80ED91EF60180819181080FAE
:102A7000191FF801B28281E090E09983888390E089
:102A800080E090CFAF92BF92CF92DF92FF920F93F0
:102A90001F93CF93DF93EA01FC01E60FF71F8281BA
:102AA0009381F4800091A5031091A60301151105EF
:102AB00081F482E090E0998388838CEF9FEFDF912F
:102AC000CF911F910F91FF90DF90CF90BF90AF906B
:102AD00008952091A7033091A8038217930738F037
:102AE00082E090E0998388838EEF9FEFE8CF2FEF0D
:102AF0002F0D2C3FA8F72DE0289F6001299FD00CB7
:102B000011240C0D1D1DF80180819181892B89F6FE
:102B1000F5E0FF9E50011124C5010E94551FF801E8
:102B200091838083E091A503F091A603EC0DFD1D38
:102B300080819181009739F482E090E099838883C5
:102B40008DEF9FEFBCCFA50170E060E00E944531A2
:102B5000E091A503F091A603EC0DFD1DF28281E04A
:102B600090E09983888390E080E0A9CFCF92DF92B4
:102B7000EF92FF920F931F93CF93DF93860F971FD0
:102B8000FC01028113818091A5039091A603892BFA
:102B900081F082E090E0FA01918380838CEF9FEFD7
:102BA000DF91CF911F910F91FF90EF90DF90CF9029
:102BB0000895C801B0E0A0E00197A109B1098F3FD5
:102BC0009F4FA105B10540F082E090E0FA019183AA
:102BD00080838EEF9FEFE4CF7A018DE0809F6001CC
:102BE000819FD00C1124C6010E94551FEC01009753
:102BF00041F482E090E0F701918380838DEF9FEFB5
:102C0000CFCFA60170E060E00E944531D093A603CB
:102C1000C093A5031093A8030093A70390E080E05E
:102C20002FEF3FEF8017910741F481E090E0F7012B
:102C30009183808390E080E0B3CF3C872B8701961F
:102C40002D96F0CFCF92DF92EF92FF920F931F93CA
:102C5000CF93DF93EC01D12CC12C10E000E0F12CDC
:102C6000E12C8A818017110609F0BCF4AE01455FA2
:102C70005F4F63E070E0C7010E94CF1F009721F013
:102C80002FEF3FEF3C872B87DF91CF911F910F9163
:102C9000FF90EF90DF90CF900895E881F981EC0DDF
:102CA000FD1D23813481C90101960115110519F417
:102CB0004F8144FD049661E070E0BFD7E816F90645
:102CC00008F47C010F5F1F4F85E0C80ED11CC9CFEF
:102CD000F8942091A3033091A40381E021153105DC
:102CE00009F080E0232B09F0789408954F925F92C9
:102CF0006F927F928F929F92AF92BF92CF92DF920C
:102D0000EF92FF920F931F93CF93DF933C01660ED8
:102D1000771EF301828193814C01B12CA12CC091CB
:102D2000A503D091A603209769F021E030E06091DF
:102D3000A7037091A8038617970710F030E020E0F2
:102D4000232BC1F482E090E0FA01918380838EEF1F
:102D50009FEFDF91CF911F910F91FF90EF90DF9048
:102D6000CF90BF90AF909F908F907F906F905F902B
:102D70004F9008958092270290922802A0922902F3
:102D8000B0922A026DE0689F9001699F300D112476
:102D9000C20FD31FF3018181833040F082E090E0C5
:102DA000FA019183808386EF9FEFD3CF2A012B8195
:102DB0003C81232BF1F4288139819F8191FF2EC022
:102DC000232B09F464C02091AA039A81422F490F52
:102DD0005527551FBA0141E050E06138710514F0E4
:102DE00050E040E0452B09F452C02A87920F90939F
:102DF000AA038150823008F476C06ADF882309F480
:102E0000C5C0F3018181813009F480C008F470C02D
:102E1000823009F4B3C090E080E08EC0232BB9F17A
:102E20002091A9039A81E22FE90FFF27FF1F41E0BC
:102E300050E0ED3FF10514F050E040E0452B39F152
:102E40002A87920F9093A903D4CFA081B181A20FBA
:102E5000B31F11966C91060F111D0196295F3F4F0C
:102E60008417950794F3C114D104C9F48F8184FFAA
:102E700016C031D721E0A8014B5F5F4F841795073B
:102E800008F420E0A7014B5F5F4F21110EC082E0E4
:102E900090E0F2019183808387EF9FEF5ACF1BD799
:102EA00021E0A8014F5F5F4FE9CF88819981E80E4B
:102EB000F91EF70114830383FFEFCF1ADF0A7A01AB
:102EC0008A818C151D0409F00CF497CFE881F981F3
:102ED000EE0DFF1D428150E030E020E010E000E008
:102EE00090E080E0BDCFF12CE12CD12CC12CE8CFBB
:102EF00081E090E09C838B83A8DB882309F48BCF4F
:102F000081E090E03ED880E44AD885CF8B859C85CF
:102F1000019651F083E090E09C838B8382E090E007
:102F200030D880E436D877CF89288A288B2879F45E
:102F3000CE0188DE009771F3789422E030E0F20150
:102F400031832083892BF9F08DEF9FEF02CF2D8104
:102F50003E8180911D0290911E0228173907D1F6FB
:102F60006091210270912202AE01455F5F4F809116
:102F70001F02909120020E94F820DCCF82E090E0B6
:102F80009C838B8348CF90E080E0E3CE82E090E0AA
:102F9000F2019183808385EF9FEFDBCE8F929F922A
:102FA000AF92BF92CF92DF92EF92FF920F931F9357
:102FB000CF93DF93EA018C01060F171FF80181817F
:102FC000833098F082E090E09983888386EF9FEFCA
:102FD000DF91CF911F910F91FF90EF90DF90CF90F5
:102FE000BF90AF909F908F9008958091A50390918E
:102FF000A603892B61F081E090E02091A703309136
:10300000A803232B11F490E080E0892B39F482E0AF
:1030100090E0998388838EEF9FEFDACF59DE882383
:1030200009F4D5C0F8018181813009F48BC0E8F042
:10303000823099F42091A7033091A803E091A50371
:10304000F091A60390E080E041E050E028173907B6
:1030500009F0B3C0FADA811117C0789481E090E0EA
:103060009983888390E080E0B3CF2091A7033091CB
:10307000A803E091A503F091A60390E080E041E071
:1030800050E02817390741F481E090E00E94C10F19
:1030900080E40E94CF0FE1CF63817481672B11F030
:1030A0005483438301963D96ECCFE091A503F091C4
:1030B000A603E00FF11F238134812230310561F432
:1030C000238534852F3F3F4F39F4C114D104E104E7
:1030D000F10409F5CF01B6DDEFEFCE1ADE0AEE0AF4
:1030E000FE0A035F1F4F4091A7035091A80370E0B1
:1030F00060E0C416D506E606F70664F50097A9F267
:103100007894892B09F4AACF82E090E09983888390
:103110008DEF9FEF5DCF4581568120911D0230914B
:103120001E0242175307C1F6AF01455F5F4F609122
:1031300021027091220280911F02909120020E9430
:10314000F820CACF10E000E090E080E0C12CD12C44
:103150007601C9CF0097A1F610E000E0812C912CF8
:10316000540183E0E82EF12C1AC0E091A503F09100
:10317000A603E00FF11F83819481029749F4F48242
:10318000E38282E090E00E94C10F80E40E94C90FB8
:10319000FFEF8F1A9F0AAF0ABF0A035F1F4F80918C
:1031A000A7039091A803B0E0A0E088169906AA06AC
:1031B000BB06DCF290E080E0A3CF638174816230D3
:1031C000710511F45483438301963D963FCF82E00D
:1031D00090E09983888385EF9FEFFACE0097B9F44A
:1031E0008FEFFB01808320912702309128024DE070
:1031F000429FC001439F900D1124E091A503F091DF
:10320000A603E80FF91F8285FB01818308950C94C2
:10321000780F88E090E0FA019183808390E080E06D
:1032200008951092A4031092A303E5EAF3E086E068
:10323000DF011D928A95E9F78EEA94E19093A2034B
:103240008093A10308958091A1039091A203089512
:103250002F923F924F925F926F927F928F929F92A6
:10326000AF92BF92CF92DF92EF92FF920F931F9394
:10327000CF93DF93CDB7DEB762970FB6F894DEBF7A
:103280000FBECDBFF8942091A3033091A4032F5F0C
:103290003F4F3093A4032093A30378942091A50378
:1032A0003091A6033B832A83232B09F456C1209136
:1032B000A7033091A803232B09F44FC14D875E87E4
:1032C0006F87788B9C878B878A819B819A8B898B70
:1032D000D12CC12C198210E000E08091A7039091BD
:1032E000A803C816D90618F43981332329F1F894B4
:1032F0008091A3039091A40301979093A4038093DA
:10330000A3037894C80162960FB6F894DEBF0FBE8F
:10331000CDBFDF91CF911F910F91FF90EF90DF9084
:10332000CF90BF90AF909F908F907F906F905F9065
:103330004F903F902F900895B60190E080E029D300
:103340008887A989BA8917968C91179781FD8DC0B6
:1033500013968D919C911497039709F086C015964A
:10336000ED91FC91FF83EE832B853C85E217F307FB
:1033700009F07BC0712C612C512C412C63C092D37D
:103380009A87898710E04114510431F4A989BA89D8
:1033900017961C9112951170A989BA89ED91FC912B
:1033A000E60DF71D23803480111169C0BFEF2B1A81
:1033B0003B0A61E070E0C10140D45C01A989BA898F
:1033C0001B968D919C918F3F980709F45CC0B501C5
:1033D00050D74C01009709F4BBC0E985FA85E80F86
:1033E000F91FA989BA891A968C91840D80831111CD
:1033F0004DC08F010F5F1F4F80911D0290911E02E3
:10340000AE81BF81A817B90709F09DC081E090E0A7
:10341000B885BB2311F090E080E0710109851A8521
:103420009501A401B6019195819591093ED38C0136
:10343000892B11F0C40187D58FEF481A580A95E0FF
:10344000690E711CA989BA8912968C91841515048C
:1034500029F024F0B981BB2309F491CFE885EE234C
:1034600021F0B60190E080E096D2FFEFCF1ADF0A9C
:1034700029893A89235F3F4F3A8B298B2ECFE5E08C
:103480002E0E311C96CFC50110D5A3CF8D859E85FC
:10349000AF85B88981839283A383B4838F010B5F47
:1034A0001F4FAACFE080F180EC81FD81EE0EFF1E60
:1034B000D70113966D917C9114978C918F3FE1F118
:1034C000E1E0F0E002C0EE0FFF1F8A95E2F7CF01C6
:1034D000092E000CAA0BBB0BFB01408151816281BC
:1034E000738184239523A623B72321E0892B8A2B7C
:1034F0008B2B09F420E0D8012C93D70111968C91E5
:10350000080F111DEA81FB813196FB83EA832C8130
:103510003D81295F3F4F3D832C83A989BA89ED9175
:10352000FC91E60DF71D82812A813B8182171306EB
:1035300011F00CF0B7CF6ACFF701418150E0C8011C
:103540000E943C31DACF1D821C821B821A82E5CF99
:1035500031E0398306EF1FEF6FCF10E000E0C7CEF8
:10356000B7CB789408952F923F924F925F926F92CB
:103570007F929F92AF92BF92CF92DF92EF92FF9293
:103580000F931F93CF93DF9300D000D0CDB7DEB75A
:103590000091A5031091A603992493940115110598
:1035A00009F43EC0A090A703B090A80391DB982E29
:1035B0008823B1F11092A6031092A5031092A803DC
:1035C0001092A7031092A9031092AA038FEF9FEF06
:1035D000DC018093270290932802A0932902B093E4
:1035E0002A0278947AD31E830D83C12CD12C7601C4
:1035F000C501B0E0A0E089839A83AB83BC83222419
:103600002A94322C89819A81AB81BC81C816D90653
:10361000EA06FB06F4F0C80196D480E40E94CF0FBE
:10362000892D26960FB6F894DEBF0FBECDBFDF9171
:10363000CF911F910F91FF90EF90DF90CF90BF90AF
:10364000AF909F907F906F905F904F903F902F90A2
:103650000895C114D104E104F10409F5D8011B96C1
:103660008D919C918F3F980709F043D5F8013486DE
:103670002386ED81FE8180819181B12CA12C412C8A
:10368000512C3201892B69F5BFEFCB1ADB0AEB0A0B
:10369000FB0AED81FE813D96FE83ED83B3CFAD81C4
:1036A000BE8115962D913C91169780911D029091A7
:1036B0001E0228173907E9F61B968D919C91C7D5F4
:1036C000D8CF8A0D9B1DDC018D919C91009709F04C
:1036D0003AD4BFEF4B1A5B0A6B0A7B0AE5E0AE0EE9
:1036E000B11CAD81BE818D919C91119712964C9128
:1036F00050E070E060E044165506660677060CF36D
:1037000022D4C2CFCF93DF93EA012DDF811109C00C
:1037100082E090E09983888385EF9FEFDF91CF91DE
:10372000089581E090E00E94C10F81E090E09983CC
:10373000888390E080E0F2CF16DF1092A20310920F
:10374000A103089542E050E060EB72E00C94DF0FBB
:10375000FF920F931F93CF93DF938A01EC01C60F63
:10376000D71FF980B9D20897F816190671F068F0DA
:1037700082E090E0F801918380838EEF9FEFDF91EC
:10378000CF911F910F91FF9008956C817D818E8163
:103790009F814B810E945512811108C082E090E008
:1037A000F8019183808384EF9FEFE9CFF9800E9435
:1037B00050124F2D50E0BE01685F7F4F0E943C3198
:1037C00089810E94BF1281E090E0F801918380839B
:1037D00090E080E0D4CFDF92EF92FF920F931F939F
:1037E000CF93DF938A01EC01C60FD71F0E945012BE
:1037F0007C01D98071D2DD2059F0029721E030E0C0
:10380000D816190619F010F030E020E0232B79F4D7
:1038100082E090E0F801918380838EEF9FEFDF914B
:10382000CF911F910F91FF90EF90DF900895EF28B7
:1038300041F482E090E0F8019183808384EF9FEF70
:10384000EECFF9800E9450124F2D50E0BE016E5F06
:103850007F4F0E943C3189810E94BF1281E090E03D
:10386000F8019183808390E080E0D9CF82EA9BE1E8
:103870009093AC038093AB0308958091AB03909138
:10388000AC0308950895FC01118210829383828312
:103890000895DB011D921C92DC011296ED91FC91C2
:1038A00013977183608313967C936E931297089598
:1038B000FC0180819181DB018D939C93A081B1817A
:1038C000109741F08D919C9191838083892B11F405
:1038D000F383E2830895FC0180819181DB018D9364
:1038E0009C93892B11F473836283718360830895A1
:1038F000FC0111821082938382830895CF93DF931A
:103900001F921F92CDB7DEB71A821982F894BE01BA
:103910006F5F7F4F82EB93E0CBDF89819A810097C5
:1039200009F011D389819A81892B89F7BE016F5FD4
:103930007F4F86EB93E0BCDF89819A81009709F085
:1039400002D389819A81892B89F778940F900F90FF
:10395000DF91CF910895CF93DF931F921F92CDB740
:10396000DEB71A821982F894BE016F5F7F4F8EEA2C
:1039700093E09EDF89819A81009709F0E4D28981E2
:103980009A81892B89F778940F900F90DF91CF91CE
:10399000089581E0089590E080E00895EF92FF920D
:1039A0000F931F93CF93DF931F921F92CDB7DEB774
:1039B0001A8219828091AD0307EF1FEF8823A1F1CE
:1039C000F894BE016F5F7F4F86EB93E071DF7894D0
:1039D00089819A81EE24E394F12C892B51F4F89497
:1039E000BE016F5F7F4F82EB93E062DF7894F12C32
:1039F000E12C89819A810EEF1FEF0097A9F0FC015D
:103A00004281538164E070E034D68C01892B61F0EF
:103A1000F89469817A81C701880F991F880F991FCF
:103A20008E549C4F58DF7894C8010F900F90DF910F
:103A3000CF911F910F91FF90EF9008950F931F93D7
:103A4000CF93DF9300D01F92CDB7DEB71C821B82CD
:103A50001A8219828091AD0307EF1FEF8823C1F00E
:103A6000AE014D5F5F4F64E070E0CE01019674D609
:103A70008C01892B69F4E981FA818B819C81938384
:103A80008283F89469817A818EEA93E002DF7894E8
:103A9000C8010F900F900F900F90DF91CF911F9161
:103AA0000F91089579D7049608958F929F92AF92BF
:103AB000BF92CF92DF92EF92FF920F931F93CF931B
:103AC000DF931F921F92CDB7DEB71A821982BC0115
:103AD0006F5F7F4F6330710598F0AA24AA94BA2CC7
:103AE000C5010F900F90DF91CF911F910F91FF9023
:103AF000EF90DF90CF90BF90AF909F908F90089500
:103B00004115510551F3480159018A016C01CADF81
:103B10008815990511F7E114F104F9F28E0D9F1D36
:103B2000A816B906D0F28091AD038823F1F0F8947D
:103B3000B501645071099701AE014F5F5F4FC80135
:103B400004969FD65C01892B71F489819A81F801D2
:103B500093838283C601880F991F880F991FB8012C
:103B60008E549C4F96DE7894BBCF87EFA82EBB2453
:103B7000BA94B6CFAF92BF92CF92DF92EF92FF92FC
:103B80000F931F93CF93DF931F921F92CDB7DEB792
:103B90001A821982892B09F047C06115710509F451
:103BA00043C04115510509F43FC02115310509F401
:103BB0003BC001151105C1F18091AD038823B9F116
:103BC00079016A015B01F894BE016F5F7F4F8EEA55
:103BD00093E06EDE789489819A81009759F1DC0137
:103BE00012966D917C91A801049664D68C01E981AE
:103BF000FA81D501ED93FC93828193810496F601BD
:103C0000918380834FDFD7018D939C93C8010F90E0
:103C10000F90DF91CF911F910F91FF90EF90DF9068
:103C2000CF90BF90AF9008950FEF1FEFEFCF07EF4A
:103C30001FEFECCF0EEF1FEFE9CFCF93DF93EC0137
:103C4000672B71F4B2D68C179D0760F0A5D6249629
:103C5000C80FD91FA4D68C0F9D1FDF91CF91089557
:103C6000A1D6F1CF90E080E0F8CF0F931F93CF93D0
:103C7000DF932091AD0321112BC08B01EC0182EB6E
:103C800093E001DE86EB93E0FEDD8EEA93E0FBDD60
:103C900086D00097C1F489D670E060E0CEDF4BE2B9
:103CA00052E062E070E07BD1009769F480912B02D2
:103CB00090912C028CD6B801CE01C1D4009719F492
:103CC00021E02093AD03DF91CF911F910F910895D3
:103CD00084EF9FEFF8CF66C668C6CF93DF9368D6B0
:103CE000EC01892B11F40ADE36DECE01DF91CF9193
:103CF0000895CF93DF935CD6EC01892B09F4FEDDA8
:103D0000CE01DF91CF91089580912B0290912C02EA
:103D10000895CF93DF938091AD03D0E0C0E0882376
:103D2000D1F05AD6EC01892BB1F4E8DD14DE809194
:103D30002B0290912C02DDD1ECD2EC01892B59F4AD
:103D400082EB93E0D5DD86EB93E0D2DD8EEA93E063
:103D5000CFDD1092AD03CE01DF91CF910895CF93C7
:103D6000DF930097A1F4DF91CF910895EC011A82BF
:103D70001982A883309711F0928381832F5F3F4F80
:103D8000FC01860F971F4217530781F7ECCF30E0F5
:103D900020E0F0E0E0E0AFEF6F5F7F4FF4CFCF9235
:103DA000DF92EF92FF920F931F93CF93DF930FEB6E
:103DB00014E00C7F8CEBE82E82E0F82E92ECC92EFA
:103DC00092E0D92ECEEFD4E0D7014D915D917D01E7
:103DD000F601619171916F01198308835D834C83B2
:103DE0005B834A837F836E839B012F5F3F4F249FBA
:103DF000C001259F900D349F900D112499878887CD
:103E0000C801ADDF88859985080F191F2A96F2EC45
:103E1000EF16F2E0FF06C1F6ECEBF3E080E091E094
:103E2000DF019C011D9221503040E1F71092BB034D
:103E30001092BA0310921D0510921C0510922105D4
:103E40001092200510921F0510921E051092230556
:103E50001092220510922505109224051092270534
:103E60001092260510922B0510922A051092290512
:103E70001092280510922D0510922C0510922F05F6
:103E800010922E051092FB041092FA041092FD0479
:103E90001092FC0490E080E0DF91CF911F910F9190
:103EA000FF90EF90DF90CF900895009799F1F894EC
:103EB0008930910550F48091000590910105892B7E
:103EC00039F020E090E080E018C08131910550F495
:103ED00080910A0590910B05892B31F021E081E05A
:103EE00090E00BC08197A8F480911405909115057E
:103EF000892B79F022E082E090E0EAE0E89FD001AF
:103F0000E99FB00D1124A250BB4F8D919C91009759
:103F100021F4789490E080E00895E29FF00111246C
:103F2000E250FB4FDC0111964D915C91518340832F
:103F3000428153814150510953834283FC012193B3
:103F4000CF0178940895009749F1DC018E91853076
:103F500041F4E091FC04F091FD043097F9F0CD01BB
:103F600019948530D8F4282F30E0F8948FEF8C9393
:103F70008AE0829FF001839FF00D1124E250FB4FF5
:103F80008081918112969C938E931197B183A08327
:103F90008281938101969383828378940895CF924E
:103FA000DF92EF92FF920F931F93CF93DF939C01C9
:103FB0008FEB93E08C7F4115510509F497C02115D3
:103FC000310509F493C06115710509F48FC07A01B8
:103FD000AB01B9016D5F7F4F6C7F9B012F5F3F4F3E
:103FE000249F8001259F100D349F100D1124F894FB
:103FF00020911C0530911D05232B59F42091240597
:10400000309125052115310569F12017310708F098
:1040100056C02091260530912705232B91F420913D
:10402000240530912505820F931F20912E05309194
:104030002F052115310509F43FC02017310708F07D
:1040400052C07894CFEFDFEF86EF9FEFF701D18377
:10405000C083DF91CF911F910F91FF90EF90DF9080
:10406000CF900895C3E0D0E0C090BA03D090BB03D6
:104070002DEF30E02C193D092017310710F32AE00D
:104080002C9FF0012D9FF00D1124E250FB4F9183E6
:104090008083558344835383428377836683118768
:1040A00000875DDE0C0D1D1D1093BB030093BA034A
:1040B000789490E080E0CACFC4E0D0E0D5CFC3E0F0
:1040C000D0E02AE02C9FF0012D9FF00D1124E2504A
:1040D000FB4F91838083558344835383428377834B
:1040E00066833DDEE5CFC4E0D0E0EBCF8FEF9FEFFE
:1040F000B0CFFF920F931F93CF93DF939C01235078
:1041000031092230310508F070C0EC01F89484E0E8
:104110009AE09C9FD0019D9FB00D1124AA5FBA4FD9
:10412000082F10E0909FF001919FF00D1124E250B4
:10413000FB4F20813181C017D10714F1FF24F39484
:10414000232B41F52AE0209FF001219FF00D11243F
:10415000E250FB4F8091BA039091BB03408551859B
:10416000841B950B9093BB038093BA032C9FF001A3
:104170002D9FF00D1124E250FB4F118610861CC0BC
:10418000232B39F42D913C911197232BA9F48150C5
:10419000C7CFF12C8AE08C9FF0018D9FF00D112488
:1041A000E250FB4F4085518570E060E08081918155
:1041B0000E944531F110C6CF8AE08C9FF0018D9F9F
:1041C000F00D1124E250FB4F1182108215821482EF
:1041D0001382128217821682789490E080E0DF9139
:1041E000CF911F910F91FF9008958FEF9FEFF7CF21
:1041F0004115510549F1009739F16115710521F11A
:10420000F8942091FA043091FB04232BB9F4209107
:10421000FC043091FD04232B89F49093FB048093DC
:10422000FA047093FD046093FC04789425E030E078
:1042300090E080E0FA0131832083089578942FEF95
:104240003FEF86EF9FEFF6CF8FEF9FEF0895059733
:1042500069F4F8941092FB041092FA041092FD0491
:104260001092FC04789490E080E008958FEF9FEF27
:1042700008956115710519F4F0E0E0E011C0853092
:10428000910581F4E091FA04F091FB043097A1F3D9
:10429000CB0101961995009779F3FC0185E0819394
:1042A000CF0108959C01235031092230310520F7B8
:1042B0002AE0289FD001299FB00D1124A250BB4FA6
:1042C0002D913C911197232BB9F216962D913C918B
:1042D00017972617370780F2F89412962D913C9184
:1042E00013972115310529F0ED91FC911197309725
:1042F00011F47894C1CF4181528111965C934E9311
:104300002150310913963C932E9312978193789400
:10431000C7CFECEBF4E08EE3DF011D928A95E9F75D
:10432000ECEBF3E080E091E0DF019C011D92215075
:104330003040E1F71092BB031092BA03EEEFF4E0C5
:1043400082E3DF011D928A95E9F7EAEFF4E084E069
:10435000DF011D928A95E9F790E080E00895CF9300
:10436000DF93C0912D02D0912E02CF3FDC0759F48C
:10437000DFD390932E0280932D0297FF09C0D09334
:104380002E02C0932D0284EF9FEFDF91CF9108950D
:1043900090E080E0FACF8230910528F480933005D8
:1043A00090E080E008958FEF9FEF08954F925F9225
:1043B0006F927F92AF92BF92CF92DF92EF92FF9275
:1043C0000F931F93CF93DF931F921F92CDB7DEB74A
:1043D0001A821982009709F479C06115710509F4F0
:1043E00075C020912D0230912E0207EF1FEF2F3F55
:1043F0003F4F09F445C06B015C01412C512C320147
:10440000F12CE12C10E000E09E012F5F3F4FA60150
:104410004E195F09B5016E0D7F1D80912D0290919F
:104420002E02E5D3892B09F04BC089819A81009730
:1044300041F4E114F10429F420913005222309F418
:1044400042C0E80EF91EEC14FD04D0F480E84816D2
:1044500084E858068EE16806710420F560E070E09B
:10446000CB010E94272B2AE0420E511C611C711CBB
:104470000A3F4FEF140721F0043F8FEF1807A1F414
:10448000C8010F900F90DF91CF911F910F91FF9076
:10449000EF90DF90CF90BF90AF907F906F905F9044
:1044A0004F90089501EF1FEF81E090E0013F2FEF63
:1044B000120711F090E080E0892B09F4A5CFE0CF3E
:1044C00004EF1FEFDDCF0AEF1FEFDACF0FEF1FEF83
:1044D000D7CF4F925F926F927F92AF92BF92CF925F
:1044E000DF92EF92FF920F931F93CF93DF931F9270
:1044F0001F92CDB7DEB71A821982009709F479C0EE
:104500006115710509F475C020912D0230912E02BC
:1045100007EF1FEF2F3F3F4F09F445C06B015C01D0
:10452000412C512C3201F12CE12C10E000E09E01D5
:104530002F5F3F4FA6014E195F09B5016E0D7F1D1C
:1045400080912D0290912E0208D3892B09F04BC047
:1045500089819A81009741F4E114F10429F42091B2
:104560003005222309F442C0E80EF91EEC14FD04C4
:10457000D0F480E8481686E9580688E96806710490
:1045800020F560E070E0CB010E94272B2AE0420E6C
:10459000511C611C711C0E3F4FEF140721F0043FAA
:1045A0008FEF1807A1F4C8010F900F90DF91CF9102
:1045B0001F910F91FF90EF90DF90CF90BF90AF9041
:1045C0007F906F905F904F90089502EF1FEF81E012
:1045D00090E0023F2FEF120711F090E080E0892B6E
:1045E00009F4A5CFE0CF04EF1FEFDDCF0EEF1FEFF3
:1045F000DACF0FEF1FEFD7CF80912D0290912E02CF
:104600008F3F980749F08CD2892B49F48FEF9FEFA9
:1046100090932E0280932D0290E080E0089584EF25
:104620009FEF0895FC01680F791F90E080E0E61786
:10463000F70709F408952191820F911DF8CF209179
:104640003105211113C08BDE009791F410923705CC
:1046500010923605109235051092340510923305EC
:104660001092320521E020933105089584EF9FEFE9
:104670000895AF92BF92CF92DF92EF92FF920F9385
:104680001F93CF93DF93009709F460C04630510524
:1046900008F45CC020913105C7EFDFEF222309F455
:1046A00049C08C01060F171FF801C080D180C114CA
:1046B000D10409F44EC096012A5F3F4F42175307B9
:1046C00008F447C07C0180913605909137059383AB
:1046D0008283B6016C5F7F4F5801A60EB71EC801DA
:1046E000A1DFF5019183808364E070E0C8015EDEA4
:1046F000EC01892BF9F481E090E04DDEB601C801B0
:10470000049654DEEC01892B91F462E070E0C5015F
:104710004DDEEC01892B59F4C70115DC809136057B
:10472000909137050196909337058093360590E078
:1047300080E031DECE01DF91CF911F910F91FF908C
:10474000EF90DF90CF90BF90AF900895CFEFDFEF65
:10475000F1CFC9EFDFEFEECF6F927F928F929F92F2
:10476000AF92BF92CF92DF92EF92FF920F931F937F
:10477000CF93DF9300D01F92CDB7DEB7009709F437
:104780007AC04115510509F476C02091310507EF33
:104790001FEF222309F44DC03A017B015C0164E064
:1047A00070E0CE01019695DE8C01892B09F041C0A5
:1047B00009811A810115110509F45AC0480186E0E2
:1047C000880E911CB701680D791D80912F02909180
:1047D00030024FDD6C01009709F450C0A70170E072
:1047E00060E00E94453189819A81AB81BC81EC0CEB
:1047F000FD1CF70181939193A193B1937F0181E017
:1048000090E0C9DDB801C70164DE892B31F562E0B3
:1048100070E0C701800F911F5CDE8C01892BE9F4E9
:1048200090E080E0B8DDF501D182C082F301918291
:104830008082C8010F900F900F900F90DF91CF9161
:104840001F910F91FF90EF90DF90CF90BF90AF90AE
:104850009F908F907F906F90089590E080E09BDD17
:10486000F50111821082F30111821082C6016BDB07
:1048700009EF1FEFDECF0FEF1FEFDBCF06EF1FEFCC
:10488000D8CF0097A1F04115510589F021153105C8
:1048900071F0F90136966E177F0748F0DC012D9311
:1048A0003C93DA01ED93FC9390E080E008958FEF64
:1048B0009FEF0895AF92BF92CF92DF92EF92FF9257
:1048C0000F931F93CF93DF93009709F45FC04115B7
:1048D000510509F45BC06530710508F457C020919B
:1048E0003105C7EFDFEF222391F1DC01CD90DC90A1
:1048F00011971296ED91FC9196012A5F3F4FC9EFF7
:10490000DFEF2617370719F5C0913205D09133052F
:10491000209749F521E030E03093330520933205AC
:104920007A018C01F0933505E09334055601B4E02B
:10493000AB0EB11CB50176DE0A0D1B1DF8012081FE
:1049400031818217930729F5D701CD92DC92CE01F0
:10495000DF91CF911F910F91FF90EF90DF90CF905B
:10496000BF90AF90089520913405309135052F5FA9
:104970003F4FCCEFDFEFE217F30790F2CBEFDFEF23
:104980002E173F0768F2D0E0C0E0CACFCFEFDFEFCD
:10499000DECFC3EFDFEFDBCF84E090E0089582E06D
:1049A00090E008958CEF9FEF089580E290E00895E5
:1049B0001092370510923605109235051092340585
:1049C000109233051092320590E080E008959093A4
:1049D000300280932F02089580913105882391F051
:1049E0000BDE009789F4109237051092360510926D
:1049F000350510923405109233051092320510924D
:104A00003105089590E080E00895009749F0611520
:104A1000710531F0FC0111821082FB0111821082BC
:104A20000895F3CF40E855E260E070E090E080E068
:104A300000C08130910579F01CF4892B39F008957C
:104A40008230910561F0039771F0089526E085E4C6
:104A500095E00C942C2E26E082EE95E0FACF26E02D
:104A60008FE796E0F6CF26E08CE197E0F2CF1F9239
:104A70000F920FB60F9211240BB60F922F933F9304
:104A80004F935F936F937F938F939F93AF93BF9356
:104A9000EF93FF938EE19BEF909325018093240188
:104AA000BAD0FF91EF91BF91AF919F918F917F917C
:104AB0006F915F914F913F912F910F900BBE0F908F
:104AC0000FBE0F901F9018958EE19BEF90932501DC
:104AD00080932401A3E7B0E08C918E7F8C93E0E279
:104AE000F1E080818C7F8083E1E2F1E08081877E4C
:104AF000808380818460808380818C7F80838C919F
:104B000081608C930895E3E7F0E0808190819E7F3F
:104B100090838170089581E008951092380508957A
:104B200068EE73E080E090E092D590E080E0089538
:104B300026E040E050E16EE070E085E495E00E9400
:104B40002C2E85E495E0BED7892B21F085E495E0F5
:104B5000D3D7F7CF90E080E00895CF92DF92EF9225
:104B6000FF920F931F93CF93DF936B017A01E901BB
:104B70001982188285E495E0A5D7892B69F1860111
:104B8000CC24C39482E0D82E80913805811110C0C6
:104B900085E495E0B1D70297B9F7C0923805F801DE
:104BA000D1928F0188819981019699838883ECCF76
:104BB000888199818E159F0578F485E495E09CD7CE
:104BC0008F3F9807A9F3F80181938F01888199811C
:104BD000019699838883ECCF90E080E0DF91CF91BC
:104BE0001F910F91FF90EF90DF90CF9008950F935A
:104BF0001F93CF93DF93EA01890185E495E00E943A
:104C0000BC30F801D183C08390E080E0DF91CF9188
:104C10001F910F910895CF92DF92EF92FF92CF9361
:104C2000DF938091390591E0980F9093390588239F
:104C300079F021E030E030933B0520933A058093F2
:104C40003905DF91CF91FF90EF90DF90CF900895DD
:104C50007894C0914202D09143026E8D7F8D88A1DD
:104C600099A147D120E030E040E85FE44BD26B01EE
:104C70007C016A8D7B8D8C8D9D8D3BD19B01AC0120
:104C8000C701B6018AD009D16B017C010E9485075A
:104C9000B701A60190E080E00E942005F894809181
:104CA00039058150CCCFCF93DF931092E807109253
:104CB000E70703D5B7DEC0914202D09143021982C3
:104CC00018826FEF7FEFCB010E94970570E060E0E4
:104CD00090E080E00E9428040097A9F50E94AA08AD
:104CE000F8947894BE016A5D7F4F8A819B810E940F
:104CF0002B04892B59F46FEF7FEFCB010E94B60490
:104D00000E949105882311F081E08AA7F894DCDEE7
:104D10000E949405811104C00E94910591E08111C7
:104D200090E09093E70778940E94BC0FEC01789490
:104D30008091E70781110AC00E9465090E947905E8
:104D4000F89490E080E0DF91CF9108950E9477057C
:104D50000E94940591E0811106C00E94910591E0A6
:104D6000811101C090E09093E8079091E80781E0FD
:104D7000911180E08093E7078091E8078111C3DEFD
:104D8000219729F40E94BC0F892B09F4C6DE0E94EA
:104D9000BC0FEC01C0DECCCF5058BB27AA270ED0E9
:104DA0005CC14DD130F052D120F031F49F3F11F46D
:104DB0001EF442C10EF4E095E7FB0FC1E92F5ED16E
:104DC00080F3BA17620773078407950718F071F428
:104DD0009EF58DC10EF4E0950B2EBA2FA02D0B0180
:104DE000B90190010C01CA01A0011124FF27591B30
:104DF00099F0593F50F4503E68F11A16F040A22F36
:104E0000232F342F4427585FF3CF469537952795A6
:104E1000A795F0405395C9F77EF41F16BA0B620BA5
:104E2000730B840BBAF09150A1F0FF0FBB1F661FEC
:104E3000771F881FC2F70EC0BA0F621F731F841F2F
:104E400048F4879577956795B795F7959E3F08F055
:104E5000B3CF9395880F08F09927EE0F9795879514
:104E600008952ED180F09F3740F491110EF440C187
:104E700060E070E080E89FE3089526F01B16611D56
:104E8000711D811DB0C0CAC084D008F481E00895AE
:104E900004D06894B1112CC10895F8D088F09F57C0
:104EA00090F0B92F9927B751A0F0D1F0660F771F76
:104EB000881F991F1AF0BA95C9F712C0B13081F056
:104EC00016D1B1E0089513C1672F782F8827B85FF6
:104ED00039F0B93FCCF3869577956795B395D9F7B7
:104EE0003EF490958095709561957F4F8F4F9F4FC1
:104EF0000895E89409C097FB3EF4909580957095CD
:104F000061957F4F8F4F9F4F9923A9F0F92F96E915
:104F1000BB279395F695879577956795B795F1118A
:104F2000F8CFFAF4BB0F11F460FF1BC06F5F7F4F27
:104F30008F4F9F4F16C0882311F096E911C0772339
:104F400021F09EE8872F762F05C0662371F096E842
:104F5000862F70E060E02AF09A95660F771F881F11
:104F6000DAF7880F9695879597F90895A9D080F07C
:104F70009F3740F491110EF0BBC060E070E080E814
:104F80009FEB089526F41B16611D711D811D2BC01A
:104F900045C0990F0008550FAA0BE0E8FEEF161662
:104FA0001706E807F907C0F012161306E407F5071D
:104FB00098F0621B730B840B950B39F40A2661F091
:104FC000232B242B252B21F408950A2609F4A14034
:104FD000A6958FEF811D811D089597F99F6780E841
:104FE00070E060E00895882371F4772321F09850F1
:104FF000872B762F07C0662311F499270DC0905197
:10500000862B70E060E02AF09A95660F771F881F64
:10501000DAF7880F9695879597F908959F3F31F0B5
:10502000915020F4879577956795B795880F911DD6
:105030009695879597F908959FEF80EC0895002441
:105040000A941616170618060906089500240A94ED
:1050500012161306140605060895092E0394000C73
:1050600011F4882352F0BB0F40F4BF2B11F460FF02
:1050700004C06F5F7F4F8F4F9F4F089557FD90582B
:10508000440F551F59F05F3F71F04795880F97FB0C
:10509000991F61F09F3F79F08795089512161306C6
:1050A0001406551FF2CF4695F1DF08C016161706F5
:1050B0001806991FF1CF869571056105089408952A
:1050C000E5DFA0F0BEE7B91788F4BB279F3860F48E
:1050D0001616B11D672F782F8827985FF7CF869512
:1050E00077956795B11D93959639C8F30895E8941F
:1050F000BB2766277727CB0197F908954ADF08F485
:105100008FEF08950BD0A9CF9ADF28F09FDF18F01A
:10511000952309F062CF90CF1124EACFAFDFA0F33F
:10512000959FD1F3950F50E0551F629FF001729F3C
:10513000BB27F00DB11D639FAA27F00DB11DAA1F5B
:10514000649F6627B00DA11D661F829F2227B00DA8
:10515000A11D621F739FB00DA11D621F839FA00D33
:10516000611D221F749F3327A00D611D231F849F83
:10517000600D211D822F762F6A2F11249F575040DA
:105180008AF0E1F088234AF0EE0FFF1FBB1F661F75
:10519000771F881F91505040A9F79E3F510570F02E
:1051A0001CCFA6CF5F3FECF3983EDCF38695779556
:1051B0006795B795F795E7959F5FC1F7FE2B880F29
:1051C000911D9695879597F908950895883008F070
:1051D00076C0E82FF0E0EE0FFF1FEF5CFD4F71830C
:1051E00060838150873008F03DC0E82FF0E08827C9
:1051F000E350F74D8F4F0C941B313A2904290C29A9
:105200001829252946295329809169008C7F482B2C
:1052100040936900E89A089580916900837F440F64
:10522000551F440F551F482B40936900E99A089574
:10523000809169008F7C74E0440F551F7A95E1F7E7
:10524000482B40936900EA9A0895809169008F7312
:1052500066E0440F551F6A95E1F7482B40936900BB
:10526000EB9A089580916A008C7F482B40936A00E6
:10527000EC9A089580916A00837F440F551F440F74
:10528000551F482B40936A00ED9A089580916A005B
:105290008F7C24E0440F551F2A95E1F7482B40935B
:1052A0006A00EE9A089580916A008F7396E0440F29
:1052B000551F9A95E1F7482B40936A00EF9A08959D
:1052C0001F920F920FB60F9211240BB60F922F93CD
:1052D0003F934F935F936F937F938F939F93AF937E
:1052E000BF93EF93FF93E0913502F0913602199549
:1052F000FF91EF91BF91AF919F918F917F916F91AE
:105300005F914F913F912F910F900BBE0F900FBE69
:105310000F901F9018951F920F920FB60F921124A5
:105320000BB60F922F933F934F935F936F937F939F
:105330008F939F93AF93BF93EF93FF93E0913702C7
:10534000F09138021995FF91EF91BF91AF919F9124
:105350008F917F916F915F914F913F912F910F901E
:105360000BBE0F900FBE0F901F9018951F920F92BB
:105370000FB60F9211240BB60F922F933F934F93BA
:105380005F936F937F938F939F93AF93BF93EF93AD
:10539000FF93E0913902F0913A021995FF91EF9154
:1053A000BF91AF919F918F917F916F915F914F913D
:1053B0003F912F910F900BBE0F900FBE0F901F903B
:1053C00018951F920F920FB60F9211240BB60F92E1
:1053D0002F933F934F935F936F937F938F939F93FD
:1053E000AF93BF93EF93FF93E0913B02F0913C02A8
:1053F0001995FF91EF91BF91AF919F918F917F91FF
:105400006F915F914F913F912F910F900BBE0F9035
:105410000FBE0F901F9018951F920F920FB60F920C
:1054200011240BB60F922F933F934F935F936F937B
:105430007F938F939F93AF93BF93EF93FF93E091ED
:105440003102F09132021995FF91EF91BF91AF9126
:105450009F918F917F916F915F914F913F912F918C
:105460000F900BBE0F900FBE0F901F9018951F92BC
:105470000F920FB60F9211240BB60F922F933F93FA
:105480004F935F936F937F938F939F93AF93BF934C
:10549000EF93FF93E0913302F09134021995FF915D
:1054A000EF91BF91AF919F918F917F916F915F919C
:1054B0004F913F912F910F900BBE0F900FBE0F9009
:1054C0001F9018951F920F920FB60F9211240BB6D2
:1054D0000F922F933F934F935F936F937F938F938D
:1054E0009F93AF93BF93EF93FF93E0913D02F091B1
:1054F0003E021995FF91EF91BF91AF919F918F91CE
:105500007F916F915F914F913F912F910F900BBEC3
:105510000F900FBE0F901F9018951F920F920FB60D
:105520000F9211240BB60F922F933F934F935F93DB
:105530006F937F938F939F93AF93BF93EF93FF935B
:10554000E0913F02F09140021995FF91EF91BF91D8
:10555000AF919F918F917F916F915F914F913F910B
:105560002F910F900BBE0F900FBE0F901F901895AC
:105570001F920F920FB60F9211242F933F938F9388
:105580009F93AF93BF9380913D0590913E05A0916D
:105590003F05B091400530913C0523E0230F2D37A6
:1055A00058F50196A11DB11D20933C0580933D0542
:1055B00090933E05A0933F05B0934005809141052F
:1055C00090914205A0914305B09144050196A11D1B
:1055D000B11D8093410590934205A0934305B0937C
:1055E0004405BF91AF919F918F913F912F910F9063
:1055F0000FBE0F901F90189526E8230F0296A11D4D
:10560000B11DD2CF3FB7F8948091410590914205EA
:10561000A0914305B091440526B5A89B05C02F3F36
:1056200019F00196A11DB11D3FBFBA2FA92F982FC8
:105630008827BC01CD01620F711D811D911D42E0C3
:10564000660F771F881F991F4A95D1F708958F928B
:105650009F92AF92BF92CF92DF92EF92FF926B0137
:105660007C01D0DF4B015C01C114D104E104F104E1
:10567000D9F0AFD5C7DF681979098A099B09683E57
:1056800073408105910580F321E0C21AD108E10839
:10569000F10888EE880E83E0981EA11CB11CC1148D
:1056A000D104E104F10431F7FF90EF90DF90CF9047
:1056B000BF90AF909F908F900895789484B582604A
:1056C00084BD84B5816084BD85B5826085BD85B5A6
:1056D000816085BDEEE6F0E0808181608083E1E855
:1056E000F0E010828081826080838081816080838D
:1056F000E0E8F0E0808181608083E1EBF0E0808190
:1057000084608083E0EBF0E0808181608083E1E968
:10571000F0E0808182608083808181608083E0E925
:10572000F0E0808181608083E1EAF0E08081826046
:105730008083808181608083E0EAF0E08081816005
:105740008083E1E2F1E080818260808380818160FA
:105750008083E0E2F1E0808181608083EAE7F0E02D
:105760008081846080838081826080838081816089
:1057700080838081806880831092C10008951F9388
:10578000CF93DF93182FEB0161E033D1209731F4F1
:1057900060E0812FDF91CF911F9167C1CF3FD1058D
:1057A00011F461E0F6CFE12FF0E0EC51FF4FE4910E
:1057B000E150E23108F0B2C0F0E08827EE51F44D3C
:1057C0008F4F39C5F42BFC2B012C0B2C152C8E2C58
:1057D0001F2C272C2F2C392C432C4D2C5C2C662C69
:1057E0008E2C702C7A2C842C84B5806884BDC7BD27
:1057F000DF91CF911F91089584B5806284BDC8BDAB
:10580000F7CF80918000806880938000D0938900DA
:10581000C0938800EDCF80918000806280938000EB
:10582000D0938B00C0938A00E3CF80918000886082
:1058300080938000D0938D00C0938C00D9CF80914D
:10584000B00080688093B000C093B300D1CF809146
:10585000B00080628093B000C093B400C9CF809143
:105860009000806880939000D0939900C093980036
:10587000BFCF80919000806280939000D0939B0076
:10588000C0939A00B5CF809190008860809390007B
:10589000D0939D00C0939C00ABCF8091A000806806
:1058A0008093A0008091A0008F7B8093A000D09374
:1058B000A900C093A8009CCF8091A0008062809333
:1058C000A000D093AB00C093AA0092CF8091A0001B
:1058D00088608093A000D093AD00C093AC0088CFC7
:1058E00080912001806880932001D0932901C0938A
:1058F00028017ECF80912001806280932001D09387
:105900002B01C0932A0174CF80912001886080937D
:105910002001D0932D01C0932C016ACFC038D1054E
:105920000CF03FCF35CF8150823108F059C0E82FBD
:10593000F0E08827E256F34D8F4F7DC4BE2CC22C79
:10594000B02CB62CBA2CF02CC52CCB2CCF2CD52CB3
:10595000D92CDD2CE32CE72CF02CEB2CF12CF52CA6
:10596000809180008F7780938000089580918000DF
:105970008F7DF9CF80918000877FF5CF84B58F77B9
:1059800084BD089584B58F7DFBCF8091B0008F7763
:105990008093B00008958091B0008F7DF9CF809101
:1059A00090008F77809390000895809190008F7D74
:1059B000F9CF80919000877FF5CF8091A0008F77FD
:1059C0008093A00008958091A0008F7DF9CF8091F1
:1059D000A000877FF5CF809120018F7780932001F1
:1059E0000895809120018F7DF9CF80912001877FDC
:1059F000F5CFCF93DF9390E0FC01E65DFE4F24915D
:105A000080599E4FFC0184918823C9F090E0880F53
:105A1000991FFC01E053FE4FA591B491FC01EA549B
:105A2000FE4FC591D49161110DC09FB7F8948C9130
:105A3000209582238C938881282328839FBFDF9120
:105A4000CF910895623051F49FB7F8943C91822F22
:105A5000809583238C93E8812E2BEFCF8FB7F8941A
:105A6000EC912E2B2C938FBFEACF1F93CF93DF9314
:105A7000282F30E0F901EC51FF4F8491F901E65DE8
:105A8000FE4FD491F901E059FE4FC491CC23A1F00F
:105A9000162F811148DFEC2FF0E0EE0FFF1FEA54C4
:105AA000FE4FA591B4918FB7F894EC91111108C0F5
:105AB000D095DE23DC938FBFDF91CF911F910895A6
:105AC000DE2BF8CFFC01918D228D892F90E0805C38
:105AD0009F4F821B91098F7399270895FC01918D27
