:10000000F8C0000027C1000025C1000023C1000086
:1000100021C100001FC100001DC100001BC1000064
:1000200019C1000017C1000015C1000013C1000074
:1000300011C100000FC100000DC100000BC1000084
:1000400009C1000007C1000005C1000003C1000094
:1000500001C10000FFC00000FDC000000C94D427C7
:10006000F9C000000C94CB2B0C94012CF3C00000C1
:10007000F1C00000EFC00000EDC00000EBC00000C8
:10008000E9C00000E7C00000E5C00000E3C00000D8
:100090000C94572C0C948D2CDDC00000DBC00000AC
:1000A000D9C00000D7C00000D5C00000D3C00000F8
:1000B000D1C00000CFC00000CDC00000CBC0000008
:1000C000C9C00000C7C000000C9427240C94E32C86
:1000D0000C94192DBFC000000C946F2D0C94A52D0D
:1000E000B9C0000000000A0B02090C0D0E0807033E
:1000F00004010000000000000000000000000000FB
:1001000000000000000000000000000000000000EF
:1001100012111000000000000000000000000000AC
:100120000000000000000000000001021020200874
:100130000810204010204080020102010804020142
:1001400001020408102040808040201008040201B1
:10015000800402018040201008040201080402010A
:100160000102040810204080010204081020408091
:1001700005050505070508080808020202020A0A23
:100180000808040404040101010101010101030341
:10019000030303030303040707070C0C0C0C0C0CEC
:1001A0000C0C0202020206060606060606060B0BE9
:1001B0000B0B0B0B0B0B00002200250028002B0063
:1001C0002E003100340002010000050108010B017E
:1001D00000002100240027002A002D0030003300F9
:1001E00001010000040107010A012A2CB62C422D4E
:1001F000CE2D11241FBECFEFD1E2DEBFCDBF00E078
:100200000CBF12E0A0E0B2E0EAE1FDE500E00BBFC8
:1002100002C007900D92A43CB107D9F727E0A4ECE7
:10022000B2E001C01D92A53EB207E1F710E0C9EFB0
:10023000D0E000E006C021970109802FFE010E9456
:100240005A2EC53FD10780E00807A9F70E94422532
:100250000C948B2ED5CECF93DF93882349F0EB01FE
:1002600081500E94DB2899838883DF91CF91089584
:10027000FB0111821082F9CF0F931F938B019C0118
:1002800083E036952795179507958A95D1F70353FF
:100290001D4F462F477021E030E0F90102C0EE0FFC
:1002A000FF1F4A95E2F7AF01F80120812423CB011B
:1002B0000196211102C090E080E01F910F910895F6
:1002C0000F931F938B019C0183E03695279517951B
:1002D00007958A95D1F7677081E090E001C0880F9B
:1002E0006A95EAF7F801E353FD4F2081452B31F47D
:1002F0008095822380831F910F910895822BFACFDE
:10030000CF92DF92EF92FF92CF93DF936B017C014C
:1003100060E086E3C816D104E104F10490F486E3BA
:100320008C0D0E94382AE6012196AE01C701B60164
:10033000C7DFCE01DF91CF91FF90EF90DF90CF909C
:1003400008958C2DEECF882341F08150682F70E006
:1003500090E080E050E040E0B3CF0895611102C02A
:100360000C94382A6130E1F362E0FACF662319F089
:1003700061E00C94742A60E0FCCFCF92DF92EF92A0
:10038000FF92CF93882351F16A017B01CFEFC80F11
:1003900020E030E0A901CB01B6010E94332687FF9F
:1003A00011C0C701B60190580E943C269B01AC01C8
:1003B0006C2F70E090E080E0CF91FF90EF90DF90A5
:1003C000CF90B2C0C701B6010E9437268C2FCF91C3
:1003D000FF90EF90DF90CF900C94FE28CF91FF908C
:1003E000EF90DF90CF9008950F931F938B019C01A6
:1003F00083E036952795179507958A95D1F70C5385
:100400001D4F462F477021E030E0F90102C0EE0F8A
:10041000FF1F4A95E2F7AF01F80120812423CB01A9
:100420000196211102C090E080E01F910F91089584
:100430000F931F938B019C0183E0369527951795A9
:1004400007958A95D1F7677081E090E001C0880F29
:100450006A95EAF7F801EC53FD4F2081452B31F402
:100460008095822380831F910F910895822BFACF6C
:100470002F923F924F925F926F927F928F929F92B4
:10048000AF92BF92CF92DF92EF92FF920F931F93A2
:10049000CF93DF93D62EC72E782E692E49015A01AD
:1004A000280161E08D2D0E94382ACD2DDC2D8E0192
:1004B0000F5F1F4FA8016D2D7C2D872D962DB8DF66
:1004C00020E030E0A901C201B7010E946D27181693
:1004D00064F4C201B7010E943C262B01C501B4019E
:1004E0000E943C26A201CE0123D0C801DF91CF910A
:1004F0001F910F91FF90EF90DF90CF90BF90AF9042
:100500009F908F907F906F905F904F903F902F9033
:100510000895882341F08150682F70E090E080E0DA
:1005200050E040E085CF0895862FB9010C94FE2855
:100530009C01FC01EC51FF4FE491E150E231E0F409
:10054000F0E08827E955FD4F8F4F0C945A2EB902E1
:10055000C002C302DA02EF02BC0204031003140358
:100560002B03400355036C038103BC029603AD03C8
:10057000C20384B5806884BD60E0822F0C94742A25
:1005800084B58062F8CF809180008C7F82608093F8
:10059000800080918100807E8061682B6093810063
:1005A00050938700409386008091800080688093FC
:1005B0008000E2CF809180008C7F826080938000F9
:1005C00080918100807E8061682B609381005093D0
:1005D000870040938600809180008062E8CF809100
:1005E00080008C7F82608093800080918100807E7B
:1005F0008061682B60938100509387004093860050
:10060000809180008860D3CF8091B0008068809313
:10061000B0008091B100887F682B6093B100ACCFAF
:100620008091B0008062F3CF809190008C7F8260D7
:100630008093900080919100807E8061682B609310
:1006400091005093970040939600809190008068AD
:100650008093900091CF809190008C7F82608093F6
:10066000900080919100807E8061682B6093910062
:100670005093970040939600809190008062E8CF5D
:10068000809190008C7F8260809390008091910097
:10069000807E8061682B6093910050939700409317
:1006A0009600809190008860D3CF8091A0008C7FCD
:1006B00082608093A0008091A100807E8061682B81
:1006C0006093A1005093A7004093A6008091A000E2
:1006D00080688093A00050CF8091A0008C7F8260C2
:1006E0008093A0008091A100807E8061682B609340
:1006F000A1005093A7004093A6008091A0008062C3
:10070000E8CF8091A0008C7F82608093A0008091D0
:10071000A100807E8061682B6093A1005093A700A8
:100720004093A6008091A0008860D3CF80912001E3
:100730008C7F82608093200180912101807E806186
:10074000682B6093210150932701409326018091EB
:1007500020018068809320010FCF809120018C7F41
:1007600082608093200180912101807E8061682BCE
:10077000609321015093270140932601809120012D
:100780008062E8CF809120018C7F8260809320017D
:1007900080912101807E8061682B609321015093BC
:1007A000270140932601809120018860D3CF90E0FB
:1007B00080E008950F931F93009709F483C061159B
:1007C000710509F47FC000910C0210910D02209177
:1007D0000E0230910F020E3F1F4F2F4F3F4F09F077
:1007E00062C04FEF5FEFBA0140930C0250930D02CD
:1007F00060930E0270930F0240910C0250910D0213
:1008000060910E0270910F02DC011296ED91FC9145
:1008100080819181A281B3818093440390934503A9
:10082000A0934603B093470384819581A681B78145
:100830008093400390934103A0934203B0934303FA
:1008400080859185A285B38580933C0390933D0379
:10085000A0933E03B0933F0384859585A685B78515
:100860008093380390933903A0933A03B0933B03EA
:10087000109234031092350310923603109237030E
:1008800067D68DEC9AE09093D7028093D6025FD51D
:10089000009731F421E030E030934903209348037E
:1008A0001F910F91089500910C0210910D0220915B
:1008B0000E0230910F02DB010D931D932D933C939B
:1008C00013979ACF8FEF9FEFEBCF8F929F92AF92BC
:1008D000BF92CF92DF92EF92FF921F93CF93DF935D
:1008E0004B015C0110914B0382E090E0909349032F
:1008F0008093480381149104A104B10441F48091D0
:100900004B03811104C080914A03C1E08111C0E012
:10091000C12CD12C760180914B03811106C08091AE
:100920004A03811102C0CC23D9F083E090E0909378
:10093000490380934803CC2379F1CCE9DFEF11110F
:1009400002C00E94310ECE01DF91CF911F91FF9026
:10095000EF90DF90CF90BF90AF909F908F900895D1
:100960006AE070E080E090E00E94432880E1C80ED9
:1009700087E2D81EE11CF11C8FEF88169806A806A6
:10098000B80631F0C1E08C149D04AE04BF0408F039
:10099000C0E080E008D5BFCFD0E0C0E0D0CFCF929C
:1009A000DF92EF92FF921F93CF93DF938F3F9105DA
:1009B00011F008F041C020914803309149032330E1
:1009C000310539F020914803309149032130310538
:1009D00031F424E030E030934903209348036A0166
:1009E0007B01EC01892BA9F011E0AE01C701B60132
:1009F000ADD4AB01BC0190E080E01123F9F0CE0151
:100A0000DF91CF911F91FF90EF90DF90CF900C94EA
:100A100046108091D6029091D702892B29F30E942B
:100A20004D10029709F7E091D602F091D70290E0BD
:100A300080E01995182FD9CF8FEF9FEFDF91CF91DD
:100A40001F91FF90EF90DF90CF90089580E0ABC4AE
:100A5000CF93DF9386E090E090934903809348031F
:100A6000FBD4EC011092D7021092D6020E94C90D5D
:100A70001092490310924803CE01DF91CF9108955F
:100A800080914A03089580913303089560930C0286
:100A900070930D0280930E0290930F0290E080E01D
:100AA0000895CF92DF92EF92FF926B017C019F77C6
:100AB00020E030E040E859E50E94332687FF2BC054
:100AC00020E030E040E05FE3C701B6010E946D27FF
:100AD00087FD0EC020E030E040E05FE3C701B601D3
:100AE0000E94BC25FF90EF90DF90CF900C94A5263C
:100AF00020E030E040E05FEBC701B6010E946D27C7
:100B0000181684F420E030E0A901C701B6010E9464
:100B100071276B017C01C701B601FF90EF90DF9058
:100B2000CF90089520E030E040E05FE3C701B601D8
:100B30000E94BB25FF90EF90DF90CF900C94202671
:100B40004F925F926F927F928F929F92AF92BF92DD
:100B5000CF92DF92EF92FF92CF93DF93C09000028B
:100B6000D0900102E0900202F0900302A7019601EA
:100B700060919E0770919F078091A0079091A107B7
:100B80000E943326882341F0C0929E07D0929F078F
:100B9000E092A007F092A10766E370E080E090E0A9
:100BA0006BDB90939D0780939C0743E050E064E9E2
:100BB00077E051DB6BE070E080E090E015DCEC0169
:100BC0009093C1078093C007609194077091950737
:100BD00090E080E00E9468266B017C0120E030E01C
:100BE0004FE753E40E943326181634F4C12CD12C5D
:100BF0009FE7E92E93E4F92EB701A601CE01BDDBF4
:100C000066E070E080E090E0EFDBEC019093B907E4
:100C10008093B807609194077091950790E080E009
:100C20000E9468266B017C0120E030E04FE753E42E
:100C30000E943326181634F4C12CD12C8FE7E82EED
:100C400083E4F82EB701A601CE0197DB6091040280
:100C500070910502809106029091070222DF6B01DC
:100C60007C0120E030E040E853E40E9433266FEF3F
:100C700087FF0EC020E030E0A901C701B6010E9445
:100C80006D2760E087FD04C0C701B6010E943C26C5
:100C90008DE06CDB609108027091090280910A027C
:100CA00090910B02FEDE6B017C0120E030E040E819
:100CB00053E40E9433266FEF87FF0EC020E030E040
:100CC000A901C701B6010E946D2760E087FD04C03D
:100CD000C701B6010E943C268CE048DBC0900A03A5
:100CE000D0900B03E0900C03F0900D038FEFC81A27
:100CF000D80AE80AF80AC0920A03D0920B03E092DD
:100D00000C03F0920D03C114D104E104F10499F431
:100D100080910E0390910F03A0911003B0911103E5
:100D20000196A11DB11D80930E0390930F03A09314
:100D30001003B09311038090120390901303A090BE
:100D40001403B090150360910E0370910F0380910E
:100D50001003909111030E946826A50194010E943E
:100D6000712720E030E040E85FE40E9471272B010A
:100D70003C01C701B6010E946826A50194010E94AA
:100D800071279B01AC01C301B2010E94BC25609395
:100D90000603709307038093080390930903DF9180
:100DA000CF91FF90EF90DF90CF90BF90AF909F904A
:100DB0008F907F906F905F904F9008958F929F9249
:100DC000AF92BF92DF92EF92FF920F931F93CF9358
:100DD000DF9384E090E07CD1E0EFF2E08BE2DF0192
:100DE0001D928A95E9F780E090E0A0E8BFEB86A32A
:100DF00097A3A0A7B1A78DEC9CECACE4BEE382A3C3
:100E000093A3A4A3B5A38AE496EFA3E7BDE98483E3
:100E10009583A683B7838EEC9EEBABEAB7E8808719
:100E20009187A287B3878AEA97E8ACEDB4E5848717
:100E30009587A687B7878BE098E1A9EEB6E2808B0D
:100E4000918BA28BB38BA4EEB2E0B383A283E8EDC7
:100E5000F2E01196FC93EE938AE292E09183808314
:100E60009383828395838483978386839187808706
:100E70009387828784E093E015969C938E931497D2
:100E800084EF92E013969C938E93129786E093E002
:100E900017969C938E93169710929507109294072D
:100EA000EAE9F7E081E3DF011D928A95E9F7C6E9F7
:100EB000D7E01882DD24D394DCAA809100029091BF
:100EC0000102A0910202B091030288879987AA8744
:100ED000BB87812C912C5401839489829A82AB82A6
:100EE000BC8266E370E080E090E00ADA9F838E8344
:100EF000DD821CA2D9AA19A68DA29EA2AFA2B8A675
:100F0000E12CF12C8701A80197016BE070E080E0F3
:100F100090E0AEDA9BA78AA7D9A61C8ED8AA19A200
:100F20008D8E9E8EAF8EB8A2A801970166E070E00C
:100F300080E090E09DDA9BA38AA3D9A21C8ADBAA59
:100F40008D8A9E8AAF8AB88E61E08DE007DAD98EED
:100F50001C86DAAA8D869E86AF86B88A61E08CE010
:100F6000FDD9D98ADF91CF911F910F91FF90EF901A
:100F7000DF90BF90AF909F908F90089580919607DB
:100F800081111DC081E08093960780919707909111
:100F90009807A0919907B0919A070197A105B1050B
:100FA00071F480919B07882351F066E370E080E044
:100FB00090E062D990939D0780939C07C4D980915B
:100FC000BA0781112AC081E08093BA078091BB07DC
:100FD0009091BC07A091BD07B091BE070197A105F4
:100FE000B105D9F48091BF078823B9F06BE070E0B8
:100FF00080E090E0F9D99093C1078093C00740E06A
:1010000050E0BA01BAD96BE070E080E090E0ECD932
:101010009093C1078093C0077CDA8091B207811159
:101020002AC081E08093B2078091B3079091B40702
:10103000A091B507B091B6070197A105B105D9F404
:101040008091B7078823B9F066E070E080E090E017
:10105000CBD99093B9078093B80740E050E0BA012C
:101060008CD966E070E080E090E0BED99093B9073B
:101070008093B8074EDA8091AA07811103C081E0FE
:101080008093AA078091A207811103C081E0809319
:10109000A207089560E070E080E89FE7089560E0AF
:1010A00070E080E89FE7089560E070E080E89FEFDF
:1010B000089560E070E080E89FEF089560E070E0E0
:1010C00080EC9FEF089560E070E080EC9FEF089562
:1010D000F5DF6093D7077093D8078093D907909373
:1010E000DA07F1DF6093CB077093CC078093CD07CD
:1010F0009093CE07CFDF6093D3077093D40780938C
:10110000D5079093D607CBDF6093CF077093D007B6
:101110008093D1079093D207C7DF6093DB0770936A
:10112000DC078093DD079093DE07C3DF6093DF0762
:101130007093E0078093E1079093E20708954F9240
:101140005F926F927F928F929F92AF92BF92CF9257
:10115000DF92EF92FF920F931F93F8944090270332
:10116000509028036090290370902A03C0901B03BD
:10117000D0901C03E0901D03F0901E03452B09F056
:10118000A6C09B01AC01241935094609570929015C
:101190003A010091230310912403209125033091FB
:1011A000260348015901840C951CA61CB71C801607
:1011B0009106A206B306A0F400911F03109120032C
:1011C00020912103309122030F5F1F4F2F4F3F4F7C
:1011D00000931F03109320032093210330932203D5
:1011E0008092230390922403A0922503B0922603B9
:1011F00000911F03109120032091210330912203BD
:1012000080922B0390922C03A0922D03B0922E0378
:1012100000932F0310933003209331033093320354
:1012200060932703709328038093290390932A03E4
:10123000A301920160E47DE083E090E00E94292E0A
:101240006C0D7D1D8E1D9F1D60931B0370931C03F1
:1012500080931D0390931E0300910C0210910D02C8
:1012600020910E0230910F020F3F1F4F2F4F3F4F23
:10127000F1F000910C0210910D0220910E023091BC
:101280000F020E3F1F4F2F4F3F4F89F0C0900C02AF
:10129000D0900D02E0900E02F0900F0221E08C142D
:1012A0009D04AE04BF0408F420E020933303789437
:1012B0001F910F91FF90EF90DF90CF90BF90AF9074
:1012C0009F908F907F906F905F904F9008954B010B
:1012D0005C0184189508A608B708A3019201261B93
:1012E000370B480B590B6415750586059705E0F01B
:1012F00082169306A406B50640F420E030E0A9016A
:1013000081149104A104B104A1F460E47DE083E0C0
:1013100090E00E94292EA7019601261B370B480B4F
:10132000590BCA01B901C3CF82169306A406B506AC
:1013300060F7A501940160E47DE083E090E00E9405
:10134000292E6C0D7D1D8E1D9F1DB1CFF8CECF9324
:10135000DF9300D01F92CDB7DEB71C821B821A82AA
:101360001982BE016F5F7F4FCE0103960E94F62364
:1013700069817A818B819C810E942E1D009761F486
:10138000BE016F5F7F4FCE0103960E9402246981E8
:101390007A818B819C8126D50F900F900F900F90B2
:1013A000DF91CF910895FF920F931F93CF93DF9317
:1013B000082F60E070E0CB010E944328FF24F394E3
:1013C0000E94171CEC01892B89F010E0CE3F8FEFB3
:1013D000D80769F0002361F160E070E0CB010E9462
:1013E000432881E090E0892B59F322C011E01DD5FC
:1013F000EC01892B21F0CE3F8FEFD80759F711115F
:101400001EC011E0229609F410E00E94C71BEC01F7
:10141000892B21F0CE3F8FEFD807E1F6111111C0D3
:1014200011E0CE3F8FEFD80709F410E001110BC097
:10143000CE01DF91CF911F910F91FF90089511E0A0
:10144000E4CF11E0F3CF60E070E0CB010E944328CD
:101450001F25812F90E0C7CFCF93DF931ED6D0E01A
:10146000C0E0892B71F06AE070E080E090E00E94BB
:10147000432881E098DF11D62196C03D27E0D207AE
:1014800081F710D60E94821D10924B0310924A03DE
:1014900010924403109245031092460310924703A2
:1014A00010924003109241031092420310924303A2
:1014B00010923C0310923D0310923E0310923F03A2
:1014C000109238031092390310923A0310923B03A2
:1014D00010923403109235031092360310923703A2
:1014E0004EEF5FEF6FEF7FEF40930C0250930D02D2
:1014F00060930E0270930F0210923303EBE2F3E05D
:1015000028E0DF011D922A95E9F710922703109237
:1015100028031092290310922A0310922303109299
:101520002403109225031092260310921F03109299
:101530002003109221031092220310921B03109299
:101540001C0310921D0310921E03DF91CF9108958A
:1015500010925703109258031092590310925A0395
:101560001092560380915F0390916003909355030E
:1015700080935403109253031092520310924E031F
:1015800010924F03109250031092510310925C037B
:1015900010925B0390E080E00895CF92DF92EF928B
:1015A000FF920F931F93CF938C01892B09F055C0A5
:1015B00020915F0330916003809154039091550313
:1015C00040915F035091600350935503409354033F
:1015D0002817390781F0109253031092520310928A
:1015E0004E0310924F031092500310925103109229
:1015F0005C0310925B0380915F03909160030197FD
:1016000061F580915B0390915C03892B21F48091BB
:101610001002811112C080915B0390915C030197CD
:10162000E1F480914E0390914F03A0915003B0914B
:1016300051030197A105B10581F410924E03109258
:101640004F0310925003109251031092100282E047
:1016500090E090935C0380935B0380915F03909193
:101660006003019709F01CC1809175039091760386
:101670008017910709F014C1809171039091720352
:10168000A0917303B0917403009709F409C12091EC
:10169000700321110DC0409171035091720360914C
:1016A000730370917403452B462B472B09F4F8C044
:1016B00020915B0330915C032230310509F0F0C0CA
:1016C000209152032111ECC0FC01C080D180E28046
:1016D000F38080915603882309F4D3C0809162037C
:1016E00090916303892B09F4FDC02091620330912E
:1016F000630381E02230310509F080E0209162032C
:1017000030916303C1E02130310549F0209162033B
:1017100030916303C1E02230310509F0C0E0882335
:1017200009F456C020916C0330916D0340916E0313
:1017300050916F03C701B6010E946D2787FD14C049
:1017400020916C0330916D0340916E0350916F03B3
:1017500060915703709158038091590390915A03F7
:101760000E94332687FD22C020916C0330916D03C7
:1017700040916E0350916F03C701B6010E946D271F
:10178000181634F520916C0330916D0340916E036F
:1017900050916F03609157037091580380915903E2
:1017A00090915A030E943326811112C080916403E4
:1017B00090916503A0916603B0916703892B8A2BF2
:1017C0008B2B19F481E08093530381E080935203C3
:1017D000CC2309F456C020916C0330916D034091E5
:1017E0006E0350916F03C701B6010E94332687FF35
:1017F00014C020916C0330916D0340916E035091A1
:101800006F03609157037091580380915903909131
:101810005A030E946D2787FF22C020916C033091EC
:101820006D0340916E0350916F03C701B6010E9492
:101830003326811126C020916C0330916D034091B5
:101840006E0350916F03609157037091580380911C
:10185000590390915A030E946D27181694F48091B1
:10186000640390916503A0916603B0916703892B8F
:101870008A2B8B2B19F481E08093530381E08093B2
:10188000520381E090915203911180E080935603BE
:10189000C0925703D0925803E0925903F0925A0332
:1018A000012B09F067C180915B0390915C03892B48
:1018B000D9F4109261031092520380911002882390
:1018C00079F082E090E090935C0380935B03109248
:1018D000100220915F033091600381E0232BE9F037
:1018E00080E01BC081E00ACF10921002809161035A
:1018F000882349F01092530310925C0310925B030B
:1019000010926103EDCF80915F0390916003892B6A
:10191000E1F0809152031092520320915B033091C9
:101920005C032230310509F45EC088F421153105CD
:1019300009F448C02130310509F4F3C01092530373
:10194000109252031092610338C081E0E6CF233039
:10195000310509F4B1C02430310581F740914E03BF
:1019600050914F03609150037091510341155105FF
:101970006105710561F04150510961097109409398
:101980004E0350934F036093500370935103409163
:101990004E0350914F036091500370915103452BBA
:1019A000462B472BD9F420915D0330915E03213003
:1019B000310509F046C01092530310925C03109257
:1019C0005B030CC080911002882341F082E090E01C
:1019D00090935C0380935B031092100210924C036F
:1019E00080915303CEC08823C9F380916403909102
:1019F0006503A0916603B0916703181619061A06CD
:101A00001B060CF07DC080915F03909160030197ED
:101A100009F076C08091640390916503A0916603FC
:101A2000B091670380934E0390934F03A0935003AC
:101A3000B093510383E090E090935C0380935B0349
:101A4000CDCF409168035091690360916A03709112
:101A50006B03452B462B472BA9F010925303809123
:101A6000680390916903A0916A03B0916B0380931E
:101A70004E0390934F03A0935003B093510381E022
:101A800090E0DACF882399F08091110290911202B0
:101A9000A0911302B091140280934E0390934F03D0
:101AA000A0935003B093510384E090E0C5CF10920F
:101AB000530382E090E0C0CF80914E0390914F039A
:101AC000A0915003B09151030097A105B10559F0C1
:101AD0000197A109B10980934E0390934F03A093FE
:101AE0005003B093510380914E0390914F03A09106
:101AF0005003B0915103892B8A2B8B2B09F06ECFA9
:101B00008091110290911202A0911302B0911402DF
:101B1000892B8A2B8B2B09F44ECF81E080935303C2
:101B2000B3CF40914E0350914F0360915003709199
:101B30005103411551056105710561F0415051098D
:101B40006109710940934E0350934F036093500312
:101B50007093510340914E0350914F036091500395
:101B600070915103452B462B472B09F037CF81113C
:101B7000C7CF9FCF80914C03882309F431CF809148
:101B80004D03CF911F910F91FF90EF90DF90CF9079
:101B9000089510925703109258031092590310920F
:101BA0005A031092560310925C0310925B0310923A
:101BB00055031092540310927603109275031092FD
:101BC00053031092520310924E0310924F0310923F
:101BD00050031092510310924D0310924C03109237
:101BE0007103109272031092730310927403109297
:101BF000700310926C0310926D0310926E0310929A
:101C00006F0388EE93E0A0E0B0E080931102909320
:101C10001202A0931302B093140210926803109260
:101C2000690310926A0310926B031092640310927E
:101C3000650310926603109267031092630310927B
:101C4000620381E08093100210926103109260039E
:101C500010925F0310925E0310925D0390E080E0AB
:101C6000089580915F0390916003892B19F580910D
:101C70001002882351F080916103811106C081E038
:101C800080934D0380934C0308952091610330911C
:101C9000100281E090E0332311F090E080E030E02A
:101CA00082239323892B21F010924D0381E0EACF08
:101CB00010924C03089582E090E0FA0191838083B2
:101CC0008FEF9FEF0895CF93DF93EA01009711F014
:101CD0000E94991E1982188290E080E0DF91CF91D6
:101CE0000895DB01009719F48FEF8C9308952EEF80
:101CF0002C93FC013F96EF30F10508F034C08827A3
:101D0000EB57F14F8F4F0C945A2EB10EAF0EAD0E14
:101D1000AB0EA90EA50EA70EA30EA10E9F0E9C0E34
:101D2000980E940E9A0EB30E80E311968C9308953C
:101D300089E2FBCF82E2F9CF11961C92089583E2EB
:101D4000F4CF81E2F2CF81E1F0CF87E2EECF8AE2F9
:101D5000ECCF80E1EACF84E2E8CF88E2E6CF86E20A
:101D6000E4CF81E3E2CF80E2E0CF809183039091E2
:101D7000840308959093840380938303089580914E
:101D80008203089590918203892B809382030895A2
:101D9000982F9095809182038923809382030895E0
:101DA00080918103089580917F039091800308952D
:101DB0006115710559F0FB0130E020E070E060E052
:101DC0002417350719F06115710511F0CB0108953D
:101DD000A081B181A817B90709F4BF012F5F3F4F58
:101DE0003696EECF8091850381111CC041D247D237
:101DF00090937803809377030E940A180E941C181E
:101E000090937C0380937B030E942F1B0E94361BC0
:101E100090937A038093790381E08093850390E027
:101E200080E0089584EF9FEF08958F929F92AF9284
:101E3000BF92CF92DF92EF92FF920F931F93CF93B7
:101E4000DF9300D000D000D01F92CDB7DEB71A8646
:101E5000198618861F821E821D821C821B821A828E
:101E600019828091850307EF1FEF882309F48BC047
:101E70008E010D5F1F4F9E012B5F3F4FAE01495FEB
:101E80005F4FBE01675F7F4F90E080E00E94B31C10
:101E90008C01009721F00596029708F0C7C089854C
:101EA0009A85009709F4EFC0ED80FE802B813C817C
:101EB0002E0D3F1D4F8158854217530708F4E3C08C
:101EC000E80EF91ED7014C912091830330918403D1
:101ED000232B09F494C0413F08F069C08CE1840FC2
:101EE0008D3008F483C08DE2840F803108F481C006
:101EF00088E3840F8B3008F47FC091E7C92E9EE001
:101F0000D92EEBE5FEE06D817E81AE014F5F5F4F24
:101F100089859A8519955C01C114D104A1F1898044
:101F20009A808114910479F18B819C81881599059F
:101F300008F484C010E000E04B815C8170E060E058
:101F4000C7010E94842E01151105E9F449815A81C7
:101F500069857A858D819E81680F791FC501F6019B
:101F60001995E980FA800D811E812F813885498578
:101F70005A856FEF7FEF81E090E00E944E1C8C014C
:101F8000892B09F053C0C8012A960FB6F894DEBF1A
:101F90000FBECDBFDF91CF911F910F91FF90EF90BA
:101FA000DF90CF90BF90AF909F908F90089530E0DA
:101FB00020E0220F331FF901E958FC4F0190F08116
:101FC000E02D309709F499CF842F90E01995009770
:101FD00009F493CFDC011296ED91FC9113971496BE
:101FE000CD90DC90309709F08ECF1EC021E030E01C
:101FF000E0CF22E030E0DDCF23E030E0DACFD12CBB
:10200000C12CE3E6FEE04F3F09F07DCFE09177037E
:10201000F0917803309719F404EF1FEF0CC08FEFA5
:1020200090E019950097B1F604EF1FEF89859A8526
:10203000009709F4A8CF0E94991EA5CF0E947D1D8C
:102040008C0189859A850E94991E70E060E0C40128
:102050000E94161D98878F830E944B1C9E838D8340
:102060006F8178856115710559F0C8010E942F2094
:102070009A87898706EF1FEF892B09F05BCF5CCF2A
:1020800008EF1FEF59CF08EF1FEFD0CF2091850346
:102090002111D7C787EF9FEF089580918303909117
:1020A000840308950E943B1B0E94951AEDD0E7E738
:1020B000F3E088E0DF011D928A95E9F7109285032D
:1020C00090E080E0089586E090E0FA0191838083BB
:1020D00090E080E0089547E050E06DE272E068CE65
:1020E000DF92EF92FF920F931F93CF93DF938A01BA
:1020F000EC01C60FD71FE0908903F0908A03D980C6
:102100000E94651DD816190678F082E090E0F8016B
:10211000918380838EEF9FEFDF91CF911F910F917D
:10212000FF90EF90DF900895EF2841F482E090E077
:10213000F8019183808384EF9FEFEECF89818093B4
:10214000880390E00196F8019183808390E080E01D
:10215000E3CFCF93DF93EA010E94A919882321F0EE
:102160000E94721D0E94AA1982E090E099838883E0
:102170008BEF9FEFDF91CF910895CF93DF93EB012A
:1021800086E0FB0111928A95E9F78FEF8883F7DDEE
:10219000898306DE8A8307DE9D838C83DF91CF915E
:1021A0000895CF93DF93EA010E94AC19811109C011
:1021B00082E090E09983888385EF9FEFDF91CF9154
:1021C000089590E080E0D6DD81E090E099838883F7
:1021D00090E080E0F3CF0F931F93CF93DF93EA015A
:1021E0008C01060F171F0E94AC1981110BC082E0F1
:1021F00090E09983888385EF9FEFDF91CF911F91C6
:102200000F910895F8018181823038F082E090E0EA
:10221000998388838EEF9FEFF0CF81E090E0AADD75
:1022200088E090E09983888390E080E0E6CFCF93C8
:10223000DF930097D1F4EB01FB01329686E0DF01DA
:102240001D928A95E9F78FEF888385E089831A824A
:102250000E94651D8B830E94641D9D838C8381E099
:102260008E838F83DF91CF910895DF91CF9139CD08
:102270008BE690E190938703809386030895809185
:102280008603909187030895109287031092860326
:1022900008958091890390918A030895411105C0A2
:1022A000611571058105910561F060938903709353
:1022B0008A0380938B0390938C0340938D0381E07A
:1022C000089580E00895FF920F931F93CF93DF93BB
:1022D0008A01EC01C60FD71FF9800E94651DF81610
:1022E000190668F082E090E0F801918380838EEF18
:1022F0009FEFDF91CF911F910F91FF9008956C8117
:102300007D818E819F814B81C9DF811108C082E070
:1023100090E0F8019183808384EF9FEFEACF898179
:102320008093880390E00196F8019183808390E088
:1023300080E0DFCFCF93DF93EA01FC01E60FF71FC8
:1023400064817581868197814381A8DF811109C0ED
:1023500082E090E09983888384EF9FEFDF91CF91B3
:10236000089581E090E09983888390E080E0F6CF43
:10237000E9E8F3E04081518162817381480F511D8A
:10238000611D711D40835183628373830895CF93D0
:10239000C09188034C2F50E06091890370918A03AB
:1023A00001960E947B2E8C2FE3DF10928803CF9141
:1023B0000895009799F48091890390918A032FEFF3
:1023C000FB012083892B59F02091880330E02F5F97
:1023D0003F4F2417350719F4CB01D9CF82CC08958C
:1023E000009799F48091890390918A032FEFFB0164
:1023F0002083892B59F02091880330E02F5F3F4FD5
:102400002417350719F4CB01C2CF6BCC08952DE00A
:10241000AC01249FC001259F900D1124E0919203EF
:10242000F0919303E80FF91F238134812250310981
:1024300081E02230310508F080E008950F931F936A
:10244000CF93DF930091940310919503D0E0C0E007
:1024500080E00C171D0749F491E0811190E0892F6D
:10246000DF91CF911F910F9108958111F5CFCE018A
:10247000CEDF2196EECFA0919203B09193031097F7
:1024800029F1209194033091950382179307F0F47A
:102490005DE0589F9001599F300D1124A20FB31F8A
:1024A000ED91FC911197309789F012968C916817F5
:1024B00068F485E0689FE00DF11D11248081918111
:1024C000892B21F081E09281491708F080E008957E
:1024D000EF92FF920F931F93CF93DF93EA01FC01DA
:1024E000E60FF71F02811381E480F5804F2D6E2DDA
:1024F000C801C1DF81110DC082E090E0998388831B
:102500008EEF9FEFDF91CF911F910F91FF90EF9092
:102510000895C8017CDF882339F082E090E0998338
:10252000888388EF9FEFEECF10931C0200931B026D
:10253000E0921D02F0921E0281E090E09983888370
:1025400090E080E0DFCFCF92DF92EF92FF920F9387
:102550001F93CF93DF937A01EC01C60FD71FC09072
:102560001B02D0901C0200911D0210911E02412FEF
:10257000602FC60180DF811110C082E090E0F7017A
:10258000918380838AEF9FEFDF91CF911F910F910D
:10259000FF90EF90DF90CF900895C60138DF882339
:1025A00041F082E090E0F7019183808388EF9FEF14
:1025B000EBCF4C815D816E817F819A8189818F3FD4
:1025C00041F082E090E0F701918380838EEF9FEFEE
:1025D000DBCFEDE0EC9D9001ED9D300D1124E091FD
:1025E0009203F0919303E20FF31F0190F081E02D2D
:1025F00025E0029FE00DF11D11240190F081E02DF6
:1026000027E0129FE00DF11D1124808391838B81BF
:10261000828343835483658376831F5F10931E02F6
:1026200081E090E0F7019183808390E080E0ACCF7F
:10263000EF92FF920F931F93CF93DF937A018C0158
:10264000060F171FC0919203D0919303209781F03A
:1026500021E030E0F8018281938140919403509110
:1026600095038417950710F030E020E0232B71F4D8
:1026700082E090E0F701918380838EEF9FEFDF91FE
:10268000CF911F910F91FF90EF9008954DE0489FDB
:102690009001499F300D1124C20FD31FB8DE88234B
:1026A00041F082E090E0F7019183808388EF9FEF13
:1026B000E6CFF8012481358120383105C8F68781BD
:1026C0008111D6CF4181842F90E08F7E009741F019
:1026D00082E090E0F7019183808386EF9FEFCFCF78
:1026E0004F833E832D83268128871986223010F45C
:1026F00021E0288721E030E0F70131832083BFCF3C
:1027000088E090E0FA019183808390E080E0089572
:10271000FB018FEF808381E181838FEF9FEF9383B4
:10272000828380E890E095838483168217820895DF
:10273000FB018FEF808391E0918382839383848375
:1027400084E3858381E090E09783868308954BE05E
:1027500050E067E572E02CCB8F929F92BF92CF92B0
:10276000DF92EF92FF920F931F93CF93DF93EA01D3
:10277000FC01E60FF71F828193810481B580E0910F
:102780009203F0919303309791F482E090E0998363
:1027900088838CEF9FEFDF91CF911F910F91FF9076
:1027A000EF90DF90CF90BF909F908F9008952091F1
:1027B0009403309195038217930738F082E090E0FC
:1027C000998388838EEF9FEFE6CF2DE0289F6001ED
:1027D000299FD00C1124EC0DFD1DE080F180E11447
:1027E000F10499F28281081748F785E0089F80017B
:1027F0001124E00EF11EF70180819181892B29F6C9
:10280000BB20E1F2F7E0BF9E40011124C4010E9409
:102810004B1EF70191838083E0919203F091930323
:10282000EC0DFD1D0190F081E02DE00FF11F808186
:102830009181009739F482E090E0998388838DEF4D
:102840009FEFA9CFA40170E060E00E94842E8091E8
:10285000920390919303C80ED91EF6018081918155
:10286000080F191FF801B28281E090E099838883F4
:1028700090E080E090CFAF92BF92CF92DF92FF9234
:102880000F931F93CF93DF93EA01FC01E60FF71F2D
:1028900082819381F480009192031091930301153A
:1028A000110581F482E090E0998388838CEF9FEF9B
:1028B000DF91CF911F910F91FF90DF90CF90BF904C
:1028C000AF90089520919403309195038217930758
:1028D00038F082E090E0998388838EEF9FEFE8CF15
:1028E0002FEF2F0D2C3FA8F72DE0289F6001299F87
:1028F000D00C11240C0D1D1DF80180819181892BB4
:1029000089F6F5E0FF9E50011124C5010E944B1E7F
:10291000F80191838083E0919203F0919303EC0D91
:10292000FD1D80819181009739F482E090E09983C8
:1029300088838DEF9FEFBCCFA50170E060E00E941F
:10294000842EE0919203F0919303EC0DFD1DF28231
:1029500081E090E09983888390E080E0A9CFCF92D6
:10296000DF92EF92FF920F931F93CF93DF93860F27
:10297000971FFC0102811381809192039091930330
:10298000892B81F082E090E0FA01918380838CEFC3
:102990009FEFDF91CF911F910F91FF90EF90DF900C
:1029A000CF900895C801B0E0A0E00197A109B10956
:1029B0008F3F9F4FA105B10540F082E090E0FA0102
:1029C000918380838EEF9FEFE4CF7A018DE0809F2B
:1029D0006001819FD00C1124C6010E944B1EEC01A6
:1029E000009741F482E090E0F701918380838DEFBE
:1029F0009FEFCFCFA60170E060E00E94842ED093BD
:102A00009303C0939203109395030093940390E073
:102A100080E02FEF3FEF8017910741F481E090E0D5
:102A2000F7019183808390E080E0B3CF3C872B87D0
:102A300001962D96F0CFCF92DF92EF92FF920F93F7
:102A40001F93CF93DF93EC01D12CC12C10E000E059
:102A5000F12CE12C8A818017110609F0BCF4AE013B
:102A6000455F5F4F63E070E0C7010E94C51E00979D
:102A700021F02FEF3FEF3C872B87DF91CF911F9104
:102A80000F91FF90EF90DF90CF900895E881F9814A
:102A9000EC0DFD1D23813481C9010196011511053D
:102AA00019F44F8144FD049661E070E0BFD7E81649
:102AB000F90608F47C010F5F1F4F85E0C80ED11C9A
:102AC000C9CFF894209190033091910381E02115B2
:102AD000310509F080E0232B09F0789408954F9296
:102AE0005F926F927F928F929F92AF92BF92CF929E
:102AF000DF92EF92FF920F931F93CF93DF933C01EE
:102B0000660E771EF301828193814C01B12CA12CBA
:102B1000C0919203D0919303209769F021E030E0B7
:102B200060919403709195038617970710F030E039
:102B300020E0232BC1F482E090E0FA0191838083AE
:102B40008EEF9FEFDF91CF911F910F91FF90EF904C
:102B5000DF90CF90BF90AF909F908F907F906F90BD
:102B60005F904F90089580921F0290922002A09251
:102B70002102B09222026DE0689F9001699F300DA2
:102B80001124C20FD31FF3018181833040F082E012
:102B900090E0FA019183808386EF9FEFD3CF2A01E3
:102BA0002B813C81232BF1F4288139819F8191FF76
:102BB0002EC0232B09F464C0209197039A81422FE1
:102BC000490F5527551FBA0141E050E061387105A2
:102BD00014F050E040E0452B09F452C02A87920FD0
:102BE000909397038150823008F476C06ADF88237F
:102BF00009F4C5C0F3018181813009F480C008F473
:102C000070C0823009F4B3C090E080E08EC0232B06
:102C1000B9F1209196039A81E22FE90FFF27FF1F58
:102C200041E050E0ED3FF10514F050E040E0452B6D
:102C300039F12A87920F90939603D4CFA081B18166
:102C4000A20FB31F11966C91060F111D0196295FFB
:102C50003F4F8417950794F3C114D104C9F48F81B1
:102C600084FF16C031D721E0A8014B5F5F4F841766
:102C7000950708F420E0A7014B5F5F4F21110EC0BC
:102C800082E090E0F2019183808387EF9FEF5ACF3B
:102C90001BD721E0A8014F5F5F4FE9CF8881998161
:102CA000E80EF91EF70114830383FFEFCF1ADF0A42
:102CB0007A018A818C151D0409F00CF497CFE88104
:102CC000F981EE0DFF1D428150E030E020E010E080
:102CD00000E090E080E0BDCFF12CE12CD12CC12CA4
:102CE000E8CF81E090E09C838B83A8DB882309F404
:102CF0008BCF81E090E03ED880E44AD885CF8B85A9
:102D00009C85019651F083E090E09C838B8382E068
:102D100090E030D880E436D877CF89288A288B286D
:102D200079F4CE0188DE009771F3789422E030E0E8
:102D3000F20131832083892BF9F08DEF9FEF02CFD1
:102D40002D813E8180911502909116022817390736
:102D5000D1F66091190270911A02AE01455F5F4F82
:102D600080911702909118020E94EE1FDCCF82E042
:102D700090E09C838B8348CF90E080E0E3CE82E0BC
:102D800090E0F2019183808385EF9FEFDBCE8F92FD
:102D90009F92AF92BF92CF92DF92EF92FF920F93EA
:102DA0001F93CF93DF93EA018C01060F171FF801E1
:102DB0008181833098F082E090E09983888386EF68
:102DC0009FEFDF91CF911F910F91FF90EF90DF90D8
:102DD000CF90BF90AF909F908F9008958091920375
:102DE00090919303892B61F081E090E0209194030E
:102DF00030919503232B11F490E080E0892B39F476
:102E000082E090E0998388838EEF9FEFDACF59DEDE
:102E1000882309F4D5C0F8018181813009F48BC081
:102E2000E8F0823099F42091940330919503E09179
:102E30009203F091930390E080E041E050E0281786
:102E4000390709F0B3C0FADA811117C0789481E02C
:102E500090E09983888390E080E0B3CF2091940341
:102E600030919503E0919203F091930390E080E01C
:102E700041E050E02817390741F481E090E00E94DA
:102E8000BA0E80E40E94C80EE1CF63817481672B83
:102E900011F05483438301963D96ECCFE091920369
:102EA000F0919303E00FF11F23813481223031052B
:102EB00061F4238534852F3F3F4F39F4C114D10489
:102EC000E104F10409F5CF01B6DDEFEFCE1ADE0A19
:102ED000EE0AFE0A035F1F4F409194035091950341
:102EE00070E060E0C416D506E606F70664F50097C4
:102EF000A9F27894892B09F4AACF82E090E0998313
:102F000088838DEF9FEF5DCF45815681209115021B
:102F10003091160242175307C1F6AF01455F5F4F6C
:102F20006091190270911A02809117029091180213
:102F30000E94EE1FCACF10E000E090E080E0C12CBC
:102F4000D12C7601C9CF0097A1F610E000E0812CCA
:102F5000912C540183E0E82EF12C1AC0E0919203E9
:102F6000F0919303E00FF11F83819481029749F45C
:102F7000F482E38282E090E00E94BA0E80E40E9434
:102F8000C20EFFEF8F1A9F0AAF0ABF0A035F1F4FDF
:102F90008091940390919503B0E0A0E08816990683
:102FA000AA06BB06DCF290E080E0A3CF63817481C7
:102FB0006230710511F45483438301963D963FCFEF
:102FC00082E090E09983888385EF9FEFFACE0097A7
:102FD000B9F48FEFFB01808320911F023091200212
:102FE0004DE0429FC001439F900D1124E091920358
:102FF000F0919303E80FF91F8285FB018183089507
:103000000C94710E88E090E0FA019183808390E047
:1030100080E008951092910310929003E2E9F3E0AA
:1030200086E0DF011D928A95E9F787EA93E19093A4
:103030008F0380938E03089580918E0390918F0368
:1030400008952F923F924F925F926F927F928F924C
:103050009F92AF92BF92CF92DF92EF92FF920F9327
:103060001F93CF93DF93CDB7DEB762970FB6F89477
:10307000DEBF0FBECDBFF894209190033091910335
:103080002F5F3F4F309391032093900378942091CA
:103090009203309193033B832A83232B09F456C177
:1030A0002091940330919503232B09F44FC14D8750
:1030B0005E876F87788B9C878B878A819B819A8BB1
:1030C000898BD12CC12C198210E000E080919403EF
:1030D00090919503C816D90618F43981332329F144
:1030E000F8948091900390919103019790939103AC
:1030F000809390037894C80162960FB6F894DEBF6F
:103100000FBECDBFDF91CF911F910F91FF90EF9038
:10311000DF90CF90BF90AF909F908F907F906F90F7
:103120005F904F903F902F900895B60190E080E01F
:1031300029D38887A989BA8917968C91179781FD19
:103140008DC013968D919C911497039709F086C0BA
:103150001596ED91FC91FF83EE832B853C85E2175C
:10316000F30709F07BC0712C612C512C412C63C0FA
:1031700092D39A87898710E04114510431F4A989C8
:10318000BA8917961C9112951170A989BA89ED9187
:10319000FC91E60DF71D23803480111169C0BFEF4B
:1031A0002B1A3B0A61E070E0C10140D45C01A9899F
:1031B000BA891B968D919C918F3F980709F45CC04A
:1031C000B5014DD74C01009709F4BBC0E985FA85DC
:1031D000E80FF91FA989BA891A968C91840D80830A
:1031E00011114DC08F010F5F1F4F809115029091FB
:1031F0001602AE81BF81A817B90709F09DC081E012
:1032000090E0B885BB2311F090E080E07101098562
:103210001A859501A401B6019195819591093ED336
:103220008C01892B11F0C40184D58FEF481A580AFC
:1032300095E0690E711CA989BA8912968C91841542
:10324000150429F024F0B981BB2309F491CFE88556
:10325000EE2321F0B60190E080E096D2FFEFCF1A86
:10326000DF0A29893A89235F3F4F3A8B298B2ECF7A
:10327000E5E02E0E311C96CFC5010DD5A3CF8D856F
:103280009E85AF85B88981839283A383B4838F01A0
:103290000B5F1F4FAACFE080F180EC81FD81EE0E25
:1032A000FF1ED70113966D917C9114978C918F3FDF
:1032B000E1F1E1E0F0E002C0EE0FFF1F8A95E2F7D6
:1032C000CF01092E000CAA0BBB0BFB0140815181E1
:1032D0006281738184239523A623B72321E0892B60
:1032E0008A2B8B2B09F420E0D8012C93D70111965F
:1032F0008C91080F111DEA81FB813196FB83EA83D3
:103300002C813D81295F3F4F3D832C83A989BA8958
:10331000ED91FC91E60DF71D82812A813B81821798
:10332000130611F00CF0B7CF6ACFF701418150E0DE
:10333000C8010E947B2EDACF1D821C821B821A825A
:10334000E5CF31E0398306EF1FEF6FCF10E000E0EB
:10335000C7CEB7CB789408952F923F924F925F9249
:103360006F927F929F92AF92BF92CF92DF92EF9235
:10337000FF920F931F93CF93DF9300D000D0CDB770
:10338000DEB7009192031091930399249394011551
:10339000110509F43EC0A0909403B090950391DB11
:1033A000982E8823B1F110929303109292031092F9
:1033B00095031092940310929603109297038FEF47
:1033C0009FEFDC0180931F0290932002A0932102C3
:1033D000B093220278947AD31E830D83C12CD12C12
:1033E0007601C501B0E0A0E089839A83AB83BC83FA
:1033F00022242A94322C89819A81AB81BC81C816FF
:10340000D906EA06FB06F4F0C80193D480E40E94D2
:10341000C80E892D26960FB6F894DEBF0FBECDBF1D
:10342000DF91CF911F910F91FF90EF90DF90CF90A0
:10343000BF90AF909F907F906F905F904F903F9024
:103440002F900895C114D104E104F10409F5D801C5
:103450001B968D919C918F3F980709F040D5F801FC
:1034600034862386ED81FE8180819181B12CA12C4F
:10347000412C512C3201892B69F5BFEFCB1ADB0AA5
:10348000EB0AFB0AED81FE813D96FE83ED83B3CF0F
:10349000AD81BE8115962D913C91169780911502B4
:1034A0009091160228173907E9F61B968D919C9189
:1034B000C4D5D8CF8A0D9B1DDC018D919C910097BE
:1034C00009F037D4BFEF4B1A5B0A6B0A7B0AE5E0C1
:1034D000AE0EB11CAD81BE818D919C91119712965B
:1034E0004C9150E070E060E04416550666067706A1
:1034F0000CF31FD4C2CFCF93DF93EA012DDF8111EC
:1035000009C082E090E09983888385EF9FEFDF9187
:10351000CF91089581E090E00E94BA0E81E090E0A2
:103520009983888390E080E0F2CF16DF10928F03BA
:1035300010928E03089542E050E069E972E00C9425
:10354000D80EFF920F931F93CF93DF938A01EC0164
:10355000C60FD71FF980B9D20897F816190671F06F
:1035600068F082E090E0F801918380838EEF9FEF16
:10357000DF91CF911F910F91FF9008956C817D8114
:103580008E819F814B810E944E11811108C082E083
:1035900090E0F8019183808384EF9FEFE9CFF98079
:1035A0000E9449114F2D50E0BE01685F7F4F0E947D
:1035B0007B2E89810E94B81181E090E0F80191830F
:1035C000808390E080E0D4CFDF92EF92FF920F9360
:1035D0001F93CF93DF938A01EC01C60FD71F0E9480
:1035E00049117C01D98071D2DD2059F0029721E088
:1035F00030E0D816190619F010F030E020E0232B47
:1036000079F482E090E0F801918380838EEF9FEF60
:10361000DF91CF911F910F91FF90EF90DF90089570
:10362000EF2841F482E090E0F8019183808384EFF9
:103630009FEFEECFF9800E9449114F2D50E0BE015F
:103640006E5F7F4F0E947B2E89810E94B81181E0BE
:1036500090E0F8019183808390E080E0D9CF8BE9FE
:103660009AE1909399038093980308958091980329
:103670009091990308950895FC011182108293831B
:1036800082830895DB011D921C92DC011296ED915C
:10369000FC9113977183608313967C936E931297BA
:1036A0000895FC0180819181DB018D939C93A08121
:1036B000B181109741F08D919C9191838083892BEA
:1036C00011F4F383E2830895FC0180819181DB0191
:1036D0008D939C93892B11F4738362837183608330
:1036E0000895FC0111821082938382830895CF9301
:1036F000DF931F921F92CDB7DEB71A821982F8941A
:10370000BE016F5F7F4F8FE993E0CBDF89819A81A4
:10371000009709F00ED389819A81892B89F7BE0120
:103720006F5F7F4F83EA93E0BCDF89819A810097C6
:1037300009F0FFD289819A81892B89F778940F90BB
:103740000F90DF91CF910895CF93DF931F921F9237
:10375000CDB7DEB71A821982F894BE016F5F7F4F32
:103760008BE993E09EDF89819A81009709F0E1D28D
:1037700089819A81892B89F778940F900F90DF9136
:10378000CF91089581E0089590E080E00895EF9250
:10379000FF920F931F93CF93DF931F921F92CDB78A
:1037A000DEB71A82198280919A0307EF1FEF8823F0
:1037B000A1F1F894BE016F5F7F4F83EA93E071DF60
:1037C000789489819A81EE24E394F12C892B51F429
:1037D000F894BE016F5F7F4F8FE993E062DF7894CA
:1037E000F12CE12C89819A810EEF1FEF0097A9F04F
:1037F000FC014281538164E070E02CD68C01892B5E
:1038000061F0F89469817A81C701880F991F880F48
:10381000991F81569C4F58DF7894C8010F900F90E4
:10382000DF91CF911F910F91FF90EF9008950F932B
:103830001F93CF93DF9300D01F92CDB7DEB71C82CA
:103840001B821A82198280919A0307EF1FEF882347
:10385000C1F0AE014D5F5F4F64E070E0CE010196B4
:103860006CD68C01892B69F4E981FA818B819C816A
:1038700093838283F89469817A818BE993E002DFF4
:103880007894C8010F900F900F900F90DF91CF9117
:103890001F910F91089571D7049608958F929F926A
:1038A000AF92BF92CF92DF92EF92FF920F931F934E
:1038B000CF93DF931F921F92CDB7DEB71A82198282
:1038C000BC016F5F7F4F6330710598F0AA24AA9402
:1038D000BA2CC5010F900F90DF91CF911F910F91DE
:1038E000FF90EF90DF90CF90BF90AF909F908F9020
:1038F00008954115510551F3480159018A016C01A0
:10390000CADF8815990511F7E114F104F9F28E0D5B
:103910009F1DA816B906D0F280919A038823F1F072
:10392000F894B501645071099701AE014F5F5F4F84
:10393000C801049697D65C01892B71F489819A811C
:10394000F80193838283C601880F991F880F991FFE
:10395000B80181569C4F96DE7894BBCF87EFA82E96
:10396000BB24BA94B6CFAF92BF92CF92DF92EF92C0
:10397000FF920F931F93CF93DF931F921F92CDB7A8
:10398000DEB71A821982892B09F047C061157105CB
:1039900009F443C04115510509F43FC02115310513
:1039A00009F43BC001151105C1F180919A038823E8
:1039B000B9F179016A015B01F894BE016F5F7F4F35
:1039C0008BE993E06EDE789489819A81009759F1B2
:1039D000DC0112966D917C91A80104965CD68C0155
:1039E000E981FA81D501ED93FC938281938104965C
:1039F000F601918380834FDFD7018D939C93C8019B
:103A00000F900F90DF91CF911F910F91FF90EF904A
:103A1000DF90CF90BF90AF9008950FEF1FEFEFCFE3
:103A200007EF1FEFECCF0EEF1FEFE9CFCF93DF9340
:103A3000EC01672B71F4AAD68C179D0760F09DD618
:103A40002496C80FD91F9CD68C0F9D1FDF91CF9154
:103A5000089599D6F1CF90E080E0F8CF0F931F93AF
:103A6000CF93DF9320919A0321112BC08B01EC019E
:103A70008FE993E001DE83EA93E0FEDD8BE993E0DA
:103A8000FBDD86D00097C1F481D670E060E0CEDF28
:103A900043E252E062E070E078D1009769F48091EF
:103AA00023029091240284D6B801CE01B9D40097A4
:103AB00019F421E020939A03DF91CF911F910F9188
:103AC000089584EF9FEFF8CF5EC660C6CF93DF9373
:103AD00060D6EC01892B11F40ADE36DECE01DF91CF
:103AE000CF910895CF93DF9354D6EC01892B09F43D
:103AF000FEDDCE01DF91CF91089580912302909158
:103B000024020895CF93DF9380919A03D0E0C0E020
:103B10008823D1F052D6EC01892BB1F4E8DD14DE14
:103B20008091230290912402DAD1E9D2EC01892B11
:103B300059F48FE993E0D5DD83EA93E0D2DD8BE998
:103B400093E0CFDD10929A03CE01DF91CF910895DB
:103B5000CF93DF930097A1F4DF91CF910895EC010B
:103B60001A821982A883309711F0928381832F5F84
:103B70003F4FFC01860F971F4217530781F7ECCF89
:103B800030E020E0F0E0E0E0AFEF6F5F7F4FF4CF98
:103B9000CF92DF92EF92FF920F931F93CF93DF9319
:103BA0000AE914E00C7F85EAE82E82E0F82E9BEA11
:103BB000C92E92E0D92EC9EDD4E0D7014D915D9187
:103BC0007D01F601619171916F01198308835D8315
:103BD0004C835B834A837F836E839B012F5F3F4FC0
:103BE000249FC001259F900D349F900D112499872B
:103BF0008887C801ADDF88859985080F191F2A9627
:103C0000FBEAEF16F2E0FF06C1F6E9EAF3E08EEE1A
:103C1000DF011D928A95E9F71092A8031092A7037D
:103C20001092F8041092F7041092FC041092FB0416
:103C30001092FA041092F9041092FE041092FD04FE
:103C4000109200051092FF041092020510920105D7
:103C500010920605109205051092040510920305B6
:103C6000109208051092070510920A051092090596
:103C70001092D6041092D5041092D8041092D70452
:103C800090E080E0DF91CF911F910F91FF90EF9036
:103C9000DF90CF900895009799F1F89489309105BD
:103CA00050F48091DB049091DC04892B39F020E002
:103CB00090E080E018C08131910550F48091E504D6
:103CC0009091E604892B31F021E081E090E00BC077
:103CD0008197A8F48091EF049091F004892B79F0FA
:103CE00022E082E090E0EAE0E89FD001E99FB00D99
:103CF0001124A752BB4F8D919C91009721F4789489
:103D000090E080E00895E29FF0011124E752FB4F1C
:103D1000DC0111964D915C91518340834281538126
:103D20004150510953834283FC012193CF01789480
:103D30000895009749F1DC018E91853041F4E091BE
:103D4000D704F091D8043097F9F0CD01199485305B
:103D5000D8F4282F30E0F8948FEF8C938AE0829F7C
:103D6000F001839FF00D1124E752FB4F8081918178
:103D700012969C938E931197B183A0838281938135
:103D800001969383828378940895CF92DF92EF9285
:103D9000FF920F931F93CF93DF939C018CEA93E0E4
:103DA0008C7F4115510509F497C02115310509F49F
:103DB00093C06115710509F48FC07A01AB01B90197
:103DC0006D5F7F4F6C7F9B012F5F3F4F249F800172
:103DD000259F100D349F100D1124F8942091F704A5
:103DE0003091F804232B59F42091FF043091000501
:103DF0002115310569F12017310708F056C02091CF
:103E0000010530910205232B91F42091FF0430919C
:103E10000005820F931F2091090530910A05211595
:103E2000310509F43FC02017310708F052C07894DB
:103E3000CFEFDFEF86EF9FEFF701D183C083DF91F4
:103E4000CF911F910F91FF90EF90DF90CF90089549
:103E5000C3E0D0E0C090A703D090A8032BEE30E0E1
:103E60002C193D092017310710F32AE02C9FF0018F
:103E70002D9FF00D1124E752FB4F918380835583D2
:103E8000448353834283778366831187008760DE90
:103E90000C0D1D1D1093A8030093A703789490E0C8
:103EA00080E0CACFC4E0D0E0D5CFC3E0D0E02AE0C4
:103EB0002C9FF0012D9FF00D1124E752FB4F9183B1
:103EC000808355834483538342837783668340DEB4
:103ED000E5CFC4E0D0E0EBCF8FEF9FEFB0CFFF9204
:103EE0000F931F93CF93DF939C012350310922300E
:103EF000310508F070C0EC01F89484E09AE09C9FD2
:103F0000D0019D9FB00D1124AF51BB4F082F10E081
:103F1000909FF001919FF00D1124E752FB4F2081FB
:103F20003181C017D10714F1FF24F394232B41F5FD
:103F30002AE0209FF001219FF00D1124E752FB4F52
:103F40008091A7039091A80340855185841B950B10
:103F50009093A8038093A7032C9FF0012D9FF00D51
:103F60001124E752FB4F118610861CC0232B39F415
:103F70002D913C911197232BA9F48150C7CFF12C9F
:103F80008AE08C9FF0018D9FF00D1124E752FB4FCA
:103F90004085518570E060E0808191810E94842E8F
:103FA000F110C6CF8AE08C9FF0018D9FF00D112497
:103FB000E752FB4F11821082158214821382128203
:103FC00017821682789490E080E0DF91CF911F9164
:103FD0000F91FF9008958FEF9FEFF7CF4115510597
:103FE00049F1009739F16115710521F1F89420919B
:103FF000D5043091D604232BB9F42091D704309105
:10400000D804232B89F49093D6048093D50470931D
:10401000D8046093D704789425E030E090E080E005
:10402000FA0131832083089578942FEF3FEF86EFD4
:104030009FEFF6CF8FEF9FEF0895059769F4F894FF
:104040001092D6041092D5041092D8041092D7047E
:10405000789490E080E008958FEF9FEF08956115C8
:10406000710519F4F0E0E0E011C08530910581F4AC
:10407000E091D504F091D6043097A1F3CB010196DD
:104080001995009779F3FC0185E08193CF0108959C
:104090009C01235031092230310520F72AE0289F66
:1040A000D001299FB00D1124A752BB4F2D913C91F7
:1040B0001197232BB9F216962D913C91179726173D
:1040C000370780F2F89412962D913C9113972115A1
:1040D000310529F0ED91FC911197309711F4789406
:1040E000C1CF4181528111965C934E932150310989
:1040F00013963C932E93129781937894C7CFE7E958
:10410000F4E08EE3DF011D928A95E9F7E9EAF3E036
:104110008EEEDF011D928A95E9F71092A8031092A6
:10412000A703E9EDF4E082E3DF011D928A95E9F748
:10413000E5EDF4E084E0DF011D928A95E9F790E077
:1041400080E00895CF93DF93C0912502D09126029D
:10415000CF3FDC0759F4DCD39093260280932502ED
:1041600097FF09C0D0932602C093250284EF9FEFEA
:10417000DF91CF91089590E080E0FACF82309105F1
:1041800028F480930B0590E080E008958FEF9FEF77
:1041900008954F925F926F927F92AF92BF92CF92AB
:1041A000DF92EF92FF920F931F93CF93DF931F92B3
:1041B0001F92CDB7DEB71A821982009709F478C032
:1041C0006115710509F474C0209125023091260211
:1041D00007EF1FEF2F3F3F4F09F444C06B015C0115
:1041E000412C512C3201F12CE12C10E000E09E0119
:1041F0002F5F3F4FA6014E195F09B5016E0D7F1D60
:104200008091250290912602E1D3892B09F04AC0C2
:1042100089819A81009741F4E114F10429F42091F5
:104220000B05222309F441C0E80EF91EEC14FD042D
:10423000C8F480E8481684E858068EE168067104E0
:1042400018F560E070E0CB011ED72AE0420E511C49
:10425000611C711C0A3F4FEF140721F0043F8FEFE0
:104260001807A1F4C8010F900F90DF91CF911F9113
:104270000F91FF90EF90DF90CF90BF90AF907F9025
:104280006F905F904F90089501EF1FEF81E090E0F5
:10429000013F2FEF120711F090E080E0892B09F425
:1042A000A6CFE0CF04EF1FEFDDCF0AEF1FEFDACF8D
:1042B0000FEF1FEFD7CF4F925F926F927F92AF9227
:1042C000BF92CF92DF92EF92FF920F931F93CF9303
:1042D000DF931F921F92CDB7DEB71A821982009723
:1042E00009F478C06115710509F474C020912502A4
:1042F0003091260207EF1FEF2F3F3F4F09F444C0D4
:104300006B015C01412C512C3201F12CE12C10E0AD
:1043100000E09E012F5F3F4FA6014E195F09B501D6
:104320006E0D7F1D809125029091260205D3892B69
:1043300009F04AC089819A81009741F4E114F1049F
:1043400029F420910B05222309F441C0E80EF91E3F
:10435000EC14FD04C8F480E8481686E9580688E99C
:104360006806710418F560E070E0CB018CD62AE095
:10437000420E511C611C711C0E3F4FEF140721F0BF
:10438000043F8FEF1807A1F4C8010F900F90DF9141
:10439000CF911F910F91FF90EF90DF90CF90BF9042
:1043A000AF907F906F905F904F90089502EF1FEF56
:1043B00081E090E0023F2FEF120711F090E080E0E3
:1043C000892B09F4A6CFE0CF04EF1FEFDDCF0EEF6E
:1043D0001FEFDACF0FEF1FEFD7CF8091250290911B
:1043E00026028F3F980749F08BD2892B49F48FEF33
:1043F0009FEF909326028093250290E080E008953D
:1044000084EF9FEF0895FC01680F791F90E080E032
:10441000E617F70709F408952191820F911DF8CF4F
:1044200020910C05211113C08DDE009791F410929C
:104430001205109211051092100510920F0510929E
:104440000E0510920D0521E020930C05089584EFD0
:104450009FEF0895AF92BF92CF92DF92EF92FF92BB
:104460000F931F93CF93DF93009709F460C04630FA
:10447000510508F45CC020910C05C7EFDFEF222343
:1044800009F449C08C01060F171FF801C080D180C4
:10449000C114D10409F44EC096012A5F3F4F421760
:1044A000530708F447C07C018091110590911205D3
:1044B00093838283B6016C5F7F4F5801A60EB71EAF
:1044C000C801A1DFF5019183808364E070E0C80139
:1044D00060DEEC01892BF9F481E090E04FDEB6015B
:1044E000C801049656DEEC01892B91F462E070E07D
:1044F000C5014FDEEC01892B59F4C7011ADC80910C
:104500001105909112050196909312058093110563
:1045100090E080E033DECE01DF91CF911F910F91CB
:10452000FF90EF90DF90CF90BF90AF900895CFEFC6
:10453000DFEFF1CFC9EFDFEFEECF6F927F928F9277
:104540009F92AF92BF92CF92DF92EF92FF920F9322
:104550001F93CF93DF9300D01F92CDB7DEB70097A4
:1045600009F47AC04115510509F476C020910C0573
:1045700007EF1FEF222309F44DC03A017B015C01D4
:1045800064E070E0CE01019696DE8C01892B09F083
:1045900041C009811A810115110509F45AC0480169
:1045A00086E0880E911CB701680D791D8091270265
:1045B0009091280254DD6C01009709F450C0A701C6
:1045C00070E060E00E94842E89819A81AB81BC8179
:1045D000EC0CFD1CF70181939193A193B1937F01A2
:1045E00081E090E0CBDDB801C70165DE892B31F5B4
:1045F00062E070E0C701800F911F5DDE8C01892BA6
:10460000E9F490E080E0BADDF501D182C082F301E7
:1046100091828082C8010F900F900F900F90DF91D0
:10462000CF911F910F91FF90EF90DF90CF90BF90AF
:10463000AF909F908F907F906F90089590E080E072
:104640009DDDF50111821082F30111821082C601F5
:1046500070DB09EF1FEFDECF0FEF1FEFDBCF06EFB1
:104660001FEFD8CF0097A1F04115510589F0211512
:10467000310571F0F90136966E177F0748F0DC01BD
:104680002D933C93DA01ED93FC9390E080E0089544
:104690008FEF9FEF0895AF92BF92CF92DF92EF928C
:1046A000FF920F931F93CF93DF93009709F45FC09E
:1046B0004115510509F45BC06530710508F457C018
:1046C00020910C05C7EFDFEF222391F1DC01CD90A3
:1046D000DC9011971296ED91FC9196012A5F3F4F65
:1046E000C9EFDFEF2617370719F5C0910D05D091F7
:1046F0000E05209749F521E030E030930E05209318
:104700000D057A018C01F0931005E0930F05560119
:10471000B4E0AB0EB11CB50176DE0A0D1B1DF8012D
:10472000208131818217930729F5D701CD92DC9240
:10473000CE01DF91CF911F910F91FF90EF90DF900D
:10474000CF90BF90AF90089520910F053091100544
:104750002F5F3F4FCCEFDFEFE217F30790F2CBEF85
:10476000DFEF2E173F0768F2D0E0C0E0CACFCFEFEF
:10477000DFEFDECFC3EFDFEFDBCF84E090E0089523
:1047800082E090E008958CEF9FEF089580E290E042
:1047900008951092120510921105109210051092B2
:1047A0000F0510920E0510920D0590E080E008951F
:1047B0009093280280932702089580910C05882306
:1047C00091F00BDE009789F41092120510921105FA
:1047D0001092100510920F0510920E0510920D0503
:1047E00010920C05089590E080E00895009749F03C
:1047F0006115710531F0FC0111821082FB011182FB
:1048000010820895F3CF40E855E260E070E090E058
:1048100080E000C08130910571F01CF4892B39F0E3
:1048200008958230910559F0039769F0089526E0C4
:1048300080E295E050C726E08DEB95E0FBCF26E0C7
:104840008AE596E0F7CF26E087EF96E0F3CF1F9258
:104850000F920FB60F9211240BB60F922F933F9326
:104860004F935F936F937F938F939F93AF93BF9378
:10487000EF93FF938BEC93EF9093250180932401AA
:10488000B9D0FF91EF91BF91AF919F918F917F919F
:104890006F915F914F913F912F910F900BBE0F90B1
:1048A0000FBE0F901F9018958BEC93EF90932501FE
:1048B00080932401A3E7B0E08C918E7F8C93E0E29B
:1048C000F1E080818C7F8083E1E2F1E08081877E6E
:1048D000808380818560808380818D7F80838C91BF
:1048E00081608C930895E3E7F0E0808190819E7F62
:1048F00090838170089581E00895109213050895C2
:1049000068EE73E080E090E0BED390E080E0089530
:1049100026E040E050E16EE070E080E295E0DBD61A
:1049200080E295E00ED6892B21F080E295E023D637
:10493000F7CF90E080E00895CF92DF92EF92FF9260
:104940000F931F93CF93DF936B017A01E9011982D3
:10495000188280E295E0F5D5892B69F18601CC2497
:10496000C39482E0D82E80911305811110C080E29B
:1049700095E001D60297B9F7C0921305F801D192DC
:104980008F0188819981019699838883ECCF8881F2
:1049900099818E159F0578F480E295E0ECD58F3FE4
:1049A0009807A9F3F80181938F0188819981019675
:1049B00099838883ECCF90E080E0DF91CF911F91C5
:1049C0000F91FF90EF90DF90CF9008950F931F937A
:1049D000CF93DF93EA01890180E295E00E94FB2DED
:1049E000F801D183C08390E080E0DF91CF911F91E7
:1049F0000F910895CF92DF92EF92FF92CF93DF93C2
:104A00008091140591E0980F90931405882379F014
:104A100021E030E0309316052093150580931405AE
:104A2000DF91CF91FF90EF90DF90CF900895789431
:104A3000C0912B02D0912C026E8D7F8D88A199A1FF
:104A400047D120E030E040E85FE44BD26B017C01CD
:104A50006A8D7B8D8C8D9D8D3BD19B01AC01C701F7
:104A6000B6018AD009D16B017C010E94A005B70173
:104A7000A60190E080E00E94CF04F8948091140594
:104A80008150CCCFCF93DF931092E4071092E307CD
:104A900030D3B9DEC0912B02D0912C02198218823A
:104AA0006FEF7FEFCB010E94460570E060E090E081
:104AB00080E00E94D7030097A9F50E94DE06F894D3
:104AC0007894BE016A5D7F4F8A819B810E94DA03E0
:104AD000892B59F46FEF7FEFCB010E9465040E9490
:104AE0004005882311F081E08AA7F894DDDE0E945A
:104AF0004305811104C00E94400591E0811190E0BE
:104B00009093E30778940E94B50EEC01789480911D
:104B1000E30781110AC00E94BE070E942805F8948D
:104B200090E080E0DF91CF9108950E9426050E94D9
:104B3000430591E0811106C00E94400591E081117A
:104B400001C090E09093E4079091E40781E0911117
:104B500080E08093E3078091E4078111C4DE219710
:104B600029F40E94B50E892B09F4C7DE0E94B50E08
:104B7000EC01C1DECCCF5058BB27AA270ED05CC1B8
:104B80004DD130F052D120F031F49F3F11F41EF49A
:104B900042C10EF4E095E7FB0FC1E92F5ED180F32F
:104BA000BA17620773078407950718F071F49EF52A
:104BB0008DC10EF4E0950B2EBA2FA02D0B01B9017B
:104BC00090010C01CA01A0011124FF27591B99F083
:104BD000593F50F4503E68F11A16F040A22F232F8F
:104BE000342F4427585FF3CF469537952795A795DF
:104BF000F0405395C9F77EF41F16BA0B620B730B86
:104C0000840BBAF09150A1F0FF0FBB1F661F771FF6
:104C1000881FC2F70EC0BA0F621F731F841F48F4AB
:104C2000879577956795B795F7959E3F08F0B3CF31
:104C30009395880F08F09927EE0F9795879508951B
:104C40002ED180F09F3740F491110EF440C160E006
:104C500070E080E89FE3089526F01B16611D711D2A
:104C6000811DB0C0CAC084D008F481E0089504D08A
:104C70006894B1112CC10895F8D088F09F5790F036
:104C8000B92F9927B751A0F0D1F0660F771F881F71
:104C9000991F1AF0BA95C9F712C0B13081F016D138
:104CA000B1E0089513C1672F782F8827B85F39F0D6
:104CB000B93FCCF3869577956795B395D9F73EF4D0
:104CC00090958095709561957F4F8F4F9F4F089578
:104CD000E89409C097FB3EF4909580957095619596
:104CE0007F4F8F4F9F4F9923A9F0F92F96E9BB274C
:104CF0009395F695879577956795B795F111F8CFC8
:104D0000FAF4BB0F11F460FF1BC06F5F7F4F8F4F32
:104D10009F4F16C0882311F096E911C0772321F028
:104D20009EE8872F762F05C0662371F096E8862FC0
:104D300070E060E02AF09A95660F771F881FDAF717
:104D4000880F9695879597F90895A9D080F09F3799
:104D500040F491110EF0BBC060E070E080E89FEB82
:104D6000089526F41B16611D711D811D2BC045C0C1
:104D7000990F0008550FAA0BE0E8FEEF161617066C
:104D8000E807F907C0F012161306E407F50798F0D4
:104D9000621B730B840B950B39F40A2661F0232BED
:104DA000242B252B21F408950A2609F4A140A69569
:104DB0008FEF811D811D089597F99F6780E870E04E
:104DC00060E00895882371F4772321F09850872BB1
:104DD000762F07C0662311F499270DC09051862BBA
:104DE00070E060E02AF09A95660F771F881FDAF767
:104DF000880F9695879597F908959F3F31F09150C8
:104E000020F4879577956795B795880F911D9695AE
:104E1000879597F908959FEF80EC089500240A94F0
:104E20001616170618060906089500240A94121685
:104E30001306140605060895092E0394000C11F4B8
:104E4000882352F0BB0F40F4BF2B11F460FF04C065
:104E50006F5F7F4F8F4F9F4F089557FD9058440FBE
:104E6000551F59F05F3F71F04795880F97FB991FC9
:104E700061F09F3F79F08795089512161306140686
:104E8000551FF2CF4695F1DF08C016161706180613
:104E9000991FF1CF86957105610508940895E5DFA6
:104EA000A0F0BEE7B91788F4BB279F3860F4161648
:104EB000B11D672F782F8827985FF7CF8695779554
:104EC0006795B11D93959639C8F30895E894BB276B
:104ED00066277727CB0197F908954ADF08F48FEF0B
:104EE00008950BD0A9CF9ADF28F09FDF18F0952303
:104EF00009F062CF90CF1124EACFAFDFA0F3959FE6
:104F0000D1F3950F50E0551F629FF001729FBB27B0
:104F1000F00DB11D639FAA27F00DB11DAA1F649F5C
:104F20006627B00DA11D661F829F2227B00DA11D0F
:104F3000621F739FB00DA11D621F839FA00D611D95
:104F4000221F749F3327A00D611D231F849F600DB6
:104F5000211D822F762F6A2F11249F5750408AF0EF
:104F6000E1F088234AF0EE0FFF1FBB1F661F771F7B
:104F7000881F91505040A9F79E3F510570F01CCFFB
:104F8000A6CF5F3FECF3983EDCF386957795679567
:104F9000B795F795E7959F5FC1F7FE2B880F911D99
:104FA0009695879597F908951F920F920FB60F92D5
:104FB00011242F933F938F939F93AF93BF9380912F
:104FC000180590911905A0911A05B0911B05309113
:104FD000170523E0230F2D3758F50196A11DB11DAC
:104FE000209317058093180590931905A0931A052F
:104FF000B0931B0580911C0590911D05A0911E0585
:10500000B0911F050196A11DB11D80931C059093C1
:105010001D05A0931E05B0931F05BF91AF919F91F1
:105020008F913F912F910F900FBE0F901F90189569
:1050300026E8230F0296A11DB11DD2CF3FB7F894E9
:1050400080911C0590911D05A0911E05B0911F0532
:1050500026B5A89B05C02F3F19F00196A11DB11DD3
:105060003FBFBA2FA92F982F8827BC01CD01620F0F
:10507000711D811D911D42E0660F771F881F991FCA
:105080004A95D1F708958F929F92AF92BF92CF9297
:10509000DF92EF92FF926B017C01D0DF4B015C014C
:1050A000C114D104E104F104D9F0D2D5C7DF6819E5
:1050B00079098A099B09683E73408105910580F34F
:1050C00021E0C21AD108E108F10888EE880E83E0D9
:1050D000981EA11CB11CC114D104E104F10431F7E4
:1050E000FF90EF90DF90CF90BF90AF909F908F9008
:1050F0000895789484B5826084BD84B5816084BD50
:1051000085B5826085BD85B5816085BDEEE6F0E040
:10511000808181608083E1E8F0E01082808182609C
:105120008083808181608083E0E8F0E0808181601D
:105130008083E1EBF0E0808184608083E0EBF0E04D
:10514000808181608083E1E9F0E0808182608083FA
:10515000808181608083E0E9F0E0808181608083EC
:10516000E1EAF0E0808182608083808181608083D9
:10517000E0EAF0E0808181608083E1E2F1E080811B
:1051800082608083808181608083E0E2F1E08081C1
:1051900081608083EAE7F0E08081846080838081A1
:1051A0008260808380818160808380818068808349
:1051B0001092C1000895863308F0865320917B0039
:1051C000982F9870277F922B90937B002091290233
:1051D00090E4299F900111248770822B80937C009A
:1051E00080917A00806480937A0080917A0086FDB5
:1051F000FCCF809178009091790008951F93CF9310
:10520000DF93182FEB0161E033D1209731F460E098
:10521000812FDF91CF911F9167C1CF3FD10511F44D
:1052200061E0F6CFE12FF0E0EC51FF4FE491E15067
:10523000E23108F0B2C0F0E08827EF5DF64D8F4F05
:1052400039C533293B2940294A295429CD295E29CA
:1052500066296E29782982298C299B29A529CD299F
:10526000AF29B929C32984B5806884BDC7BDDF9142
:10527000CF911F91089584B5806284BDC8BDF7CFDA
:1052800080918000806880938000D0938900C093D3
:105290008800EDCF80918000806280938000D09361
:1052A0008B00C0938A00E3CF809180008860809358
:1052B0008000D0938D00C0938C00D9CF8091B00036
:1052C00080688093B000C093B300D1CF8091B000CC
:1052D00080628093B000C093B400C9CF80919000E9
:1052E000806880939000D0939900C0939800BFCFBE
:1052F00080919000806280939000D0939B00C09337
:105300009A00B5CF80919000886080939000D093F0
:105310009D00C0939C00ABCF8091A00080688093DB
:10532000A0008091A0008F7B8093A000D093A90063
:10533000C093A8009CCF8091A00080628093A000C1
:10534000D093AB00C093AA0092CF8091A000886058
:105350008093A000D093AD00C093AC0088CF809123
:105360002001806880932001D0932901C0932801F7
:105370007ECF80912001806280932001D0932B0109
:10538000C0932A0174CF809120018860809320010E
:10539000D0932D01C0932C016ACFC038D1050CF0F9
:1053A0003FCF35CF8150823108F059C0E82FF0E06F
:1053B0008827E352F64D8F4F7DC4FD29012AEF293E
:1053C000F529F9292F2A042A0A2A0E2A142A182A2A
:1053D0001C2A222A262A2F2A2A2A302A342A809175
:1053E00080008F77809380000895809180008F7D6A
:1053F000F9CF80918000877FF5CF84B58F7784BD0A
:10540000089584B58F7DFBCF8091B0008F77809316
:10541000B00008958091B0008F7DF9CF8091900009
:105420008F77809390000895809190008F7DF9CFC1
:1054300080919000877FF5CF8091A0008F77809337
:10544000A00008958091A0008F7DF9CF8091A000E9
:10545000877FF5CF809120018F7780932001089579
:10546000809120018F7DF9CF80912001877FF5CF3A
:10547000CF93DF9390E0FC01E65DFE4F24918059CD
:105480009E4FFC0184918823C9F090E0880F991FFA
:10549000FC01E053FE4FA591B491FC01EA54FE4F8C
:1054A000C591D49161110DC09FB7F8948C9120954E
:1054B00082238C938881282328839FBFDF91CF91FB
:1054C0000895623051F49FB7F8943C91822F8095F3
:1054D00083238C93E8812E2BEFCF8FB7F894EC9138
:1054E0002E2B2C938FBFEACF1F93CF93DF93282FC0
:1054F00030E0F901EC51FF4F8491F901E65DFE4F78
:10550000D491F901E059FE4FC491CC23A1F0162F9C
:10551000811148DFEC2FF0E0EE0FFF1FEA54FE4F41
:10552000A591B4918FB7F894EC91111108C0D09562
:10553000DE23DC938FBFDF91CF911F910895DE2B87
:10554000F8CFFC01918D228D892F90E0805C9F4FD8
:10555000821B91098F7399270895FC01918D828D8B
:10556000981731F0828DE80FF11D858D90E0089538
:105570008FEF9FEF0895FC01918D828D981761F058
:10558000A28DAE0FBF2FB11D5D968C91928D9F5F46
:105590009F73928F90E008958FEF9FEF0895FC0125
:1055A000538D448D252F30E0842F90E0821B930B88
:1055B000541710F0CF96089501970895FC01A48D1B
:1055C000A80FB92FB11DA35ABF4F2C91848D90E025
:1055D00001968F739927848FA689B7892C93A08908
:1055E000B1898C91837080648C93938D848D981392
:1055F00006C00288F389E02D80818F7D8083089525
:10560000CF93DF93EC01888D8823B1F0AA89BB8901
:10561000E889F9898C9185FD03C0808186FD0CC0E5
:105620000FB607FCF7CF8C9185FFF2CF808185FF05
:10563000EDCFCE01C3DFEACFDF91CF910895EF9296
:10564000FF920F931F93CF93DF93EC0181E0888F3C
:105650009B8D8C8D98131AC0E889F989808185FF0C
:1056600015C09FB7F894EE89FF896083E889F989AE
:1056700080818370806480839FBF81E090E0DF91B0
:10568000CF911F910F91FF90EF900895F62E0B8D03
:1056900010E00F5F1F4F0F731127E02E8C8D8E11BE
:1056A0000BC00FB607FCFACFE889F989808185FF26
:1056B000F5CFCE0183DFF2CFEB8DEC0FFD2FF11D87
:1056C000E35AFF4FF0829FB7F8940B8FEA89FB896A
:1056D00080818062D0CFCF92DF92EF92FF921F93B2
:1056E000CF93DF93EC016A017B01122FE889F989DE
:1056F00082E08083C11481EED806E104F10499F0C0
:1057000060E079E08DE390E0A7019601B1D22150ED
:105710003109410951095695479537952795211526
:1057200080E1380790F0E889F989108260E874E830
:105730008EE190E0A70196019BD2215031094109E9
:1057400051095695479537952795EC85FD8530830A
:10575000EE85FF852083188EEC89FD891083EA8908
:10576000FB89808180618083EA89FB8980818860F0
:105770008083EA89FB89808180688083EA89FB894C
:1057800080818F7D8083DF91CF911F91FF90EF907B
:10579000DF90CF9008951F920F920FB60F921124B1
:1057A0000BB60F922F938F939F93EF93FF93E091FC
:1057B0003005F09131058081E0913605F091370593
:1057C00082FD1DC09081809139058F5F8F7320917C
:1057D0003A05821741F0E0913905F0E0E05EFA4FBA
:1057E000958F80933905FF91EF919F918F912F9124
:1057F0000F900BBE0F900FBE0F901F9018958081D9
:10580000F2CF1F920F920FB60F9211240BB60F9288
:105810002F933F934F935F936F937F938F939F93B8
:10582000AF93BF93EF93FF9380E295E0C7DEFF91C4
:10583000EF91BF91AF919F918F917F916F915F9108
:105840004F913F912F910F900BBE0F900FBE0F9075
:105850001F901895E0E2F5E01382128288EE93E043
:10586000A0E0B0E084839583A683B78385EB92E0C4
:105870009183808385EC90E09587848784EC90E029
:105880009787868780EC90E0918B808B81EC90E00D
:10589000938B828B82EC90E0958B848B86EC90E0EE
:1058A000978B868B118E128E138E148E08951F92F5
:1058B0000F920FB60F9211240BB60F922F938F9366
:1058C0009F93EF93FF93E091CD05F091CE058081FA
:1058D000E091D305F091D40582FD1DC090818091A7
:1058E000D6058F5F8F732091D705821741F0E09125
:1058F000D605F0E0E354FA4F958F8093D605FF91DB
:10590000EF919F918F912F910F900BBE0F900FBE33
:105910000F901F9018958081F2CF1F920F920FB6B3
:105920000F9211240BB60F922F933F934F935F93D7
:105930006F937F938F939F93AF93BF93EF93FF9357
:105940008DEB95E03BDEFF91EF91BF91AF919F9181
:105950008F917F916F915F914F913F912F910F9018
:105960000BBE0F900FBE0F901F901895EDEBF5E05A
:105970001382128288EE93E0A0E0B0E084839583E6
:10598000A683B78385EB92E0918380838DEC90E0D2
:10599000958784878CEC90E09787868788EC90E0E9
:1059A000918B808B89EC90E0938B828B8AEC90E0DA
:1059B000958B848B8EEC90E0978B868B118E128E5C
:1059C000138E148E08951F920F920FB60F9211240A
:1059D0000BB60F922F938F939F93EF93FF93E091CA
:1059E0006A06F0916B068081E0917006F091710675
:1059F00082FD1DC09081809173068F5F8F7320910F
:105A00007406821741F0E0917306F0E0E65AF94F10
:105A1000958F80937306FF91EF919F918F912F91B6
:105A20000F900BBE0F900FBE0F901F9018958081A6
:105A3000F2CF1F920F920FB60F9211240BB60F9256
:105A40002F933F934F935F936F937F938F939F9386
:105A5000AF93BF93EF93FF938AE596E0AFDDFF919D
:105A6000EF91BF91AF919F918F917F916F915F91D6
:105A70004F913F912F910F900BBE0F900FBE0F9043
:105A80001F901895EAE5F6E01382128288EE93E003
:105A9000A0E0B0E084839583A683B78385EB92E092
:105AA0009183808385ED90E09587848784ED90E0F5
:105AB0009787868780ED90E0918B808B81ED90E0D9
:105AC000938B828B82ED90E0958B848B86ED90E0BA
:105AD000978B868B118E128E138E148E08951F92C3
